:020000040020DA
:10200000301700208D2220009F6220009D6220005A
:102010009D6220009D6220009D6220000000000063
:1020200000000000000000000000000037692000F0
:102030009D6220000000000055692000016320001F
:1020400013632000196320001F6320002563200014
:1020500000000000076320000D6320009D62200047
:102060009D62200000000000000000000000000051
:1020700000000000000000009D6220000000000041
:1020800000000000000000009D6220009D62200012
:102090009D6220009D6220009D6220009D622000C4
:1020A0009D6220009D6220009D6220009D622000B4
:1020B0009D6220009D6220009D6220009D622000A4
:1020C0009D6220009D6220009D6220009D62200094
:1020D0009D622000000000000000000000000000E1
:1020E00000000000000000000000000000000000F0
:1020F0000000000000000000053820001538200016
:1021000000000000000000000000000000000000CF
:1021100000000000000000000000000000000000BF
:1021200000000000000000000000000000000000AF
:10213000000000000000000000000000000000009F
:10214000000000000000000000000000000000008F
:10215000000000000000000000000000000000007F
:10216000000000000000000000000000000000006F
:10217000000000000000000000000000000000005F
:10218000000000000000000000000000000000004F
:10219000000000000000000000000000000000003F
:1021A000000000000000000000000000000000002F
:1021B000000000000000000000000000000000001F
:1021C000000000000000000000000000000000000F
:1021D00000000000000000000000000000000000FF
:1021E00000000000000000000000000000000000EF
:1021F00000000000000000000000000000000000DF
:1022000000000000000000000000000000000000CE
:1022100000000000000000000000000000000000BE
:1022200000000000000000000000000000000000AE
:10223000000000000000000000000000000000009E
:10224000000000000000000000000000000000008E
:10225000000000000000000000000000000000007E
:10226000000000000000000000000000000000006E
:102270009D622000E93620000D3720009D2D2000B2
:1022800079392000C52820009D622000FF224824C3
:1022900008B5084B08481A60084AE369121A084949
:1022A00098470848084AA369121A0021984700F085
:1022B0000DF8FEE7B4200D4040000020480100204A
:1022C00064742000480100202F0F002073B500F037
:1022D00047FC00F0FFFC00F05DFC00F061FA01F04B
:1022E00039FB04F0B2F800F0EDFC00F0B3F8012087
:1022F00003F0D8FF02F0FCF800F01EFC002000F014
:1023000039FB012000F036FB4049002000F0FEFBC5
:1023100002F024FA62B6042003F0C4FF3C4804F043
:1023200026F83C4804F023F800F0D8F9002002F029
:10233000C1FA01F0FFF90021374802F067F901F016
:1023400045FF03F0DBFF00F04DFD00F069FD02F0FA
:1023500027FE0821684601F023FB9DF806309DF812
:1023600007502E4C45EA0325BDF806302C48238043
:1023700001F050FB2B4E21782B4801F04BFB61788C
:102380002A4801F047FBF46A4AF6CD310220A04703
:1023900029460320A0471A210120A04708226946A8
:1023A000736B0B209847224801F034FB214B1868CF
:1023B00003F0DDFF204801F02DFB204B186803F0EF
:1023C000D6FF1F4801F026FB1E4B186803F0CFFF15
:1023D00000211D4802F01AF91C4B01219B68812045
:1023E000984704F01DF81A4804F010F800F0AAFB12
:1023F000022003F057FF00F0ABFB02F091F810F061
:10240000FF0FF8D101F03AFAF5E700BF15472000B9
:10241000EE6F20000070200078000020260F0020C2
:1024200025702000786E2000437020004970200045
:102430004F7020004C6F2000567020007C6F2000F1
:102440005D702000986F200098000020006E200032
:10245000D46F200008B500F0E5F80022014B1A7097
:1024600008BD00BFAC0D0020024A1378184310705D
:1024700000F0FCB8AC0D0020034A137823EA0000FA
:10248000107000F0F3B800BFAC0D0020024A1378C2
:102490005840107000F0EAB8AC0D002018B10128C7
:1024A00004D000207047034B18687047024B18781F
:1024B000704700BF20900D40AD0D002010B5094AB7
:1024C0000020137801331370074B197802F076F867
:1024D000BDE8104005490023054A0968054801F098
:1024E000ABBE00BFAD0D0020280F002080010020F2
:1024F000BD24200060010020812808B52BD0B0F554
:10250000807F3AD0802824D101F0EAFF1C4B1D4A7D
:1025100018701368032123F00803136052F8203C5D
:10252000002023F0080342F8203C52F81C3C23F022
:10253000080342F81C3C52F8183C43F0080342F8E8
:10254000183C042200F0D4FB032200210E4800F0C6
:1025500073FB012108E00D4B0D481A6831B142F0C0
:1025600008021A6001230360084608BD22F0080231
:102570001A600123C0F88030F6E7064B1960E8E7DF
:10258000280F002020940D409925200010940D4024
:1025900000E100E08001002008B50F4803F05EFF75
:1025A000C8B108210C4803F052FF0C4B196849B11F
:1025B00000220B4B1A700B4B1B6843B90A4A0B489D
:1025C00001F03AFEBDE80840094802F043B9074867
:1025D00001F03CFEF6E708BD580100208001002014
:1025E000AD0D002020900D40BD2420006001002092
:1025F000006E2000084A136823F00403136052F8A9
:10260000203C43F0040342F8203C0022034B1A60B4
:102610000122034B1A70704720C40D4010C00D40BA
:10262000AE0D00200D4A0E49136823F0C00313605D
:1026300052F8203C43F0C00342F8203C0022094BF2
:102640001A600B6823F010030B6051F8203C43F034
:10265000100341F8203C044B1A60704720A40D4041
:1026600020C40D4000A30D4040C00D4010F00202F8
:1026700018BFFF22084B1A6010F0040218BFFF2297
:10268000064B10F001001A6018BFFF22044B14BF64
:102690001A601860704700BF00A20D4000A10D40F5
:1026A00040C00D40044B1868C0F30720030904BF65
:1026B0001030C0B2704700BF1C300D40064B186888
:1026C000C00910F0060F03BF00F00700C0F10200C0
:1026D00040034FF40040704714300D402DE9F0479F
:1026E000482588B0FFF7DEFF164B07461C68AB682D
:1026F00098476B68804698470546FFF7DFFF064618
:1027000000F082FA814600F08BFA824600F038FA37
:10271000B60A04F00103AD0AC4F34004CDE905A0F4
:102720000393CDF8109002940196009507F00F03E3
:10273000C7F307124146044801F06CF908B0BDE840
:10274000F08700BF1C300D406B7020002DE9F8436E
:1027500000F07AF810490246D1E90045AC46A042A3
:1027600038BF05F1010C6346C1E900230B48D0E9ED
:102770000089B8EB040169EB05048E1844EB0C07E3
:10278000C0E9006701F016FE18B1BDE8F84301F09A
:1027900095BDBDE8F88300BF50010020480100202E
:1027A000E0210D4B0D4A5A600D4A82F82310002299
:1027B00007219A6019600B490B6843F001030B6015
:1027C000094B1A60042243F80C2C012243F8082C10
:1027D0000F22DA62704700BF10E000E047E8010016
:1027E00000ED00E008200D400C000340034BD3E94E
:1027F0000023100A40EA0360704700BF5001002028
:10280000054B18601C3B1A6842F001021A601A68F6
:10281000D207FCD4704700BF2800034010B5064C17
:10282000236823F001032360FFF790FF236843F040
:102830000103236010BD00BF10E000E0014B1868E9
:10284000704700BF84010020064B18685A6808339F
:102850001B681B0443EA0223034A0343106843EA4C
:102860000060704740500D404C500D40014608B587
:10287000104A1368DB07FCD572B6FFF7E5FF0B1AA9
:10288000062BD8BFC11D0C4B0A0E1A60C1F30742BC
:1028900043F8042CC1F3072243F8082CCAB243F8CA
:1028A0000C2C62B64FF40032044B1960044B1A61D1
:1028B00008BD00BF50500D404C500D408401002019
:1028C00000E100E008B500F0C1FF0022064B1A60ED
:1028D0004FF40032054BC3F89021C3F89020BDE8B7
:1028E000084001F0B7BE00BF8401002000E100E015
:1028F0002C23154A70B503FB00234FF6BF72DC682A
:102900000546236C626413F050020DD00F4EA3698C
:10291000DB0600D570BD56F825301BB12068C0B26B
:102920009847F4E72368F2E713F4D06FF2D04FF43E
:1029300040732363FF236360E36AE262E362236B15
:1029400043F001032363E5E7106E200088010020B7
:10295000064B1B681B075FBF054B186880F008001B
:10296000C0F3C00048BF0020704700BF18C000403F
:1029700018D0004001282DE9F74F064600F2B48038
:102980002C2545435A4F7C1994F92080B8F1000F4B
:10299000C0F2AA8094F92290B9F1000FC0F2A4808D
:1029A000544800F0C5FF544A79591368E5680B4351
:1029B00013605368616894F921A00B4353609368D6
:1029C000A1685FFA89FB0B4393600023C5F8C83FF9
:1029D00023690AEBC8021A6094F92330227D009320
:1029E0009DF8003058461946019300F08BF9019B81
:1029F00008221946584600F07BF901233F494FEA67
:102A00000939009A59F8010003FA02F2024349F821
:102A100001204FEA083858F8010003FA0AF202438D
:102A200048F801205022AA63AA6B94F9240042F4CA
:102A3000D062AA6302226A634FF440722A63A269D9
:102A400000286A62E269AA624FF07002EA620D46EB
:102A500014DB94F925102A4A41EAC00414600203E9
:102A600054598B4023435351C9B20022C0B200F0E5
:102A70003FF9244A136843F4004313602C2303FBFB
:102A8000067393F92640002C1BDB93F927A05FFA0D
:102A900084F85FFA8AF901224946404600F032F98B
:102AA00001232403625903FA0AF3134363510822F2
:102AB0004946404600F01CF9124A136843F480432B
:102AC00013602C2303FB0676F268136B43F00103BB
:102AD0001363012296F82830590903F01F0302FA04
:102AE00003F3094A42F8213003B0BDE8F08F00BF7C
:102AF000106E20005129200028200D4020940D4008
:102B000004410D4030D0004000E100E001289CBFAE
:102B1000014B43F82010704788010020012808D895
:102B20002C22044B02FB0030C3689A699206FCD445
:102B300019607047106E20000022014B1A60704728
:102B400000500D400822014B1A60704700500D40A4
:102B5000A022024B1A6050221A60704700500D40AC
:102B6000014A024B9A6070470020200000ED00E00F
:102B7000024B1868C0F38150704700BF04200D401D
:102B800008B5FFF7F5FF024B53F8200008BD00BF62
:102B9000686E200038B5164D164C2B68012223F0C4
:102BA00040032B602368062123F0400323600320A9
:102BB00000F09EF82B68012223F080032B6023682D
:102BC000072123F080032360032000F091F80A4BD3
:102BD0000A4A0B491A600B4A134610680842FCD196
:102BE0001A685101FCD41A685201FCD538BD00BFE7
:102BF00020C40D4000C40D4000200D400101020022
:102C00000000010104200D40034B04481B6803F041
:102C100007031841704700BF04200D400048E80139
:102C2000034B04481B68C3F302231841704700BFDD
:102C300004200D400048E801024B02EBC10243F8BA
:102C40002200704790010020F8B507460E46002488
:102C5000084D05EB411547FA04F3DB07E1B204D553
:102C600055F824300BB1304698470134082CF2D186
:102C7000F8BD00BF900100202DE9F8430746DFF8BA
:102C8000408000F0E3FD0C4B3D03EE5855F8084042
:102C90004FEAC70924FA09F446EA04003946C0B2EB
:102CA000FFF7D2FFE4B2054BF6B204FA09F4EE5096
:102CB00045F80840BDE8F88318940D401C940D4079
:102CC00018970D4080220021014803F097BA00BFF9
:102CD00090010020034B044A1A60044B803A1A60AA
:102CE000704700BF1002002080400D4014020020F9
:102CF000034B01EBC0011B6843F82120704700BF64
:102D000010020020034B01EBC0011B6843F8212097
:102D1000704700BF140200200E28F0B50BD1154DEE
:102D2000154F2C6844F002032B603D6825F03F06E8
:102D300046F001063E60114E336823F0FF03134353
:102D40000B4303430E4A336013681B06FCD50D4B3F
:102D50000D4A1B6812680E2803F0FC0343EA0223A5
:102D600008BF054A1BB204BF1560024A184608BFD7
:102D70001460F0BD34000144F486084008700D4032
:102D800000700D400C700D4010700D40024B186823
:102D9000B0FA80F04009704700B708404FF4004295
:102DA000064B10B5064CC3F89021C3F8902020685C
:102DB00018B101F043FC0023236010BD00E100E0E6
:102DC00018020020064A136843F002031360536898
:102DD00043F002035360936843F00203936070472B
:102DE00048200D4007B50C4800F0A2FDFFF7EAFFB0
:102DF0000A4B1A6842F002021A6000220192019AFC
:102E00000F2A06DD1A6822F002021A6003B05DF88C
:102E100004FB019A0132F1E78D2D200054200D4072
:102E2000064A136823F002031360536823F0020379
:102E30005360936823F002039360704748200D406D
:102E40000B4B1A689207FCD41B685B065FBFED2230
:102E5000084B1A601A60084B1B6813B1EF22054B30
:102E60001A60064A0120137803F07F03137070473D
:102E70004C860840388808402C860840B10D002058
:102E8000044B186800F02200A0F12003584258417A
:102E9000704700BF4C860840024B186800F04000A5
:102EA000704700BF4C860840044B1A6818B142F0C6
:102EB00001021A60704722F00102FAE7008608401A
:102EC000204B1870002832D01F4A13681B03FCD512
:102ED0001E4B1A6842F002021A601A6842F00102A0
:102EE0001A601A685007FCD51A6822F001021A60AD
:102EF0001A685107FCD41A6842F002021A601A6874
:102F000042F001021A601A685207FCD5104A136891
:102F100023F004031360D2F8A83123F00403C2F8AD
:102F2000A8314FF400520B4BC3F890207047084A69
:102F3000136843F0040313604FF40052054B1A6109
:102F4000704700BFB00D002004200D4004880840E9
:102F50008C86084000E100E0084B93F90020002A2D
:102F600009DBED21064A11601160E32111601A7836
:102F700062F07F021A700120704700BFB10D00207F
:102F800038880840A0F10B01CBB20F2B10B50446D6
:102F900013D80B4B1B6813F03F0302D0FFF750FF11
:102FA000012301EB8101074A0B3111600BB1FFF7DF
:102FB000D3FF054B60B21C7010BD4FF0FF30FBE734
:102FC000488608403C8608404601002010B50C4663
:102FD000002900F08680102800F28580DFE800F0EC
:102FE00009101B22243B44575C727683837B7D54FB
:102FF0007F003E4B1B68003318BF0123236024E091
:1030000005223B4B1B6803F07F030B3B93FBF2F362
:103010000B33DBB2F2E7374B1A68043B1B6843EA19
:103020000223EBE7344BF7E700230B60334B344AC2
:103030001B6803F001030B601268900644BF43F065
:1030400002030B602F4B1B780BB900200BE00B68C1
:1030500043F00403D2E700202B4B08601B78002BC1
:10306000F3D001230B6010BD284B29491A680023B7
:10307000D2B201EBC3000079904202D851F833304C
:10308000BCE701330E2BF4D16FF01703B6E7214BE9
:103090001B685BB2493BB1E71F4B1B6899060FD118
:1030A000FFF75AFF01231D490A68D207FCD51C4AC5
:1030B0001168493949B20BB1FFF7C2FE2160C4E77C
:1030C0000023F0E7174B93F9003097E7164B1B7876
:1030D00003F07F0392E70B2390E71A238EE7072381
:1030E0008CE70220BFE70120BDE700BF2C86084027
:1030F0003C860840CC850840D485084000860840BE
:1031000024860840B00D002047010020408608407A
:10311000B06E200058860840488608406486084003
:1031200060860840B20D0020AF0D002008B50B4BA3
:103130001B6899060FD1FFF70FFF012308490A68A2
:10314000D207FCD5074A1168C1F300110BB1FFF794
:1031500077FE084608BD0023F0E700BF4886084018
:10316000648608404C86084008B507285BD8DFE82D
:1031700000F0040F1A21253B4155012903D1FFF727
:10318000EBFE002035E000294FD1FFF759FEF8E7AC
:10319000A1F10B030F2B48D8C8B2FFF7F3FE0130A3
:1031A000EFD1032025E089B2214BCAB2090A1A6087
:1031B0005960E6E789B2CAB21E4BF7E731F0070360
:1031C00033D101F00100FFF76FFE1B4B11F0020F2E
:1031D0001A68C1F3800014BF42F0200222F02002DE
:1031E0001A60FFF76DFECCE731F001001DD1134BE3
:1031F000197008BD01F118031F2B16D80D23104AB2
:1032000052F83300814205DC02EBC3031A790D4BFF
:103210001A60B6E713F1FF33F2D2B2E7C9B20A4B34
:1032200049311960ADE70120E3E70220E1E700BF83
:10323000C8850840D0850840248608404701002002
:10324000B06E2000408608405886084038B50546D4
:103250000C46134A13689B07FCD4124B93F90030B9
:10326000002B01DBFFF778FEEE220F4B691E1A6080
:103270001A60A21C43F8102C2144022000F074FABA
:103280000A49013C41EA0411022000F07FFA0220C1
:1032900000F086FA022000F09BFA002038BD00BF43
:1032A0004C860840B10D00203888084002C001C09B
:1032B000F8B5224B93F90030002B18DBFFF7C4FA66
:1032C0000446FFF749FEC4F1FF2404F57F04F634F9
:1032D000FFF7BAFAC442FBD40126194B1B7843B955
:1032E000184C2368990609D502210846F8BD002626
:1032F000F3E7FFF71BFF0028F2D1F5E7E9230427E6
:10330000114D2B6023689A0703D4013F17F0FF0784
:103310000BD123689B070CD4EE2301212B602B607B
:10332000002EE2D0FFF78CFDDFE70620FFF768FAFA
:10333000E8E7216811F00201FBD1F1E7B10D0020AF
:10334000470100204C860840388808400B280DD1E2
:10335000082A0DD161B1074B074A083111F8010D58
:1033600043F8040B9342F9D10020704701207047C5
:1033700002207047A8850840C885084070B5304EC7
:10338000336813F0400358D02E4D2C68230605D522
:10339000ED2200202C4B1A601A6070BDE4B2042CA0
:1033A000F6D9023C8C42F3DCE4B2032C1ED12B682C
:1033B00003702B6843702B6883702968234B49394D
:1033C00049B219702B68224D18062B70E0D589B2CE
:1033D000042001F0BBFD2978032001F07F0101F0FA
:1033E000B5FD1C4B1B78CBB12046D6E7011901393E
:1033F000032000F0C1F9184B611E43EA01110320BC
:1034000000F0C4F9032000F0CBF9032000F0E0F94C
:10341000032000F0E9F90028FAD1CEE733685A0614
:10342000E2D533681B0603D50C4801F007F9DBE74A
:10343000ED22054B1A601A60D6E71846ADE700BFCB
:103440004C8608402888084038880840B20D002083
:10345000AF0D0020B00D002002C0010C5000002074
:10346000F8B5294F3D7815F001054BD10124F8221C
:10347000264B7F261C605C609C60A3F59323A3F51C
:1034800014731A600922C3F89021152270331A6050
:103490000B2203F59B2303F59E731A604022A3F5CC
:1034A0009B23A3F5F0731A601A6842F020021A6099
:1034B000D52243F81C5CDE62DA61154B1878FFF701
:1034C00061FD4FF48042134B02201E60124B1A61C3
:1034D00000F072F91149022000F04EF9032000F0CB
:1034E0006BF90E49032000F03FF90D4B1878FFF7F8
:1034F000E7FC0C48294601F089F820463B78234335
:103500003B70F8BD0020FCE7B10D0020A8200D4065
:10351000460100209486084000E100E02888084029
:10352000B00D00205000002038B50388044653B386
:1035300040F20342934233D11B4B18781A4638BBF2
:10354000822923D1137873B901F0B2FC01F03EFC5B
:103550008021FFF713FF002805DD80B201F0F6FBA4
:10356000124B1B699847124B1A7852060BD5002252
:103570001A70104B1D68FFF763FCFFF771FFAB0675
:1035800001D0FFF7E9FC40F20343238001200AE069
:103590001B78002BFAD0064B1B785806F6D5CFE7E0
:1035A00000230380032038BDB00D0020986F200059
:1035B000B10D0020488608400B282DE9F0470C4645
:1035C0000FD1082A79D1002977D03D4B3D4A4C1EB6
:1035D00053F80419934204F8011FF9D10020BDE803
:1035E000F0870C2867D1042A67D1002965D0364BB3
:1035F00036491A68DFF8E48022F007021A600A6888
:10360000334F42F008020A60D8F800003A681D689B
:10361000DFF8CCE025F07005DFF8C8C01D60DEF8EB
:103620000050DCF80060C0B2120240EA066092B2BC
:1036300002434FEA0549274809F47F09D0F800A062
:1036400042EA09061A685FFA8AF522F0070242F098
:1036500001021A600A6842F008020A60D8F80020E5
:103660003F68196821F0700141F010011960DEF81F
:103670000010DCF800C0D3B23A0243EA0C6392B205
:1036800013430A04016802F47F0243EA02085FFA66
:1036900081F9FFF7D9F8B6EB080165EB0905ED03F1
:1036A00007460D4AC803002345EA514102F07CFB5E
:1036B000381A206092E7012091E702208FE700BFCF
:1036C000C4850840A4850840108808400488084044
:1036D000188808401C8808400048E8011488084001
:1036E000248808402088084008B5054B1B7813B98A
:1036F000044800F0A3FF0022034B1A6008BD00BF7E
:10370000B00D00205000002034880840064B0748C8
:103710001A68042A1FBF06490A7842F040020A705C
:1037200000221A6000F08ABF2C8808405000002058
:10373000B10D002008B5094B40220021184602F0C7
:103740005DFD0121064A074B116050604FF4804235
:103750005A604FF400425A6008BD00BF00000020CC
:1037600004F00F4000E100E003289EBF014B000180
:10377000195070470000002003289EBF024B03EB46
:1037800000135960704700BF0000002003289EBF4F
:10379000024B03EB00139960704700BF000000204C
:1037A000032805D80123034A834011680B431360A3
:1037B000704700BF28F00F40032805D80123034AB3
:1037C000834011680B431360704700BF20F00F4027
:1037D000032805D80123034A834011680B43136073
:1037E000704700BF14F00F4003289FBF044B03EB4A
:1037F0000013986800F0070088BF0020704700BFE2
:10380000000000204FF0FF32014B1A60704700BFEC
:1038100004F50F400122014B1A6070474CF00F4035
:10382000084B19461A68D002FCD4074B1A6822F4D8
:1038300080321A600A68D203FCD41A6842F400325B
:103840001A60704704200D4000200D4010B5094C4F
:10385000226890070DD0084B1A4619684901FCD41C
:1038600013685B01FCD5FEF7D9FFFFF7D9FF0023F2
:10387000236010BD58200D4004200D4038B5264B64
:103880001C6814F03F0414D1244D55F8043B23B1B7
:10389000984770B10134052CF7D1214D2B7843B1F5
:1038A000FEF7CCFF0446FEF7CFFF201A092800D907
:1038B0000CB930BF27E01B4B1A6822F400321A60A3
:1038C000194A11461068C002FCD41A6842F48032CA
:1038D0001A600B68DB03FCD5FEF7B6FF201A092837
:1038E00003D8BDE83840FFF79BBF63280F4C0BD9C6
:1038F0002B78022B08D1236000F056FE30B1FFF781
:103900008FFF0023236038BD0123F4E7FEF796FF05
:103910000028F4D0CDE700BF488608401C020020F4
:10392000B30D002000200D4004200D4058200D4014
:10393000074A10B50023144652F8041B814202D0F6
:1039400011B944F8230010BD0133052BF4D1FAE777
:103950001C0200200022054B05491A600B6943F048
:1039600004030B61034B1A70704700BF58200D40D1
:1039700000ED00E0B30D00204FF48032064B10B58F
:10398000064CC3F89021C3F89020206818B100F0CD
:1039900055FE0023236010BD00E100E0300200204E
:1039A00070B5184B1A78431E1AB9174A1278122AA2
:1039B0000AD001F52011154A2731914216D011F88D
:1039C000010903F8010FF8E7114A12784B2AF0D1E8
:1039D0004C0804F520120D4D2732AA4207D10023CE
:1039E00001F5201120442731A34205DB70BD12F8F8
:1039F000016903F8016FF0E7CA1A1278013300F881
:103A0000012BF1E72B0028002A00280027002800BE
:103A1000290028000FB407B504AA52F8041B044873
:103A2000019200F021F803B05DF804EB04B0704798
:103A30006000002070B505460C460A4E102C07D8D1
:103A400074B12B68224668680649BDE87040184783
:103A50002B68102231466868984710B9103CEDE792
:103A6000204670BD567120002DE9F04F8046154666
:103A700000268FB00791079B1B78002B00F0528324
:103A8000079B1A781C460133002A00F03A83252A46
:103A9000F7D1079B9C4205D036E323783E44002BA8
:103AA00000F040836378621C002B00F03B8300240D
:103AB000104610F8011B13462B2916D00AD82029CE
:103AC00016D0232917D0A1F13107082F3FD84FF086
:103AD000000A18E02D2904D03029F4D144F0100454
:103AE00001E044F001040246E2E744F00604FAE78C
:103AF00044F00204F7E744F00804F4E70A2303FB68
:103B00000A1AAAF1300A134612F8011BA1F130007B
:103B10000928F3D91A782E2A35D159785A1CA1F1DF
:103B20003000092828D8002711781346A1F1300069
:103B3000092802F101021AD91A786C2A40F0908003
:103B40005A786C2A22D144F08004023321E02A29D9
:103B50000AD1D5F800A00346BAF1000F05F104051B
:103B6000B8BF44F00104D5E74FF0000AD2E70A23BA
:103B700003FB0717303FD7E72A2903D12F68023309
:103B80000435D9E713464FF0FF37D5E7013344F04A
:103B900060041A78642A00F0908000F28380462A3C
:103BA00000F0AD806FD8252A00F0BE8064D8002ACE
:103BB00000F0B8820133079304F4E063B3F5806F3B
:103BC00000F0578200F2B380B3F5807F00F0EC8004
:103BD000B3F5407F7FF44FAF8F4B14F4804F8F4A83
:103BE00008BF1A460DF1330300211F46286804352B
:103BF00050EA010C40F07282FF1A04BF302203F831
:103C0000012C4FF0780208BF03F1FF3303F8012CB9
:103C10004FF0300208BF012703F8022C232203379C
:103C2000BA458CBFAAEB070A4FF0000A14F0010452
:103C3000A3F1030903F8032C06D151464046FFF7D0
:103C4000F9FE002840F06C82D8F800303A46494628
:103C5000D8F804009847002840F062823E4433E2DE
:103C6000682A96D15A78682A02D144F020046CE779
:103C7000013344F040048CE7412A4CD0452A99D1C5
:103C800044F4424496E7582A33D004D8472A91D1C5
:103C900044F4A1348EE7612A3AD0632A8AD144F4ED
:103CA000A06487E76E2A3CD00AD8662A24D029D39C
:103CB000672A2AD0692A7FF47DAF44F4245479E737
:103CC000732A2BD007D86F2A10D0702A7FF472AFD6
:103CD00044F440746EE7752A05D0782A7FF46AAF01
:103CE00044F4C85466E744F4106463E744F4885429
:103CF00060E744F4B2445DE744F400745AE744F4E6
:103D0000844457E744F4024454E744F4813451E7CF
:103D100044F4C1344EE744F4E1344BE744F48064A6
:103D200048E744F4E06445E744F4C06442E7B3F58F
:103D3000C06F2DD0B3F5E06F00F0DF81B3F5A06F59
:103D40007FF499AEBAF1010F38BF4FF0010A2B682A
:103D500014F0010405F104058DF820300AF1FF3755
:103D600007D139464046FFF765FE002840F0D8816C
:103D70003E44D8F80030012208A9D8F8040098473A
:103D8000002840F0CD81002C00F0A1813946E0E010
:103D9000D8F8003001222249D8F8040098470028BA
:103DA00040F0BE81013666E6002FACBF24F010045F
:103DB000012714F4005204F0E003069232D0402BA5
:103DC00023D008D823B3202B0FD000220023CDE925
:103DD0000023002317E0602B1AD0802BF5D1073584
:103DE00025F00705F5E8022303E095F90020D31735
:103DF0000435002A73F10001E9DA524263EB430310
:103E0000CDE90023012303931DE0B5F90020EEE77F
:103E10002A680435D317ECE78771200076712000FB
:103E2000A7712000402B00F0AF8000F29980002B9A
:103E300000F0AC80202B00F0A080069B00220393B2
:103E40000023CDE9002304F4C053B3F5805F00F0F4
:103E5000D480B3F5C05F00F0D580B3F5006F00F0FB
:103E6000B68000230DF1360B0493049B41F2080247
:103E70009F4288BFFF1A41F6080304EA030198BF76
:103E8000002791421A4602D1002F08BF0127049B48
:103E9000914203EB070040F0CF80DDE9002313439C
:103EA00000F0CA80A14914F4804FA14B4FF00209E1
:103EB00018BF0B46069A72B1039A002A40F0C080E0
:103EC00004F00602022A00F0BF80062A994A04BFC5
:103ED0004FF00109134609EB000292458CBFAAEB93
:103EE000020A4FF0000A14F00102009204D1E10628
:103EF00040F1AE8057449246B9F1000F09D0D8F88E
:103F000000404A461946D8F80400A047002840F06F
:103F100007813C46049B1E44102CD8E9003000F277
:103F2000A1802CB1224684499847002840F0F880AF
:103F3000D8F80030049A5946D8F804004E449847FF
:103F4000002840F0ED80009B3E44002B00F0BF8035
:103F500051464046FFF76EFD002800F0B880DFE0D4
:103F6000602B13D0802B7FF468AF073525F0070551
:103F7000F5E80223CDE9002304E02A780023CDE907
:103F800000230435069B3EE72A88F7E72B680022CA
:103F900019460435CDE90012F4E7DDE904010A22EF
:103FA000002301F001FFDDE9040130320BF8012D9F
:103FB00000230A2201F0F8FECDE90401DDE9042323
:103FC0001343EAD10DF13603A3EB0B034CE7DDE914
:103FD00000230DF1360BCDE90423EFE702F00701D2
:103FE00030310BF8011DD10841EA4371D8080A4667
:103FF000034652EA0301F1D1E4E7DDE900230DF1C4
:10400000360BF6E74D4B14F4804F0DF1360B4C494F
:1040100008BF1946DDE9002352EA0300D2D002F0BE
:104020000F00085C4FEA131C0BF8010D100940EA61
:10403000037002466346EFE74FF000094B4639E74D
:104040004FF001093F4B46E74FF001093E4B42E775
:10405000514640460393FFF7EDFC039B00283FF4D5
:104060004BAF5DE0102234499847002858D1103CEE
:1040700052E7D5F800B00435BBF1000F29D05B46FC
:10408000994699F800200133002AF9D1A9EB0B09D0
:10409000002F02DBB94528BFB946CA458CBFAAEB41
:1040A000090A4FF0000A14F0010404D151464046B9
:1040B000FFF7C0FCA0BBD8F800304A465946D8F8F4
:1040C0000400984760BB4E44002C7FF441AF564437
:1040D000D1E4DFF878B04FF00609D9E700F00F0C13
:1040E00012F80CC04FEA111E03F801CD4FEA101C64
:1040F0004CEA017C604671467AE52B6804351E6007
:10410000B9E4079B9C420DD0079B0799E71A3A46F2
:10411000D8F80030D8F80400984700283FF4BDAC28
:104120004FF0FF3630460FB0BDE8F08F9871200099
:104130009B7120009E712000667120008771200015
:10414000767120000C7420005B702000A0712000AC
:10415000F8B5038806461546CBB14A2B2BD18829E2
:104160001FD1174802F093F90446C4B1231D9D42A4
:104170001FD12146124802F094F9124D62692F684E
:104180002A60A2690AB1E06990472F6007E00C48F5
:1041900002F07DF9044634B901220B4B1A704A2310
:1041A000338001200AE0A168201D02F03AF924685A
:1041B000F1E72468D9E7002303800320F8BD00BF9E
:1041C00034020020C0030020B40D002010B50024EC
:1041D000054B06481C7002F057F92146BDE8104017
:1041E000034800F013BA00BFB40D002034020020D1
:1041F0006800002070B50446E3610B4B049D1B78FA
:10420000C4E905526BB1094D094B2E68201D2B6086
:1042100002F007F92E602146BDE87040054802F023
:1042200053B9A160F7E700BFB40D0020C003002020
:10423000680000203402002013B5034C2468009469
:10424000FFF7D8FF02B010BDC003002010B5084B27
:1042500004461B7843B1043000F0B4F82146BDE8B1
:104260001040044802F01DB9C0E90333F6E700BF6F
:10427000B40D00203402002010B50E4C236813B991
:104280000D4A136010BDFEF7B1FA2168D1E9002391
:1042900013448A681B1A1AB91844074B1860F1E7CF
:1042A000D2E900142144091A8B4228BF0B469268B8
:1042B000F1E700BF3C02002038020020014800F076
:1042C000BDB900BF780000202DE9F84303880546FA
:1042D00053B1592B47D1872920D1002024490B689D
:1042E00063B918B10B6001E0214A13605923012022
:1042F0002B80BDE8F88301203346F1E7D3E902645F
:104300009442F8D000B10B6099680029EED0C868DB
:1043100090420ABF89680B469960F5E78229E5D18A
:10432000134F4FF00009B84600263C68002CDDD042
:10433000204602F093F898B122468821E06800F008
:104340003DF958B9E060A3682EB1B360C4F8089095
:10435000FFF792FFE8E7C8F80030F7E7FFF7AEFF96
:104360002646A468E2E7002303800320C1E700BFDC
:104370003C02002010B50446FFF7A0FFE3680B4A9B
:104380000BB1136833B90A4B1B68E3601368146000
:10439000A36004E0A34206D1054A1268DA60BDE8D2
:1043A0001040FFF769BF9B68ECE700BF3C020020AC
:1043B000C0030020024B1868003018BF012070476E
:1043C0003C02002010B50B4A04461368834208D112
:1043D00083681360FFF750FF0023C4E9023310BD68
:1043E0001346002BF8D09A68A242F9D1A2689A60CD
:1043F000F0E700BF3C02002038B5836804460D4654
:104400009BB10A4804600220A07304F10C00984795
:104410000238012801D9832D05D121462046BDE867
:10442000384000F005B80123A37338BDC003002055
:104430002DE9F8431C4F04463D6889462B46A342AC
:1044400004D00BB9BDE8F8831B68F8E7002CF9D05D
:10445000164EA37BD6F8008063B10023A3738DB9F9
:10446000A3683BB14C4505D034602A46832104F152
:104470000C0098473B68A3420ED123683B60C6F806
:104480000080DFE7A54204D022468721284601F0BC
:10449000D6FF2D68E3E71346002BF0D01A68A2423E
:1044A000F9D122681A60EAE7C4030020C0030020A3
:1044B000002238B50125084B1A70084B1C6804B956
:1044C00038BDE37B2BB1E581002282212046FFF736
:1044D00093FF2468F3E700BFB80D0020C403002059
:1044E000024B1878421C1A70704700BFB60D0020AE
:1044F0008A22064B1A700023054A1370054A13706E
:10450000054A1360054A1360704700BFB60D0020CE
:10451000B50D0020B70D0020C4030020C00300200B
:104520002DE9F0411B4D2B780BB1FFF7C1FF1A4C61
:1045300022789AB10C21194E194F3378013A594318
:104540000133781803F01F0317F801803370D0E9A6
:104550000170227090B9134B1E6826B92B78207811
:104560001844BDE8F0812B780BB1FFF7A1FF30466E
:104570003A46414601F063FF3668EEE7B8F1810F35
:1045800008BF01233A4608BF8373414601F057FF35
:10459000E4E700BFB80D0020B70D0020B50D0020E6
:1045A00040020020C4030020024A034B10781B780D
:1045B00018447047B70D0020B80D0020F0B50B4E21
:1045C0003378202B0FD00C25094C0A4F24781C443B
:1045D00004F01F046C433D19C5E90120002001339C
:1045E00039553370F0BD0120FCE700BFB70D002046
:1045F000B50D00204002002038B5034C256801F0BD
:104600001EFF256038BD00BFC003002030B40A4C37
:104610000A4625682B4683420CD04BB950B1012184
:104620000560817320608381812130BCFFF7E4BF86
:104630001B68F0E730BC7047C403002038B1837BAF
:10464000013B012B9FBF0123014AC37313707047C5
:10465000B80D002010B5084C206858B10023236025
:10466000D0E901319847236823B1BDE810401868AC
:10467000FEF7FCB810BD00BFC803002070B5058868
:104680000446672D09D0792D2FD0002D33D1FFF7A7
:1046900027FF1B4B18701B4B1D601B4E194D08E06C
:1046A0000A282B680ED07E2B03DC5A1C2A60174A7E
:1046B000D054304601F089FF431CF1D16723238099
:1046C00001201BE05A1C2A600025104A2846D554B8
:1046D0000B4B1978FFF772FF0D4B2A46852118689E
:1046E000FFF76CFF18B97923E9E78529E8D10022A3
:1046F000044B1A60D1E700230380032070BD00BF84
:104700002D0F0020CC030020D0030020B90D002085
:10471000C00300200D2810B5014616D00C4C23789C
:1047200053B90C4801F03EFF08B9012323700A4831
:10473000FFF784FF012010BD0A28F8D1054801F0D9
:1047400031FF0028F3D00023F0E70020F3E700BF9B
:10475000390E0020D00300208800002008B505494C
:104760000548802201F017FFBDE8084000210348FA
:10477000FFF74CBF3A0E0020D00300208800002035
:104780002DE9F04104880646772C20D07E2C3DD0C0
:10479000002C4ED1FFF7A4FE284D294B294FDFF8FE
:1047A000B08018702C602B6857F823202AB9264A4D
:1047B00013707723338001203EE008F803409368AC
:1047C0000021802098472B6801332B60EBE7002302
:1047D0001E4A1360194A1360184B1B4A1B68127853
:1047E0009A4204DC194B1B68002BF0D1E1E7184A10
:1047F000D256002A19DA134A002052F82320104B0F
:104800001978FFF7DBFE28B97E23D3E70C4B1B7822
:104810008B42D0D1094B0E491A688B5C03F07F03A1
:104820008B540A4A136801331360044A1368013336
:10483000D1E7002303800320BDE8F081DC030020E2
:104840002E0F002040000020BA0E0020D8030020C8
:10485000290F002010B40A4B0A4A197800238B4212
:1048600003DA52F8044BA04208D107490748CA5C52
:1048700062F07F02CA5410BCFFF7E0BE0133EEE7DE
:10488000BA0E002040000020290F002098000020D0
:10489000064A136843F004031360054B1868043399
:1048A0001B6840EA032080B2704700BF00700D40D3
:1048B00014700D4010B5174A136823F00C031360F1
:1048C0000122154B1A601A68012AFCD10822134BE9
:1048D00013491A60E32203F505731A601A460B6840
:1048E000DB07FCD50F4C102100232068013900F0B4
:1048F000010043EA00034FEA43039BB2F5D1002BCA
:10490000F1D00949180A03F0FE0308600B60EF2399
:10491000136010BD00700D40A8200D402486084093
:10492000648608409C86084014700D4010B50478D9
:10493000437843EA042303FA01F1044B985CC2F183
:10494000080200EA21201041C0B210BDDA71200037
:10495000F8B506460A480D46174601F098FD04468C
:1049600030B93A4629463046BDE8F84001F0A7BFC5
:10497000A3680BB128469847204601F0C1FDEEE739
:10498000E003002038B500F0F3F80546094801F0CF
:104990007EFD044628B95DB12846BDE8384001F0E7
:1049A00089BF636803B19847204601F0A9FDF0E78D
:1049B00038BD00BFE003002010B5044600F0E6F863
:1049C00038B100F0DFF9034B034821469B68984754
:1049D000012010BDC46F20005149200070B50B4C60
:1049E0000023616E0A4A04F13800FFF725FCFFF747
:1049F0004FFF616E0023B0FBF1F5064A05FB110184
:104A000004F11800BDE87040FFF716BCE403002075
:104A1000194A2000314A2000044B5A6E196E520088
:104A2000914294BF59665A66FFF7D8BFE40300204D
:104A300010B500F03DFA00F0C9F9002303800446E8
:104A400000F0EEF82288930008B1017B51B9981C60
:104A500080B200F07BF9238873B1BDE810400748AD
:104A600000F078B8818823445980C1880132998048
:104A7000228001F045FDE5E710BD00BFE403002002
:104A80009DF80030012B04D1024B9A6D5A66FFF756
:104A9000A5BF7047E4030020F8B50F4616461D4633
:104AA000064C0146064A204600F042F8C4E9167654
:104AB00025660448BDE8F84000F0ACB8E4030020E7
:104AC000586F2000814A200070B505460C461646F6
:104AD00000F010F82E612046BDE87040014901F059
:104AE000F3BE00BFE8712000014801F0CDBC00BF5B
:104AF0005004002081800146014801F0E5BC00BF60
:104B0000500400200146014801F0CBBC50040020B5
:104B100010B50446054801F0BAFC00B910BD838801
:104B2000A342FBD001F0ECFCF7E700BF50040020EB
:104B300070B505460C461646044AFFF7C5FF6E6180
:104B40002046BDE87040024901F0BEBE606F200003
:104B5000EA71200010B5044604491A2000F004FA56
:104B60002046BDE8104001F0A3BE00BF260F002084
:104B7000054B10B51B689847044618B18188012081
:104B800000F0E4F9204610BD406F200038B5064B18
:104B900005465B6898470446A988012000F0D6F9CD
:104BA000201C18BF012038BD406F2000014B9B68BE
:104BB000184700BF406F200070B504461B200D460B
:104BC00000F0DEF9064901F0E0FE38B1A3691B6888
:104BD00023B129462046BDE87040184770BD00BF8C
:104BE000260F002070B505460C461646044AFFF70E
:104BF0009FFFAE612046BDE87040024901F064BEEF
:104C0000686F2000EE712000014801F03DBC00BF3C
:104C100054040020014B1860704700BF5804002066
:104C2000014801F034BC00BF540400202DE9F041DC
:104C300006460C480C46174601F029FC08B9BDE8A9
:104C4000F0818388A34209D18568002DF7D03B46C7
:104C500022463146AC46BDE8F041604701F050FCC9
:104C6000ECE700BF5404002008B5044801F04BFCF9
:104C7000BDE80840024801F046BC00BFB400002077
:104C8000A800002038B50E4801F04DFC054650B193
:104C90000C4801F048FC0446286030B92946084811
:104CA00001F055FC2546284638BD00F097F804F180
:104CB000B601A4F8800004F1820000F01FF9F2E7C9
:104CC000A8000020B400002010B5014604460748A3
:104CD00001F053FC48B12168054801F038FC214639
:104CE000BDE81040014801F032BC10BDA800002012
:104CF000B400002010B501460446094801F03DFC0F
:104D000068B12468B4F88010204600F0E1F804F19E
:104D1000B60104F18200BDE8104000F003B910BDF7
:104D2000A800002010B507490B88834208DB064C19
:104D300080B222880244181A08800120228010BD07
:104D40000020FCE7A00D0020A20D0020014B1880E0
:104D5000704700BFA00D0020004870477C04002071
:104D6000014B1888704700BFA00D0020034A044B78
:104D700010781B781844C0B2704700BFCB0E0020DB
:104D8000A20D00202DE9F0410C4F3A8872B10024A9
:104D90000B4B0C4EB3F800800B4B1D78354421B201
:104DA000414504F1010403DB00233B80BDE8F081B1
:104DB000FFF7DCFF3044435C6B54F0E7A20D0020AA
:104DC000A00D00207C040020CB0E002008B5FFF7CA
:104DD000CDFF014B184408BD7C040020F8B50C4BF6
:104DE00005461E780B4B1F88F419802C0DDC3246CB
:104DF000094901F08DF9FFF7E9FF354401463A46CC
:104E0000284601F085F92046F8BD0024FBE700BFE5
:104E1000CB0E0020A00D00207C04002008B5FFF779
:104E2000A5FF024B1B88184480B208BDA00D0020CE
:104E300010B50146FFF7F2FF4318802B12DC013852
:104E4000094B00B203444A1C002805DA074B1878C6
:104E500008441870012010BD13F8014901389C5412
:104E600000B2F1E70020F6E77C040020CB0E002022
:104E700038B50C4D0C4C342200210C4801F0BEF921
:104E80002946204601F07EFD2946A01C01F07AFD4E
:104E90002946201D01F076FD2946A01DBDE83840B9
:104EA00001F070BDEC6F2000EA0E0020F20E002031
:104EB0000023044A1380044A1380044A1370FFF746
:104EC000D7BF00BFA20D0020A00D0020CB0E0020F8
:104ED00038B50C460546FFF7EBFF802C28BF802431
:104EE00029462246034801F013F9034B20461C8053
:104EF00038BD00BF7C040020A00D002010B5074B7A
:104F000003F1340253F8044B934240F8044BF9D1B7
:104F1000034A13680B6053684B6010BDF20E00200B
:104F2000EA0E002010B5074B00F1340250F8044B94
:104F3000904243F8044BF9D10B68034A13604B6865
:104F4000536010BDF20E0020EA0E0020024B23F841
:104F500010100120704700BFF20E0020014B33F803
:104F600010007047F20E002008B5044B1A3803EB0E
:104F7000400001F007FD012008BD00BFEA0E00203F
:104F8000024B1A3803EB4000704700BFEA0E0020C6
:104F90000149024801F0F9BCEC6F2000EC0E002042
:104FA000084B10B51B689847074B5B689847074B41
:104FB0005B689847064B5B689847BDE81040054B17
:104FC0005B681847786E2000986F2000C46F20003F
:104FD0007C6F20004C6F2000F8B5FDF707FC114EE8
:104FE0000546002437461A20FFF7CAFF314601F074
:104FF000CCFC80B10A20FFF7B1FF0C2303FB047443
:10500000237A83420CD16068281AB0F5206F8CBFD8
:1050100000200120F8BD0134102C06F10C06E2D16D
:105020000020F7E7FC04002070B5184D00242E4640
:105030001A20FFF7A5FF294601F0A7FC013418B993
:10504000102C05F10C05F3D10C23621E03FB046444
:10505000A4F10C057AB90A20FFF780FF3072FDF742
:10506000C5FB70601A20FFF78BFFBDE8704001465A
:10507000064801F087BC2B4654F8180D013A6168C8
:1050800003C3A0682C461860E2E700BFFC040020C0
:1050900030B591B0054600F04DFA4FF6FF739842D7
:1050A00004D14FF0FF34204611B030BD4022002122
:1050B000684601F0A3F8404B1A782AB901221A7009
:1050C000FFF7E6FB3D4B18701420FFF747FF8DF804
:1050D00010001320FFF742FF8DF81200FFF758FF72
:1050E0000446002848D000238DF813308DF8153081
:1050F000002301248DF814308DF818404DB10A209A
:10510000FFF72CFF00283FD00A20FFF727FF8DF87C
:105110001A0002248DF8194000F00CFAADF81C00BA
:10512000FFF736FF00283CD04FF6FF738DF817408D
:10513000ADF8003000F0FEF9ADF81E001A20FFF7C0
:105140001FFF014602A801F01DFCFFF73FFE0E9075
:10515000FFF706FE0F90684601F01EFD0446002D85
:10516000A1D0FFF765FE00289BD0FFF7F5FD0146B3
:10517000684601F059FD96E70B20FFF7EFFE8DF82A
:1051800015408DF81300B3E70C4B1A7802B91C7068
:1051900019780A204A1C1A708DF81A10FFF7D6FEEB
:1051A000B7E71B20FFF7ECFE0146684601F0EAFB7B
:1051B0008DF81740BEE700BFCC0E0020CD0E0020BA
:1051C000014BDB68184700BFC46F2000014B5B69CF
:1051D000184700BF986F2000014B9B69184700BF1C
:1051E000986F2000024BD86900B10047704700BF9C
:1051F000986F200070B590F829500F4B042D28BFF0
:1052000004250124DB6906469847AC40651E041E50
:1052100008BF01246C4305D0FFF73AFBB0FBF4F361
:1052200003FB14043346214606F10800034ABDE897
:105230007040FFF701B800BF986F2000AD53200009
:105240002DE9F04107461B208846FFF799FE484BA1
:1052500005461A78474C22B901221A70FFF718FB4D
:10526000208023880BB90123238021880A204B1C2E
:105270002380FFF76BFE404801F009F9044600283F
:1052800045D13E4801F04FF90446002865D0294633
:10529000201D01F077FB002304F12C00C4E90B3042
:1052A000238501F0F1F82146334801F00DF9206B18
:1052B00001F01FF9072850DC314801F034F90546A8
:1052C00000283ED02F4801F02EF9A860A8B3FFF7C0
:1052D000D9FC686068B30920AE68FFF73FFE00BBE9
:1052E00008233372C6E900780D20FFF737FE012846
:1052F0002946206B1AD101F0F4F8206B01F0C7F8B1
:10530000854232D12046BDE8F041FFF773BF294600
:10531000201D01F03AFB0028C9D1204601F0F0F829
:10532000ACE70920FFF71AFE3072DBE701F0CCF89A
:10533000E3E7A968134801F00AF92946104801F08B
:1053400006F9206B01F0D5F838B921460A4801F07A
:10535000A8F82146094801F0FAF841463846BDE868
:10536000F0410123042201F0D9BCBDE8F08100BF67
:10537000CE0E0020A40D00201C060020CC00002032
:10538000D8000020C000002008B5054801F0BBF897
:10539000044801F0B8F8BDE80840034801F0B3B88C
:1053A000D8000020C0000020CC00002013B5044627
:1053B00068B1006B01F06BF8024640B12146054B25
:1053C0000548DB68019302B0BDE81040184702B001
:1053D00010BD00BF986F2000595420002DE9F04700
:1053E0000D4614468B688046D3E90067106B92F82F
:1053F000289001F056F86868FFF766FCA968124823
:1054000001F0A5F82946114801F0A1F8206B01F040
:105410003EF860B1002320462385FFF7EBFE4B46A4
:10542000424639463046BDE8F04701F077BC04F10A
:105430000800FEF70BFF2146054801F032F821462F
:10544000044801F084F8EAE7C0000020D8000020FA
:105450001C060020CC0000202DE9F0410E46174626
:10546000044620B1006B01F012F8054608B9BDE80A
:10547000F0810A21686801F07FFA80460A20FFF770
:105480006DFD804546D0284601F03AF8EDE794F8E6
:10549000282000203A4484F828202946224684F80F
:1054A0002900BDE8F041FFF799BF002284F82920C8
:1054B00094F828203A44D2B284F828201B7A9342E8
:1054C0001CD8224629460220EBE794F829203A44CA
:1054D000D2B2052A84F8292007D9002194F828207F
:1054E00084F82910013284F8282094F828201B7AA7
:1054F0009A4203D3224629460120D2E72046FFF7ED
:1055000079FE6868BDE8F04101F030BA22462946CC
:105510003046C6E7AB68002BA9D0032EF6D801A20F
:1055200052F826F08F542000CB542000AB542000BA
:105530006F542000014B1888704700BF14010020F1
:105540002DE9F041012986B006460F46144651DD8B
:1055500003A901F0B0FB03AB03CB1B8820612383BD
:105560009DF811306161002B48D0B51C02AA01A939
:1055700003A801F067FA9DF81380B8F1000F50D02E
:10558000029B2BB16A7815F8023B03EB02239BB216
:10559000B8F1020FA38335D13349204601F0F2F967
:1055A0006B78237015F8023B63709DF81580B8F195
:1055B000000F50D0019B002B3AD06A7815F8023BBF
:1055C00003EB0223029A9BB2E38302B9A383B8F1EF
:1055D000020F30D1244904F1080001F0D3F96B78AF
:1055E000237215F8023B6372A81B3B1A8742C4E979
:1055F0000E5300DA002006B0BDE8F081B378F51C48
:10560000A376B3E7B8F1030FCFD105F10802134633
:10561000611E13F8010D9D4201F8010FF9D11546E5
:10562000C3E71149204601F0ADF9A4F81C80BCE79E
:10563000A38BE383CBE7B8F1030FD5D105F10802C3
:10564000134604F1080113F8010D9D4201F8010B06
:10565000F9D11546C8E7044904F1080001F092F9B0
:10566000A4F81E80C0E700BFEC6F2000014B1B6A4E
:10567000184700BF786E20002DE9FF4E81468A460C
:105680001A203F49FFF770FC01210B20FFF75EFC59
:105690003C4B5B689847002870DBFFF75DFB3A4D99
:1056A00090F802B06C68FFF757FB0646FFF7B6FBB1
:1056B00001463046A047FFF76BFCAE690746B0478E
:1056C000044610B1012200240CE0A7B1AB6801939D
:1056D000FFF7A4FB019B9847024688B102280CBF44
:1056E0000122042248460123514601F017FB2046BF
:1056F00004B0BDE8F08EEB6998470028E2D1E5E7F9
:10570000002F39D1FDF7A0F80446FDF721FAC4F1C6
:10571000FF2404F57F04F334FDF796F8C442FBD46C
:10572000B047EE69E8B1FDF78FF80446FDF710FACF
:10573000C4F1FF2404F57F04EB34FDF785F8C4427F
:10574000FBD4B0470446A0B12B69032103A89847B6
:10575000032803D19DF80E305B450CD000240122B4
:10576000C0E7B04704460028DDD16B6998470028A0
:10577000D9D00222B6E700220124B3E70522A2E72E
:10578000260F0020B86F2000786E200082B0044BF6
:1057900018B11B6A019302B018475B6AFAE700BFB1
:1057A000786E200007B5FFF7DBFA03281BD00F4BFC
:1057B0009B689847002816DB1B20FFF7E1FB0C498C
:1057C00001F0E3F858B1FFF707FC60B9FFF72CFCD4
:1057D000084BDB68019303B05DF804EB1847FFF753
:1057E000D7FB0028EFD103B05DF804FBB86F2000B1
:1057F000260F00207C6F200008B5024B1B689847DD
:10580000023008BD706F200038B50C4B9B6898477C
:10581000041E02DA4FF0FF3038BDFFF7D7FA0378E5
:105820000546002BF6D10220FFF77CFA0028F1D0C4
:105830006878FFF78BFAA01CEEE700BF706F2000BE
:1058400070B50220FFF7F4FA10B94FF0FF3070BDC9
:10585000FFF782FA002505700446FFF781FA6070B1
:10586000FFF7DCFA0446FFF7C7FF20442A2812DCC2
:10587000C0F12B00C4B2FFF7A9FA0646FFF770FA91
:1058800022462946304400F0B9FCFFF769FA20446B
:1058900080B2FFF75BFA044B5B689847041ED4DBC9
:1058A000FFF770FAA01CD2E7706F2000014B9B68D5
:1058B000184700BF4C6F200070B504460D461420F9
:1058C0000121FFF743FB034B29462046BDE870400A
:1058D0009B6818477C6F200073B50024124D134E4F
:1058E0000190317801A8013904EBC10105EB4101B8
:1058F00001F04BF898B104210DEB0100FFF7E8FA35
:1059000031780B4804EBC101053905EB410101F089
:1059100008F89DF8060000F087F902B070BD013468
:10592000032CDED1F5E700BF16010020E60E0020B3
:105930009007002038B5038804468BB1B3F5887F03
:1059400038D186292ED11D4D2B7863B901231C4AED
:105950001C491D482B7001F029FA48B9287002E053
:105960001A4800F004FD4FF488730120238038BDED
:10597000134800F081FD164D2860114800F06EFDBF
:1059800058B1104B1868FFF7A7FF00220B4B862178
:1059900010481A70FEF712FEE5E729680E4800F07D
:1059A00040FDE0E78829DED10B4800F043FD0028E8
:1059B000D9D0E6E7002303800320D8E7E40E0020D7
:1059C00074070020A60D0020F80600205772200062
:1059D0007C070020040100208007002010B5038808
:1059E000044683B1B3F5A27F29D1862910D1164B85
:1059F000197841B9012112781970144B1A700821D5
:105A0000134800F00EFD4FF4A2730120238010BD57
:105A10008829F8D10E4800F00DFD0028F3D00B4B7B
:105A20001878FCF733FD0B4A13780133DBB20F2BE8
:105A30001370E4D90023044913700B70E3E70023CB
:105A400003800320E3E700BFE10E0020E20E002008
:105A5000E8060020E30E00201FB502AC0190C02133
:105A6000204600F0F4FC94E80C000199074801F08E
:105A700078F920B9064800F07AFC04B010BD002285
:105A800086210448FEF79AFDF7E700BFF8060020DC
:105A9000097220000401002083297FB504460E46C8
:105AA000154602D12C4800F03AFF23880BB3E82BAF
:105AB0004DD12A4B1B78B34244D1294B9D4241D151
:105AC0006B6800209847054600283BD1254B0321F1
:105AD000187801F08BF9244B8DF80D0018788DF8AB
:105AE0000C508DF80E0000F083F80398FFF7B4FF18
:105AF00028E01E4B0B21DB6A01209847184B8021C0
:105B00009B684FF48070984700F006F900F02AF97E
:105B1000174B144D5878287000F0D4F8124B1870B9
:105B20002B785A1E134B03EB0213032200921868C2
:105B300059689A68DB6800F08FF80F4A812106489F
:105B4000FFF750F8E8230120238004B070BD002344
:105B500003202380F9E700BF900700202E0F0020CC
:105B6000006E2000E60E0020E50E0020786E20007A
:105B7000260F002016010020E46F200007B56846BC
:105B8000FFF72CF91549684600F0FFFEF0B1144804
:105B900000F0EDFB0DF1020286211248FEF70EFD2A
:105BA000114B0321187801F021F900238DF80430FE
:105BB0000E4B8DF8050018788DF8060000F018F8E7
:105BC0000198FFF749FF03B05DF804FBBDF8003012
:105BD0009DF80200ADF80430EEE700BF260F00206C
:105BE000CE722000E4000020E60E0020E50E00202A
:105BF00010B50446FCF738FC042C04D1094A13788C
:105C00000133137010BD022C04D1064A53780133BE
:105C10005370F7E7012C01BF024A93780133937068
:105C2000F0E700BFE70E0020042805D002280CD0C2
:105C300001280CD0FCF720BC002206498B5C013BFC
:105C4000DBB28B54002BF5D070470122F5E702221E
:105C5000F3E700BFE70E00202DE9F04186B002AC6B
:105C600084E80F0012489DF8307000F080FB114866
:105C700000F07DFB104800F07AFB0025DFF8408043
:105C800005AEBD4204F1020405D10C4800F06FFBE3
:105C900006B0BDE8F08116F8013B29460093637910
:105CA00014F8012C4046FDF7B5FE0135E9E700BFC9
:105CB00090732000EB7320009E732000EA73200095
:105CC000C173200010B504460E48FDF7A3FE022C58
:105CD00009D0032C0BD0012C0ED10B4800F047FB50
:105CE0000424204610BD094800F041FBF9E70848AC
:105CF00000F03DFB0124F4E7064800F038FB0724E0
:105D0000EFE700BF2D732000527320006073200066
:105D10006F7320007F73200007B50C4B01A99B6AAD
:105D2000012098470A4800F022FB0A4B0A481978DC
:105D30005A78FDF76FFE01990848FDF76BFE084899
:105D400000F015FB03B05DF804FB00BF786E200087
:105D5000E7732000260F00200E742000237420001B
:105D60003B742000002310B50B480C4C03802146E7
:105D700000F00BFE62780A4B032A186009D9012152
:105D8000196021780748FDF745FE0120FCF76CFB00
:105D9000FBE70028F5D110BDAA0D0020260F00203A
:105DA000AC070020EA72200053B94AB9002908BFA5
:105DB00000281CBF4FF0FF314FF0FF3000F074B9E6
:105DC000ADF1080C6DE904CE00F006F8DDF804E052
:105DD000DDE9022304B070472DE9F0478C46044604
:105DE000089E002B40F086808A42154648D9B2FAB8
:105DF00082F24AB1C2F1200701FA02F320FA07F752
:105E0000954047EA030C94404FEA154EBCFBFEF761
:105E10001FFA85F80EFB17C307FB08F9210C41EAAE
:105E20000343994509D9EB1807F1FF3180F0E18070
:105E3000994540F2DE80023F2B44A3EB0903B3FBFC
:105E4000FEF00EFB103300FB08F1A4B244EA034459
:105E5000A14209D92C1900F1FF3380F0C880A1427A
:105E600040F2C58002382C4440EA07400027641AFB
:105E70001EB10023D440C6E900433946BDE8F0878F
:105E8000002A54D0B2FA82F2002A40F0B4800127EE
:105E9000491B4FEA15481FFA85F9B1FBF8FE08FBCC
:105EA0001E1109FB0EF04FEA144C4CEA01439842D4
:105EB00007D9EB180EF1FF3102D2984200F2EB80C5
:105EC0008E461B1AB3FBF8F008FB103309FB00F9F0
:105ED000A4B244EA0344A14507D92C1900F1FF33C9
:105EE00002D2A14500F2DB801846A4EB090440EA87
:105EF0000E40BDE78B4208D9002E75D00027C6E9B9
:105F0000000138463946BDE8F087B3FA83F77FB918
:105F10008B4202D3824200F2BC80841A61EB0303FD
:105F200001209C46002EA8D0C6E9004CA5E7FFDE64
:105F3000C7F12005BB4022FA05FC4CEA030C21FA0C
:105F400005F44FEA1C4EB4FBFEF91FFA8CF80EFB69
:105F5000194420FA05F3B94009FB08FA19430B0C60
:105F600043EA0444A24502FA07F200FA07F30BD908
:105F70001CEB040409F1FF3080F08980A24540F257
:105F80008680A9F102096444A4EB0A04B4FBFEF084
:105F90000EFB104400FB08FA89B241EA0444A24512
:105FA00008D91CEB040400F1FF316CD2A2456AD978
:105FB0000238644440EA0940A0FB0289A4EB0A04C9
:105FC0004C454146CE4655D352D0002E6AD05A1A7F
:105FD00064EB0E0404FA05F522FA07F3FC401D43B6
:105FE000C6E90054002748E73746304645E71846DB
:105FF0003AE70F4621E79540C2F1200321FA03F06A
:106000004FEA1548B0FBF8F71FFA85F908FB170EA1
:1060100024FA03FC914007FB09FA4CEA0101080C41
:1060200040EA0E40824504FA02F407D9281807F125
:10603000FF332AD2824528D9023F2844A0EB0A0028
:10604000B0FBF8FC08FB1C000CFB09F389B241EA29
:1060500000418B4208D969180CF1FF3011D28B42F4
:106060000FD9ACF1020C2944C91A4CEA074714E7CE
:106070004345AAD2B8EB020169EB0C0201389646FF
:10608000A3E78446F0E7084694E71F46D6E7814633
:106090007AE7384646E7AEF1020E2B4411E70238A4
:1060A0002C4422E73746E8E6704700BF032A70B465
:1060B00014D940EA0105AD0704460B4622D11D68FC
:1060C00026681946AE42204603F1040304F1040495
:1060D00018D1043A032A20461946F0D8541E72B14A
:1060E00003780A78934208BF241806D00CE010F811
:1060F000013F11F8012F934206D1A042F7D10020B1
:1061000070BC7047541EEBE7981A70BC704700BF14
:10611000844641EA000313F0030349D1403A23D3F4
:106120000B6803604B6843608B688360CB68C36017
:106130000B6903614B6943618B698361CB69C361FF
:106140000B6A03624B6A43628B6A8362CB6AC362E7
:106150000B6B03634B6B43638B6B8363CB6BC363CF
:1061600040304031403ADBD230320BD30B68036011
:106170004B6843608B688360CB68C360103010311C
:10618000103AF3D20C3205D351F8043B40F8043BEB
:10619000043AF9D2043208D0D2071CBF11F8013BEF
:1061A00000F8013B01D30B8803806046704700BFB5
:1061B000082A13D38B07B1D010F00303AED0C3F17C
:1061C0000403D21ADB071CBF11F8013B00F8013BA6
:1061D000A4D331F8023B20F8023B9FE7043AD9D31D
:1061E000013A11F8013B00F8013BF9D20B7803703A
:1061F0004B7843708B78837060467047F0B48607A5
:1062000046D0541E002A3CD0CAB2034602E014F124
:10621000FF3436D303F8012B9D07F8D1032C29D97D
:10622000CDB245EA05250F2C45EA054533D9A4F141
:106230001006360903F1200707EB061703F11002D9
:1062400042E9045542E902551032BA42F8D1721CB3
:1062500014F00C0F03EB021204F00F0613D0331FDF
:1062600023F003030433134442F8045B9342FBD14D
:1062700006F003042CB1C9B21C4403F8011B9C4274
:10628000FBD1F0BC704734461346002CF3D1F8E73D
:1062900014460346C2E71A462646E0E7FEE708B57D
:1062A000FBF7F4FFF7B5002406462546274630469F
:1062B000FCF7DAF80197019BAB4215DB3046FCF79F
:1062C000DBF8C5F5C8750197019B9D4211DC0134CF
:1062D000B4F5487F01D103B0F0BDB4F5C87FCCBFA1
:1062E000C4F548752546E2E700BF019B01330193E1
:1062F000E1E700BF019B01330193E5E7FCF77AB9C1
:10630000FCF724BA70470020FCF7F2BA0120FCF732
:10631000EFBA0020FCF7B0BC0120FCF7ADBC0220B6
:10632000FCF7AABC0320FCF7A7BC10B50C46FCF791
:106330008DFF2046BDE81040FCF7BABF10B50446FB
:10634000C1B20020FCF7EAFB204610BD70B50E4636
:106350000024451E6B1C02D015F8010F08B9204619
:1063600070BDB442FBD0FFF7E9FF0134F2E738B566
:106370000546002415F8010B20B1FFF7DFFF0134BB
:10638000002DF7D10A20FFF7D9FF204638BD0020A5
:1063900070470120704710B50446302200210E20BE
:1063A000FCF7BAFC6CB1012C0CD142F21073001155
:1063B000A0F28E5058432A2390FBF3F000F5C3401F
:1063C000283010BD4FF00040FBE70020704701204F
:1063D000704710B50446302200210F20FCF79CFCCA
:1063E0005CB1012C03BF40F6F253584347F6F073FB
:1063F0004FF0004008BF90FBF3F010BD08B5084611
:1064000012B11146FFF7A2FF002008BD10B5041F0E
:1064100054F8040F00B910BD0021FEF7F7F8F7E7B4
:10642000704710B5044600F012F82046BDE8104051
:10643000FDF7A0BFC068B0FA80F040097047837BC9
:10644000DB0701D5FDF7D8BF7047FFF75BBF10B57D
:1064500041600446FCF7CAF9206010BD10B504463F
:10646000FCF7C4F92368C3F1010303446068984250
:106470002CBF0020012010BD10B5D0E900431C4402
:10648000FCF7B4F9201A10BD0023036070470068C0
:106490007047006808B9704718460368002BFBD1A5
:1064A0007047036810B53BB1002499421A6806D1C1
:1064B0001CB9026000221A6010BD2260FAE71C4677
:1064C000002AF9D01346F0E738B50546FFF7E9FF93
:1064D00000230B60FFF7DDFF08B9296038BD0160BC
:1064E000FCE738B50446FFF7DCFF03680B6021606A
:1064F00038BD0368002003B9704701301B68FAE714
:1065000000B10068704710B5044642880021406819
:10651000FFF774FE23886288A0685A43BDE81040E4
:106520000021FFF76BBE002310B54188994201DCC2
:10653000002009E04268D418D25C32B901222270EE
:106540000288806803FB020010BD0133EEE70023E0
:1065500030B5826844889C4201DCFF2008E08A4212
:1065600007D14168CA5C0AB1013ACA544268D05C9A
:1065700030BD058801332A44EDE782688A4208D895
:106580004388008800FB032081422CBF00200120AB
:106590007047002070470023013A01600271437187
:1065A0008371704710B5427983790479D31A34EA3C
:1065B000030308D0036899544379027901331340E7
:1065C0004371012010BD0020FCE7837942790179F5
:1065D000D21A0A421FBF0268D25C01330B401ABFB5
:1065E000837110464FF0FF307047831C0020023348
:1065F00013F8042C02B9704713F8032C1044F6E783
:10660000072B2DE9F8430746884615461C4607DC4C
:106610001A4629464046FEF789F93870BDE8F883E6
:10662000DE107AB918F805307B550135AE42F9DC39
:1066300014F00702F2D0002108EB0600FEF776F90D
:10664000B855EBE74FF0000908EB0900082229468E
:10665000FEF76CF907F8090009F101094E45F3DC72
:1066600014F00702DAD02946E6E72DE9F743FEF7F2
:10667000ADFB04460220FEF755FB20B90025284655
:1066800003B0BDE8F0836378207800EB032080B28C
:10669000FEF73EFA05460028F0D0FEF797FB80464D
:1066A000287B10F0070318BF012303EBD000FEF78F
:1066B00039FB0028E2D00026B146AC68023414F859
:1066C000023C002BDBD0192B14F8017C08EBE6010F
:1066D00006F007020BD901A83B46FFF791FF01A97D
:1066E00014F8020CFEF740FC3E440234E7E73B4658
:1066F00001A8ADF80490FFF783FF9DF805109DF801
:10670000043014F8020C43EA0121FEF71FFCEBE70A
:10671000072B2DE9F0410FDC1478C1F11001CB1AE1
:1067200004FA03F30178C3F307220A4341780270A5
:106730000B434370BDE8F081DC10C9B9555C45548A
:106740000131A142FADB13F00703F3D0125DC3F16C
:1067500008052A41C3F11003055D02FA03F3C3F3F0
:1067600007222A43011902554A7813434B70E1E787
:1067700005460026C1F1080E975D95F800C007FA9E
:106780000EF7C7F307284CEA080C05F801CB95F87B
:1067900000C001364CEA0707A6422F70ECDB13F06D
:1067A0000703C7D0125DC3F1080631440A41D2B2D3
:1067B000C3F11003015D02FA03F3C3F307220A4396
:1067C000051902556A7813436B70B3E72DE9F74357
:1067D000047B054614F0070318BF012303EBD40420
:1067E000A01CFEF725FBA8B1FEF7B6FAAB88037034
:1067F000AB881B0A4370FEF7AFFA871C22460021C4
:106800003846FFF7FBFCAC680025023414F8020C94
:1068100018B9012003B0BDE8F083192814F8016C01
:1068200007EBE50805F007090AD9FEF7A9FB33468F
:10683000024649464046FFF76BFF35440234E5E720
:10684000FEF78CFB3346ADF8040001AAF1E710B562
:10685000FEF70AFAFEF72CFBFEF7D6F900F058F81F
:10686000BDE810404FF4E1234FF4F0524FF40071B3
:106870000220FEF711B97047F8B50F46FEF7A6FAE9
:1068800006880446FEF76CFAB3000233834203D84D
:1068900000250234AE4200DCF8BD54F8041B384633
:1068A0000A0C89B2FEF7C2F90135F3E7FEF72AB9FF
:1068B000FEF782B803691B6803B118477047036984
:1068C0005B6803B11847704738B50D46FEF720F9ED
:1068D000044620B185602846FEF768F9207338BD6C
:1068E00043695B6803B11847704713B504461A2023
:1068F000FEF746FB014601A800F044F863691B68F7
:1069000013B101A92046984702B010BDFFF7CEBFD2
:10691000FEF7EAB883695B6803B118477047FFF771
:10692000F5BF10B504461B20FEF71EFB2046BDE850
:106930001040FEF70FB90EF00F000D2808BF00F051
:106940000EB800982DE9F04F00F1240181F3098879
:1069500090E8F08F0EF00F000D2818BF7047EFF38E
:10696000098020E9F04F0990BDE8F08F006800F140
:10697000B6018230FEF7C2BA036803EB4101B1F8F9
:10698000820070470B880380704708B50222FFF72A
:106990008DFBB0FA80F0400908BD30B591B0FEF72C
:1069A00015FA0446FEF7DCF96A4601462046FEF772
:1069B000C7FD044620B94FF0FF34204611B030BD6A
:1069C000FEF7B0F90028F6D09DF810101420FEF75D
:1069D000BDFA9DF81730ABB1BDF81C50FEF7AAFD0B
:1069E000854205D04FF6FF73BDF81C209A42E2D1D4
:1069F00069469DF8170000F0C0F818B969461B20D9
:106A0000FEF7B2FA02A91A20FEF7AEFA9DF81210AC
:106A10001320FEF79BFA9DF8153053B99DF81A1014
:106A20000A20FEF793FA9DF81A100E20FEF78EFA50
:106A3000C3E74FF6FF71F3E70120FEF729BB002003
:106A4000FEF726BB30B530B3037A022B2CD1C579C3
:106A5000437A04792DB9002B4AD1012C48D1204624
:106A600015E053EA04001DD0032D2FD1032B2FD1A5
:106A7000B4FA84F04009002309E0181C18BF012073
:106A8000002CF8D1023B012B8CBF0023012301B164
:106A90000B6002B1106030BD023B012B8CBF0023A4
:106AA0000123DCE701201BE00378022B22D00379CD
:106AB00053B9437A13F0030318BF0123C07910F0D0
:106AC000030018BF0120E2E70023F7E7022DD4D02E
:106AD000A3F1020CDCF1000040EB0C00002CCAD149
:106AE000022DCFD0032DC6D19C1E63426341CEE759
:106AF000002CD1D000200346C9E7002337B50B6036
:106B00008B80437D0D46D9075CBF01232B70037E2C
:106B10000446012B0BD8C37D9A072CD0437E9B07DC
:106B200029D0C28B838B9A4225D10123237501AAD8
:106B3000694604F11000FFF785FF009B0BB10223AB
:106B4000EB70019B0BB102236B70E37D03F0030339
:106B5000022B03D0032B0CBF08230023AB70637EF2
:106B600003F00303022B03D0032B0CBF08230023E5
:106B70002B7103B030BD0023D8E702280CBF0223DD
:106B800008230B448B4201D10120704713F8012DDB
:106B9000FF2AF7D00020704707B56946FFF7ADFF21
:106BA0009DF800309DF80100023303449DF8020077
:106BB00003449DF8030003449DF8040003449DF83A
:106BC0000500184403B05DF804FB43788278DB00CD
:106BD000120102F0100203F008031343027802F0DE
:106BE00007021343C278520102F0200213430279D4
:106BF000920102F0400213430B704379427A03F092
:106C0000010343EA82138279520002F00202134325
:106C1000C279920002F00C021343027A120102F0D0
:106C2000300213434B70704737B504460D46694632
:106C3000FFF763FF04F110002946FFF7C6FF9DF838
:106C40000030012B02BFA37E0320AB709DF8013002
:106C500018BF0220022B08D1A28B431C2A54A28BFE
:106C6000DBB20230120AC0B2EA549DF80230184476
:106C7000C0B2C21AD2B2B3B99DF80330022B08D108
:106C8000E28B431C2A54E28BDBB20230120AC0B200
:106C9000EA549DF8043008341844C0B2C21AD2B283
:106CA0002BB903B030BD013BE15CA954E1E7013BE6
:106CB000E15CA954F2E71FB50C460278437802F074
:106CC00007018DF80410C2F3C0018DF80510C2F35E
:106CD00000118DF80610C2F34011C2F380128DF836
:106CE000082003F001028DF80920C3F340028DF85B
:106CF0000A20C3F381028DF80B20C3F301129B0914
:106D00008DF80D308DF80C208DF8071001AB03CBFA
:106D10001B8820606160238104B010BD30B40D4633
:106D20000446114620B11A462846234630BC18476F
:106D300030BC704700207047FEF798BC70B5044621
:106D40000D4652B1D2E90060FDF7D4FF2946204636
:106D5000FEF792FC32460028F3D170BDFEF78CBCE2
:106D600070477FB501AC84E80C0090F8794090F84A
:106D70007860651CB54217D0B0F87860B6F5106F32
:106D800012D0EDB2092D04F1140600EBC40440F852
:106D9000261084E80C008ABF002380F8795080F820
:106DA0007930012004B070BD0020FBE7034610B528
:106DB00093F8794090F87800844215D0143053F855
:106DC0002000086093F8781003EBC10103C982E842
:106DD000030093F8782001200132D2B2092A88BF3B
:106DE000002283F8782010BD0020FCE70844023818
:106DF00090FBF1F301FB13000130C0B270470000BB
:106E0000647020009D242000F92420000000000070
:106E100001000000010000000100000000C000406F
:106E200000410D4000000000080000002C000000A0
:106E300000000001FFFFFFFF05000000020000004E
:106E4000020000000200000000D0004008410D4098
:106E500002000000080000002C00000002010200F7
:106E6000FFFFFFFF06000000FF70200003712000FD
:106E70001271200016712000613420004D32200074
:106E8000B13220002B6320007D3320002D31200003
:106E9000812E2000992E2000592F2000412E200005
:106EA000CD2F200069312000B93520004D3320005E
:106EB00007000000FF00000005000000ED000000DA
:106EC00003000000D500000001000000C500000024
:106ED00000000000B6000000FFFFFFFFB000000050
:106EE000FDFFFFFFA1000000FBFFFFFF910000007E
:106EF000F9FFFFFF88000000F7FFFFFF72000000AE
:106F0000F5FFFFFF62000000F3FFFFFF58000000E5
:106F1000F1FFFFFF42000000E8FFFFFF000000005C
:106F20003D712000976320008F6320009363200051
:106F300051712000D3632000CB632000CF63200079
:106F40006B662000CD672000EB652000E371200018
:106F50004F6820008549200079682000776820006C
:106F6000EB682000E1682000B94B20001569200083
:106F70003F6A2000396A20009B692000F4712000DC
:106F80008953200041522000C1512000CD512000E2
:106F9000D9512000E5512000F9712000396D200001
:106FA0005D6D20003D6D2000A55720006D5620002E
:106FB0008D572000356D2000F957200041582000E2
:106FC0000958200001722000616D2000B95820008E
:106FD000AD582000F400002004010020E40000204F
:106FE000000000007D5B2000000000000000436FF7
:106FF0006E74696B692D386438633237333135000C
:107000005A6F6C65727469612052452D4D6F7465BD
:10701000207265766973696F6E204220706C6174AE
:10702000666F726D0052696D6520636F6E66696789
:107030007572656420776974682061646472657331
:10704000732000253032783A00253032780A00204B
:107050004E65743A2000204D41433A2000205244AE
:10706000433A2000427574746F6E004343323533E7
:10707000383A2049443A2030782530346C782C2036
:107080007265762E3A20504725642E25642C2046C2
:107090006C6173683A20256C75204B69422C205333
:1070A00052414D3A20256C75204B69422C204145B8
:1070B000532F5348413A2025752C204543432F52E6
:1070C00053413A2025750A53797374656D20636CBA
:1070D0006F636B3A20256C7520487A0A492F4F2040
:1070E000636C6F636B3A20256C7520487A0A526591
:1070F0007365742063617573653A2025730A0050C7
:107100004F520045787465726E616C2072657365CC
:10711000740057445400434C44206F7220736F66D0
:1071200074776172652072657365740063633235CC
:10713000333820524620647269766572004F6E2D96
:10714000436869702054656D70657261747572650D
:1071500000564444330020202020202020202020DE
:10716000202020202020303030303030303030307F
:1071700030303030303030313233343536373839E2
:107180004142434445460030313233343536373896
:1071900039616263646566003058003078002B0006
:1071A000286E756C6C290025004374696D6572202A
:1071B00070726F63657373004576656E74207469D1
:1071C0006D65720053657269616C206472697665E1
:1071D000720053656E736F7273000080C0E0F0F848
:1071E000FCFEFF52696D650000001A1000001B10C4
:1071F0001A10000043534D41006E756C6C7264634D
:10720000006E756C6C73656300546865206275660A
:107210006665722069732066756C6C2E20436F6EF4
:10722000736964657220696E6372656173696E6704
:107230002074686520274255464645525F53495A97
:1072400045272076616C756520696E20276275661A
:107250006665722E68270073656E645F70726F6377
:107260006573733A20737461727465640050726F51
:107270006365737320696E6469636174652061205E
:107280007061636B657473206861732072656163FC
:10729000686564206974732064657374696E6174D1
:1072A000696F6E0050726F6365737320746F207323
:1072B000656E64207061636B657473004C657373F5
:1072C0006F6E20333A20526F7574696E670050619B
:1072D000636B6574207265616368656420646573BF
:1072E00074696E6174696F6E20000A4C6F61646529
:1072F0006420616E20696E76616C69642052494D2C
:107300004520616464726573732028307825782580
:1073100078292120526570726F6772616D6D2074DB
:107320006865206465766963652E0A0A000A5468F8
:107330006973206E6F64652077696C6C20666F726C
:1073400077617264207061636B6574732077697410
:10735000680020626C756520636F6C6F722E0A0086
:1073600020677265656E20636F6C6F722E0A002055
:1073700079656C6C6F7720636F6C6F722E0A0020DA
:1073800064656661756C7420636F6C6F722E0A00A1
:107390004C6F6F6B7570207461626C653A00494484
:1073A0007C2044455354494E4154494F4E207C2043
:1073B0004E4558545F484F50207C20434F53542033
:1073C000002564207C20307825780920202020208A
:1073D0002020207C202030782578092020207C2047
:1073E00025642020200A000A2D2D2D2D2D2D2D2D38
:1073F0002D2D2D2D2D2D2D2D2D2D2D2D2D2D2D2DBD
:107400002D2D2D2D2D2D2D2D2D2D2D2D2D00524998
:107410004D452061646472203D200930782578252F
:10742000780A005573696E6720726164696F206322
:1074300068616E6E656C2025640A002D2D2D2D2D42
:107440002D2D2D2D2D2D2D2D2D2D2D2D2D2D2D2D6C
:107450002D2D2D2D2D2D2D2D2D2D2D2D2D2D2D2D5C
:037460002D2D00CF
:10746400306F2000006E2000206F2000000000001C
:10747400000000002C7120002935200000000000CD
:10748400FD6320000000000000000000A97120003E
:10749400514120000000000000000000B8712000ED
:1074A400C94220000000000000000000C471200058
:1074B4007D4620000000000000000000D271200082
:1074C400814720000000000004000800BB0E0020DB
:1074D4005C040020BE000800C30E0020B00700209A
:1074E4000C000800CF0E0020BC0500203400020070
:1074F400D70E0020200600200C000800D90E002022
:1075040088060020000000006D722000DD59200074
:107514000000000000000000BC722000995A200006
:107524000000000000000000A47220003559200073
:1075340000000000CDAB00010002000300010002C6
:107544000002000102000001000200030003000227
:107554000003020001000001000200030001000119
:087564000003010200001A01FE
:08756C006CE8FF7F0100000044
:020000040027D3
:10FFD400FFFFFFF30000000000202000FFFFFFFFF1
:10FFE400FFFFFFFFFFFFFFFFFFFFFFFFFFFFFFFF1D
:0CFFF400FFFFFFFFFFFFFFFFFFFFFFFF0D
:040000050027FFD4FD
:00000001FF
