:020000040020DA
:10200000A01800208D222000437B2000417B20006F
:10201000417B2000417B2000417B2000000000002C
:10202000000000000000000000000000D981200036
:10203000417B200000000000F7812000A57B2000EC
:10204000B77B2000BD7B2000C37B2000C97B200024
:1020500000000000AB7B2000B17B2000417B200012
:10206000417B200000000000000000000000000094
:102070000000000000000000417B20000000000084
:102080000000000000000000417B2000417B200098
:10209000417B2000417B2000417B2000417B2000D0
:1020A000417B2000417B2000417B2000417B2000C0
:1020B000417B2000417B2000417B2000417B2000B0
:1020C000417B2000417B2000417B2000417B2000A0
:1020D000417B200000000000000000000000000024
:1020E00000000000000000000000000000000000F0
:1020F0000000000000000000F53720000538200037
:1021000000000000000000000000000000000000CF
:1021100000000000000000000000000000000000BF
:1021200000000000000000000000000000000000AF
:10213000000000000000000000000000000000009F
:10214000000000000000000000000000000000008F
:10215000000000000000000000000000000000007F
:10216000000000000000000000000000000000006F
:10217000000000000000000000000000000000005F
:10218000000000000000000000000000000000004F
:10219000000000000000000000000000000000003F
:1021A000000000000000000000000000000000002F
:1021B000000000000000000000000000000000001F
:1021C000000000000000000000000000000000000F
:1021D00000000000000000000000000000000000FF
:1021E00000000000000000000000000000000000EF
:1021F00000000000000000000000000000000000DF
:1022000000000000000000000000000000000000CE
:1022100000000000000000000000000000000000BE
:1022200000000000000000000000000000000000AE
:10223000000000000000000000000000000000009E
:10224000000000000000000000000000000000008E
:10225000000000000000000000000000000000007E
:10226000000000000000000000000000000000006E
:10227000417B2000D9362000FD3620008D2D200026
:1022800069392000B5282000417B2000FF22482426
:1022900008B5084B08481A60084AE369121A084949
:1022A00098470848084AA369121A0021984700F085
:1022B0000DF8FEE7B4200D40400000205B01002037
:1022C000E0912000600100209F10002073B500F015
:1022D0003FFC00F0F7FC00F055FC00F059FA01F06B
:1022E00031FB05F00DFD00F0E5FC00F0B3F8012036
:1022F00005F02AFC02F0FAF800F016FC002000F0CD
:1023000031FB012000F02EFB4049002000F0F6FBDD
:1023100002F034FA62B6042005F016FC3C4805F0E1
:1023200078FC3C4805F075FC00F0D0F9002002F084
:10233000D1FA01F0F7F90021374802F065F901F010
:102340003DFF05F02DFC00F045FD00F061FD02F0C1
:1023500031FE0821684601F01BFB9DF806309DF810
:1023600007502E4C45EA0325BDF806302C48238043
:1023700001F048FB2B4E21782B4801F043FB61789C
:102380002A4801F03FFBF46A4AF6CD310220A0470B
:1023900029460320A0471A210120A04708226946A8
:1023A000736B0B209847224801F02CFB214B1868D7
:1023B00005F02FFC204801F025FB204B186805F0A4
:1023C00028FC1F4801F01EFB1E4B186805F021FC7D
:1023D00000211D4802F018F91C4B01219B68812047
:1023E000984705F06FFC1A4805F062FC00F0A2FB6C
:1023F000022005F0A9FB00F0A3FB02F08FF810F01B
:10240000FF0FF8D101F032FAF5E700BF35472000A1
:10241000AE882000C08820007800002096100020A0
:10242000E5882000E8862000038920000989200033
:102430000F892000BC87200016892000EC8720002F
:102440001D89200008882000980000207086200048
:102450004488200008B500F0DDF80022014B1A7016
:1024600008BD00BFE80E0020024A13781843107020
:1024700000F0F4B8E80E0020034A137823EA0000C5
:10248000107000F0EBB800BFE80E002018B1012872
:1024900004D000207047034B18687047024B18782F
:1024A000704700BF20900D40E90E002010B5094A8A
:1024B0000020137801331370074B197802F07CF871
:1024C000BDE8104005490023054A0968054801F0A8
:1024D000ABBE00BFE90E002098100020B80100201C
:1024E000AD24200098010020812808B52BD0B0F53C
:1024F000807F3AD0802824D101F0EAFF1C4B1D4A8E
:1025000018701368032123F00803136052F8203C6D
:10251000002023F0080342F8203C52F81C3C23F032
:10252000080342F81C3C52F8183C43F0080342F8F8
:10253000183C042200F0D4FB032200210E4800F0D6
:1025400073FB012108E00D4B0D481A6831B142F0D0
:1025500008021A6001230360084608BD22F0080241
:102560001A600123C0F88030F6E7064B1960E8E7EF
:102570009810002020940D408925200010940D40D3
:1025800000E100E0B801002008B50F4805F0C6FBE7
:10259000C8B108210C4805F0B5FB0C4B196849B1CE
:1025A00000220B4B1A700B4B1B6843B90A4A0B48AD
:1025B00001F03AFEBDE80840094802F05BB907485F
:1025C00001F03CFEF6E708BD90010020B8010020B4
:1025D000E90E002020900D40AD242000980100203D
:1025E00070862000084A136823F00403136052F831
:1025F000203C43F0040342F8203C0022034B1A60C5
:102600000122034B1A70704720C40D4010C00D40CA
:10261000EA0E00200D4A0E49136823F0C003136030
:1026200052F8203C43F0C00342F8203C0022094B02
:102630001A600B6823F010030B6051F8203C43F044
:10264000100341F8203C044B1A60704720A40D4051
:1026500020C40D4000A30D4040C00D4010F0020208
:1026600018BFFF22084B1A6010F0040218BFFF22A7
:10267000064B10F001001A6018BFFF22044B14BF74
:102680001A601860704700BF00A20D4000A10D4005
:1026900040C00D40044B1868C0F30720030904BF75
:1026A0001030C0B2704700BF1C300D40064B186898
:1026B000C00910F0060F03BF00F00700C0F10200D0
:1026C00040034FF40040704714300D402DE9F047AF
:1026D000482588B0FFF7DEFF164B07461C68AB683D
:1026E00098476B68804698470546FFF7DFFF064628
:1026F00000F082FA814600F08BFA824600F038FA48
:10270000B60A04F00103AD0AC4F34004CDE905A004
:102710000393CDF8109002940196009507F00F03F3
:10272000C7F307124146044801F06CF908B0BDE850
:10273000F08700BF1C300D402B8920002DE9F843A5
:1027400000F07AF810490246D1E90045AC46A042B3
:1027500038BF05F1010C6346C1E900230B48D0E9FD
:102760000089B8EB040169EB05048E1844EB0C07F3
:10277000C0E9006701F016FE18B1BDE8F84301F0AA
:1027800095BDBDE8F88300BF68010020600100200E
:10279000E0210D4B0D4A5A600D4A82F823100022A9
:1027A00007219A6019600B490B6843F001030B6025
:1027B000094B1A60042243F80C2C012243F8082C20
:1027C0000F22DA62704700BF10E000E047E8010026
:1027D00000ED00E008200D400C000340034BD3E95E
:1027E0000023100A40EA0360704700BF6801002020
:1027F000054B18601C3B1A6842F001021A601A6807
:10280000D207FCD4704700BF2800034010B5064C27
:10281000236823F001032360FFF790FF236843F050
:102820000103236010BD00BF10E000E0014B1868F9
:10283000704700BFBC010020064B18685A68083377
:102840001B681B0443EA0223034A0343106843EA5C
:102850000060704740500D404C500D40014608B597
:10286000104A1368DB07FCD572B6FFF7E5FF0B1AB9
:10287000062BD8BFC11D0C4B0A0E1A60C1F30742CC
:1028800043F8042CC1F3072243F8082CCAB243F8DA
:102890000C2C62B64FF40032044B1960044B1A61E1
:1028A00008BD00BF50500D404C500D40BC010020F1
:1028B00000E100E008B500F0C1FF0022064B1A60FD
:1028C0004FF40032054BC3F89021C3F89020BDE8C7
:1028D000084001F0CFBE00BFBC01002000E100E0D5
:1028E0002C23154A70B503FB00234FF6BF72DC683A
:1028F0000546236C626413F050020DD00F4EA3699D
:10290000DB0600D570BD56F825301BB12068C0B27B
:102910009847F4E72368F2E713F4D06FF2D04FF44E
:1029200040732363FF236360E36AE262E362236B25
:1029300043F001032363E5E780862000C001002007
:10294000064B1B681B075FBF054B186880F008002B
:10295000C0F3C00048BF0020704700BF18C000404F
:1029600018D0004001282DE9F74F064600F2B48048
:102970002C2545435A4F7C1994F92080B8F1000F5B
:10298000C0F2AA8094F92290B9F1000FC0F2A4809D
:10299000544800F0C5FF544A79591368E5680B4361
:1029A00013605368616894F921A00B4353609368E6
:1029B000A1685FFA89FB0B4393600023C5F8C83F09
:1029C00023690AEBC8021A6094F92330227D009330
:1029D0009DF8003058461946019300F08BF9019B91
:1029E00008221946584600F07BF901233F494FEA77
:1029F0000939009A59F8010003FA02F2024349F832
:102A000001204FEA083858F8010003FA0AF202439D
:102A100048F801205022AA63AA6B94F9240042F4DA
:102A2000D062AA6302226A634FF440722A63A269E9
:102A300000286A62E269AA624FF07002EA620D46FB
:102A400014DB94F925102A4A41EAC00414600203F9
:102A500054598B4023435351C9B20022C0B200F0F5
:102A60003FF9244A136843F4004313602C2303FB0B
:102A7000067393F92640002C1BDB93F927A05FFA1D
:102A800084F85FFA8AF901224946404600F032F99B
:102A900001232403625903FA0AF313436351082202
:102AA0004946404600F01CF9124A136843F480433B
:102AB00013602C2303FB0676F268136B43F00103CB
:102AC0001363012296F82830590903F01F0302FA14
:102AD00003F3094A42F8213003B0BDE8F08F00BF8C
:102AE000808620004129200028200D4020940D40A0
:102AF00004410D4030D0004000E100E001289CBFBF
:102B0000014B43F820107047C0010020012808D86D
:102B10002C22044B02FB0030C3689A699206FCD455
:102B200019607047808620000022014B1A607047B0
:102B300000500D400822014B1A60704700500D40B4
:102B4000A022024B1A6050221A60704700500D40BC
:102B5000014A024B9A6070470020200000ED00E01F
:102B6000024B1868C0F38150704700BF04200D402D
:102B700008B5FFF7F5FF024B53F8200008BD00BF72
:102B8000D886200038B5164D164C2B68012223F04C
:102B900040032B602368062123F0400323600320B9
:102BA00000F09EF82B68012223F080032B6023683D
:102BB000072123F080032360032000F091F80A4BE3
:102BC0000A4A0B491A600B4A134610680842FCD1A6
:102BD0001A685101FCD41A685201FCD538BD00BFF7
:102BE00020C40D4000C40D4000200D400101020032
:102BF0000000010104200D40034B04481B6803F052
:102C000007031841704700BF04200D400048E80149
:102C1000034B04481B68C3F302231841704700BFED
:102C200004200D400048E801024B02EBC10243F8CA
:102C300022007047C8010020F8B507460E46002460
:102C4000084D05EB411547FA04F3DB07E1B204D563
:102C500055F824300BB1304698470134082CF2D196
:102C6000F8BD00BFC80100202DE9F8430746DFF892
:102C7000408000F0E3FD0C4B3D03EE5855F8084052
:102C80004FEAC70924FA09F446EA04003946C0B2FB
:102C9000FFF7D2FFE4B2054BF6B204FA09F4EE50A6
:102CA00045F80840BDE8F88318940D401C940D4089
:102CB00018970D4080220021014804F0B7BE00BFE4
:102CC000C8010020034B044A1A60044B803A1A6082
:102CD000704700BF4802002080400D404C02002099
:102CE000034B01EBC0011B6843F82120704700BF74
:102CF00048020020034B01EBC0011B6843F8212070
:102D0000704700BF4C0200200E28F0B50BD1154DC6
:102D1000154F2C6844F002032B603D6825F03F06F8
:102D200046F001063E60114E336823F0FF03134363
:102D30000B4303430E4A336013681B06FCD50D4B4F
:102D40000D4A1B6812680E2803F0FC0343EA0223B5
:102D500008BF054A1BB204BF1560024A184608BFE7
:102D60001460F0BD34000144F486084008700D4042
:102D700000700D400C700D4010700D40024B186833
:102D8000B0FA80F04009704700B708404FF40042A5
:102D9000064B10B5064CC3F89021C3F8902020686C
:102DA00018B101F049FC0023236010BD00E100E0F0
:102DB00050020020064A136843F002031360536870
:102DC00043F002035360936843F00203936070473B
:102DD00048200D4007B50C4800F0A2FDFFF7EAFFC0
:102DE0000A4B1A6842F002021A6000220192019A0C
:102DF0000F2A06DD1A6822F002021A6003B05DF89D
:102E000004FB019A0132F1E77D2D200054200D4092
:102E1000064A136823F002031360536823F0020389
:102E20005360936823F002039360704748200D407D
:102E30000B4B1A689207FCD41B685B065FBFED2240
:102E4000084B1A601A60084B1B6813B1EF22054B40
:102E50001A60064A0120137803F07F03137070474D
:102E60004C860840388808402C860840ED0E00202B
:102E7000044B186800F02200A0F12003584258418A
:102E8000704700BF4C860840024B186800F04000B5
:102E9000704700BF4C860840044B1A6818B142F0D6
:102EA00001021A60704722F00102FAE7008608402A
:102EB000204B1870002832D01F4A13681B03FCD522
:102EC0001E4B1A6842F002021A601A6842F00102B0
:102ED0001A601A685007FCD51A6822F001021A60BD
:102EE0001A685107FCD41A6842F002021A601A6884
:102EF00042F001021A601A685207FCD5104A1368A2
:102F000023F004031360D2F8A83123F00403C2F8BD
:102F1000A8314FF400520B4BC3F890207047084A79
:102F2000136843F0040313604FF40052054B1A6119
:102F3000704700BFEC0E002004200D4004880840BC
:102F40008C86084000E100E0084B93F90020002A3D
:102F500009DBED21064A11601160E32111601A7846
:102F600062F07F021A700120704700BFED0E002052
:102F700038880840A0F10B01CBB20F2B10B50446E6
:102F800013D80B4B1B6813F03F0302D0FFF750FF21
:102F9000012301EB8101074A0B3111600BB1FFF7EF
:102FA000D3FF054B60B21C7010BD4FF0FF30FBE744
:102FB000488608403C8608405801002010B50C4661
:102FC000002900F08680102800F28580DFE800F0FC
:102FD00009101B22243B44575C727683837B7D540B
:102FE0007F003E4B1B68003318BF0123236024E0A1
:102FF00005223B4B1B6803F07F030B3B93FBF2F373
:103000000B33DBB2F2E7374B1A68043B1B6843EA29
:103010000223EBE7344BF7E700230B60334B344AD2
:103020001B6803F001030B601268900644BF43F075
:1030300002030B602F4B1B780BB900200BE00B68D1
:1030400043F00403D2E700202B4B08601B78002BD1
:10305000F3D001230B6010BD284B29491A680023C7
:10306000D2B201EBC3000079904202D851F833305C
:10307000BCE701330E2BF4D16FF01703B6E7214BF9
:103080001B685BB2493BB1E71F4B1B6899060FD128
:10309000FFF75AFF01231D490A68D207FCD51C4AD5
:1030A0001168493949B20BB1FFF7C2FE2160C4E78C
:1030B0000023F0E7174B93F9003097E7164B1B7886
:1030C00003F07F0392E70B2390E71A238EE7072391
:1030D0008CE70220BFE70120BDE700BF2C86084037
:1030E0003C860840CC850840D485084000860840CE
:1030F00024860840EC0E002059010020408608403C
:10310000208720005886084048860840648608408A
:1031100060860840EE0E0020EB0E002008B50B4B39
:103120001B6899060FD1FFF70FFF012308490A68B2
:10313000D207FCD5074A1168C1F300110BB1FFF7A4
:1031400077FE084608BD0023F0E700BF4886084028
:10315000648608404C86084008B507285BD8DFE83D
:1031600000F0040F1A21253B4155012903D1FFF737
:10317000EBFE002035E000294FD1FFF759FEF8E7BC
:10318000A1F10B030F2B48D8C8B2FFF7F3FE0130B3
:10319000EFD1032025E089B2214BCAB2090A1A6097
:1031A0005960E6E789B2CAB21E4BF7E731F0070370
:1031B00033D101F00100FFF76FFE1B4B11F0020F3E
:1031C0001A68C1F3800014BF42F0200222F02002EE
:1031D0001A60FFF76DFECCE731F001001DD1134BF3
:1031E000197008BD01F118031F2B16D80D23104AC2
:1031F00052F83300814205DC02EBC3031A790D4B10
:103200001A60B6E713F1FF33F2D2B2E7C9B20A4B44
:1032100049311960ADE70120E3E70220E1E700BF93
:10322000C8850840D0850840248608405901002000
:1032300020872000408608405886084038B505465B
:103240000C46134A13689B07FCD4124B93F90030C9
:10325000002B01DBFFF778FEEE220F4B691E1A6090
:103260001A60A21C43F8102C2144022000F074FACA
:103270000A49013C41EA0411022000F07FFA0220D1
:1032800000F086FA022000F09BFA002038BD00BF53
:103290004C860840ED0E00203888084002C001C06E
:1032A000F8B5224B93F90030002B18DBFFF7C4FA76
:1032B0000446FFF749FEC4F1FF2404F57F04F63409
:1032C000FFF7BAFAC442FBD40126194B1B7843B965
:1032D000184C2368990609D502210846F8BD002636
:1032E000F3E7FFF71BFF0028F2D1F5E7E9230427F6
:1032F000114D2B6023689A0703D4013F17F0FF0795
:103300000BD123689B070CD4EE2301212B602B608B
:10331000002EE2D0FFF78CFDDFE70620FFF768FA0A
:10332000E8E7216811F00201FBD1F1E7ED0E002082
:10333000590100204C860840388808400B280DD1E0
:10334000082A0DD161B1074B074A083111F8010D68
:1033500043F8040B9342F9D10020704701207047D5
:1033600002207047A8850840C885084070B5304ED7
:10337000336813F0400358D02E4D2C68230605D532
:10338000ED2200202C4B1A601A6070BDE4B2042CB0
:10339000F6D9023C8C42F3DCE4B2032C1ED12B683C
:1033A00003702B6843702B6883702968234B49395D
:1033B00049B219702B68224D18062B70E0D589B2DE
:1033C000042001F0CDFD2978032001F07F0101F0F8
:1033D000C7FD1C4B1B78CBB12046D6E7011901393C
:1033E000032000F0C1F9184B611E43EA01110320CC
:1033F00000F0C4F9032000F0CBF9032000F0E0F95D
:10340000032000F0E9F90028FAD1CEE733685A0624
:10341000E2D533681B0603D50C4801F00DF9DBE754
:10342000ED22054B1A601A60D6E71846ADE700BFDB
:103430004C8608402888084038880840EE0E002056
:10344000EB0E0020EC0E002002C0010C500000200A
:10345000F8B5294F3D7815F001054BD10124F8222C
:10346000264B7F261C605C609C60A3F59323A3F52C
:1034700014731A600922C3F89021152270331A6060
:103480000B2203F59B2303F59E731A604022A3F5DC
:103490009B23A3F5F0731A601A6842F020021A60A9
:1034A000D52243F81C5CDE62DA61154B1878FFF711
:1034B00061FD4FF48042134B02201E60124B1A61D3
:1034C00000F072F91149022000F04EF9032000F0DB
:1034D0006BF90E49032000F03FF90D4B1878FFF708
:1034E000E7FC0C48294601F08FF820463B7823433F
:1034F0003B70F8BD0020FCE7ED0E0020A8200D4039
:10350000580100209486084000E100E02888084027
:10351000EC0E00205000002038B50388044653B359
:1035200040F20342934233D11B4B18781A4638BB02
:10353000822923D1137873B901F0C4FC01F050FC47
:103540008021FFF713FF002805DD80B201F008FCA1
:10355000124B1B699847124B1A7852060BD5002262
:103560001A70104B1D68FFF763FCFFF771FFAB0685
:1035700001D0FFF7E9FC40F20343238001200AE079
:103580001B78002BFAD0064B1B785806F6D5CFE7F0
:1035900000230380032038BDEC0E002008882000A3
:1035A000ED0E0020488608400B282DE9F0470C4618
:1035B0000FD1082A79D1002977D03D4B3D4A4C1EC6
:1035C00053F80419934204F8011FF9D10020BDE813
:1035D000F0870C2867D1042A67D1002965D0364BC3
:1035E00036491A68DFF8E48022F007021A600A6898
:1035F000334F42F008020A60D8F800003A681D68AC
:10360000DFF8CCE025F07005DFF8C8C01D60DEF8FB
:103610000050DCF80060C0B2120240EA066092B2CC
:1036200002434FEA0549274809F47F09D0F800A072
:1036300042EA09061A685FFA8AF522F0070242F0A8
:1036400001021A600A6842F008020A60D8F80020F5
:103650003F68196821F0700141F010011960DEF82F
:103660000010DCF800C0D3B23A0243EA0C6392B215
:1036700013430A04016802F47F0243EA02085FFA76
:1036800081F9FFF7D9F8B6EB080165EB0905ED0301
:1036900007460D4AC803002345EA514103F09CFF49
:1036A000381A206092E7012091E702208FE700BFDF
:1036B000C4850840A4850840108808400488084054
:1036C000188808401C8808400048E8011488084011
:1036D000248808402088084008B5054B1B7813B99A
:1036E000044800F0A9FF0022034B1A6008BD00BF88
:1036F000EC0E00205000002034880840064B07489C
:103700001A68042A1FBF06490A7842F040020A706C
:1037100000221A6000F090BF2C8808405000002062
:10372000ED0E002008B5094B40220021184604F098
:103730007DF90121064A074B116050604FF4804229
:103740005A604FF400425A6008BD00BF00000020DC
:1037500004F00F4000E100E003289EBF014B000190
:10376000195070470000002003289EBF024B03EB56
:1037700000135960704700BF0000002003289EBF5F
:10378000024B03EB00139960704700BF000000205C
:10379000032805D80123034A834011680B431360B3
:1037A000704700BF28F00F40032805D80123034AC3
:1037B000834011680B431360704700BF20F00F4037
:1037C000032805D80123034A834011680B43136083
:1037D000704700BF14F00F4003289FBF044B03EB5A
:1037E0000013986800F0070088BF0020704700BFF2
:1037F000000000204FF0FF32014B1A60704700BFFD
:1038000004F50F400122014B1A6070474CF00F4045
:10381000084B19461A68D002FCD4074B1A6822F4E8
:1038200080321A600A68D203FCD41A6842F400326B
:103830001A60704704200D4000200D4010B5094C5F
:10384000226890070DD0084B1A4619684901FCD42C
:1038500013685B01FCD5FEF7D9FFFFF7D9FF002302
:10386000236010BD58200D4004200D4038B5264B74
:103870001C6814F03F0414D1244D55F8043B23B1C7
:10388000984770B10134052CF7D1214D2B7843B105
:10389000FEF7CCFF0446FEF7CFFF201A092800D917
:1038A0000CB930BF27E01B4B1A6822F400321A60B3
:1038B000194A11461068C002FCD41A6842F48032DA
:1038C0001A600B68DB03FCD5FEF7B6FF201A092847
:1038D00003D8BDE83840FFF79BBF63280F4C0BD9D6
:1038E0002B78022B08D1236000F05CFE30B1FFF78B
:1038F0008FFF0023236038BD0123F4E7FEF796FF16
:103900000028F4D0CDE700BF4886084054020020CC
:10391000EF0E002000200D4004200D4058200D40E7
:10392000074A10B50023144652F8041B814202D006
:1039300011B944F8230010BD0133052BF4D1FAE787
:10394000540200200022054B05491A600B6943F020
:1039500004030B61034B1A70704700BF58200D40E1
:1039600000ED00E0EF0E00204FF48032064B10B562
:10397000064CC3F89021C3F89020206818B100F0DD
:103980005BFE0023236010BD00E100E06802002020
:1039900070B5184B1A78431E1AB9174A1278122AB2
:1039A0000AD001F52011154A2731914216D011F89D
:1039B000010903F8010FF8E7114A12784B2AF0D1F8
:1039C0004C0804F520120D4D2732AA4207D10023DE
:1039D00001F5201120442731A34205DB70BD12F808
:1039E000016903F8016FF0E7CA1A1278013300F891
:1039F000012BF1E72B0028002A00280027002800CF
:103A0000290028000FB407B504AA52F8041B044883
:103A1000019200F021F803B05DF804EB04B07047A8
:103A20006000002070B505460C460A4E102C07D8E1
:103A300074B12B68224668680649BDE87040184793
:103A40002B68102231466868984710B9103CEDE7A2
:103A5000204670BD168A20002DE9F04F804615469D
:103A600000268FB00791079B1B78002B00F0528334
:103A7000079B1A781C460133002A00F03A83252A56
:103A8000F7D1079B9C4205D036E323783E44002BB8
:103A900000F040836378621C002B00F03B8300241D
:103AA000104610F8011B13462B2916D00AD82029DE
:103AB00016D0232917D0A1F13107082F3FD84FF096
:103AC000000A18E02D2904D03029F4D144F0100464
:103AD00001E044F001040246E2E744F00604FAE79C
:103AE00044F00204F7E744F00804F4E70A2303FB78
:103AF0000A1AAAF1300A134612F8011BA1F130008C
:103B00000928F3D91A782E2A35D159785A1CA1F1EF
:103B10003000092828D8002711781346A1F1300079
:103B2000092802F101021AD91A786C2A40F0908013
:103B30005A786C2A22D144F08004023321E02A29E9
:103B40000AD1D5F800A00346BAF1000F05F104052B
:103B5000B8BF44F00104D5E74FF0000AD2E70A23CA
:103B600003FB0717303FD7E72A2903D12F68023319
:103B70000435D9E713464FF0FF37D5E7013344F05A
:103B800060041A78642A00F0908000F28380462A4C
:103B900000F0AD806FD8252A00F0BE8064D8002ADE
:103BA00000F0B8820133079304F4E063B3F5806F4B
:103BB00000F0578200F2B380B3F5807F00F0EC8014
:103BC000B3F5407F7FF44FAF8F4B14F4804F8F4A93
:103BD00008BF1A460DF1330300211F46286804353B
:103BE00050EA010C40F07282FF1A04BF302203F841
:103BF000012C4FF0780208BF03F1FF3303F8012CCA
:103C00004FF0300208BF012703F8022C23220337AC
:103C1000BA458CBFAAEB070A4FF0000A14F0010462
:103C2000A3F1030903F8032C06D151464046FFF7E0
:103C3000F9FE002840F06C82D8F800303A46494638
:103C4000D8F804009847002840F062823E4433E2EE
:103C5000682A96D15A78682A02D144F020046CE789
:103C6000013344F040048CE7412A4CD0452A99D1D5
:103C700044F4424496E7582A33D004D8472A91D1D5
:103C800044F4A1348EE7612A3AD0632A8AD144F4FD
:103C9000A06487E76E2A3CD00AD8662A24D029D3AC
:103CA000672A2AD0692A7FF47DAF44F4245479E747
:103CB000732A2BD007D86F2A10D0702A7FF472AFE6
:103CC00044F440746EE7752A05D0782A7FF46AAF11
:103CD00044F4C85466E744F4106463E744F4885439
:103CE00060E744F4B2445DE744F400745AE744F4F6
:103CF000844457E744F4024454E744F4813451E7E0
:103D000044F4C1344EE744F4E1344BE744F48064B6
:103D100048E744F4E06445E744F4C06442E7B3F59F
:103D2000C06F2DD0B3F5E06F00F0DF81B3F5A06F69
:103D30007FF499AEBAF1010F38BF4FF0010A2B683A
:103D400014F0010405F104058DF820300AF1FF3765
:103D500007D139464046FFF765FE002840F0D8817C
:103D60003E44D8F80030012208A9D8F8040098474A
:103D7000002840F0CD81002C00F0A1813946E0E020
:103D8000D8F8003001222249D8F8040098470028CA
:103D900040F0BE81013666E6002FACBF24F010046F
:103DA000012714F4005204F0E003069232D0402BB5
:103DB00023D008D823B3202B0FD000220023CDE935
:103DC0000023002317E0602B1AD0802BF5D1073594
:103DD00025F00705F5E8022303E095F90020D31745
:103DE0000435002A73F10001E9DA524263EB430320
:103DF000CDE90023012303931DE0B5F90020EEE790
:103E00002A680435D317ECE7478A2000368A200059
:103E1000678A2000402B00F0AF8000F29980002BD1
:103E200000F0AC80202B00F0A080069B00220393C2
:103E30000023CDE9002304F4C053B3F5805F00F004
:103E4000D480B3F5C05F00F0D580B3F5006F00F00B
:103E5000B68000230DF1360B0493049B41F2080257
:103E60009F4288BFFF1A41F6080304EA030198BF86
:103E7000002791421A4602D1002F08BF0127049B58
:103E8000914203EB070040F0CF80DDE900231343AC
:103E900000F0CA80A14914F4804FA14B4FF00209F1
:103EA00018BF0B46069A72B1039A002A40F0C080F0
:103EB00004F00602022A00F0BF80062A994A04BFD5
:103EC0004FF00109134609EB000292458CBFAAEBA3
:103ED000020A4FF0000A14F00102009204D1E10638
:103EE00040F1AE8057449246B9F1000F09D0D8F89E
:103EF00000404A461946D8F80400A047002840F080
:103F000007813C46049B1E44102CD8E9003000F287
:103F1000A1802CB1224684499847002840F0F880BF
:103F2000D8F80030049A5946D8F804004E4498470F
:103F3000002840F0ED80009B3E44002B00F0BF8045
:103F400051464046FFF76EFD002800F0B880DFE0E4
:103F5000602B13D0802B7FF468AF073525F0070561
:103F6000F5E80223CDE9002304E02A780023CDE917
:103F700000230435069B3EE72A88F7E72B680022DA
:103F800019460435CDE90012F4E7DDE904010A22FF
:103F9000002303F021FBDDE9040130320BF8012D91
:103FA00000230A2203F018FBCDE90401DDE9042314
:103FB0001343EAD10DF13603A3EB0B034CE7DDE924
:103FC00000230DF1360BCDE90423EFE702F00701E2
:103FD00030310BF8011DD10841EA4371D8080A4677
:103FE000034652EA0301F1D1E4E7DDE900230DF1D4
:103FF000360BF6E74D4B14F4804F0DF1360B4C4960
:1040000008BF1946DDE9002352EA0300D2D002F0CE
:104010000F00085C4FEA131C0BF8010D100940EA71
:10402000037002466346EFE74FF000094B4639E75D
:104030004FF001093F4B46E74FF001093E4B42E785
:10404000514640460393FFF7EDFC039B00283FF4E5
:104050004BAF5DE0102234499847002858D1103CFE
:1040600052E7D5F800B00435BBF1000F29D05B460C
:10407000994699F800200133002AF9D1A9EB0B09E0
:10408000002F02DBB94528BFB946CA458CBFAAEB51
:10409000090A4FF0000A14F0010404D151464046C9
:1040A000FFF7C0FCA0BBD8F800304A465946D8F804
:1040B0000400984760BB4E44002C7FF441AF564447
:1040C000D1E4DFF878B04FF00609D9E700F00F0C23
:1040D00012F80CC04FEA111E03F801CD4FEA101C74
:1040E0004CEA017C604671467AE52B6804351E6017
:1040F000B9E4079B9C420DD0079B0799E71A3A4603
:10410000D8F80030D8F80400984700283FF4BDAC38
:104110004FF0FF3630460FB0BDE8F08F588A2000D0
:104120005B8A20005E8A2000268A2000478A2000C1
:10413000368A2000469020001B892000608A2000DB
:10414000F8B5038806461546CBB14A2B2BD18829F2
:104150001FD1174803F01DFE0446C4B1231D9D4224
:104160001FD12146124803F01EFE124D62692F68CE
:104170002A60A2690AB1E06990472F6007E00C4805
:1041800003F007FE044634B901220B4B1A704A2390
:10419000338001200AE0A168201D03F094FD24680B
:1041A000F1E72468D9E7002303800320F8BD00BFAE
:1041B0006C020020F8030020F00E002010B500244F
:1041C000054B06481C7003F0E1FD2146BDE8104098
:1041D000034800F019BA00BFF00E00206C02002066
:1041E0006800002070B50446E3610B4B049D1B780A
:1041F000C4E905526BB1094D094B2E68201D2B6097
:1042000003F061FD2E602146BDE87040054803F0D3
:10421000DDBDA160F7E700BFF00E0020F80300202D
:10422000680000206C02002013B5034C2468009441
:10423000FFF7D8FF02B010BDF803002010B5084BFF
:1042400004461B7843B1043000F0B4F82146BDE8C1
:104250001040044803F0A7BDC0E90333F6E700BFF0
:10426000F00E00206C02002010B50E4C236813B92C
:104270000D4A136010BDFEF7B1FA2168D1E90023A1
:1042800013448A681B1A1AB91844074B1860F1E7DF
:10429000D2E900142144091A8B4228BF0B469268C8
:1042A000F1E700BF7402002070020020014800F016
:1042B000C3B900BF780000202DE9F8430388054604
:1042C00053B1592B47D1872920D1002024490B68AD
:1042D00063B918B10B6001E0214A13605923012032
:1042E0002B80BDE8F88301203346F1E7D3E902646F
:1042F0009442F8D000B10B6099680029EED0C868EC
:1043000090420ABF89680B469960F5E78229E5D19A
:10431000134F4FF00009B84600263C68002CDDD052
:10432000204603F0FBFC98B122468821E06800F0AB
:1043300043F958B9E060A3682EB1B360C4F808909F
:10434000FFF792FFE8E7C8F80030F7E7FFF7AEFFA6
:104350002646A468E2E7002303800320C1E700BFEC
:104360007402002010B50446FFF7A0FFE3680B4A73
:104370000BB1136833B90A4B1B68E3601368146010
:10438000A36004E0A34206D1054A1268DA60BDE8E2
:104390001040FFF769BF9B68ECE700BF7402002084
:1043A000F8030020024B1868003018BF0120704746
:1043B0007402002010B50B4A04461368834208D1EA
:1043C00083681360FFF750FF0023C4E9023310BD78
:1043D0001346002BF8D09A68A242F9D1A2689A60DD
:1043E000F0E700BF7402002038B5836804460D462C
:1043F0009BB10A4804600220A07304F10C009847A6
:104400000238012801D9832D05D121462046BDE877
:10441000384000F005B80123A37338BDF80300202D
:104420002DE9F8431C4F04463D6889462B46A342BC
:1044300004D00BB9BDE8F8831B68F8E7002CF9D06D
:10444000164EA37BD6F8008063B10023A3738DB909
:10445000A3683BB14C4505D034602A46832104F162
:104460000C0098473B68A3420ED123683B60C6F816
:104470000080DFE7A54204D022468721284603F0CA
:1044800039FC2D68E3E71346002BF0D01A68A242EE
:10449000F9D122681A60EAE7FC030020F803002043
:1044A000002238B50125084B1A70084B1C6804B966
:1044B00038BDE37B2BB1E581002282212046FFF746
:1044C00093FF2468F3E700BFF40E0020FC030020F4
:1044D000024B1878421C1A70704700BFF20E002081
:1044E000014B1968FFF79CBFF80300208A22064B96
:1044F0001A700023054A1370054A1370054A1360A9
:10450000054A1360704700BFF20E0020F10E002034
:10451000F30E0020FC030020F80300202DE9F041F9
:104520001B4D2B780BB1FFF7BBFF1A4C22789AB1C9
:104530000C21194E194F3378013A59430133781839
:1045400003F01F0317F801803370D0E90170227067
:1045500090B9134B1E6826B92B7820781844BDE813
:10456000F0812B780BB1FFF79BFF30463A4641466E
:1045700003F0C0FB3668EEE7B8F1810F08BF0123F6
:104580003A4608BF8373414603F0B4FBE4E700BF3B
:10459000F40E0020F30E0020F10E0020780200201F
:1045A000FC030020024A034B10781B781844704724
:1045B000F30E0020F40E0020F0B50B4E3378202BC4
:1045C0000FD00C25094C0A4F24781C4404F01F041A
:1045D0006C433D19C5E90120002001333955337082
:1045E000F0BD0120FCE700BFF30E0020F10E00201B
:1045F0007802002038B5034C256803F07BFB25606A
:1046000038BD00BFF803002030B40A4C0A462568C4
:104610002B4683420CD04BB950B101210560817308
:1046200020608381812130BCFFF7E4BF1B68F0E785
:1046300030BC7047FC03002038B1837B013B012B69
:104640009FBF0123014AC37313707047F40E00200B
:10465000024610B5064853600468029B11609360DF
:10466000026014B90846FEF7F9F8002010BD00BF3B
:104670000004002010B5084C206858B100232360C6
:10468000D0E901319847236823B1BDE8104018688C
:10469000FEF7E4B810BD00BF0004002070B5058827
:1046A0000446672D09D0792D2FD0002D33D1FFF787
:1046B0000FFF1B4B18701B4B1D601B4E194D08E064
:1046C0000A282B680ED07E2B03DC5A1C2A60174A5E
:1046D000D054304603F04AFB431CF1D167232380BA
:1046E00001201BE05A1C2A600025104A2846D55498
:1046F0000B4B1978FFF760FF0D4B2A468521186890
:10470000FFF75AFF18B97923E9E78529E8D1002294
:10471000044B1A60D1E700230380032070BD00BF63
:104720009D1000200404002008040020F50E002045
:10473000F80300200D2810B5014616D00C4C237844
:1047400053B90C4803F0FFFA08B9012323700A4853
:10475000FFF772FF012010BD0A28F8D1054803F0C9
:10476000F2FA0028F3D00023F0E70020F3E700BFBF
:10477000750F0020080400208800002008B50549B6
:104780000548802203F0D8FABDE80840002103481C
:10479000FFF73ABF760F00200804002088000020B1
:1047A0002DE9F04104880646772C20D07E2C3DD0A0
:1047B000002C4ED1FFF78CFE284D294B294FDFF8F6
:1047C000B08018702C602B6857F823202AB9264A2D
:1047D00013707723338001203EE008F8034093688C
:1047E0000021802098472B6801332B60EBE70023E2
:1047F0001E4A1360194A1360184B1B4A1B68127833
:104800009A4204DC194B1B68002BF0D1E1E7184AEF
:10481000D256002A19DA134A002052F82320104BEE
:104820001978FFF7C9FE28B97E23D3E70C4B1B7814
:104830008B42D0D1094B0E491A688B5C03F07F0381
:104840008B540A4A136801331360044A1368013316
:10485000D1E7002303800320BDE8F0811404002089
:104860009E10002040000020F60F002010040020C1
:104870009910002010B40A4B0A4A197800238B4281
:1048800003DA52F8044BA04208D107490748CA5C32
:1048900062F07F02CA5410BCFFF7CEBE0133EEE7D0
:1048A000F60F002040000020991000209800002002
:1048B000064A136843F004031360054B1868043379
:1048C0001B6840EA032080B2704700BF00700D40B3
:1048D00014700D4010B5174A136823F00C031360D1
:1048E0000122154B1A601A68012AFCD10822134BC9
:1048F00013491A60E32203F505731A601A460B6820
:10490000DB07FCD50F4C102100232068013900F093
:10491000010043EA00034FEA43039BB2F5D1002BA9
:10492000F1D00949180A03F0FE0308600B60EF2379
:10493000136010BD00700D40A8200D402486084073
:10494000648608409C86084014700D4010B50478B9
:10495000437843EA042303FA01F1044B985CC2F163
:10496000080200EA21201041C0B210BD9A8A20003E
:10497000F8B506460A480D46174603F00AFA0446FB
:1049800030B93A4629463046BDE8F84003F01FBC2E
:10499000A3680BB128469847204603F033FAEEE7A8
:1049A0001804002038B500F0CFF80546094803F098
:1049B000F0F9044628B95DB12846BDE8384003F057
:1049C00001BC636803B19847204603F01BFAF0E787
:1049D00038BD00BF1804002010B5044600F0C2F82E
:1049E00038B100F0D9F9034B034821469B6898473A
:1049F000012010BD348820007149200070B50B4C97
:104A00000023616E0A4A04F13800FFF70DFCFFF73E
:104A10004FFF616E0023B0FBF1F5064A05FB110163
:104A200004F11800BDE87040FFF7FEBB1C04002035
:104A3000394A2000514A2000044B5A6E196E520028
:104A4000914294BF59665A66FFF7D8BF1C040020F4
:104A500010B500F037FA00F0C3F9002303800446D4
:104A600000F04EF82288930008B1017B51B9981CE0
:104A700080B200F075F9238873B1BDE81040074893
:104A800000F0B6B8818823445980C18801329980EA
:104A9000228003F0B7F9E5E710BD00BF1C04002039
:104AA0009DF80030012B04D1024B9A6D5A66FFF736
:104AB000A5BF70471C040020F8B50F4616461D46DA
:104AC000064C0146064A204600F080F8C4E91676F6
:104AD00025660448BDE8F84000F00CB81C0400202E
:104AE000C8872000A14A2000014803F04FB900BF49
:104AF00088040020014B1860704700BF8C04002020
:104B0000014803F046B900BF880400202DE9F041B8
:104B100006460C480C46174603F03BF908B9BDE8B9
:104B2000F0818388A34209D18568002DF7D03B46E8
:104B300022463146AC46BDE8F041604703F062F9D9
:104B4000ECE700BF88040020054B10B51B689847B0
:104B5000044618B18188012000F002FA204610BDF9
:104B6000B087200038B5064B05465B689847044679
:104B7000A988012000F0F4F9201C18BF012038BDDD
:104B8000B0872000014B9B68184700BFB08720000A
:104B9000014803F0FBB800BF90040020818001466B
:104BA000014803F013B900BF9004002010B504467B
:104BB000054803F0EEF800B910BD8388A342FBD08E
:104BC00003F020F9F7E700BF9004002070B5054618
:104BD0000C461646044A00F041F86E612046BDE8D6
:104BE0007040024903F0BBBAD0872000A88A200099
:104BF00010B5044604491A2000F0C0F92046BDE86B
:104C0000104003F0DDBA00BF9610002070B50446D6
:104C10001B200D4600F0BEF9064903F015FB38B124
:104C2000A3691B6823B129462046BDE87040184798
:104C300070BD00BF9610002070B505460C461646A4
:104C4000044AFFF7C3FFAE612046BDE87040024949
:104C500003F085BAD8872000AC8A200070B50546DD
:104C60000C461646FFF79AFF2E612046BDE87040BD
:104C7000014903F074BA00BFB28A200008B50448A5
:104C800003F0C3F8BDE80840024803F0BEB800BF17
:104C9000B4000020A800002038B50E4803F0C5F885
:104CA000054650B10C4803F0C0F80446286030B9FE
:104CB0002946084803F0CDF82546284638BD00F0BF
:104CC00097F804F1B601A4F8800004F1820000F026
:104CD0001FF9F2E7A8000020B400002010B501463B
:104CE0000446074803F0CBF848B12168054803F0B3
:104CF000B0F82146BDE81040014803F0AAB810BD45
:104D0000A8000020B400002010B501460446094860
:104D100003F0B5F868B12468B4F88010204600F0BC
:104D2000E1F804F1B60104F18200BDE8104000F0A2
:104D300003B910BDA800002010B507490B888342B5
:104D400008DB064C80B222880244181A0880012031
:104D5000228010BD0020FCE7140E0020160E00205B
:104D6000014B1880704700BF140E002000487047A8
:104D7000B4040020014B1888704700BF140E0020B7
:104D8000034A044B10781B781844C0B2704700BF28
:104D900007100020160E00202DE9F0410C4F3A8834
:104DA00072B100240B4B0C4EB3F800800B4B1D78F6
:104DB000354421B2414504F1010403DB00233B806B
:104DC000BDE8F081FFF7DCFF3044435C6B54F0E753
:104DD000160E0020140E0020B4040020071000203E
:104DE00008B5FFF7CDFF014B184408BDB4040020FF
:104DF000F8B50C4B05461E780B4B1F88F419802C18
:104E00000DDC3246094902F09BFDFFF7E9FF35440E
:104E100001463A46284602F093FD2046F8BD00249C
:104E2000FBE700BF07100020140E0020B404002090
:104E300008B5FFF7A5FF024B1B88184480B208BDD8
:104E4000140E002010B50146FFF7F2FF4318802B27
:104E500012DC0138094B00B203444A1C002805DA71
:104E6000074B187808441870012010BD13F8014949
:104E700001389C5400B2F1E70020F6E7B4040020AA
:104E80000710002038B50C4D0C4C342200210C4882
:104E900002F0CCFD2946204603F0D3F92946A01C98
:104EA00003F0CFF92946201D03F0CBF92946A01DB8
:104EB000BDE8384003F0C5B97C8820005A100020B6
:104EC000621000200023044A1380044A1380044A1D
:104ED0001370FFF7D7BF00BF160E0020140E00207E
:104EE0000710002038B50C460546FFF7EBFF802C75
:104EF00028BF802429462246034802F021FD034BA7
:104F000020461C8038BD00BFB4040020140E0020D1
:104F100010B5074B03F1340253F8044B934240F8A9
:104F2000044BF9D1034A13680B6053684B6010BD02
:104F3000621000205A10002010B5074B00F1340217
:104F400050F8044B904243F8044BF9D10B68034AE4
:104F500013604B68536010BD621000205A1000208F
:104F6000024B23F810100120704700BF6210002090
:104F7000014B33F8100070476210002008B5044B55
:104F80001A3803EB400003F05CF9012008BD00BFB4
:104F90005A100020024B1A3803EB4000704700BF44
:104FA0005A1000200149024803F04EB97C882000C5
:104FB0005C100020084B10B51B689847074B5B68D6
:104FC0009847074B5B689847064B5B689847BDE876
:104FD0001040054B5B681847E886200008882000D1
:104FE00034882000EC872000BC872000F8B5FDF74E
:104FF000F5FB114E0546002437461A20FFF7CAFF7D
:10500000314603F021F980B10A20FFF7B1FF0C23EC
:1050100003FB0474237A83420CD16068281AB0F52C
:10502000206F8CBF00200120F8BD0134102C06F148
:105030000C06E2D10020F7E73405002070B5184DCA
:1050400000242E461A20FFF7A5FF294603F0FCF89E
:10505000013418B9102C05F10C05F3D10C23621E94
:1050600003FB0464A4F10C057AB90A20FFF780FF62
:105070003072FDF7B3FB70601A20FFF78BFFBDE8BD
:1050800070400146064803F0DCB82B4654F8180D72
:10509000013A616803C3A0682C461860E2E700BFCC
:1050A00034050020014B1888704700BF54010020D0
:1050B0002DE9F041012986B006460F46144651DD20
:1050C00003A903F002FA03AB03CB1B8820612383FF
:1050D0009DF811306161002B48D0B51C02AA01A9CE
:1050E00003A803F0B9F89DF81380B8F1000F50D071
:1050F000029B2BB16A7815F8023B03EB02239BB2AB
:10510000B8F1020FA38335D13349204603F099F853
:105110006B78237015F8023B63709DF81580B8F129
:10512000000F50D0019B002B3AD06A7815F8023B53
:1051300003EB0223029A9BB2E38302B9A383B8F183
:10514000020F30D1244904F1080003F07AF86B789B
:10515000237215F8023B6372A81B3B1A8742C4E90D
:105160000E5300DA002006B0BDE8F081B378F51CDC
:10517000A376B3E7B8F1030FCFD105F108021346C8
:10518000611E13F8010D9D4201F8010FF9D115467A
:10519000C3E71149204603F054F8A4F81C80BCE78B
:1051A000A38BE383CBE7B8F1030FD5D105F1080258
:1051B000134604F1080113F8010D9D4201F8010B9B
:1051C000F9D11546C8E7044904F1080003F039F89D
:1051D000A4F81E80C0E700BF7C88200030B591B0E5
:1051E0000546FFF75FFF4FF6FF73984204D14FF07B
:1051F000FF34204611B030BD40220021684602F045
:1052000015FC404B1A782AB901221A70FFF750FB9F
:105210003D4B18701420FFF7ABFE8DF810001320E3
:10522000FFF7A6FE8DF81200FFF7BCFE044600282B
:1052300048D000238DF813308DF815300023012459
:105240008DF814308DF818404DB10A20FFF790FE0C
:1052500000283FD00A20FFF78BFE8DF81A000224A9
:105260008DF81940FFF71EFFADF81C00FFF79AFEFE
:1052700000283CD04FF6FF738DF81740ADF8003092
:10528000FFF710FFADF81E001A20FFF783FE01465E
:1052900002A802F0D6FFFFF7A3FD0E90FFF76AFD0C
:1052A0000F90684603F082F80446002DA1D0FFF766
:1052B000C9FD00289BD0FFF759FD0146684603F061
:1052C000BDF896E70B20FFF753FE8DF815408DF8DB
:1052D0001300B3E70C4B1A7802B91C7019780A2036
:1052E0004A1C1A708DF81A10FFF73AFEB7E71B2018
:1052F000FFF750FE0146684602F0A3FF8DF8174005
:10530000BEE700BF0810002009100020014BDB6839
:10531000184700BF34882000014B5B69184700BF65
:1053200008882000014B9B69184700BF08882000AF
:10533000024BD86900B10047704700BF08882000C1
:1053400070B590F829500F4B042D28BF0425012477
:10535000DB6906469847AC40651E041E08BF012461
:105360006C4305D0FFF7A4FAB0FBF4F303FB14047D
:105370003346214606F10800034ABDE87040FEF7B7
:1053800053BF00BF08882000F95420002DE9F041E8
:1053900007461B208846FFF7FDFD484B05461A7857
:1053A000474C22B901221A70FFF782FA2080238825
:1053B0000BB90123238021880A204B1C2380FFF78F
:1053C000CFFD404802F0E5FC0446002845D13E48A8
:1053D00002F02BFD0446002865D02946201D02F06E
:1053E00030FF002304F12C00C4E90B30238502F0C8
:1053F000CDFC2146334802F0E9FC206B02F0FBFCB7
:10540000072850DC314802F010FD054600283ED048
:105410002F4802F00AFDA860A8B3FFF73DFC6860C2
:1054200068B30920AE68FFF7A3FD00BB0823337201
:10543000C6E900780D20FFF79BFD01282946206B67
:105440001AD102F0D0FC206B02F0A3FC854232D1CD
:105450002046BDE8F041FFF773BF2946201D02F04A
:10546000F3FE0028C9D1204602F0CCFCACE70920AD
:10547000FFF77EFD3072DBE702F0A8FCE3E7A968E6
:10548000134802F0E6FC2946104802F0E2FC206BCB
:1054900002F0B1FC38B921460A4802F084FC2146EA
:1054A000094802F0D6FC41463846BDE8F0410123E8
:1054B000042203F03DB8BDE8F08100BF0A100020CF
:1054C000180E002054060020CC000020D800002038
:1054D000C000002008B5054802F097FC044802F01F
:1054E00094FCBDE80840034802F08FBCD8000020BF
:1054F000C0000020CC00002013B5044668B1006B4A
:1055000002F047FC024640B12146054B0548DB68E6
:10551000019302B0BDE81040184702B010BD00BFB3
:1055200008882000A55520002DE9F0470D461446B7
:105530008B688046D3E90067106B92F8289002F0E0
:1055400032FC6868FFF7CAFBA968124802F081FCC8
:105550002946114802F07DFC206B02F01AFC60B174
:10556000002320462385FFF7EBFE4B464246394693
:105570003046BDE8F04702F0DBBF04F10800FEF75B
:105580005DFE2146054802F00EFC2146044802F06B
:1055900060FCEAE7C0000020D8000020540600208C
:1055A000CC0000202DE9F0410E461746044620B1FC
:1055B000006B02F0EEFB054608B9BDE8F0810A2158
:1055C000686802F038FE80460A20FFF7D1FC80456B
:1055D00046D0284602F016FCEDE794F8282000207B
:1055E0003A4484F828202946224684F82900BDE858
:1055F000F041FFF799BF002284F8292094F8282071
:105600003A44D2B284F828201B7A93421CD822460E
:1056100029460220EBE794F829203A44D2B2052A21
:1056200084F8292007D9002194F8282084F829102B
:10563000013284F8282094F828201B7A9A4203D358
:10564000224629460120D2E72046FFF779FE686806
:10565000BDE8F04102F0DBBD224629463046C6E7F0
:10566000AB68002BA9D0032EF6D801A252F826F081
:10567000DB55200017562000F7552000BB552000B1
:1056800013B50024094B1C70094B1C80FDF7D4F89E
:10569000009400F18001074B01220748FEF7D8FF74
:1056A0000122064B1A7002B010BD00BF221000206C
:1056B0001A0E0020895B2000440700201D100020E6
:1056C000074B82B01B784BB1064B1A7832B90122D6
:1056D0001A70054B1B6A019302B0184702B070475D
:1056E0001D10002022100020E8862000094B82B007
:1056F0001B786BB1084B1A7852B1084A127802F045
:10570000FF012AB91970064B5B6A019302B0184772
:1057100002B070471D100020221000201E10002033
:10572000E886200008B5FFF7E1FF0022014B1A6070
:1057300008BD00BF54070020044B1B7823B9044B5D
:105740001B680BB9FFF7D2BF704700BF24100020C1
:10575000540700200022094B82B01A70084BC2B2D5
:105760001A70084A084B28B101211B6A1170019375
:1057700002B0184710705B6AF9E700BF1D100020E7
:105780001E10002022100020E886200037B50B4BA9
:105790001A7802F0FF056AB901241C70084B1D70CD
:1057A000FDF74AF8009500F18001064B22460648B5
:1057B000FEF74EFF012003B030BD00BF1D100020DA
:1057C0001E100020895B20004407002037B50B4BDA
:1057D00005461B780C4673B1FDF72EF8231A022BF1
:1057E0004FF0000348BF841C00930122044B214664
:1057F0002846FEF72DFF03B030BD00BF1D1000206E
:10580000895B200013B5224C22680AB9FFF76EFFAE
:10581000FFF7B0FA032823D0FFF70AFB00B31D4BB4
:105820009B68984700281BDBFFF7A4FAC0B1FFF77D
:10583000FFFAA8B11B20FFF7ADFB174902F004FDEA
:1058400050B11320FFF794FB206058B9FFF74EFFCB
:105850001248FEF7F3FC0DE0FFF7A4FB0028F0D19F
:1058600002B010BDFFF72CFF00230D4A04210B48A6
:10587000FEF7DAFCFFF7BAFB0028F1D1FFF7DEFBF9
:10588000084BDB68019302B0BDE81040184700BF29
:1058900054070020288820009610002020070020B0
:1058A00025572000EC8720002DE9F04F784E8BB073
:1058B000337805903BB9774B1B7823B905252846EB
:1058C0000BB0BDE8F08FFFF7B3FA0028F6D07249AD
:1058D0001A20FFF753FBFFF765FB80460C20FFF70C
:1058E00047FBA8B1FFF7A4FA4FF001096B4C0190F8
:1058F0006568FFF73BFA0199A847694FA36987F8E4
:1059000000900293984768B100233B700125D6E7C9
:1059100001210B20FFF724FB624B5B6898470028AE
:10592000E0DACBE7E3690393984705460028EBD11B
:10593000FFF7DCFE337886F80090DBB20493059B1A
:105940007BBB4FF006096FF0030A6FF00F0BFCF7FB
:1059500073FF0690FFF7B4FE0698AAEB00030693C8
:10596000FCF76AFF069BC342F9D46369984748B9BC
:105970000190FFF7BBFE01983870FFF7B7FE049B5C
:105980003370C3E7FFF7B2FEFCF756FFABEB000343
:105990000693FCF751FF069BC342F9D4B9F1010904
:1059A000D5D1B8F1000F01D1FFF78AFE0A20FFF729
:1059B000DFFA5FFA80FBFDF7C3F8FCF73DFF814695
:1059C000394B1B1A06936FF0CF0AAAEB090AFCF7B2
:1059D00033FF1AEB000F4BD5FDF7B2F8B8F1000F0B
:1059E0003ED0A36801989847FCF726FF6FF00C03A0
:1059F0001B1A0793FCF720FF079BC342F9D4B8F1A9
:105A0000000FE4D1029B9847002835D0FCF714FF23
:105A10006FF01409A9EB0009FCF70EFF19EB000F5A
:105A2000FAD42369032109A8984703282DD19DF8AA
:105A300026305B4529D100244FF00109FFF756FEBF
:105A4000049B337000233B70002C7FF45FAFB8F1F0
:105A5000000F7FF434AF994514BF1D4602252EE791
:105A6000059B002BBDD0FCF7E7FE069BC342B8D4D4
:105A700000244FF00009E1E7039B98470028C5D1B7
:105A80006369984700289ED1C0E70124F1E700BF71
:105A90001D1000201E10002096100020E886200017
:105AA0002410002028882000DEFDFFFF2DE9F14FA3
:105AB000074688461446002A5DD0304B1E685EB10A
:105AC0005068FFF721F901231A464146384601B0D4
:105AD000BDE8F04F02F02CBD1546DFF8A4A0DFF8BA
:105AE000A4B0284602F08EF981466868FFF70CF9E9
:105AF0000C20FFF73DFAE8B9B9F1000F03D00121FE
:105B00001320FFF72DFA51461A20FFF737FA01212B
:105B10000B20FFF725FADBF804309847002802DA5B
:105B200001230522D1E701210C20FFF719FA68684B
:105B300002F073FB4D46002DD3D1204602F062F9EE
:105B400005466068FFF7E0F81320FFF711FA814679
:105B50003046FFF7A9FE032804460CD00246012375
:105B60004146384602F0E4FC2CB925B12C4601260A
:105B7000B9F1000FE1D101B0BDE8F08F540700206A
:105B8000961000202888200040F2B1122DE9F3473A
:105B90006D4C05462388934215D0B3F5D97F04D2C6
:105BA000002B00F08680002393E040F2E312934242
:105BB0002ED040F202229342F5D10023634A1370A3
:105BC000634A137007E0624A13780133DBB2012B9A
:105BD000137000F282805F4B1A78002A70D15E4AFF
:105BE0001268002A6CD11B780BB9FFF769FD5B4B7B
:105BF0005B699847002861D10122544B1A70FCF769
:105C00001BFE574B574A186000231370564A1370F7
:105C1000504B564E1B78002B7CD13378002B79D01B
:105C2000FCF70AFE6FF4CC724D4B1B68C01A10448F
:105C300000286FDA494FDFF82C917B699847B84606
:105C400018B199F800000130C0B2474FD8F818A039
:105C50003B7889F8000001333B70D047002853D0CF
:105C6000002389F800303B78D8F81C800A2B04D92F
:105C7000D04710B9C04700284AD0C047002849D1B2
:105C80003B4B1B7893B12E68FCF7D6FD331A13F10A
:105C9000120F4FF0000348BF811C009358BF06F15C
:105CA0001401344B01222846FEF7D2FC40F2E313E4
:105CB0000FE0FCF7C1FD304B18607EE7FFF73CFDBD
:105CC000FCF7BAFD00F110012846FFF77FFD40F216
:105CD000B113238002B0BDE8F0871C4B1B78002B6A
:105CE0008DD1254E336880333360FCF7A5FD3368D2
:105CF000C3F1A003C3427FF560AF31682846FFF7C8
:105D000065FD40F20223E4E799F80030052BAAD99B
:105D1000FFF712FD3378002BE3D0104EB36998479C
:105D200060B1FCF789FD0E4B1B68C01A6FF4CC7391
:105D300018440028D5DBFFF7FFFCD2E7F36998474A
:105D40000028EED1F7E700BF1A0E00202010002037
:105D50001F1000202410002054070020E886200097
:105D600050070020231000202110002022100020C6
:105D70001D100020895B20004007002008B5024B61
:105D80001B689847023008BDE087200038B50C4BEF
:105D90009B689847041E02DA4FF0FF3038BDFFF7CA
:105DA0001FF803780546002BF6D10220FEF7C4FF4A
:105DB0000028F1D06878FEF7D3FFA01CEEE700BF03
:105DC000E087200070B50220FFF73CF810B94FF0D3
:105DD000FF3070BDFEF7CAFF002505700446FEF7D0
:105DE000C9FF6070FFF724F80446FFF7C7FF20449F
:105DF0002A2812DCC0F12B00C4B2FEF7F1FF0646E0
:105E0000FEF7B8FF22462946304401F00FFEFEF7A8
:105E1000B1FF204480B2FEF7A3FF044B5B689847B4
:105E2000041ED4DBFEF7B8FFA01CD2E7E0872000F9
:105E3000014B9B68184700BFBC87200070B5044623
:105E40000D4614200121FFF78BF8034B294620460D
:105E5000BDE870409B681847EC8720000146014868
:105E6000FDF7D0BDE28B20002DE9F0410388064606
:105E7000002B3CD07F2B5BD1304801F036FF00284F
:105E80004BD02F4B01205C68A047DFF8D8802D4D08
:105E9000A8F800000220A0470320A0472880042083
:105EA000A0474FF47A73B8F80020274CB2FBF3F206
:105EB00080B262602A880027B0FBF3F0B2FBF3F2F5
:105EC000224B234D1B68E060012138462760A26009
:105ED0002361FCF71BFE2F602B68052B1FDD0A21B9
:105EE0000020FCF713FE154801F0F6FE13E07821C0
:105EF0001848FDF787FD184A184B01211A60104B0E
:105F000081209C68A047164B01201968A04780217A
:105F10000A4801F0D8FE7F23338001200BE014F8FB
:105F200023100020FCF7F2FD2B6801332B60D3E730
:105F3000002303800320BDE8F08100BF5807002044
:105F40005C8820001E0E00206C0700200401002049
:105F500068070020668B20005D5E20005410002042
:105F6000080100201C0E002038B50388044673B1D8
:105F7000B02B71D13A4B1B788B4234D1394B9A42BA
:105F80002DD153680020984748BB302223E0364B80
:105F90000B21DD6A0120A84707210620A84700F051
:105FA00057FC00F05FFC00F0B7FA00F0A3FA2F48AE
:105FB00001F02FFE00F0BAF8058800F0C5F8294678
:105FC00002462B48FDF71EFD264B80214FF48070C2
:105FD0009B6898472E2286212648FEF7EDFAB023CB
:105FE0000120238038BD8629F9D1234DD1B2234821
:105FF0002A70FDF707FD2B782D3B052B28D801A231
:1060000052F823F01D602000DF5F2000296020008F
:106010003560200049602000DF5F20001848FEF74F
:106020005FFA00F0E9FBDAE71548FEF759FA00F0ED
:10603000AFFBD4E700211248FEF7E6FA00F084FE39
:10604000052286210E48C8E700F06EFE0422F8E71C
:106050000C4801F0DEFDC2E7002303800320C1E706
:106060009E10002070862000E8862000038B200010
:106070001C8B2000F40000205A010020418B2000DE
:10608000440100204E8B200038B503880446154695
:106090003BB140F20D12934235D11D4B1B788B4220
:1060A00004D040F20D130120238038BD0120FCF7FD
:1060B000DBF92B78052B22D8DFE803F00808030C66
:1060C000080E2D2286211348FEF776FA0120FCF7F0
:1060D000D3F9E6E70222F5E768780F4B186000F085
:1060E000D7FF4FF033320D4B01F066F901F04CFA57
:1060F0000B4B186069780B48FDF784FCE6E70A480B
:10610000FDF780FCE2E7002303800320CDE700BF1A
:106110009D100020F4000020040100203333F33FE1
:1061200008010020CC8A2000EE8A20000048704739
:10613000961000200622034B013802FB00308088B5
:10614000704700BF7E88200010B50A4B0A4A1988A4
:106150001046002394888C4203D106225343C05A30
:1061600010BD0133082B02F10602F3D14FF6FF7088
:10617000F6E700BF961000207E88200010B50A4A7E
:1061800001880023104694888C4205D1062253438F
:10619000C05A013880B210BD0133082B02F106024B
:1061A000F1D14FF6FF70F6E77E88200010B5038826
:1061B00004462BB1A22B13D10B4B1B788B4203D07F
:1061C000A2230120238010BD084B1A79002AF7D0A2
:1061D0001888DB888342F3D8054B1B689847EFE7A4
:1061E000002303800320EEE758100020200E00203B
:1061F000541000202DE9F0474FF49664274A284DAB
:10620000136823F0040313602B885C431FFA84FC9B
:106210006446244BA5F802C0D3E902104E1C40F19D
:106220000007D3E9040110EB0C0841F1000999695A
:10623000C3E904890C441988C3E90267614538BF82
:10624000A3F800C09C61914698467822002330460E
:10625000394601F0C1F9134308D1DCB17823B4FB0E
:10626000F3F40023A8F81C40C8F8183056EA0703D6
:1062700001D1C8E9046700232B80D9F800208021D0
:1062800042F00402C9F800200748084ABDE8F04778
:10629000FDF7CABFA8F81C40E8E700BF10940D4006
:1062A000200E00207001002080070020F5612000F2
:1062B00008B5431E032B1DD8114B1B78D3B10328FF
:1062C00012D0042813D0022802D00E4B588808BDE3
:1062D0000D4BD3E9040150EA01020ED0D3E90223A9
:1062E00001F07AF980B2F2E7074B988BEFE7064BA3
:1062F0001888ECE74FF0FF30E9E70020E7E700BF40
:1063000025100020200E0020700100208128F8B503
:106310000C4606D0012855D0032857D04FF0FF3443
:1063200018E00020002100252A4B2B4EC3E9040170
:10633000C3E90201294B2A4F1D711D805D805CB9A4
:10634000284B29481C60336823F004033360FEF7B0
:10635000C7F83C702046F8BD244A0221136828463D
:1063600023F00403136052F8203C23F0040342F8A6
:10637000203C52F8143C43F0040342F8143C52F819
:10638000183C23F0040342F8183C2A46FCF7A8FC0A
:10639000022229461648FCF747FC29461248FEF718
:1063A00033F92B46134A80211348FDF73DFF08229D
:1063B000336843F004033360104B1A6001233B70D1
:1063C0000024C7E7054B1871D980F9E70024034B77
:1063D0001C71BFE77001002010940D40200E0020BA
:1063E00025100020541000201C01002020940D4096
:1063F00001642000F56120008007002000E100E03A
:1064000038B504460C480D4601F088FC90B10221D5
:10641000094801F077FC6CB9022D0BD1074A0848F6
:10642000138801331380074B22461978BDE83840A2
:10643000FEF7C2B838BD00BFA0070020200E002024
:106440001C01002058100020F8B50446FFF77CFE20
:10645000214602460E48FDF7D5FA0E4801F0D9FB59
:1064600000240D4D0D4FA5F1200604F1080236F869
:10647000141015F8013B36F8122038460134FDF7A8
:10648000C1FA082CF1D1BDE8F840024801F0C1BBC7
:10649000508E2000638E2000471000208D8E20003B
:1064A000F7B50D46114C0320FBF7DEFF2046FEF743
:1064B0009FFC204600F000FB2E786D78FEF790FCE4
:1064C00007460420FEF754FD00B200903B462A46E2
:1064D00031460748FDF796FA2146002000F048FCB7
:1064E000032003B0BDE8F040FBF7C6BF880E0020D4
:1064F000EA8E200008B5054801F08BFB044A054BE5
:1065000092881A82012283F8202008BDB68E2000CE
:106510007E882000271000202DE9F0470024154D2B
:106520004FF0FF382E46A246134B144F1C60B7F8AD
:106530000490013526F81490FFF7F8FD028804F165
:1065400008034A4518BF06F8138004F1010415BF7B
:1065500006EB430326F8132083F8018085F81FA07B
:1065600018BF85F81F80082C07F10607DFD1BDE8AA
:10657000F08700BF27100020C00700207E88200081
:106580002DE9F04F694C91B020460E46FEF730FCE5
:106590000420FEF7EDFC377805B296F80180FEF78F
:1065A0001FFC00950346424639466148FDF72AFA2A
:1065B00015F13B0F0EDA0220FBF756FF6FF03B029E
:1065C00029465C48FDF71EFA022011B0BDE8F04FE5
:1065D000FBF752BF584801F01CFB0220FBF744FFB9
:1065E0002578022D00F08780072D00F08A80012D8C
:1065F000EAD10722601C514901F068FA04F108034E
:1066000004AA30341546274694461868596808335A
:10661000ACE80300A3426246F6D1FFF795FD484976
:1066200002464848FDF7EEF9474801F0F2FA002427
:10663000DFF83C910DF1300810AB03EB440211463A
:1066400018F8013B32F8202C31F8301C4846013450
:10665000FDF7D8F9082CEFD13B4801F0DAFA3B48B6
:10666000FFF7F2FE2A46314B144618685968083382
:1066700003C4BB422246F7D100221446344FDFF850
:10668000F4A00DF13809A7F1200B19F8015B17F8F8
:10669000013B04F101089D420ED25B1B012B0BDD77
:1066A00041465046FDF7AEF90122338808340135E2
:1066B0002BF8143007F8015C4446082CE5D1254836
:1066C0000392FFF7C1FE039A002A3FF47DAF012336
:1066D000214A02F8083B214B03F1280153F8040B2F
:1066E0008B4242F8040BF9D1072214491C4801F0EF
:1066F000EDF9012200E02A4686211A48FDF75CFFE9
:1067000062E7FFF709FF1848FFF79EFE174C124B90
:106710001D702378002B7FF457AF2A46862111483D
:10672000FDF74AFF012323704EE700BF280E00202B
:10673000438C20007C8C2000A88C2000BA8C200088
:10674000BF8C2000508E2000638E2000E38C200040
:10675000471000203D8D2000580E002027100020FB
:10676000590E00202C010020658D200026100020ED
:106770008D8E20000C8D2000044B073033F8100064
:106780004FF6FF73C01A18BF012070472710002072
:1067900010B5124801F03DFA0023114A114C136064
:1067A000114A1370FFF7B8FE07221049601C01F070
:1067B0008DF90122234603F8082B0D4A02F1280126
:1067C00052F8040B8A4243F8040BF9D1BDE810409B
:1067D000012286210748FDF7EFBE00BFDE8D2000B5
:1067E000C0070020580E002026100020FA8D20003F
:1067F000271000202C01002038B50E4801F009FABE
:10680000002307240C4A0D4D13600D4A1370FFF747
:1068100083FE07220B49681C01F058F90A482C70C6
:10682000FFF712FE2246BDE8384086210748FDF7F3
:10683000C3BE00BFFF8D2000C0070020580E0020FF
:10684000261000201B8E2000208E20002C0100200E
:10685000024A81210248FEF7B9B900BF6C882000C6
:10686000A8070020024A92210248FEF7E5B900BFBE
:1068700074882000C407002038B504200C46FBF7BC
:10688000F3FDFEF71FFB30211348FEF72BFB0146FB
:106890001248FDF7B7F825786478FEF7A1FA22468A
:1068A000034629460E48FDF7ADF8FEF799FA04466F
:1068B00030210C48FDF7A6F830212046FEF712FBE8
:1068C0000948FEF795F9094A04201368013313605B
:1068D000BDE83840FBF7D0BD580E00208B8D20005E
:1068E0009D8D2000C78D2000A8070020C007002034
:1068F00008B5FFF71BFCBDE8084001460148FFF75B
:10690000BBBF00BFA807002030B58FB00190FEF7D5
:10691000D9FAFFF719FC019A01461A48FDF772F8F7
:10692000019800F0C9F804210DEB0100FEF7DAFA36
:10693000019B02AC03F13005224618685968083300
:1069400003C2AB421446F7D19DF80830042B08D09F
:10695000052B01D0032B0FD10DF10A00FFF70EFC20
:1069600001E0BDF80A000849083001EB4001074882
:1069700001F01CFC0FB030BD054801F04AF90020C1
:10698000F1E700BF208F200027100020C40700205F
:10699000448F200070B5038805461446D3B11B2BE5
:1069A00070D1862928D1394B1B7813B1384801F0B2
:1069B00093F9E4B2374B012C1C700FD10222364BF5
:1069C000364840211A6001F07EF9354B35481C707D
:1069D00001F01FF91B2301202B8070BD072CF9D17A
:1069E00000222D4B2D4840211A6001F06CF9012244
:1069F0002B4B2D481A70EBE78829EBD1274801F083
:106A000074F988B1264E337873B1234C2368042B74
:106A100024DCFFF76DFF214801F05EF9216823486F
:106A200001312160FCF7EEFF194801F05EF9002802
:106A3000D0D0164E3378002BCCD0164C1C48217881
:106A4000FCF7E0FF1248FDF7B5FC00233370237814
:106A5000012B11D0072BBDD12F220EE00F48FDF7DF
:106A6000A9FC002301223370084B4FF4A0610848B1
:106A70001A7001F028F9D7E7302286210D48FDF77A
:106A80009BFDA7E7002303800320A6E75110002009
:106A9000F407002050100020F0070020E00700203D
:106AA0004F100020588F2000738F20008E8F200001
:106AB000B98F2000F400002070B504460178244806
:106AC000FCF7A0FF2378042B13D0052B04F1040559
:106AD00029D161881F48FCF795FF00241E4E2146EE
:106AE00035F8022B30460134FCF78CFF082CF6D128
:106AF00070BD1A4801F08DF86288A1881848FCF72B
:106B000081FFE1881748FCF77DFF21891648FCF7D3
:106B100079FF61891548FCF775FFA1891448BDE824
:106B20007040FCF76FBF134801F073F8628821785A
:106B30001148FCF767FF0024104E214635F8022B60
:106B400030460134FCF75EFF082CF6D1D0E700BFD9
:106B5000F58F2000089020002F9020003690200014
:106B60004890200065902000729020007F902000C7
:106B700090902000A3902000C3902000029120005C
:106B800010B50A4C0521204601F047FD052323706E
:106B9000074B1888FFF7CEFA6080204601F052FDBF
:106BA0002046BDE81040FFF787BF00BFB80E0020A9
:106BB000560100202DE9F0410026284D284F298854
:106BC0003A682848FCF71EFFDFF8BC802C88FFF7E6
:106BD000BBFAA0422DD101360134A4B23146404661
:106BE000FCF710FF092C28BF0124082EEFD11E4E00
:106BF0002C80FFF7C5FF34780CB31C48FDF71EFB53
:106C000001231B4A3B601368013313600023337078
:106C10002B88072B9ABF01332B803122BDE8F0412E
:106C200087BF862113480422862198BF1248FDF7AA
:106C3000C3BC2046FFF7A0FD0028CCD0D7E70F4803
:106C4000FFF762FE234609480D4A4FF48071FDF7B5
:106C5000EBFABDE8F0410B4800F0DBBF5601002025
:106C6000400100200991200052100020040800205B
:106C70003C010020F400002044010020B80E002058
:106C8000F56C2000659120002E912000832970B5BD
:106C900005460E46144605D1124B13481B68596829
:106CA000FCF7B0FE2B885BB13F2B17D1862E0DD1A0
:106CB000E2B2042A0ED0052A08D1FFF77BFF05E0D7
:106CC000084B0A481B685968FCF79CFE3F230120CB
:106CD0002B8070BD064800F09CFFF7E700230320DF
:106CE0002B80F6E7F8030020949120009F9120006C
:106CF000AB91200008B5FFF75DFF084A1368032B2E
:106D000009D10748FDF79AFABDE808402D228621EF
:106D10000448FDF751BC0133136008BD4001002059
:106D200004080020F40000200123044A1380044AD0
:106D300013600022034B1A70704700BF56010020F9
:106D40003C010020521000200123054A1380054A0F
:106D50001360054A13600022044B1A70704700BF8D
:106D6000560100203C01002040010020521000206C
:106D700070B50D780C46042D08D0052D1BD0032DC1
:106D800002D12046FFF7C0FD002070BD4E88FFF7FE
:106D9000DBF98642F5D1134C2946204601F03DFC33
:106DA0002570FFF7D1F9104BA0801B882046638027
:106DB000FFF782FEE5E74D88FFF7B8F90388AB429D
:106DC00003D1FFF7DDFE0748DCE7064B04F1300294
:106DD00054F8041B944243F8041BF9D1014801F014
:106DE00031FCF0E7B80E00205601002081F0004190
:106DF00002E000BF83F0004330B54FEA41044FEAA0
:106E0000430594EA050F08BF90EA020F1FBF54EA3A
:106E1000000C55EA020C7FEA645C7FEA655C00F0D6
:106E2000E2804FEA5454D4EB5555B8BF6D420CDDA7
:106E30002C4480EA020281EA030382EA000083EA2A
:106E4000010180EA020281EA0303362D88BF30BDCA
:106E500011F0004F4FEA01314FF4801C4CEA113120
:106E600002D0404261EB410113F0004F4FEA03337F
:106E70004CEA133302D0524263EB430394EA050F0A
:106E800000F0A780A4F10104D5F1200E0DDB02FA79
:106E90000EFC22FA05F2801841F1000103FA0EF20D
:106EA000801843FA05F359410EE0A5F120050EF1D3
:106EB000200E012A03FA0EFC28BF4CF0020C43FA04
:106EC00005F3C01851EBE37101F0004507D54FF011
:106ED000000EDCF1000C7EEB00006EEB0101B1F561
:106EE000801F1BD3B1F5001F0CD349085FEA3000A7
:106EF0004FEA3C0C04F101044FEA445212F5800FB2
:106F000080F09A80BCF1004F08BF5FEA500C50F14E
:106F1000000041EB045141EA050130BD5FEA4C0C31
:106F2000404141EB010111F4801FA4F10104E9D1BA
:106F300091F0000F04BF01460020B1FA81F308BFB1
:106F40002033A3F10B03B3F120020CDA0C3208DD7D
:106F500002F1140CC2F10C0201FA0CF021FA02F158
:106F60000CE002F11402D8BFC2F1200C01FA02F1C8
:106F700020FA0CFCDCBF41EA0C019040E41AA2BFED
:106F800001EB0451294330BD6FEA04041F3C1CDAB5
:106F90000C340EDC04F11404C4F1200220FA04F0D5
:106FA00001FA02F340EA030021FA04F345EA03017F
:106FB00030BDC4F10C04C4F1200220FA02F001FA41
:106FC00004F340EA0300294630BD21FA04F02946C3
:106FD00030BD94F0000F83F4801306BF81F480115C
:106FE0000134013D4EE77FEA645C18BF7FEA655CCF
:106FF00029D094EA050F08BF90EA020F05D054EAA1
:10700000000C04BF1946104630BD91EA030F1EBFA5
:107010000021002030BD5FEA545C05D140004941A9
:1070200028BF41F0004130BD14F580043CBF01F59C
:10703000801130BD01F0004545F0FE4141F4700182
:107040004FF0000030BD7FEA645C1ABF194610465D
:107050007FEA655C1CBF0B46024650EA013406BF5E
:1070600052EA033591EA030F41F4002130BD00BF1D
:1070700090F0000F04BF0021704730B54FF48064DA
:1070800004F132044FF000054FF0000150E700BF5B
:1070900090F0000F04BF0021704730B54FF48064BA
:1070A00004F1320410F0004548BF40424FF00001A7
:1070B0003EE700BF42004FEAE2014FEA31014FEAEA
:1070C00002701FBF12F07F4393F07F4F81F0605139
:1070D000704732F07F4208BF704793F07F4F04BF84
:1070E00041F40021704730B54FF4607401F0004561
:1070F00021F000411CE700BF50EA010208BF7047C1
:1071000030B54FF000050AE050EA010208BF7047B1
:1071100030B511F0004502D5404261EB41014FF41A
:10712000806404F132045FEA915C3FF4D8AE4FF022
:1071300003025FEADC0C18BF03325FEADC0C18BF05
:10714000033202EBDC02C2F1200300FA03FC20FA56
:1071500002F001FA03FE40EA0E0021FA02F11444A3
:10716000BDE600BF70B54FF0FF0C4CF4E06C1CEABC
:1071700011541DBF1CEA135594EA0C0F95EA0C0F2D
:1071800000F0DEF82C4481EA030621EA4C5123EAA0
:107190004C5350EA013518BF52EA033541F48011CF
:1071A00043F4801338D0A0FB02CE4FF00005E1FB82
:1071B00002E506F00042E0FB03E54FF00006E1FBCC
:1071C00003569CF0000F18BF4EF0010EA4F1FF040F
:1071D000B6F5007F64F5407404D25FEA4E0E6D414F
:1071E00046EB060642EAC62141EA55514FEAC52060
:1071F00040EA5E504FEACE2EB4F1FD0C88BFBCF5DC
:10720000E06F1ED8BEF1004F08BF5FEA500E50F18C
:10721000000041EB045170BD06F0004646EA010152
:1072200040EA020081EA0301B4EB5C04C2BFD4EB84
:107230000C0541EA045170BD41F480114FF0000E7D
:10724000013C00F3AB8014F1360FDEBF002001F0EB
:10725000004170BDC4F10004203C35DA0C341BDC65
:1072600004F11404C4F1200500FA05F320FA04F037
:1072700001FA05F240EA020001F0004221F000416B
:1072800010EBD37021FA04F642EB06015EEA430EDE
:1072900008BF20EAD37070BDC4F10C04C4F120050E
:1072A00000FA04F320FA05F001FA04F240EA0200C1
:1072B00001F0004110EBD37041F100015EEA430E92
:1072C00008BF20EAD37070BDC4F1200500FA05F2B2
:1072D0004EEA020E20FA04F301FA05F243EA020331
:1072E00021FA04F001F0004121FA04F220EA020040
:1072F00000EBD3705EEA430E08BF20EAD37070BD86
:1073000094F0000F0FD101F00046400041EB010165
:1073100011F4801F08BF013CF7D041EA060195F047
:10732000000F18BF704703F00046520043EB030301
:1073300013F4801F08BF013DF7D043EA06037047EE
:1073400094EA0C0F0CEA135518BF95EA0C0F0CD0F9
:1073500050EA410618BF52EA4306D1D181EA03013F
:1073600001F000414FF0000070BD50EA410606BF39
:107370001046194652EA430619D094EA0C0F02D17E
:1073800050EA013613D195EA0C0F05D152EA0336C3
:107390001CBF104619460AD181EA030101F00041E1
:1073A00041F0FE4141F470014FF0000070BD41F02A
:1073B000FE4141F4780170BD70B54FF0FF0C4CF404
:1073C000E06C1CEA11541DBF1CEA135594EA0C0F23
:1073D00095EA0C0F00F0A7F8A4EB050481EA030E70
:1073E00052EA03354FEA013100F088804FEA033357
:1073F0004FF0805545EA131343EA12634FEA022225
:1074000045EA111545EA10654FEA00260EF00041E5
:107410009D4208BF964244F1FD0404F5407402D237
:107420005B084FEA3202B61A65EB03055B084FEAC8
:1074300032024FF480104FF4002CB6EB020E75EBC5
:10744000030E22BFB61A754640EA0C005B084FEAED
:107450003202B6EB020E75EB030E22BFB61A75466A
:1074600040EA5C005B084FEA3202B6EB020E75EBB5
:10747000030E22BFB61A754640EA9C005B084FEA2D
:107480003202B6EB020E75EB030E22BFB61A75463A
:1074900040EADC0055EA060E18D04FEA051545EA29
:1074A00016754FEA06164FEAC30343EA52734FEAD2
:1074B000C2025FEA1C1CC0D111F4801F0BD141EA4B
:1074C00000014FF000004FF0004CB6E711F4801FB0
:1074D00004BF01430020B4F1FD0C88BFBCF5E06F90
:1074E0003FF6AFAEB5EB030C04BFB6EB020C5FEAA0
:1074F000500C50F1000041EB045170BD0EF0004EF5
:107500004EEA113114EB5C04C2BFD4EB0C0541EA26
:10751000045170BD41F480114FF0000E013C90E623
:1075200045EA060E8DE60CEA135594EA0C0F08BFE7
:1075300095EA0C0F3FF43BAF94EA0C0F0AD150EAE6
:1075400001347FF434AF95EA0C0F7FF425AF104679
:1075500019462CE795EA0C0F06D152EA03353FF4A1
:10756000FDAE1046194622E750EA410618BF52EA1E
:1075700043067FF4C5AE50EA41047FF40DAF52EAF2
:1075800043057FF4EBAE12E74FEA410212F5001219
:1075900015D211D56FF47873B3EB625212D94FEA5A
:1075A000C12343F0004343EA505311F0004F23FA44
:1075B00002F018BF404270474FF00000704750EA99
:1075C000013005D111F0004008BF6FF00040704756
:1075D0004FF00000704700BF53B94AB9002908BFF7
:1075E00000281CBF4FF0FF314FF0FF3000F074B99E
:1075F000ADF1080C6DE904CE00F006F8DDF804E00A
:10760000DDE9022304B070472DE9F0478C460446BB
:10761000089E002B40F086808A42154648D9B2FA6F
:1076200082F24AB1C2F1200701FA02F320FA07F709
:10763000954047EA030C94404FEA154EBCFBFEF719
:107640001FFA85F80EFB17C307FB08F9210C41EA66
:107650000343994509D9EB1807F1FF3180F0E18028
:10766000994540F2DE80023F2B44A3EB0903B3FBB4
:10767000FEF00EFB103300FB08F1A4B244EA034411
:10768000A14209D92C1900F1FF3380F0C880A14232
:1076900040F2C58002382C4440EA07400027641AB3
:1076A0001EB10023D440C6E900433946BDE8F08747
:1076B000002A54D0B2FA82F2002A40F0B4800127A6
:1076C000491B4FEA15481FFA85F9B1FBF8FE08FB84
:1076D0001E1109FB0EF04FEA144C4CEA014398428C
:1076E00007D9EB180EF1FF3102D2984200F2EB807D
:1076F0008E461B1AB3FBF8F008FB103309FB00F9A8
:10770000A4B244EA0344A14507D92C1900F1FF3380
:1077100002D2A14500F2DB801846A4EB090440EA3E
:107720000E40BDE78B4208D9002E75D00027C6E970
:10773000000138463946BDE8F087B3FA83F77FB9D0
:107740008B4202D3824200F2BC80841A61EB0303B5
:1077500001209C46002EA8D0C6E9004CA5E7FFDE1C
:10776000C7F12005BB4022FA05FC4CEA030C21FAC4
:1077700005F44FEA1C4EB4FBFEF91FFA8CF80EFB21
:10778000194420FA05F3B94009FB08FA19430B0C18
:1077900043EA0444A24502FA07F200FA07F30BD9C0
:1077A0001CEB040409F1FF3080F08980A24540F20F
:1077B0008680A9F102096444A4EB0A04B4FBFEF03C
:1077C0000EFB104400FB08FA89B241EA0444A245CA
:1077D00008D91CEB040400F1FF316CD2A2456AD930
:1077E0000238644440EA0940A0FB0289A4EB0A0481
:1077F0004C454146CE4655D352D0002E6AD05A1A37
:1078000064EB0E0404FA05F522FA07F3FC401D436D
:10781000C6E90054002748E73746304645E7184692
:107820003AE70F4621E79540C2F1200321FA03F021
:107830004FEA1548B0FBF8F71FFA85F908FB170E59
:1078400024FA03FC914007FB09FA4CEA0101080CF9
:1078500040EA0E40824504FA02F407D9281807F1DD
:10786000FF332AD2824528D9023F2844A0EB0A00E0
:10787000B0FBF8FC08FB1C000CFB09F389B241EAE1
:1078800000418B4208D969180CF1FF3011D28B42AC
:107890000FD9ACF1020C2944C91A4CEA074714E786
:1078A0004345AAD2B8EB020169EB0C0201389646B7
:1078B000A3E78446F0E7084694E71F46D6E78146EB
:1078C0007AE7384646E7AEF1020E2B4411E702385C
:1078D0002C4422E73746E8E6704700BF032A70B41D
:1078E00014D940EA0105AD0704460B4622D11D68B4
:1078F00026681946AE42204603F1040304F104044D
:1079000018D1043A032A20461946F0D8541E72B101
:1079100003780A78934208BF241806D00CE010F8C8
:10792000013F11F8012F934206D1A042F7D1002068
:1079300070BC7047541EEBE7981A70BC704700BFCC
:10794000844641EA000313F0030349D1403A23D3AC
:107950000B6803604B6843608B688360CB68C360CF
:107960000B6903614B6943618B698361CB69C361B7
:107970000B6A03624B6A43628B6A8362CB6AC3629F
:107980000B6B03634B6B43638B6B8363CB6BC36387
:1079900040304031403ADBD230320BD30B680360C9
:1079A0004B6843608B688360CB68C36010301031D4
:1079B000103AF3D20C3205D351F8043B40F8043BA3
:1079C000043AF9D2043208D0D2071CBF11F8013BA7
:1079D00000F8013B01D30B8803806046704700BF6D
:1079E000082A13D38B07B1D010F00303AED0C3F134
:1079F0000403D21ADB071CBF11F8013B00F8013B5E
:107A0000A4D331F8023B20F8023B9FE7043AD9D3D4
:107A1000013A11F8013B00F8013BF9D20B780370F1
:107A20004B7843708B78837060467047F0B486075C
:107A300046D0541E002A3CD0CAB2034602E014F1DC
:107A4000FF3436D303F8012B9D07F8D1032C29D935
:107A5000CDB245EA05250F2C45EA054533D9A4F1F9
:107A60001006360903F1200707EB061703F1100291
:107A700042E9045542E902551032BA42F8D1721C6B
:107A800014F00C0F03EB021204F00F0613D0331F97
:107A900023F003030433134442F8045B9342FBD105
:107AA00006F003042CB1C9B21C4403F8011B9C422C
:107AB000FBD1F0BC704734461346002CF3D1F8E7F5
:107AC00014460346C2E71A462646E0E770B440EA89
:107AD0000104A30727D1032A25D90B4606461946D8
