:020000040020DA
:10200000701800208D2220008F7920008D7920000B
:102010008D7920008D7920008D792000000000004E
:102020000000000000000000000000001B802000F5
:102030008D7920000000000039802000F179200017
:10204000037A2000097A20000F7A2000157A2000F8
:1020500000000000F7792000FD7920008D79200034
:102060008D7920000000000000000000000000004A
:1020700000000000000000008D792000000000003A
:1020800000000000000000008D7920008D79200004
:102090008D7920008D7920008D7920008D792000A8
:1020A0008D7920008D7920008D7920008D79200098
:1020B0008D7920008D7920008D7920008D79200088
:1020C0008D7920008D7920008D7920008D79200078
:1020D0008D792000000000000000000000000000DA
:1020E00000000000000000000000000000000000F0
:1020F0000000000000000000F53720000538200037
:1021000000000000000000000000000000000000CF
:1021100000000000000000000000000000000000BF
:1021200000000000000000000000000000000000AF
:10213000000000000000000000000000000000009F
:10214000000000000000000000000000000000008F
:10215000000000000000000000000000000000007F
:10216000000000000000000000000000000000006F
:10217000000000000000000000000000000000005F
:10218000000000000000000000000000000000004F
:10219000000000000000000000000000000000003F
:1021A000000000000000000000000000000000002F
:1021B000000000000000000000000000000000001F
:1021C000000000000000000000000000000000000F
:1021D00000000000000000000000000000000000FF
:1021E00000000000000000000000000000000000EF
:1021F00000000000000000000000000000000000DF
:1022000000000000000000000000000000000000CE
:1022100000000000000000000000000000000000BE
:1022200000000000000000000000000000000000AE
:10223000000000000000000000000000000000009E
:10224000000000000000000000000000000000008E
:10225000000000000000000000000000000000007E
:10226000000000000000000000000000000000006E
:102270008D792000D9362000FD3620008D2D2000DC
:1022800069392000B52820008D792000FF224824DC
:1022900008B5084B08481A60084AE369121A084949
:1022A00098470848084AA369121A0021984700F085
:1022B0000DF8FEE7B4200D40400000205B01002037
:1022C000D48E2000600100206F10002073B500F054
:1022D0003FFC00F0F7FC00F055FC00F059FA01F06B
:1022E00031FB05F033FC00F0E5FC00F0B3F8012011
:1022F00005F050FB02F0FAF800F016FC002000F0A8
:1023000031FB012000F02EFB4049002000F0F6FBDD
:1023100002F034FA62B6042005F03CFB3C4805F0BC
:102320009EFB3C4805F09BFB00F0D0F9002002F03A
:10233000D1FA01F0F7F90021374802F065F901F010
:102340003DFF05F053FB00F045FD00F061FD02F09C
:1023500009FE0821684601F01BFB9DF806309DF838
:1023600007502E4C45EA0325BDF806302C48238043
:1023700001F048FB2B4E21782B4801F043FB61789C
:102380002A4801F03FFBF46A4AF6CD310220A0470B
:1023900029460320A0471A210120A04708226946A8
:1023A000736B0B209847224801F02CFB214B1868D7
:1023B00005F055FB204801F025FB204B186805F07F
:1023C0004EFB1F4801F01EFB1E4B186805F047FB33
:1023D00000211D4802F018F91C4B01219B68812047
:1023E000984705F095FB1A4805F088FB00F0A2FB22
:1023F000022005F0CFFA00F0A3FB02F08FF810F0F6
:10240000FF0FF8D101F032FAF5E700BF35472000A1
:10241000B2862000C48620007800002066100020CC
:10242000E9862000FC842000078720000D8720001B
:1024300013872000D08520001A872000F88520000F
:10244000218720001486200098000020848420002A
:102450005086200008B500F0DDF80022014B1A700C
:1024600008BD00BF280E0020024A137818431070E0
:1024700000F0F4B8280E0020034A137823EA000085
:10248000107000F0EBB800BF280E002018B1012832
:1024900004D000207047034B18687047024B18782F
:1024A000704700BF20900D40290E002010B5094A4A
:1024B0000020137801331370074B197802F07CF871
:1024C000BDE8104005490023054A0968054801F0A8
:1024D000ABBE00BF290E002068100020B80100200C
:1024E000AD24200098010020812808B52BD0B0F53C
:1024F000807F3AD0802824D101F0EAFF1C4B1D4A8E
:1025000018701368032123F00803136052F8203C6D
:10251000002023F0080342F8203C52F81C3C23F032
:10252000080342F81C3C52F8183C43F0080342F8F8
:10253000183C042200F0D4FB032200210E4800F0D6
:1025400073FB012108E00D4B0D481A6831B142F0D0
:1025500008021A6001230360084608BD22F0080241
:102560001A600123C0F88030F6E7064B1960E8E7EF
:102570006810002020940D408925200010940D4003
:1025800000E100E0B801002008B50F4805F0ECFAC2
:10259000C8B108210C4805F0DBFA0C4B196849B1A9
:1025A00000220B4B1A700B4B1B6843B90A4A0B48AD
:1025B00001F03AFEBDE80840094802F05BB907485F
:1025C00001F03CFEF6E708BD90010020B8010020B4
:1025D000290E002020900D40AD24200098010020FD
:1025E00084842000084A136823F00403136052F81F
:1025F000203C43F0040342F8203C0022034B1A60C5
:102600000122034B1A70704720C40D4010C00D40CA
:102610002A0E00200D4A0E49136823F0C0031360F0
:1026200052F8203C43F0C00342F8203C0022094B02
:102630001A600B6823F010030B6051F8203C43F044
:10264000100341F8203C044B1A60704720A40D4051
:1026500020C40D4000A30D4040C00D4010F0020208
:1026600018BFFF22084B1A6010F0040218BFFF22A7
:10267000064B10F001001A6018BFFF22044B14BF74
:102680001A601860704700BF00A20D4000A10D4005
:1026900040C00D40044B1868C0F30720030904BF75
:1026A0001030C0B2704700BF1C300D40064B186898
:1026B000C00910F0060F03BF00F00700C0F10200D0
:1026C00040034FF40040704714300D402DE9F047AF
:1026D000482588B0FFF7DEFF164B07461C68AB683D
:1026E00098476B68804698470546FFF7DFFF064628
:1026F00000F082FA814600F08BFA824600F038FA48
:10270000B60A04F00103AD0AC4F34004CDE905A004
:102710000393CDF8109002940196009507F00F03F3
:10272000C7F307124146044801F06CF908B0BDE850
:10273000F08700BF1C300D402F8720002DE9F843A3
:1027400000F07AF810490246D1E90045AC46A042B3
:1027500038BF05F1010C6346C1E900230B48D0E9FD
:102760000089B8EB040169EB05048E1844EB0C07F3
:10277000C0E9006701F016FE18B1BDE8F84301F0AA
:1027800095BDBDE8F88300BF68010020600100200E
:10279000E0210D4B0D4A5A600D4A82F823100022A9
:1027A00007219A6019600B490B6843F001030B6025
:1027B000094B1A60042243F80C2C012243F8082C20
:1027C0000F22DA62704700BF10E000E047E8010026
:1027D00000ED00E008200D400C000340034BD3E95E
:1027E0000023100A40EA0360704700BF6801002020
:1027F000054B18601C3B1A6842F001021A601A6807
:10280000D207FCD4704700BF2800034010B5064C27
:10281000236823F001032360FFF790FF236843F050
:102820000103236010BD00BF10E000E0014B1868F9
:10283000704700BFBC010020064B18685A68083377
:102840001B681B0443EA0223034A0343106843EA5C
:102850000060704740500D404C500D40014608B597
:10286000104A1368DB07FCD572B6FFF7E5FF0B1AB9
:10287000062BD8BFC11D0C4B0A0E1A60C1F30742CC
:1028800043F8042CC1F3072243F8082CCAB243F8DA
:102890000C2C62B64FF40032044B1960044B1A61E1
:1028A00008BD00BF50500D404C500D40BC010020F1
:1028B00000E100E008B500F0C1FF0022064B1A60FD
:1028C0004FF40032054BC3F89021C3F89020BDE8C7
:1028D000084001F0CFBE00BFBC01002000E100E0D5
:1028E0002C23154A70B503FB00234FF6BF72DC683A
:1028F0000546236C626413F050020DD00F4EA3699D
:10290000DB0600D570BD56F825301BB12068C0B27B
:102910009847F4E72368F2E713F4D06FF2D04FF44E
:1029200040732363FF236360E36AE262E362236B25
:1029300043F001032363E5E794842000C0010020F5
:10294000064B1B681B075FBF054B186880F008002B
:10295000C0F3C00048BF0020704700BF18C000404F
:1029600018D0004001282DE9F74F064600F2B48048
:102970002C2545435A4F7C1994F92080B8F1000F5B
:10298000C0F2AA8094F92290B9F1000FC0F2A4809D
:10299000544800F0C5FF544A79591368E5680B4361
:1029A00013605368616894F921A00B4353609368E6
:1029B000A1685FFA89FB0B4393600023C5F8C83F09
:1029C00023690AEBC8021A6094F92330227D009330
:1029D0009DF8003058461946019300F08BF9019B91
:1029E00008221946584600F07BF901233F494FEA77
:1029F0000939009A59F8010003FA02F2024349F832
:102A000001204FEA083858F8010003FA0AF202439D
:102A100048F801205022AA63AA6B94F9240042F4DA
:102A2000D062AA6302226A634FF440722A63A269E9
:102A300000286A62E269AA624FF07002EA620D46FB
:102A400014DB94F925102A4A41EAC00414600203F9
:102A500054598B4023435351C9B20022C0B200F0F5
:102A60003FF9244A136843F4004313602C2303FB0B
:102A7000067393F92640002C1BDB93F927A05FFA1D
:102A800084F85FFA8AF901224946404600F032F99B
:102A900001232403625903FA0AF313436351082202
:102AA0004946404600F01CF9124A136843F480433B
:102AB00013602C2303FB0676F268136B43F00103CB
:102AC0001363012296F82830590903F01F0302FA14
:102AD00003F3094A42F8213003B0BDE8F08F00BF8C
:102AE000948420004129200028200D4020940D408E
:102AF00004410D4030D0004000E100E001289CBFBF
:102B0000014B43F820107047C0010020012808D86D
:102B10002C22044B02FB0030C3689A699206FCD455
:102B200019607047948420000022014B1A6070479E
:102B300000500D400822014B1A60704700500D40B4
:102B4000A022024B1A6050221A60704700500D40BC
:102B5000014A024B9A6070470020200000ED00E01F
:102B6000024B1868C0F38150704700BF04200D402D
:102B700008B5FFF7F5FF024B53F8200008BD00BF72
:102B8000EC84200038B5164D164C2B68012223F03A
:102B900040032B602368062123F0400323600320B9
:102BA00000F09EF82B68012223F080032B6023683D
:102BB000072123F080032360032000F091F80A4BE3
:102BC0000A4A0B491A600B4A134610680842FCD1A6
:102BD0001A685101FCD41A685201FCD538BD00BFF7
:102BE00020C40D4000C40D4000200D400101020032
:102BF0000000010104200D40034B04481B6803F052
:102C000007031841704700BF04200D400048E80149
:102C1000034B04481B68C3F302231841704700BFED
:102C200004200D400048E801024B02EBC10243F8CA
:102C300022007047C8010020F8B507460E46002460
:102C4000084D05EB411547FA04F3DB07E1B204D563
:102C500055F824300BB1304698470134082CF2D196
:102C6000F8BD00BFC80100202DE9F8430746DFF892
:102C7000408000F0E3FD0C4B3D03EE5855F8084052
:102C80004FEAC70924FA09F446EA04003946C0B2FB
:102C9000FFF7D2FFE4B2054BF6B204FA09F4EE50A6
:102CA00045F80840BDE8F88318940D401C940D4089
:102CB00018970D4080220021014804F0DDBD00BFBF
:102CC000C8010020034B044A1A60044B803A1A6082
:102CD000704700BF4802002080400D404C02002099
:102CE000034B01EBC0011B6843F82120704700BF74
:102CF00048020020034B01EBC0011B6843F8212070
:102D0000704700BF4C0200200E28F0B50BD1154DC6
:102D1000154F2C6844F002032B603D6825F03F06F8
:102D200046F001063E60114E336823F0FF03134363
:102D30000B4303430E4A336013681B06FCD50D4B4F
:102D40000D4A1B6812680E2803F0FC0343EA0223B5
:102D500008BF054A1BB204BF1560024A184608BFE7
:102D60001460F0BD34000144F486084008700D4042
:102D700000700D400C700D4010700D40024B186833
:102D8000B0FA80F04009704700B708404FF40042A5
:102D9000064B10B5064CC3F89021C3F8902020686C
:102DA00018B101F049FC0023236010BD00E100E0F0
:102DB00050020020064A136843F002031360536870
:102DC00043F002035360936843F00203936070473B
:102DD00048200D4007B50C4800F0A2FDFFF7EAFFC0
:102DE0000A4B1A6842F002021A6000220192019A0C
:102DF0000F2A06DD1A6822F002021A6003B05DF89D
:102E000004FB019A0132F1E77D2D200054200D4092
:102E1000064A136823F002031360536823F0020389
:102E20005360936823F002039360704748200D407D
:102E30000B4B1A689207FCD41B685B065FBFED2240
:102E4000084B1A601A60084B1B6813B1EF22054B40
:102E50001A60064A0120137803F07F03137070474D
:102E60004C860840388808402C8608402D0E0020EB
:102E7000044B186800F02200A0F12003584258418A
:102E8000704700BF4C860840024B186800F04000B5
:102E9000704700BF4C860840044B1A6818B142F0D6
:102EA00001021A60704722F00102FAE7008608402A
:102EB000204B1870002832D01F4A13681B03FCD522
:102EC0001E4B1A6842F002021A601A6842F00102B0
:102ED0001A601A685007FCD51A6822F001021A60BD
:102EE0001A685107FCD41A6842F002021A601A6884
:102EF00042F001021A601A685207FCD5104A1368A2
:102F000023F004031360D2F8A83123F00403C2F8BD
:102F1000A8314FF400520B4BC3F890207047084A79
:102F2000136843F0040313604FF40052054B1A6119
:102F3000704700BF2C0E002004200D40048808407C
:102F40008C86084000E100E0084B93F90020002A3D
:102F500009DBED21064A11601160E32111601A7846
:102F600062F07F021A700120704700BF2D0E002012
:102F700038880840A0F10B01CBB20F2B10B50446E6
:102F800013D80B4B1B6813F03F0302D0FFF750FF21
:102F9000012301EB8101074A0B3111600BB1FFF7EF
:102FA000D3FF054B60B21C7010BD4FF0FF30FBE744
:102FB000488608403C8608405801002010B50C4661
:102FC000002900F08680102800F28580DFE800F0FC
:102FD00009101B22243B44575C727683837B7D540B
:102FE0007F003E4B1B68003318BF0123236024E0A1
:102FF00005223B4B1B6803F07F030B3B93FBF2F373
:103000000B33DBB2F2E7374B1A68043B1B6843EA29
:103010000223EBE7344BF7E700230B60334B344AD2
:103020001B6803F001030B601268900644BF43F075
:1030300002030B602F4B1B780BB900200BE00B68D1
:1030400043F00403D2E700202B4B08601B78002BD1
:10305000F3D001230B6010BD284B29491A680023C7
:10306000D2B201EBC3000079904202D851F833305C
:10307000BCE701330E2BF4D16FF01703B6E7214BF9
:103080001B685BB2493BB1E71F4B1B6899060FD128
:10309000FFF75AFF01231D490A68D207FCD51C4AD5
:1030A0001168493949B20BB1FFF7C2FE2160C4E78C
:1030B0000023F0E7174B93F9003097E7164B1B7886
:1030C00003F07F0392E70B2390E71A238EE7072391
:1030D0008CE70220BFE70120BDE700BF2C86084037
:1030E0003C860840CC850840D485084000860840CE
:1030F000248608402C0E00205901002040860840FC
:103100003485200058860840488608406486084078
:10311000608608402E0E00202B0E002008B50B4BB9
:103120001B6899060FD1FFF70FFF012308490A68B2
:10313000D207FCD5074A1168C1F300110BB1FFF7A4
:1031400077FE084608BD0023F0E700BF4886084028
:10315000648608404C86084008B507285BD8DFE83D
:1031600000F0040F1A21253B4155012903D1FFF737
:10317000EBFE002035E000294FD1FFF759FEF8E7BC
:10318000A1F10B030F2B48D8C8B2FFF7F3FE0130B3
:10319000EFD1032025E089B2214BCAB2090A1A6097
:1031A0005960E6E789B2CAB21E4BF7E731F0070370
:1031B00033D101F00100FFF76FFE1B4B11F0020F3E
:1031C0001A68C1F3800014BF42F0200222F02002EE
:1031D0001A60FFF76DFECCE731F001001DD1134BF3
:1031E000197008BD01F118031F2B16D80D23104AC2
:1031F00052F83300814205DC02EBC3031A790D4B10
:103200001A60B6E713F1FF33F2D2B2E7C9B20A4B44
:1032100049311960ADE70120E3E70220E1E700BF93
:10322000C8850840D0850840248608405901002000
:1032300034852000408608405886084038B5054649
:103240000C46134A13689B07FCD4124B93F90030C9
:10325000002B01DBFFF778FEEE220F4B691E1A6090
:103260001A60A21C43F8102C2144022000F074FACA
:103270000A49013C41EA0411022000F07FFA0220D1
:1032800000F086FA022000F09BFA002038BD00BF53
:103290004C8608402D0E00203888084002C001C02E
:1032A000F8B5224B93F90030002B18DBFFF7C4FA76
:1032B0000446FFF749FEC4F1FF2404F57F04F63409
:1032C000FFF7BAFAC442FBD40126194B1B7843B965
:1032D000184C2368990609D502210846F8BD002636
:1032E000F3E7FFF71BFF0028F2D1F5E7E9230427F6
:1032F000114D2B6023689A0703D4013F17F0FF0795
:103300000BD123689B070CD4EE2301212B602B608B
:10331000002EE2D0FFF78CFDDFE70620FFF768FA0A
:10332000E8E7216811F00201FBD1F1E72D0E002042
:10333000590100204C860840388808400B280DD1E0
:10334000082A0DD161B1074B074A083111F8010D68
:1033500043F8040B9342F9D10020704701207047D5
:1033600002207047A8850840C885084070B5304ED7
:10337000336813F0400358D02E4D2C68230605D532
:10338000ED2200202C4B1A601A6070BDE4B2042CB0
:10339000F6D9023C8C42F3DCE4B2032C1ED12B683C
:1033A00003702B6843702B6883702968234B49395D
:1033B00049B219702B68224D18062B70E0D589B2DE
:1033C000042001F0A5FD2978032001F07F0101F020
:1033D0009FFD1C4B1B78CBB12046D6E70119013964
:1033E000032000F0C1F9184B611E43EA01110320CC
:1033F00000F0C4F9032000F0CBF9032000F0E0F95D
:10340000032000F0E9F90028FAD1CEE733685A0624
:10341000E2D533681B0603D50C4801F00DF9DBE754
:10342000ED22054B1A601A60D6E71846ADE700BFDB
:103430004C86084028880840388808402E0E002016
:103440002B0E00202C0E002002C0010C500000208A
:10345000F8B5294F3D7815F001054BD10124F8222C
:10346000264B7F261C605C609C60A3F59323A3F52C
:1034700014731A600922C3F89021152270331A6060
:103480000B2203F59B2303F59E731A604022A3F5DC
:103490009B23A3F5F0731A601A6842F020021A60A9
:1034A000D52243F81C5CDE62DA61154B1878FFF711
:1034B00061FD4FF48042134B02201E60124B1A61D3
:1034C00000F072F91149022000F04EF9032000F0DB
:1034D0006BF90E49032000F03FF90D4B1878FFF708
:1034E000E7FC0C48294601F08FF820463B7823433F
:1034F0003B70F8BD0020FCE72D0E0020A8200D40F9
:10350000580100209486084000E100E02888084027
:103510002C0E00205000002038B50388044653B319
:1035200040F20342934233D11B4B18781A4638BB02
:10353000822923D1137873B901F09CFC01F028FC97
:103540008021FFF713FF002805DD80B201F0E0FBCA
:10355000124B1B699847124B1A7852060BD5002262
:103560001A70104B1D68FFF763FCFFF771FFAB0685
:1035700001D0FFF7E9FC40F20343238001200AE079
:103580001B78002BFAD0064B1B785806F6D5CFE7F0
:1035900000230380032038BD2C0E00201486200059
:1035A0002D0E0020488608400B282DE9F0470C46D8
:1035B0000FD1082A79D1002977D03D4B3D4A4C1EC6
:1035C00053F80419934204F8011FF9D10020BDE813
:1035D000F0870C2867D1042A67D1002965D0364BC3
:1035E00036491A68DFF8E48022F007021A600A6898
:1035F000334F42F008020A60D8F800003A681D68AC
:10360000DFF8CCE025F07005DFF8C8C01D60DEF8FB
:103610000050DCF80060C0B2120240EA066092B2CC
:1036200002434FEA0549274809F47F09D0F800A072
:1036300042EA09061A685FFA8AF522F0070242F0A8
:1036400001021A600A6842F008020A60D8F80020F5
:103650003F68196821F0700141F010011960DEF82F
:103660000010DCF800C0D3B23A0243EA0C6392B215
:1036700013430A04016802F47F0243EA02085FFA76
:1036800081F9FFF7D9F8B6EB080165EB0905ED0301
:1036900007460D4AC803002345EA514103F0C2FE24
:1036A000381A206092E7012091E702208FE700BFDF
:1036B000C4850840A4850840108808400488084054
:1036C000188808401C8808400048E8011488084011
:1036D000248808402088084008B5054B1B7813B99A
:1036E000044800F0A9FF0022034B1A6008BD00BF88
:1036F0002C0E00205000002034880840064B07485C
:103700001A68042A1FBF06490A7842F040020A706C
:1037100000221A6000F090BF2C8808405000002062
:103720002D0E002008B5094B40220021184604F058
:10373000A3F80121064A074B116050604FF4804204
:103740005A604FF400425A6008BD00BF00000020DC
:1037500004F00F4000E100E003289EBF014B000190
:10376000195070470000002003289EBF024B03EB56
:1037700000135960704700BF0000002003289EBF5F
:10378000024B03EB00139960704700BF000000205C
:10379000032805D80123034A834011680B431360B3
:1037A000704700BF28F00F40032805D80123034AC3
:1037B000834011680B431360704700BF20F00F4037
:1037C000032805D80123034A834011680B43136083
:1037D000704700BF14F00F4003289FBF044B03EB5A
:1037E0000013986800F0070088BF0020704700BFF2
:1037F000000000204FF0FF32014B1A60704700BFFD
:1038000004F50F400122014B1A6070474CF00F4045
:10381000084B19461A68D002FCD4074B1A6822F4E8
:1038200080321A600A68D203FCD41A6842F400326B
:103830001A60704704200D4000200D4010B5094C5F
:10384000226890070DD0084B1A4619684901FCD42C
:1038500013685B01FCD5FEF7D9FFFFF7D9FF002302
:10386000236010BD58200D4004200D4038B5264B74
:103870001C6814F03F0414D1244D55F8043B23B1C7
:10388000984770B10134052CF7D1214D2B7843B105
:10389000FEF7CCFF0446FEF7CFFF201A092800D917
:1038A0000CB930BF27E01B4B1A6822F400321A60B3
:1038B000194A11461068C002FCD41A6842F48032DA
:1038C0001A600B68DB03FCD5FEF7B6FF201A092847
:1038D00003D8BDE83840FFF79BBF63280F4C0BD9D6
:1038E0002B78022B08D1236000F05CFE30B1FFF78B
:1038F0008FFF0023236038BD0123F4E7FEF796FF16
:103900000028F4D0CDE700BF4886084054020020CC
:103910002F0E002000200D4004200D4058200D40A7
:10392000074A10B50023144652F8041B814202D006
:1039300011B944F8230010BD0133052BF4D1FAE787
:10394000540200200022054B05491A600B6943F020
:1039500004030B61034B1A70704700BF58200D40E1
:1039600000ED00E02F0E00204FF48032064B10B522
:10397000064CC3F89021C3F89020206818B100F0DD
:103980005BFE0023236010BD00E100E06802002020
:1039900070B5184B1A78431E1AB9174A1278122AB2
:1039A0000AD001F52011154A2731914216D011F89D
:1039B000010903F8010FF8E7114A12784B2AF0D1F8
:1039C0004C0804F520120D4D2732AA4207D10023DE
:1039D00001F5201120442731A34205DB70BD12F808
:1039E000016903F8016FF0E7CA1A1278013300F891
:1039F000012BF1E72B0028002A00280027002800CF
:103A0000290028000FB407B504AA52F8041B044883
:103A1000019200F021F803B05DF804EB04B07047A8
:103A20006000002070B505460C460A4E102C07D8E1
:103A300074B12B68224668680649BDE87040184793
:103A40002B68102231466868984710B9103CEDE7A2
:103A5000204670BD1A8820002DE9F04F804615469B
:103A600000268FB00791079B1B78002B00F0528334
:103A7000079B1A781C460133002A00F03A83252A56
:103A8000F7D1079B9C4205D036E323783E44002BB8
:103A900000F040836378621C002B00F03B8300241D
:103AA000104610F8011B13462B2916D00AD82029DE
:103AB00016D0232917D0A1F13107082F3FD84FF096
:103AC000000A18E02D2904D03029F4D144F0100464
:103AD00001E044F001040246E2E744F00604FAE79C
:103AE00044F00204F7E744F00804F4E70A2303FB78
:103AF0000A1AAAF1300A134612F8011BA1F130008C
:103B00000928F3D91A782E2A35D159785A1CA1F1EF
:103B10003000092828D8002711781346A1F1300079
:103B2000092802F101021AD91A786C2A40F0908013
:103B30005A786C2A22D144F08004023321E02A29E9
:103B40000AD1D5F800A00346BAF1000F05F104052B
:103B5000B8BF44F00104D5E74FF0000AD2E70A23CA
:103B600003FB0717303FD7E72A2903D12F68023319
:103B70000435D9E713464FF0FF37D5E7013344F05A
:103B800060041A78642A00F0908000F28380462A4C
:103B900000F0AD806FD8252A00F0BE8064D8002ADE
:103BA00000F0B8820133079304F4E063B3F5806F4B
:103BB00000F0578200F2B380B3F5807F00F0EC8014
:103BC000B3F5407F7FF44FAF8F4B14F4804F8F4A93
:103BD00008BF1A460DF1330300211F46286804353B
:103BE00050EA010C40F07282FF1A04BF302203F841
:103BF000012C4FF0780208BF03F1FF3303F8012CCA
:103C00004FF0300208BF012703F8022C23220337AC
:103C1000BA458CBFAAEB070A4FF0000A14F0010462
:103C2000A3F1030903F8032C06D151464046FFF7E0
:103C3000F9FE002840F06C82D8F800303A46494638
:103C4000D8F804009847002840F062823E4433E2EE
:103C5000682A96D15A78682A02D144F020046CE789
:103C6000013344F040048CE7412A4CD0452A99D1D5
:103C700044F4424496E7582A33D004D8472A91D1D5
:103C800044F4A1348EE7612A3AD0632A8AD144F4FD
:103C9000A06487E76E2A3CD00AD8662A24D029D3AC
:103CA000672A2AD0692A7FF47DAF44F4245479E747
:103CB000732A2BD007D86F2A10D0702A7FF472AFE6
:103CC00044F440746EE7752A05D0782A7FF46AAF11
:103CD00044F4C85466E744F4106463E744F4885439
:103CE00060E744F4B2445DE744F400745AE744F4F6
:103CF000844457E744F4024454E744F4813451E7E0
:103D000044F4C1344EE744F4E1344BE744F48064B6
:103D100048E744F4E06445E744F4C06442E7B3F59F
:103D2000C06F2DD0B3F5E06F00F0DF81B3F5A06F69
:103D30007FF499AEBAF1010F38BF4FF0010A2B683A
:103D400014F0010405F104058DF820300AF1FF3765
:103D500007D139464046FFF765FE002840F0D8817C
:103D60003E44D8F80030012208A9D8F8040098474A
:103D7000002840F0CD81002C00F0A1813946E0E020
:103D8000D8F8003001222249D8F8040098470028CA
:103D900040F0BE81013666E6002FACBF24F010046F
:103DA000012714F4005204F0E003069232D0402BB5
:103DB00023D008D823B3202B0FD000220023CDE935
:103DC0000023002317E0602B1AD0802BF5D1073594
:103DD00025F00705F5E8022303E095F90020D31745
:103DE0000435002A73F10001E9DA524263EB430320
:103DF000CDE90023012303931DE0B5F90020EEE790
:103E00002A680435D317ECE74B8820003A88200055
:103E10006B882000402B00F0AF8000F29980002BCF
:103E200000F0AC80202B00F0A080069B00220393C2
:103E30000023CDE9002304F4C053B3F5805F00F004
:103E4000D480B3F5C05F00F0D580B3F5006F00F00B
:103E5000B68000230DF1360B0493049B41F2080257
:103E60009F4288BFFF1A41F6080304EA030198BF86
:103E7000002791421A4602D1002F08BF0127049B58
:103E8000914203EB070040F0CF80DDE900231343AC
:103E900000F0CA80A14914F4804FA14B4FF00209F1
:103EA00018BF0B46069A72B1039A002A40F0C080F0
:103EB00004F00602022A00F0BF80062A994A04BFD5
:103EC0004FF00109134609EB000292458CBFAAEBA3
:103ED000020A4FF0000A14F00102009204D1E10638
:103EE00040F1AE8057449246B9F1000F09D0D8F89E
:103EF00000404A461946D8F80400A047002840F080
:103F000007813C46049B1E44102CD8E9003000F287
:103F1000A1802CB1224684499847002840F0F880BF
:103F2000D8F80030049A5946D8F804004E4498470F
:103F3000002840F0ED80009B3E44002B00F0BF8045
:103F400051464046FFF76EFD002800F0B880DFE0E4
:103F5000602B13D0802B7FF468AF073525F0070561
:103F6000F5E80223CDE9002304E02A780023CDE917
:103F700000230435069B3EE72A88F7E72B680022DA
:103F800019460435CDE90012F4E7DDE904010A22FF
:103F9000002303F047FADDE9040130320BF8012D6C
:103FA00000230A2203F03EFACDE90401DDE90423EF
:103FB0001343EAD10DF13603A3EB0B034CE7DDE924
:103FC00000230DF1360BCDE90423EFE702F00701E2
:103FD00030310BF8011DD10841EA4371D8080A4677
:103FE000034652EA0301F1D1E4E7DDE900230DF1D4
:103FF000360BF6E74D4B14F4804F0DF1360B4C4960
:1040000008BF1946DDE9002352EA0300D2D002F0CE
:104010000F00085C4FEA131C0BF8010D100940EA71
:10402000037002466346EFE74FF000094B4639E75D
:104030004FF001093F4B46E74FF001093E4B42E785
:10404000514640460393FFF7EDFC039B00283FF4E5
:104050004BAF5DE0102234499847002858D1103CFE
:1040600052E7D5F800B00435BBF1000F29D05B460C
:10407000994699F800200133002AF9D1A9EB0B09E0
:10408000002F02DBB94528BFB946CA458CBFAAEB51
:10409000090A4FF0000A14F0010404D151464046C9
:1040A000FFF7C0FCA0BBD8F800304A465946D8F804
:1040B0000400984760BB4E44002C7FF441AF564447
:1040C000D1E4DFF878B04FF00609D9E700F00F0C23
:1040D00012F80CC04FEA111E03F801CD4FEA101C74
:1040E0004CEA017C604671467AE52B6804351E6017
:1040F000B9E4079B9C420DD0079B0799E71A3A4603
:10410000D8F80030D8F80400984700283FF4BDAC38
:104110004FF0FF3630460FB0BDE8F08F5C882000CE
:104120005F882000628820002A8820004B882000B9
:104130003A882000A38D20001F872000648820007B
:10414000F8B5038806461546CBB14A2B2BD18829F2
:104150001FD1174803F043FD0446C4B1231D9D42FF
:104160001FD12146124803F044FD124D62692F68A9
:104170002A60A2690AB1E06990472F6007E00C4805
:1041800003F02DFD044634B901220B4B1A704A236B
:10419000338001200AE0A168201D03F0BAFC2468E6
:1041A000F1E72468D9E7002303800320F8BD00BFAE
:1041B0006C020020F8030020300E002010B500240F
:1041C000054B06481C7003F007FD2146BDE8104072
:1041D000034800F019BA00BF300E00206C02002026
:1041E0006800002070B50446E3610B4B049D1B780A
:1041F000C4E905526BB1094D094B2E68201D2B6097
:1042000003F087FC2E602146BDE87040054803F0AE
:1042100003BDA160F7E700BF300E0020F8030020C7
:10422000680000206C02002013B5034C2468009441
:10423000FFF7D8FF02B010BDF803002010B5084BFF
:1042400004461B7843B1043000F0B4F82146BDE8C1
:104250001040044803F0CDBCC0E90333F6E700BFCB
:10426000300E00206C02002010B50E4C236813B9EC
:104270000D4A136010BDFEF7B1FA2168D1E90023A1
:1042800013448A681B1A1AB91844074B1860F1E7DF
:10429000D2E900142144091A8B4228BF0B469268C8
:1042A000F1E700BF7402002070020020014800F016
:1042B000C3B900BF780000202DE9F8430388054604
:1042C00053B1592B47D1872920D1002024490B68AD
:1042D00063B918B10B6001E0214A13605923012032
:1042E0002B80BDE8F88301203346F1E7D3E902646F
:1042F0009442F8D000B10B6099680029EED0C868EC
:1043000090420ABF89680B469960F5E78229E5D19A
:10431000134F4FF00009B84600263C68002CDDD052
:10432000204603F021FC98B122468821E06800F085
:1043300043F958B9E060A3682EB1B360C4F808909F
:10434000FFF792FFE8E7C8F80030F7E7FFF7AEFFA6
:104350002646A468E2E7002303800320C1E700BFEC
:104360007402002010B50446FFF7A0FFE3680B4A73
:104370000BB1136833B90A4B1B68E3601368146010
:10438000A36004E0A34206D1054A1268DA60BDE8E2
:104390001040FFF769BF9B68ECE700BF7402002084
:1043A000F8030020024B1868003018BF0120704746
:1043B0007402002010B50B4A04461368834208D1EA
:1043C00083681360FFF750FF0023C4E9023310BD78
:1043D0001346002BF8D09A68A242F9D1A2689A60DD
:1043E000F0E700BF7402002038B5836804460D462C
:1043F0009BB10A4804600220A07304F10C009847A6
:104400000238012801D9832D05D121462046BDE877
:10441000384000F005B80123A37338BDF80300202D
:104420002DE9F8431C4F04463D6889462B46A342BC
:1044300004D00BB9BDE8F8831B68F8E7002CF9D06D
:10444000164EA37BD6F8008063B10023A3738DB909
:10445000A3683BB14C4505D034602A46832104F162
:104460000C0098473B68A3420ED123683B60C6F816
:104470000080DFE7A54204D022468721284603F0CA
:104480005FFB2D68E3E71346002BF0D01A68A242C9
:10449000F9D122681A60EAE7FC030020F803002043
:1044A000002238B50125084B1A70084B1C6804B966
:1044B00038BDE37B2BB1E581002282212046FFF746
:1044C00093FF2468F3E700BF340E0020FC030020B4
:1044D000024B1878421C1A70704700BF320E002041
:1044E000014B1968FFF79CBFF80300208A22064B96
:1044F0001A700023054A1370054A1370054A1360A9
:10450000054A1360704700BF320E0020310E0020B4
:10451000330E0020FC030020F80300202DE9F041B9
:104520001B4D2B780BB1FFF7BBFF1A4C22789AB1C9
:104530000C21194E194F3378013A59430133781839
:1045400003F01F0317F801803370D0E90170227067
:1045500090B9134B1E6826B92B7820781844BDE813
:10456000F0812B780BB1FFF79BFF30463A4641466E
:1045700003F0E6FA3668EEE7B8F1810F08BF0123D1
:104580003A4608BF8373414603F0DAFAE4E700BF16
:10459000340E0020330E0020310E0020780200205F
:1045A000FC030020024A034B10781B781844704724
:1045B000330E0020340E0020F0B50B4E3378202B44
:1045C0000FD00C25094C0A4F24781C4404F01F041A
:1045D0006C433D19C5E90120002001333955337082
:1045E000F0BD0120FCE700BF330E0020310E00209B
:1045F0007802002038B5034C256803F0A1FA256045
:1046000038BD00BFF803002030B40A4C0A462568C4
:104610002B4683420CD04BB950B101210560817308
:1046200020608381812130BCFFF7E4BF1B68F0E785
:1046300030BC7047FC03002038B1837B013B012B69
:104640009FBF0123014AC37313707047340E0020CB
:10465000024610B5064853600468029B11609360DF
:10466000026014B90846FEF7F9F8002010BD00BF3B
:104670000004002010B5084C206858B100232360C6
:10468000D0E901319847236823B1BDE8104018688C
:10469000FEF7E4B810BD00BF0004002070B5058827
:1046A0000446672D09D0792D2FD0002D33D1FFF787
:1046B0000FFF1B4B18701B4B1D601B4E194D08E064
:1046C0000A282B680ED07E2B03DC5A1C2A60174A5E
:1046D000D054304603F070FA431CF1D16723238095
:1046E00001201BE05A1C2A600025104A2846D55498
:1046F0000B4B1978FFF760FF0D4B2A468521186890
:10470000FFF75AFF18B97923E9E78529E8D1002294
:10471000044B1A60D1E700230380032070BD00BF63
:104720006D1000200404002008040020350E002035
:10473000F80300200D2810B5014616D00C4C237844
:1047400053B90C4803F025FA08B9012323700A482D
:10475000FFF772FF012010BD0A28F8D1054803F0C9
:1047600018FA0028F3D00023F0E70020F3E700BF99
:10477000B50E0020080400208800002008B5054977
:104780000548802203F0FEF9BDE8084000210348F7
:10479000FFF73ABFB60E0020080400208800002072
:1047A0002DE9F04104880646772C20D07E2C3DD0A0
:1047B000002C4ED1FFF78CFE284D294B294FDFF8F6
:1047C000B08018702C602B6857F823202AB9264A2D
:1047D00013707723338001203EE008F8034093688C
:1047E0000021802098472B6801332B60EBE70023E2
:1047F0001E4A1360194A1360184B1B4A1B68127833
:104800009A4204DC194B1B68002BF0D1E1E7184AEF
:10481000D256002A19DA134A002052F82320104BEE
:104820001978FFF7C9FE28B97E23D3E70C4B1B7814
:104830008B42D0D1094B0E491A688B5C03F07F0381
:104840008B540A4A136801331360044A1368013316
:10485000D1E7002303800320BDE8F0811404002089
:104860006E10002040000020360F002010040020B1
:104870006910002010B40A4B0A4A197800238B42B1
:1048800003DA52F8044BA04208D107490748CA5C32
:1048900062F07F02CA5410BCFFF7CEBE0133EEE7D0
:1048A000360F0020400000206910002098000020F2
:1048B000064A136843F004031360054B1868043379
:1048C0001B6840EA032080B2704700BF00700D40B3
:1048D00014700D4010B5174A136823F00C031360D1
:1048E0000122154B1A601A68012AFCD10822134BC9
:1048F00013491A60E32203F505731A601A460B6820
:10490000DB07FCD50F4C102100232068013900F093
:10491000010043EA00034FEA43039BB2F5D1002BA9
:10492000F1D00949180A03F0FE0308600B60EF2379
:10493000136010BD00700D40A8200D402486084073
:10494000648608409C86084014700D4010B50478B9
:10495000437843EA042303FA01F1044B985CC2F163
:10496000080200EA21201041C0B210BD9E8820003C
:10497000F8B506460A480D46174603F030F90446D6
:1049800030B93A4629463046BDE8F84003F040BB0E
:10499000A3680BB128469847204603F059F9EEE783
:1049A0001804002038B500F0CFF80546094803F098
:1049B00016F9044628B95DB12846BDE8384003F031
:1049C00022BB636803B19847204603F041F9F0E742
:1049D00038BD00BF1804002010B5044600F0C2F82E
:1049E00038B100F0B1F9034B034821469B68984762
:1049F000012010BD408620007149200070B50B4C8D
:104A00000023616E0A4A04F13800FFF70DFCFFF73E
:104A10004FFF616E0023B0FBF1F5064A05FB110163
:104A200004F11800BDE87040FFF7FEBB1C04002035
:104A3000394A2000514A2000044B5A6E196E520028
:104A4000914294BF59665A66FFF7D8BF1C040020F4
:104A500010B500F00FFA00F09BF900230380044624
:104A600000F04EF82288930008B1017B51B9981CE0
:104A700080B200F04DF9238873B1BDE810400748BB
:104A800000F0B6B8818823445980C18801329980EA
:104A9000228003F0DDF8E5E710BD00BF1C04002014
:104AA0009DF80030012B04D1024B9A6D5A66FFF736
:104AB000A5BF70471C040020F8B50F4616461D46DA
:104AC000064C0146064A204600F080F8C4E91676F6
:104AD00025660448BDE8F84000F00CB81C0400202E
:104AE000DC852000A14A2000014803F075B800BF12
:104AF00088040020014B1860704700BF8C04002020
:104B0000014803F06CB800BF880400202DE9F04193
:104B100006460C480C46174603F061F808B9BDE894
:104B2000F0818388A34209D18568002DF7D03B46E8
:104B300022463146AC46BDE8F041604703F088F8B4
:104B4000ECE700BF88040020054B10B51B689847B0
:104B5000044618B18188012000F0DAF9204610BD22
:104B6000C485200038B5064B05465B689847044667
:104B7000A988012000F0CCF9201C18BF012038BD05
:104B8000C4852000014B9B68184700BFC4852000E6
:104B9000014803F021B800BF900400208180014645
:104BA000014803F039B800BF9004002010B5044656
:104BB000054803F014F800B910BD8388A342FBD068
:104BC00003F046F8F7E700BF9004002070B50546F3
:104BD0000C461646044A00F019F86E612046BDE8FE
:104BE0007040024903F0E1B9E4852000AC88200060
:104BF00010B5044604491A2000F098F92046BDE893
:104C0000104003F0FEB900BF6610002070B50546E5
:104C10000C461646FFF7C2FF2E612046BDE87040E5
:104C2000014903F0C2B900BFB088200008B50448AC
:104C300003F011F8BDE80840024803F00CB800BFCB
:104C4000B4000020A800002038B50E4803F013F887
:104C5000054650B10C4803F00EF80446286030B900
:104C60002946084803F01BF82546284638BD00F0C1
:104C700097F804F1B601A4F8800004F1820000F076
:104C80001FF9F2E7A8000020B400002010B501468B
:104C90000446074803F019F848B12168054802F0B6
:104CA000FEFF2146BDE81040014802F0F8BF10BDEC
:104CB000A8000020B400002010B5014604460948B1
:104CC00003F003F868B12468B4F88010204600F0BF
:104CD000E1F804F1B60104F18200BDE8104000F0F3
:104CE00003B910BDA800002010B507490B88834206
:104CF00008DB064C80B222880244181A0880012082
:104D0000228010BD0020FCE7140E0020160E0020AB
:104D1000014B1880704700BF140E002000487047F8
:104D2000B4040020014B1888704700BF140E002007
:104D3000034A044B10781B781844C0B2704700BF78
:104D4000470F0020160E00202DE9F0410C4F3A8845
:104D500072B100240B4B0C4EB3F800800B4B1D7846
:104D6000354421B2414504F1010403DB00233B80BB
:104D7000BDE8F081FFF7DCFF3044435C6B54F0E7A3
:104D8000160E0020140E0020B4040020470F00204F
:104D900008B5FFF7CDFF014B184408BDB40400204F
:104DA000F8B50C4B05461E780B4B1F88F419802C68
:104DB0000DDC3246094902F0E9FCFFF7E9FF354412
:104DC00001463A46284602F0E1FC2046F8BD0024A0
:104DD000FBE700BF470F0020140E0020B4040020A2
:104DE00008B5FFF7A5FF024B1B88184480B208BD29
:104DF000140E002010B50146FFF7F2FF4318802B78
:104E000012DC0138094B00B203444A1C002805DAC1
:104E1000074B187808441870012010BD13F8014999
:104E200001389C5400B2F1E70020F6E7B4040020FA
:104E3000470F002038B50C4D0C4C342200210C4893
:104E400002F01AFD2946204603F01CF92946A01C51
:104E500003F018F92946201D03F014F92946A01D76
:104E6000BDE8384003F00EB9808620002A100020EB
:104E7000321000200023044A1380044A1380044A9D
:104E80001370FFF7D7BF00BF160E0020140E0020CE
:104E9000470F002038B50C460546FFF7EBFF802C86
:104EA00028BF802429462246034802F06FFC034BAA
:104EB00020461C8038BD00BFB4040020140E002022
:104EC00010B5074B03F1340253F8044B934240F8FA
:104ED000044BF9D1034A13680B6053684B6010BD53
:104EE000321000202A10002010B5074B00F13402C8
:104EF00050F8044B904243F8044BF9D10B68034A35
:104F000013604B68536010BD321000202A1000203F
:104F1000024B23F810100120704700BF3210002010
:104F2000014B33F8100070473210002008B5044BD5
:104F30001A3803EB400003F0A5F8012008BD00BFBC
:104F40002A100020024B1A3803EB4000704700BFC4
:104F50002A1000200149024803F097B880862000FB
:104F60002C100020084B10B51B689847074B5B6856
:104F70009847074B5B689847064B5B689847BDE8C6
:104F80001040054B5B681847FC8420001486200005
:104F900040862000F8852000D0852000F8B5FDF778
:104FA0001DFC114E0546002437461A20FFF7CAFFA4
:104FB000314603F06AF880B10A20FFF7B1FF0C23F5
:104FC00003FB0474237A83420CD16068281AB0F57D
:104FD000206F8CBF00200120F8BD0134102C06F199
:104FE0000C06E2D10020F7E73405002070B5184D1B
:104FF00000242E461A20FFF7A5FF294603F045F8A6
:10500000013418B9102C05F10C05F3D10C23621EE4
:1050100003FB0464A4F10C057AB90A20FFF780FFB2
:105020003072FDF7DBFB70601A20FFF78BFFBDE8E5
:1050300070400146064803F025B82B4654F8180D79
:10504000013A616803C3A0682C461860E2E700BF1C
:1050500034050020014B1888704700BF5401002020
:105060002DE9F041012986B006460F46144651DD70
:1050700003A903F04BF903AB03CB1B882061238307
:105080009DF811306161002B48D0B51C02AA01A91E
:1050900003A803F002F89DF81380B8F1000F50D078
:1050A000029B2BB16A7815F8023B03EB02239BB2FB
:1050B000B8F1020FA38335D13349204602F0E2FF55
:1050C0006B78237015F8023B63709DF81580B8F17A
:1050D000000F50D0019B002B3AD06A7815F8023BA4
:1050E00003EB0223029A9BB2E38302B9A383B8F1D4
:1050F000020F30D1244904F1080002F0C3FF6B789D
:10510000237215F8023B6372A81B3B1A8742C4E95D
:105110000E5300DA002006B0BDE8F081B378F51C2C
:10512000A376B3E7B8F1030FCFD105F10802134618
:10513000611E13F8010D9D4201F8010FF9D11546CA
:10514000C3E71149204602F09DFFA4F81C80BCE78C
:10515000A38BE383CBE7B8F1030FD5D105F10802A8
:10516000134604F1080113F8010D9D4201F8010BEB
:10517000F9D11546C8E7044904F1080002F082FF9E
:10518000A4F81E80C0E700BF8086200030B591B033
:105190000546FFF75FFF4FF6FF73984204D14FF0CB
:1051A000FF34204611B030BD40220021684602F095
:1051B00063FB404B1A782AB901221A70FFF778FB7B
:1051C0003D4B18701420FFF7ABFE8DF81000132034
:1051D000FFF7A6FE8DF81200FFF7BCFE044600287C
:1051E00048D000238DF813308DF8153000230124AA
:1051F0008DF814308DF818404DB10A20FFF790FE5D
:1052000000283FD00A20FFF78BFE8DF81A000224F9
:105210008DF81940FFF71EFFADF81C00FFF79AFE4E
:1052200000283CD04FF6FF738DF81740ADF80030E2
:10523000FFF710FFADF81E001A20FFF783FE0146AE
:1052400002A802F01FFFFFF7A3FD0E90FFF76AFD13
:105250000F90684602F0CBFF0446002DA1D0FFF767
:10526000C9FD00289BD0FFF759FD0146684603F0B1
:1052700006F896E70B20FFF753FE8DF815408DF8E2
:105280001300B3E70C4B1A7802B91C7019780A2086
:105290004A1C1A708DF81A10FFF73AFEB7E71B2068
:1052A000FFF750FE0146684602F0ECFE8DF817400D
:1052B000BEE700BF480F0020490F0020014BDB680C
:1052C000184700BF40862000014B5B69184700BFAC
:1052D00014862000014B9B69184700BF14862000EC
:1052E000024BD86900B10047704700BF1486200008
:1052F00070B590F829500F4B042D28BF04250124C8
:10530000DB6906469847AC40651E041E08BF0124B1
:105310006C4305D0FFF7CCFAB0FBF4F303FB1404A5
:105320003346214606F10800034ABDE87040FEF707
:105330007BBF00BF14862000A95420002DE9F04156
:1053400007461B208846FFF7FDFD484B05461A78A7
:10535000474C22B901221A70FFF7AAFA208023884D
:105360000BB90123238021880A204B1C2380FFF7DF
:10537000CFFD404802F033FC0446002845D13E48AA
:1053800002F079FC0446002865D02946201D02F071
:1053900079FE002304F12C00C4E90B30238502F0D0
:1053A0001BFC2146334802F037FC206B02F049FC1D
:1053B000072850DC314802F05EFC054600283ED04C
:1053C0002F4802F058FCA860A8B3FFF73DFC6860C6
:1053D00068B30920AE68FFF7A3FD00BB0823337252
:1053E000C6E900780D20FFF79BFD01282946206BB8
:1053F0001AD102F01EFC206B02F0F1FB854232D183
:105400002046BDE8F041FFF773BF2946201D02F09A
:105410003CFE0028C9D1204602F01AFCACE7092066
:10542000FFF77EFD3072DBE702F0F6FBE3E7A968E9
:10543000134802F034FC2946104802F030FC206B7F
:1054400002F0FFFB38B921460A4802F0D2FB2146A0
:10545000094802F024FC41463846BDE8F0410123EA
:10546000042202F086BFBDE8F08100BF4A0F002091
:10547000180E002054060020CC000020D800002088
:10548000C000002008B5054802F0E5FB044802F022
:10549000E2FBBDE80840034802F0DDBBD800002075
:1054A000C0000020CC00002013B5044668B1006B9A
:1054B00002F095FB024640B12146054B0548DB68EA
:1054C000019302B0BDE81040184702B010BD00BF04
:1054D00014862000555520002DE9F0470D4614464E
:1054E0008B688046D3E90067106B92F8289002F031
:1054F00080FB6868FFF7CAFBA968124802F0CFFB7F
:105500002946114802F0CBFB206B02F068FB60B12A
:10551000002320462385FFF7EBFE4B4642463946E3
:105520003046BDE8F04702F024BF04F10800FEF762
:1055300085FE2146054802F05CFB2146044802F046
:10554000AEFBEAE7C0000020D8000020540600208F
:10555000CC0000202DE9F0410E461746044620B14C
:10556000006B02F03CFB054608B9BDE8F0810A215A
:10557000686802F081FD80460A20FFF7D1FC804573
:1055800046D0284602F064FBEDE794F8282000207E
:105590003A4484F828202946224684F82900BDE8A8
:1055A000F041FFF799BF002284F8292094F82820C1
:1055B0003A44D2B284F828201B7A93421CD822465F
:1055C00029460220EBE794F829203A44D2B2052A72
:1055D00084F8292007D9002194F8282084F829107C
:1055E000013284F8282094F828201B7A9A4203D3A9
:1055F000224629460120D2E72046FFF779FE686857
:10560000BDE8F04102F024BD224629463046C6E7F7
:10561000AB68002BA9D0032EF6D801A252F826F0D1
:105620008B552000C7552000A75520006B55200042
:1056300013B50024094B1C70094B1C80FDF7FCF8C6
:10564000009400F18001074B01220748FFF700F8A2
:105650000122064B1A7002B010BD00BF620F00207D
:105660001A0E0020395B2000440700205D0F002047
:10567000074B82B01B784BB1064B1A7832B9012226
:105680001A70054B1B6A019302B0184702B07047AD
:105690005D0F0020620F0020FC842000094B82B0C7
:1056A0001B786BB1084B1A7852B1084A127802F095
:1056B000FF012AB91970064B5B6A019302B01847C3
:1056C00002B070475D0F0020620F00205E0F0020C7
:1056D000FC84200008B5FFF7E1FF0022014B1A60AF
:1056E00008BD00BF54070020044B1B7823B9044BAE
:1056F0001B680BB9FFF7D2BF704700BF640F0020D3
:10570000540700200022094B82B01A70084BC2B225
:105710001A70084A084B28B101211B6A11700193C5
:1057200002B0184710705B6AF9E700BF5D0F0020F8
:105730005E0F0020620F0020FC84200037B50B4B69
:105740001A7802F0FF056AB901241C70084B1D701D
:10575000FDF772F8009500F18001064B22460648DD
:10576000FEF776FF012003B030BD00BF5D0F0020C3
:105770005E0F0020395B20004407002037B50B4B3B
:1057800005461B780C4673B1FDF756F8231A022B19
:105790004FF0000348BF841C00930122044B2146B4
:1057A0002846FEF755FF03B030BD00BF5D0F002057
:1057B000395B200013B5224C22680AB9FFF76EFF4F
:1057C000FFF7B0FA032823D0FFF70AFB00B31D4B05
:1057D0009B68984700281BDBFFF7A4FAC0B1FFF7CE
:1057E000FFFAA8B11B20FFF7ADFB174902F04DFCF3
:1057F00050B11320FFF794FB206058B9FFF74EFF1C
:105800001248FEF71BFD0DE0FFF7A4FB0028F0D1C6
:1058100002B010BDFFF72CFF00230D4A04210B48F6
:10582000FEF702FDFFF7BAFB0028F1D1FFF7DEFB20
:10583000084BDB68019302B0BDE81040184700BF79
:105840005407002034862000661000202007002026
:10585000D5562000F88520002DE9F04F784E8BB00A
:10586000337805903BB9774B1B7823B9052528463B
:105870000BB0BDE8F08FFFF7B3FA0028F6D07249FD
:105880001A20FFF753FBFFF765FB80460C20FFF75C
:1058900047FBA8B1FFF7A4FA4FF001096B4C019048
:1058A0006568FFF73BFA0199A847694FA36987F834
:1058B00000900293984768B100233B700125D6E71A
:1058C00001210B20FFF724FB624B5B6898470028FF
:1058D000E0DACBE7E3690393984705460028EBD16C
:1058E000FFF7DCFE337886F80090DBB20493059B6B
:1058F0007BBB4FF006096FF0030A6FF00F0BFCF74C
:105900009BFF0690FFF7B4FE0698AAEB00030693F0
:10591000FCF792FF069BC342F9D46369984748B9E4
:105920000190FFF7BBFE01983870FFF7B7FE049BAC
:105930003370C3E7FFF7B2FEFCF77EFFABEB00036B
:105940000693FCF779FF069BC342F9D4B9F101092C
:10595000D5D1B8F1000F01D1FFF78AFE0A20FFF779
:10596000DFFA5FFA80FBFDF7EBF8FCF765FF814695
:10597000394B1B1A06936FF0CF0AAAEB090AFCF702
:105980005BFF1AEB000F4BD5FDF7DAF8B8F1000F0B
:105990003ED0A36801989847FCF74EFF6FF00C03C8
:1059A0001B1A0793FCF748FF079BC342F9D4B8F1D1
:1059B000000FE4D1029B9847002835D0FCF73CFF4C
:1059C0006FF01409A9EB0009FCF736FF19EB000F83
:1059D000FAD42369032109A8984703282DD19DF8FB
:1059E00026305B4529D100244FF00109FFF756FE10
:1059F000049B337000233B70002C7FF45FAFB8F141
:105A0000000F7FF434AF994514BF1D4602252EE7E1
:105A1000059B002BBDD0FCF70FFF069BC342B8D4FB
:105A200000244FF00009E1E7039B98470028C5D107
:105A30006369984700289ED1C0E70124F1E700BFC1
:105A40005D0F00205E0F002066100020FC84200007
:105A5000640F002034862000DEFDFFFF2DE9F14FAA
:105A6000074688461446002A5DD0304B1E685EB15A
:105A70005068FFF721F901231A464146384601B024
:105A8000BDE8F04F02F075BC1546DFF8A4A0DFF8C2
:105A9000A4B0284602F0DCF881466868FFF70CF9EC
:105AA0000C20FFF73DFAE8B9B9F1000F03D001214E
:105AB0001320FFF72DFA51461A20FFF737FA01217C
:105AC0000B20FFF725FADBF804309847002802DAAC
:105AD00001230522D1E701210C20FFF719FA68689C
:105AE00002F0BCFA4D46002DD3D1204602F0B0F8AA
:105AF00005466068FFF7E0F81320FFF711FA8146CA
:105B00003046FFF7A9FE032804460CD002460123C5
:105B10004146384602F02DFC2CB925B12C46012611
:105B2000B9F1000FE1D101B0BDE8F08F54070020BA
:105B3000661000203486200040F2B1122DE9F347B0
:105B40006D4C05462388934215D0B3F5D97F04D216
:105B5000002B00F08680002393E040F2E312934292
:105B60002ED040F202229342F5D10023634A1370F3
:105B7000634A137007E0624A13780133DBB2012BEA
:105B8000137000F282805F4B1A78002A70D15E4A4F
:105B90001268002A6CD11B780BB9FFF769FD5B4BCB
:105BA0005B699847002861D10122544B1A70FCF7B9
:105BB00043FE574B574A186000231370564A137020
:105BC000504B564E1B78002B7CD13378002B79D06C
:105BD000FCF732FE6FF4CC724D4B1B68C01A1044B8
:105BE00000286FDA494FDFF82C917B699847B84657
:105BF00018B199F800000130C0B2474FD8F818A08A
:105C00003B7889F8000001333B70D047002853D01F
:105C1000002389F800303B78D8F81C800A2B04D97F
:105C2000D04710B9C04700284AD0C047002849D102
:105C30003B4B1B7893B12E68FCF7FEFD331A13F132
:105C4000120F4FF0000348BF811C009358BF06F1AC
:105C50001401344B01222846FEF7FAFC40F2E3130C
:105C60000FE0FCF7E9FD304B18607EE7FFF73CFDE5
:105C7000FCF7E2FD00F110012846FFF77FFD40F23E
:105C8000B113238002B0BDE8F0871C4B1B78002BBA
:105C90008DD1254E336880333360FCF7CDFD3368FA
:105CA000C3F1A003C3427FF560AF31682846FFF718
:105CB00065FD40F20223E4E799F80030052BAAD9EC
:105CC000FFF712FD3378002BE3D0104EB3699847ED
:105CD00060B1FCF7B1FD0E4B1B68C01A6FF4CC73BA
:105CE00018440028D5DBFFF7FFFCD2E7F36998479B
:105CF0000028EED1F7E700BF1A0E0020600F002049
:105D00005F0F0020640F002054070020FC84200057
:105D100050070020630F0020610F0020620F002059
:105D20005D0F0020395B20004007002008B5024BC2
:105D30001B689847023008BDEC85200038B50C4B35
:105D40009B689847041E02DA4FF0FF3038BDFFF71A
:105D50001FF803780546002BF6D10220FEF7C4FF9A
:105D60000028F1D06878FEF7D3FFA01CEEE700BF53
:105D7000EC85200070B50220FFF73CF810B94FF019
:105D8000FF3070BDFEF7CAFF002505700446FEF720
:105D9000C9FF6070FFF724F80446FFF7C7FF2044EF
:105DA0002A2812DCC0F12B00C4B2FEF7F1FF064630
:105DB000FEF7B8FF22462946304401F05DFDFEF7AC
:105DC000B1FF204480B2FEF7A3FF044B5B68984705
:105DD000041ED4DBFEF7B8FFA01CD2E7EC85200040
:105DE000014B9B68184700BFD085200070B5044662
:105DF0000D4614200121FFF78BF8034B294620465E
:105E0000BDE870409B681847F885200001460148AE
:105E1000FDF7F8BDE08920002DE9F0410388064632
:105E2000002B3CD07F2B5BD1304801F084FE002852
:105E30004BD02F4B01205C68A047DFF8D8802D4D58
:105E4000A8F800000220A0470320A04728800420D3
:105E5000A0474FF47A73B8F80020274CB2FBF3F256
:105E600080B262602A880027B0FBF3F0B2FBF3F245
:105E7000224B234D1B68E060012138462760A26059
:105E80002361FCF743FE2F602B68052B1FDD0A21E1
:105E90000020FCF73BFE154801F044FE13E078219A
:105EA0001848FDF7AFFD184A184B01211A60104B36
:105EB00081209C68A047164B01201968A0478021CB
:105EC0000A4801F026FE7F23338001200BE014F8FE
:105ED00023100020FCF71AFE2B6801332B60D3E758
:105EE000002303800320BDE8F08100BF5807002095
:105EF000688620001E0E00206C0700200401002090
:105F000068070020648920000D5E20002410002016
:105F1000080100201C0E002038B50388044673B128
:105F2000AE2B6DD1384B1B788B4230D1374B9A4218
:105F300029D153680020984728BB2D221FE0344BFD
:105F40000B21DD6A0120A84707210620A84700F0A1
:105F500019FC00F077FA2F4801F081FD00F0B8F845
:105F6000058800F0C3F8294602462B48FDF74AFD94
:105F7000264B80214FF480709B6898472E22862103
:105F80002648FEF719FBAE230120238038BD862961
:105F9000F9D1234DD1B223482A70FDF733FD2B7878
:105FA0002D3B052B28D801A252F823F0C55F200015
:105FB000875F2000D15F2000DD5F2000F15F2000BF
:105FC000875F20001848FEF78BFA00F0AFFBDAE796
:105FD0001548FEF785FA00F075FBD4E7002112485A
:105FE000FEF712FB00F014FE052286210E48C8E7DA
:105FF00000F0FEFD0422F8E70C4801F030FDC2E796
:10600000002303800320C1E76E1000208484200059
:10601000FC842000018920001A892000F40000205F
:106020005A0100203F892000440100204C892000B3
:1060300038B503880446154633B1B3F59A7F35D198
:106040001C4B1B788B4204D04FF49A7301202380A1
:1060500038BD0120FCF708FA2B78052B22D8DFE8A1
:1060600003F00808030C080E2D2286211248FEF7C3
:10607000A3FA0120FCF700FAE6E70222F5E76878C8
:106080000E4B186000F02AFF4FF033320C4B01F03A
:10609000B9F801F09FF90B4B186069780A48FDF7D1
:1060A000B1FCE6E70948FDF7ADFCE2E70023038019
:1060B0000320CDE76D100020F40000200401002033
:1060C0003333F33F08010020CA882000EC88200009
:1060D00000487047661000200622034B013802FB7F
:1060E00000308088704700BF8286200010B50A4BC0
:1060F0000A4A19881046002394888C4203D106224C
:106100005343C05A10BD0133082B02F10602F3D1EC
:106110004FF6FF70F6E700BF661000208286200071
:1061200010B50A4A01880023104694888C4205D194
:1061300006225343C05A013880B210BD0133082BE8
:1061400002F10602F1D14FF6FF70F6E782862000D9
:1061500010B5038804462BB1A22B13D10B4B1B782F
:106160008B4203D0A2230120238010BD084B1A7953
:10617000002AF7D01888DB888342F3D8054B1B68C8
:106180009847EFE7002303800320EEE72810002064
:10619000200E0020241000202DE9F0474FF49664D3
:1061A000274A284D136823F0040313602B885C43AF
:1061B0001FFA84FC6446244BA5F802C0D3E9021000
:1061C0004E1C40F10007D3E9040110EB0C0841F12B
:1061D00000099969C3E904890C441988C3E9026775
:1061E000614538BFA3F800C09C619146984678226B
:1061F00000233046394601F015F9134308D1DCB1CC
:106200007823B4FBF3F40023A8F81C40C8F8183036
:1062100056EA070301D1C8E9046700232B80D9F8A7
:106220000020802142F00402C9F800200748084AF3
:10623000BDE8F047FDF7F8BFA8F81C40E8E700BF4D
:1062400010940D40200E00207001002080070020D7
:106250009961200008B5431E032B1DD8114B1B78F4
:10626000D3B1032812D0042813D0022802D00E4B39
:10627000588808BD0D4BD3E9040150EA01020ED045
:10628000D3E9022301F0CEF880B2F2E7074B988BF6
:10629000EFE7064B1888ECE74FF0FF30E9E7002006
:1062A000E7E700BF650F0020200E002070010020EE
:1062B0008128F8B50C4606D0012855D0032857D0C0
:1062C0004FF0FF3418E00020002100252A4B2B4E10
:1062D000C3E90401C3E90201294B2A4F1D711D8046
:1062E0005D805CB9284B29481C60336823F00403A7
:1062F0003360FEF7F5F83C702046F8BD244A0221D1
:106300001368284623F00403136052F8203C23F05E
:10631000040342F8203C52F8143C43F0040342F8D2
:10632000143C52F8183C23F0040342F8183C2A4667
:10633000FCF7D6FC022229461648FCF775FC2946D4
:106340001248FEF761F92B46134A80211348FDF7E6
:106350006BFF0822336843F004033360104B1A606C
:1063600001233B700024C7E7054B1871D980F9E77A
:106370000024034B1C71BFE77001002010940D40F6
:10638000200E0020650F0020241000201C0100209A
:1063900020940D40A5632000996120008007002013
:1063A00000E100E038B504460C480D4601F0DCFB86
:1063B00090B10221094801F0CBFB6CB9022D0BD141
:1063C000074A0848138801331380074B224619787F
:1063D000BDE83840FEF7F0B838BD00BFA007002088
:1063E000200E00201C01002028100020F8B50446D3
:1063F000FFF77CFE214602460E48FDF703FB0E48E0
:1064000001F02DFB00240D4D0D4FA5F1200604F1E8
:10641000080236F8141015F8013B36F812203846F9
:106420000134FDF7EFFA082CF1D1BDE8F84002483D
:1064300001F015BB4E8C2000618C2000870F0020DE
:106440008B8C20002DE9F0470024154D4FF0FF38CC
:106450002E46A246134B144F1C60B7F8049001352A
:1064600026F81490FFF734FE028804F108034A4529
:1064700018BF06F8138004F1010415BF06EB4303AF
:1064800026F8132083F8018085F81FA018BF85F82F
:106490001F80082C07F10607DFD1BDE8F08700BF99
:1064A000670F0020C0070020828620002DE9F04FF2
:1064B000694C91B020460E46FEF772FC0420FEF7B0
:1064C0002FFD377805B296F80180FEF761FC009544
:1064D0000346424639466148FDF794FA15F13B0FF1
:1064E0000EDA0220FBF7C0FF6FF03B0229465C4842
:1064F000FDF788FA022011B0BDE8F04FFBF7BCBFF2
:10650000584801F0ACFA0220FBF7AEFF2578022DC7
:1065100000F08780072D00F08A80012DEAD1072244
:10652000601C514901F0F8F904F1080304AA303461
:10653000154627469446186859680833ACE80300A6
:10654000A3426246F6D1FFF7D1FD484902464848CA
:10655000FDF758FA474801F082FA0024DFF83C9131
:106560000DF1300810AB03EB4402114618F8013B63
:1065700032F8202C31F8301C48460134FDF742FA3D
:10658000082CEFD13B4801F06AFA3B48FFF72EFF99
:106590002A46314B144618685968083303C4BB4275
:1065A0002246F7D100221446344FDFF8F4A00DF153
:1065B0003809A7F1200B19F8015B17F8013B04F12A
:1065C00001089D420ED25B1B012B0BDD414650465C
:1065D000FDF718FA01223388083401352BF81430FE
:1065E00007F8015C4446082CE5D125480392FFF7E3
:1065F000FDFE039A002A3FF47DAF0123214A02F8F1
:10660000083B214B03F1280153F8040B8B4242F85D
:10661000040BF9D1072214491C4801F07DF901222D
:1066200000E02A4686211A48FDF7C6FF62E7FFF719
:1066300009FF1848FFF7DAFE174C124B1D7023783C
:10664000002B7FF457AF2A4686211148FDF7B4FF8F
:10665000012323704EE700BF8F0F0020418A2000E6
:106660007A8A2000A68A2000B88A2000BD8A2000ED
:106670004E8C2000618C2000E18A2000870F0020D2
:106680003B8B2000BF0F0020670F0020C00F0020B1
:106690002C010020638B2000660F00208B8C2000D3
:1066A0000A8B2000082809D8054B083033F8100061
:1066B0004FF6FF73C01A18BF0120704701207047C2
:1066C000670F002010B5124801F0C9F90023114AE4
:1066D000114C1360114A1370FFF7B4FE07221049E2
:1066E000601C01F019F90122234603F8082B0D4A1A
:1066F00002F1280152F8040B8A4243F8040BF9D145
:10670000BDE81040012286210748FDF755BF00BFB4
:10671000DC8B2000C0070020BF0F0020660F002088
:10672000F88B2000670F00202C01002038B50E48A0
:1067300001F095F9002307240C4A0D4D13600D4A12
:106740001370FFF77FFE07220B49681C01F0E4F885
:106750000A482C70FFF74AFE2246BDE838408621E1
:106760000748FDF729BF00BFFD8B2000C0070020B0
:10677000BF0F0020660F0020198C20001E8C200007
:106780002C010020024A81210248FEF71FBA00BFF7
:1067900078862000A807002038B504200C46FBF7B7
:1067A00063FEFEF767FB30211348FEF773FB0146DB
:1067B0001248FDF727F925786478FEF7E9FA2246B2
:1067C000034629460E48FDF71DF9FEF7E1FA044697
:1067D00030210C48FDF716F930212046FEF75AFB10
:1067E0000948FEF705FA094A0420136801331360CB
:1067F000BDE83840FBF740BEBF0F0020898B20006A
:106800009B8B2000C58B2000A8070020C00700201C
:1068100008B5FFF75DFCBDE8084001460148FFF7F9
:10682000BBBF00BFA8070020042130B58FB0019086
:106830000DEB0100FEF72EFB019B02AC03F13005CE
:10684000224618685968083303C2AB421446F7D190
:106850009DF80830042B08D0052B01D0032B0FD155
:106860000DF10900FFF75CFC01E0BDF809000749E4
:10687000083001EB4001064801F0B9FB0FB030BD14
:10688000044801F0ECF80020F1E700BF670F00209A
:10689000C4070020B48C200070B503880546144658
:1068A000D3B11B2B70D1862928D1394B1B7813B15A
:1068B000384801F037F9E4B2374B012C1C700FD186
:1068C0000222364B364840211A6001F022F9354B3E
:1068D00035481C7001F0C3F81B2301202B8070BDCC
:1068E000072CF9D100222D4B2D4840211A6001F0D0
:1068F00010F901222B4B2D481A70EBE78829EBD1B8
:10690000274801F018F988B1264E337873B1234C2B
:106910002368042B24DCFFF77BFF214801F002F9F8
:106920002168234801312160FDF76CF8194801F016
:1069300002F90028D0D0164E3378002BCCD0164C5C
:106940001C482178FDF75EF81248FDF733FD00235F
:1069500033702378012B11D0072BBDD12F220EE0ED
:106960000F48FDF727FD002301223370084B4FF439
:10697000A06108481A7001F0CCF8D7E730228621D0
:106980000D48FDF719FEA7E7002303800320A6E7C3
:10699000F10F0020F4070020F00F0020F007002086
:1069A000E0070020EF0F0020C88C2000E38C2000BF
:1069B000FE8C2000298D2000F400002070B50378A3
:1069C0000446042B14D0052B11D1B0F8011018483F
:1069D000FDF718F80025174E04EB45032946B3F8D8
:1069E000032030460135FDF70DF8082DF4D170BDB8
:1069F000114801F034F8B4F80120B4F803100F483E
:106A0000FDF700F8B4F805100D48FCF7FBFFB4F8EB
:106A100007100C48FCF7F6FFB4F809100A48FCF719
:106A2000F1FFB4F80B100948BDE87040FCF7EABF6D
:106A3000658D20008C8D2000938D2000A58D200079
:106A4000C28D2000CF8D2000DC8D2000ED8D200038
:106A5000052310B5074C2370074B1888FFF73CFB44
:106A6000A4F80100204601F0F9FC2046BDE81040E2
:106A7000FFF7A4BFF30F0020560100202DE9F041DD
:106A80000026284D284F29883A682848FCF7BAFF85
:106A9000DFF8BC802C88FFF729FBA0422DD10136FE
:106AA0000134A4B231464046FCF7ACFF092C28BFA4
:106AB0000124082EEFD11E4E2C80FFF7C9FF347839
:106AC0000CB31C48FDF7BAFB01231B4A3B6013685B
:106AD00001331360002333702B88072B9ABF0133D7
:106AE0002B803122BDE8F04187BF86211348042264
:106AF000862198BF1248FDF75FBD2046FFF7D2FD03
:106B00000028CCD0D7E70F48FFF78EFE2346094870
:106B10000D4A4FF48071FDF787FBBDE8F0410B484B
:106B200000F09DBF5601002040010020008E200093
:106B3000F20F0020040800203C010020F400002097
:106B400044010020F30F0020BD6B20005C8E20006C
:106B5000248E2000832970B505460E46144605D1C3
:106B6000124B13481B685968FCF74CFF2B885BB12C
:106B70003F2B17D1862E0DD1E2B2042A0ED0052A62
:106B800008D1FFF77BFF05E0084B0A481B685968EE
:106B9000FCF738FF3F2301202B8070BD064800F032
:106BA0005EFFF7E7002303202B80F6E7F8030020C1
:106BB0008B8E2000958E2000A08E200008B5FFF758
:106BC0005DFF084A1368032B09D10748FDF736FB20
:106BD000BDE808402D2286210448FDF7EDBC0133B5
:106BE000136008BD4001002004080020F4000020CC
:106BF0000123044A1380044A13600022034B1A70D5
:106C0000704700BF560100203C010020F20F002019
:106C10000123054A1380054A1360054A13600022C8
:106C2000044B1A70704700BF560100203C01002041
:106C300040010020F20F002081F0004102E000BF7F
:106C400083F0004330B54FEA41044FEA430594EA2C
:106C5000050F08BF90EA020F1FBF54EA000C55EA67
:106C6000020C7FEA645C7FEA655C00F0E2804FEA38
:106C70005454D4EB5555B8BF6D420CDD2C4480EA1A
:106C8000020281EA030382EA000083EA010180EA4A
:106C9000020281EA0303362D88BF30BD11F0004F98
:106CA0004FEA01314FF4801C4CEA113102D04042CE
:106CB00061EB410113F0004F4FEA03334CEA133309
:106CC00002D0524263EB430394EA050F00F0A78021
:106CD000A4F10104D5F1200E0DDB02FA0EFC22FA1C
:106CE00005F2801841F1000103FA0EF2801843FA10
:106CF00005F359410EE0A5F120050EF1200E012A01
:106D000003FA0EFC28BF4CF0020C43FA05F3C0183E
:106D100051EBE37101F0004507D54FF0000EDCF1B7
:106D2000000C7EEB00006EEB0101B1F5801F1BD360
:106D3000B1F5001F0CD349085FEA30004FEA3C0C64
:106D400004F101044FEA445212F5800F80F09A805A
:106D5000BCF1004F08BF5FEA500C50F1000041EB5E
:106D6000045141EA050130BD5FEA4C0C404141EB62
:106D7000010111F4801FA4F10104E9D191F0000F89
:106D800004BF01460020B1FA81F308BF2033A3F10C
:106D90000B03B3F120020CDA0C3208DD02F1140C03
:106DA000C2F10C0201FA0CF021FA02F10CE002F13E
:106DB0001402D8BFC2F1200C01FA02F120FA0CFC37
:106DC000DCBF41EA0C019040E41AA2BF01EB045180
:106DD000294330BD6FEA04041F3C1CDA0C340EDC7E
:106DE00004F11404C4F1200220FA04F001FA02F3C1
:106DF00040EA030021FA04F345EA030130BDC4F17F
:106E00000C04C4F1200220FA02F001FA04F340EA73
:106E10000300294630BD21FA04F0294630BD94F024
:106E2000000F83F4801306BF81F480110134013D0B
:106E30004EE77FEA645C18BF7FEA655C29D094EA7C
:106E4000050F08BF90EA020F05D054EA000C04BFFA
:106E50001946104630BD91EA030F1EBF00210020E5
:106E600030BD5FEA545C05D14000494128BF41F084
:106E7000004130BD14F580043CBF01F5801130BDE8
:106E800001F0004545F0FE4141F470014FF0000073
:106E900030BD7FEA645C1ABF194610467FEA655C24
:106EA0001CBF0B46024650EA013406BF52EA0335C6
:106EB00091EA030F41F4002130BD00BF90F0000FB4
:106EC00004BF0021704730B54FF4806404F13204F0
:106ED0004FF000054FF0000150E700BF90F0000FA9
:106EE00004BF0021704730B54FF4806404F13204D0
:106EF00010F0004548BF40424FF000013EE700BFA0
:106F000042004FEAE2014FEA31014FEA02701FBF2F
:106F100012F07F4393F07F4F81F06051704732F061
:106F20007F4208BF704793F07F4F04BF41F40021B8
:106F3000704730B54FF4607401F0004521F0004116
:106F40001CE700BF50EA010208BF704730B54FF0A0
:106F500000050AE050EA010208BF704730B511F0A1
:106F6000004502D5404261EB41014FF4806404F1D9
:106F700032045FEA915C3FF4D8AE4FF003025FEA5F
:106F8000DC0C18BF03325FEADC0C18BF033202EBE3
:106F9000DC02C2F1200300FA03FC20FA02F001FA3D
:106FA00003FE40EA0E0021FA02F11444BDE600BFE0
:106FB00070B54FF0FF0C4CF4E06C1CEA11541DBF8F
:106FC0001CEA135594EA0C0F95EA0C0F00F0DEF85A
:106FD0002C4481EA030621EA4C5123EA4C5350EA3F
:106FE000013518BF52EA033541F4801143F4801390
:106FF00038D0A0FB02CE4FF00005E1FB02E506F021
:107000000042E0FB03E54FF00006E1FB03569CF075
:10701000000F18BF4EF0010EA4F1FF04B6F5007F7B
:1070200064F5407404D25FEA4E0E6D4146EB0606ED
:1070300042EAC62141EA55514FEAC52040EA5E5076
:107040004FEACE2EB4F1FD0C88BFBCF5E06F1ED820
:10705000BEF1004F08BF5FEA500E50F1000041EB57
:10706000045170BD06F0004646EA010140EA020004
:1070700081EA0301B4EB5C04C2BFD4EB0C0541EA26
:10708000045170BD41F480114FF0000E013C00F33B
:10709000AB8014F1360FDEBF002001F0004170BD5F
:1070A000C4F10004203C35DA0C341BDC04F1140478
:1070B000C4F1200500FA05F320FA04F001FA05F204
:1070C00040EA020001F0004221F0004110EBD370D1
:1070D00021FA04F642EB06015EEA430E08BF20EAFD
:1070E000D37070BDC4F10C04C4F1200500FA04F3A0
:1070F00020FA05F001FA04F240EA020001F0004132
:1071000010EBD37041F100015EEA430E08BF20EAA4
:10711000D37070BDC4F1200500FA05F24EEA020EEC
:1071200020FA04F301FA05F243EA020321FA04F01B
:1071300001F0004121FA04F220EA020000EBD370D2
:107140005EEA430E08BF20EAD37070BD94F0000FD2
:107150000FD101F00046400041EB010111F4801F06
:1071600008BF013CF7D041EA060195F0000F18BFB7
:10717000704703F00046520043EB030313F4801FF3
:1071800008BF013DF7D043EA0603704794EA0C0FAD
:107190000CEA135518BF95EA0C0F0CD050EA4106C3
:1071A00018BF52EA4306D1D181EA030101F0004140
:1071B0004FF0000070BD50EA410606BF1046194668
:1071C00052EA430619D094EA0C0F02D150EA013674
:1071D00013D195EA0C0F05D152EA03361CBF1046B5
:1071E00019460AD181EA030101F0004141F0FE4154
:1071F00041F470014FF0000070BD41F0FE4141F4D8
:10720000780170BD70B54FF0FF0C4CF4E06C1CEAD7
:1072100011541DBF1CEA135594EA0C0F95EA0C0F8C
:1072200000F0A7F8A4EB050481EA030E52EA033547
:107230004FEA013100F088804FEA03334FF0805568
:1072400045EA131343EA12634FEA022245EA111595
:1072500045EA10654FEA00260EF000419D4208BF46
:10726000964244F1FD0404F5407402D25B084FEAF3
:107270003202B61A65EB03055B084FEA32024FF49F
:1072800080104FF4002CB6EB020E75EB030E22BFFC
:10729000B61A754640EA0C005B084FEA3202B6EBBC
:1072A000020E75EB030E22BFB61A754640EA5C006B
:1072B0005B084FEA3202B6EB020E75EB030E22BFFB
:1072C000B61A754640EA9C005B084FEA3202B6EBFC
:1072D000020E75EB030E22BFB61A754640EADC00BB
:1072E00055EA060E18D04FEA051545EA16754FEA1D
:1072F00006164FEAC30343EA52734FEAC2025FEA3B
:107300001C1CC0D111F4801F0BD141EA00014FF0C9
:1073100000004FF0004CB6E711F4801F04BF01439A
:107320000020B4F1FD0C88BFBCF5E06F3FF6AFAEB6
:10733000B5EB030C04BFB6EB020C5FEA500C50F146
:10734000000041EB045170BD0EF0004E4EEA1131C9
:1073500014EB5C04C2BFD4EB0C0541EA045170BDD0
:1073600041F480114FF0000E013C90E645EA060E14
:107370008DE60CEA135594EA0C0F08BF95EA0C0F42
:107380003FF43BAF94EA0C0F0AD150EA01347FF48A
:1073900034AF95EA0C0F7FF425AF104619462CE761
:1073A00095EA0C0F06D152EA03353FF4FDAE1046C4
:1073B000194622E750EA410618BF52EA43067FF415
:1073C000C5AE50EA41047FF40DAF52EA43057FF4A5
:1073D000EBAE12E74FEA410212F5001215D211D5B9
:1073E0006FF47873B3EB625212D94FEAC12343F0C2
:1073F000004343EA505311F0004F23FA02F018BF44
:10740000404270474FF00000704750EA013005D10C
:1074100011F0004008BF6FF0004070474FF00000CF
:10742000704700BF53B94AB9002908BF00281CBFE4
:107430004FF0FF314FF0FF3000F074B9ADF1080CA0
:107440006DE904CE00F006F8DDF804E0DDE9022382
:1074500004B070472DE9F0478C460446089E002B87
:1074600040F086808A42154648D9B2FA82F24AB183
:10747000C2F1200701FA02F320FA07F7954047EA24
:10748000030C94404FEA154EBCFBFEF71FFA85F83B
:107490000EFB17C307FB08F9210C41EA034399458A
:1074A00009D9EB1807F1FF3180F0E180994540F2EE
:1074B000DE80023F2B44A3EB0903B3FBFEF00EFB7F
:1074C000103300FB08F1A4B244EA0344A14209D9F5
:1074D0002C1900F1FF3380F0C880A14240F2C58032
:1074E00002382C4440EA07400027641A1EB10023EA
:1074F000D440C6E900433946BDE8F087002A54D09D
:10750000B2FA82F2002A40F0B4800127491B4FEA08
:1075100015481FFA85F9B1FBF8FE08FB1E1109FB9F
:107520000EF04FEA144C4CEA0143984207D9EB188D
:107530000EF1FF3102D2984200F2EB808E461B1A08
:10754000B3FBF8F008FB103309FB00F9A4B244EADE
:107550000344A14507D92C1900F1FF3302D2A145FC
:1075600000F2DB801846A4EB090440EA0E40BDE7B8
:107570008B4208D9002E75D00027C6E90001384695
:107580003946BDE8F087B3FA83F77FB98B4202D35F
:10759000824200F2BC80841A61EB030301209C4606
:1075A000002EA8D0C6E9004CA5E7FFDEC7F12005F4
:1075B000BB4022FA05FC4CEA030C21FA05F44FEA21
:1075C0001C4EB4FBFEF91FFA8CF80EFB194420FA8E
:1075D00005F3B94009FB08FA19430B0C43EA0444CC
:1075E000A24502FA07F200FA07F30BD91CEB0404D8
:1075F00009F1FF3080F08980A24540F28680A9F130
:1076000002096444A4EB0A04B4FBFEF00EFB104430
:1076100000FB08FA89B241EA0444A24508D91CEBF0
:10762000040400F1FF316CD2A2456AD902386444E7
:1076300040EA0940A0FB0289A4EB0A044C454146FC
:10764000CE4655D352D0002E6AD05A1A64EB0E049F
:1076500004FA05F522FA07F3FC401D43C6E900547D
:10766000002748E73746304645E718463AE70F46D1
:1076700021E79540C2F1200321FA03F04FEA1548B3
:10768000B0FBF8F71FFA85F908FB170E24FA03FC84
:10769000914007FB09FA4CEA0101080C40EA0E4050
:1076A000824504FA02F407D9281807F1FF332AD2D9
:1076B000824528D9023F2844A0EB0A00B0FBF8FC21
:1076C00008FB1C000CFB09F389B241EA00418B4224
:1076D00008D969180CF1FF3011D28B420FD9ACF1E7
:1076E000020C2944C91A4CEA074714E74345AAD2B9
:1076F000B8EB020169EB0C0201389646A3E7844619
:10770000F0E7084694E71F46D6E781467AE7384611
:1077100046E7AEF1020E2B4411E702382C4422E773
:107720003746E8E6704700BF032A70B414D940EA30
:107730000105AD0704460B4622D11D68266819468F
:10774000AE42204603F1040304F1040418D1043AC4
:10775000032A20461946F0D8541E72B103780A78DD
:10776000934208BF241806D00CE010F8013F11F82E
:10777000012F934206D1A042F7D1002070BC704780
:10778000541EEBE7981A70BC704700BF844641EA6C
:10779000000313F0030349D1403A23D30B6803607D
:1077A0004B6843608B688360CB68C3600B6903617F
:1077B0004B6943618B698361CB69C3610B6A036267
:1077C0004B6A43628B6A8362CB6AC3620B6B03634F
:1077D0004B6B43638B6B8363CB6BC3634030403134
:1077E000403ADBD230320BD30B6803604B68436006
:1077F0008B688360CB68C36010301031103AF3D2CD
:107800000C3205D351F8043B40F8043B043AF9D25A
:10781000043208D0D2071CBF11F8013B00F8013B2D
:1078200001D30B8803806046704700BF082A13D33A
:107830008B07B1D010F00303AED0C3F10403D21A0A
:10784000DB071CBF11F8013B00F8013BA4D331F862
:10785000023B20F8023B9FE7043AD9D3013A11F8E2
:10786000013B00F8013BF9D20B7803704B78437071
:107870008B78837060467047F0B4860746D0541EFC
:10788000002A3CD0CAB2034602E014F1FF3436D3DA
:1078900003F8012B9D07F8D1032C29D9CDB245EA75
:1078A00005250F2C45EA054533D9A4F11006360904
:1078B00003F1200707EB061703F1100242E9045514
:1078C00042E902551032BA42F8D1721C14F00C0F82
:1078D00003EB021204F00F0613D0331F23F003034F
:1078E0000433134442F8045B9342FBD106F00304D3
:1078F0002CB1C9B21C4403F8011B9C42FBD1F0BC63
:10790000704734461346002CF3D1F8E7144603467B
:10791000C2E71A462646E0E770B440EA0104A3072E
:1079200027D1032A25D90B460646194653F8045B8E
:10793000A5F1013424EA050414F0803F06D1043A8D
:10794000032A46F8045B1946EFD882B133460C7817
:10795000551E03F8014B74B132442E4405E011F872
:10796000014FF51A03F8014B2CB19A42F7D170BCC4
:1079700070470646E9E7002DF9D000221D4403F8C0
:10798000012BAB42FBD170BC704700BFFEE708B5CE
:10799000FAF77CFCF7B50024064625462746304614
:1079A000FAF762FD0197019BAB4215DB3046FAF70F
:1079B00063FDC5F5C8750197019B9D4211DC01343B
:1079C000B4F5487F01D103B0F0BDB4F5C87FCCBF9A
:1079D000C4F548752546E2E700BF019B01330193DA
:1079E000E1E700BF019B01330193E5E7FAF7FABD38
:1079F000FAF7A4BE70470020FAF772BF0120FAF729
:107A00006FBF0020FBF730B90120FBF72DB9022032
:107A1000FBF72AB90320FBF727B910B50C46FBF793
:107A20000DFC2046BDE81040FBF73ABC10B50446FB
:107A3000C1B20020FBF76AF8204610BD70B50E46B3
:107A40000024451E6B1C02D015F8010F08B9204612
:107A500070BDB442FBD0FFF7E9FF0134F2E738B55F
:107A60000546002415F8010B20B1FFF7DFFF0134B4
:107A7000002DF7D10A20FFF7D9FF204638BD00209E
:107A800070470120704710B50446302200210E20B7
:107A9000FBF73AF96CB1012C0CD142F210730011D2
:107AA000A0F28E5058432A2390FBF3F000F5C34018
:107AB000283010BD4FF00040FBE700207047012048
:107AC000704710B50446302200210F20FBF71CF947
:107AD0005CB1012C03BF40F6F253584347F6F073F4
