:020000040020DA
:10200000C01700208D2220009B76200099762000AA
:102010009976200099762000997620000000000033
:10202000000000000000000000000000137D200000
:102030009976200000000000317D2000FD76200010
:102040000F772000157720001B77200021772000D4
:102050000000000003772000097720009976200017
:102060009976200000000000000000000000000041
:102070000000000000000000997620000000000031
:1020800000000000000000009976200099762000F2
:102090009976200099762000997620009976200084
:1020A0009976200099762000997620009976200074
:1020B0009976200099762000997620009976200064
:1020C0009976200099762000997620009976200054
:1020D00099762000000000000000000000000000D1
:1020E00000000000000000000000000000000000F0
:1020F0000000000000000000053820001538200016
:1021000000000000000000000000000000000000CF
:1021100000000000000000000000000000000000BF
:1021200000000000000000000000000000000000AF
:10213000000000000000000000000000000000009F
:10214000000000000000000000000000000000008F
:10215000000000000000000000000000000000007F
:10216000000000000000000000000000000000006F
:10217000000000000000000000000000000000005F
:10218000000000000000000000000000000000004F
:10219000000000000000000000000000000000003F
:1021A000000000000000000000000000000000002F
:1021B000000000000000000000000000000000001F
:1021C000000000000000000000000000000000000F
:1021D00000000000000000000000000000000000FF
:1021E00000000000000000000000000000000000EF
:1021F00000000000000000000000000000000000DF
:1022000000000000000000000000000000000000CE
:1022100000000000000000000000000000000000BE
:1022200000000000000000000000000000000000AE
:10223000000000000000000000000000000000009E
:10224000000000000000000000000000000000008E
:10225000000000000000000000000000000000007E
:10226000000000000000000000000000000000006E
:1022700099762000E93620000D3720009D2D2000A2
:1022800079392000C528200099762000FF224824B3
:1022900008B5084B08481A60084AE369121A084949
:1022A00098470848084AA369121A0021984700F085
:1022B0000DF8FEE7B4200D4040000020370100205B
:1022C000348B200038010020B90F002073B500F0D6
:1022D00047FC00F0FFFC00F05DFC00F061FA01F04B
:1022E00039FB05F0B9FA00F0EDFC00F0B3F801207D
:1022F00005F0D6F902F002F900F01EFC002000F013
:1023000039FB012000F036FB4049002000F0FEFBC5
:1023100002F03CFA62B6042005F0C2F93C4805F030
:1023200024FA3C4805F021FA00F0D8F9002002F028
:10233000D9FA01F0FFF90021374802F06DF901F0F8
:1023400045FF05F0D9F900F04DFD00F069FD02F000
:1023500011FE0821684601F023FB9DF806309DF828
:1023600007502E4C45EA0325BDF806302C48238043
:1023700001F050FB2B4E21782B4801F04BFB61788C
:102380002A4801F047FBF46A4AF6CD310220A04703
:1023900029460320A0471A210120A04708226946A8
:1023A000736B0B209847224801F034FB214B1868CF
:1023B00005F0DBF9204801F02DFB204B186805F0F3
:1023C000D4F91F4801F026FB1E4B186805F0CDF923
:1023D00000211D4802F020F91C4B01219B6881203F
:1023E000984705F01BFA1A4805F00EFA00F0AAFB10
:1023F000022005F055F900F0ABFB02F097F810F061
:10240000FF0FF8D101F03AFAF5E700BF4547200089
:10241000FE8320001084200078000020B00F0020F0
:1024200035842000508220005384200059842000ED
:102430005F84200024832000668420004C832000D9
:102440006D8420006883200098000020D88120003F
:10245000A483200008B500F0E5F80022014B1A70B3
:1024600008BD00BFC40D0020024A13781843107045
:1024700000F0FCB8C40D0020034A137823EA0000E2
:10248000107000F0F3B800BFC40D0020024A1378AA
:102490005840107000F0EAB8C40D002018B10128AF
:1024A00004D000207047034B18687047024B18781F
:1024B000704700BF20900D40C50D002010B5094A9F
:1024C0000020137801331370074B197802F07CF861
:1024D000BDE8104005490023054A0968054801F098
:1024E000ABBE00BFC50D0020B20F00209001002040
:1024F000BD24200070010020812808B52BD0B0F544
:10250000807F3AD0802824D101F0EAFF1C4B1D4A7D
:1025100018701368032123F00803136052F8203C5D
:10252000002023F0080342F8203C52F81C3C23F022
:10253000080342F81C3C52F8183C43F0080342F8E8
:10254000183C042200F0D4FB032200210E4800F0C6
:1025500073FB012108E00D4B0D481A6831B142F0C0
:1025600008021A6001230360084608BD22F0080231
:102570001A600123C0F88030F6E7064B1960E8E7DF
:10258000B20F002020940D409925200010940D409A
:1025900000E100E09001002008B50F4805F06AF95D
:1025A000C8B108210C4805F059F90C4B196849B11C
:1025B00000220B4B1A700B4B1B6843B90A4A0B489D
:1025C00001F03AFEBDE80840094802F05BB907484F
:1025D00001F03CFEF6E708BD6801002090010020F4
:1025E000C50D002020900D40BD242000700100206A
:1025F000D8812000084A136823F00403136052F8BE
:10260000203C43F0040342F8203C0022034B1A60B4
:102610000122034B1A70704720C40D4010C00D40BA
:10262000C60D00200D4A0E49136823F0C003136045
:1026300052F8203C43F0C00342F8203C0022094BF2
:102640001A600B6823F010030B6051F8203C43F034
:10265000100341F8203C044B1A60704720A40D4041
:1026600020C40D4000A30D4040C00D4010F00202F8
:1026700018BFFF22084B1A6010F0040218BFFF2297
:10268000064B10F001001A6018BFFF22044B14BF64
:102690001A601860704700BF00A20D4000A10D40F5
:1026A00040C00D40044B1868C0F30720030904BF65
:1026B0001030C0B2704700BF1C300D40064B186888
:1026C000C00910F0060F03BF00F00700C0F10200C0
:1026D00040034FF40040704714300D402DE9F0479F
:1026E000482588B0FFF7DEFF164B07461C68AB682D
:1026F00098476B68804698470546FFF7DFFF064618
:1027000000F082FA814600F08BFA824600F038FA37
:10271000B60A04F00103AD0AC4F34004CDE905A0F4
:102720000393CDF8109002940196009507F00F03E3
:10273000C7F307124146044801F06CF908B0BDE840
:10274000F08700BF1C300D407B8420002DE9F8434A
:1027500000F07AF810490246D1E90045AC46A042A3
:1027600038BF05F1010C6346C1E900230B48D0E9ED
:102770000089B8EB040169EB05048E1844EB0C07E3
:10278000C0E9006701F016FE18B1BDE8F84301F09A
:1027900095BDBDE8F88300BF40010020380100204E
:1027A000E0210D4B0D4A5A600D4A82F82310002299
:1027B00007219A6019600B490B6843F001030B6015
:1027C000094B1A60042243F80C2C012243F8082C10
:1027D0000F22DA62704700BF10E000E047E8010016
:1027E00000ED00E008200D400C000340034BD3E94E
:1027F0000023100A40EA0360704700BF4001002038
:10280000054B18601C3B1A6842F001021A601A68F6
:10281000D207FCD4704700BF2800034010B5064C17
:10282000236823F001032360FFF790FF236843F040
:102830000103236010BD00BF10E000E0014B1868E9
:10284000704700BF94010020064B18685A6808338F
:102850001B681B0443EA0223034A0343106843EA4C
:102860000060704740500D404C500D40014608B587
:10287000104A1368DB07FCD572B6FFF7E5FF0B1AA9
:10288000062BD8BFC11D0C4B0A0E1A60C1F30742BC
:1028900043F8042CC1F3072243F8082CCAB243F8CA
:1028A0000C2C62B64FF40032044B1960044B1A61D1
:1028B00008BD00BF50500D404C500D409401002009
:1028C00000E100E008B500F0C1FF0022064B1A60ED
:1028D0004FF40032054BC3F89021C3F89020BDE8B7
:1028E000084001F0CFBE00BF9401002000E100E0ED
:1028F0002C23154A70B503FB00234FF6BF72DC682A
:102900000546236C626413F050020DD00F4EA3698C
:10291000DB0600D570BD56F825301BB12068C0B26B
:102920009847F4E72368F2E713F4D06FF2D04FF43E
:1029300040732363FF236360E36AE262E362236B15
:1029400043F001032363E5E7E881200098010020BC
:10295000064B1B681B075FBF054B186880F008001B
:10296000C0F3C00048BF0020704700BF18C000403F
:1029700018D0004001282DE9F74F064600F2B48038
:102980002C2545435A4F7C1994F92080B8F1000F4B
:10299000C0F2AA8094F92290B9F1000FC0F2A4808D
:1029A000544800F0C5FF544A79591368E5680B4351
:1029B00013605368616894F921A00B4353609368D6
:1029C000A1685FFA89FB0B4393600023C5F8C83FF9
:1029D00023690AEBC8021A6094F92330227D009320
:1029E0009DF8003058461946019300F08BF9019B81
:1029F00008221946584600F07BF901233F494FEA67
:102A00000939009A59F8010003FA02F2024349F821
:102A100001204FEA083858F8010003FA0AF202438D
:102A200048F801205022AA63AA6B94F9240042F4CA
:102A3000D062AA6302226A634FF440722A63A269D9
:102A400000286A62E269AA624FF07002EA620D46EB
:102A500014DB94F925102A4A41EAC00414600203E9
:102A600054598B4023435351C9B20022C0B200F0E5
:102A70003FF9244A136843F4004313602C2303FBFB
:102A8000067393F92640002C1BDB93F927A05FFA0D
:102A900084F85FFA8AF901224946404600F032F98B
:102AA00001232403625903FA0AF3134363510822F2
:102AB0004946404600F01CF9124A136843F480432B
:102AC00013602C2303FB0676F268136B43F00103BB
:102AD0001363012296F82830590903F01F0302FA04
:102AE00003F3094A42F8213003B0BDE8F08F00BF7C
:102AF000E88120005129200028200D4020940D401D
:102B000004410D4030D0004000E100E001289CBFAE
:102B1000014B43F82010704798010020012808D885
:102B20002C22044B02FB0030C3689A699206FCD445
:102B300019607047E88120000022014B1A6070473D
:102B400000500D400822014B1A60704700500D40A4
:102B5000A022024B1A6050221A60704700500D40AC
:102B6000014A024B9A6070470020200000ED00E00F
:102B7000024B1868C0F38150704700BF04200D401D
:102B800008B5FFF7F5FF024B53F8200008BD00BF62
:102B90004082200038B5164D164C2B68012223F0D8
:102BA00040032B602368062123F0400323600320A9
:102BB00000F09EF82B68012223F080032B6023682D
:102BC000072123F080032360032000F091F80A4BD3
:102BD0000A4A0B491A600B4A134610680842FCD196
:102BE0001A685101FCD41A685201FCD538BD00BFE7
:102BF00020C40D4000C40D4000200D400101020022
:102C00000000010104200D40034B04481B6803F041
:102C100007031841704700BF04200D400048E80139
:102C2000034B04481B68C3F302231841704700BFDD
:102C300004200D400048E801024B02EBC10243F8BA
:102C400022007047A0010020F8B507460E46002478
:102C5000084D05EB411547FA04F3DB07E1B204D553
:102C600055F824300BB1304698470134082CF2D186
:102C7000F8BD00BFA00100202DE9F8430746DFF8AA
:102C8000408000F0E3FD0C4B3D03EE5855F8084042
:102C90004FEAC70924FA09F446EA04003946C0B2EB
:102CA000FFF7D2FFE4B2054BF6B204FA09F4EE5096
:102CB00045F80840BDE8F88318940D401C940D4079
:102CC00018970D4080220021014804F05BBC00BF32
:102CD000A0010020034B044A1A60044B803A1A609A
:102CE000704700BF2002002080400D4024020020D9
:102CF000034B01EBC0011B6843F82120704700BF64
:102D000020020020034B01EBC0011B6843F8212087
:102D1000704700BF240200200E28F0B50BD1154DDE
:102D2000154F2C6844F002032B603D6825F03F06E8
:102D300046F001063E60114E336823F0FF03134353
:102D40000B4303430E4A336013681B06FCD50D4B3F
:102D50000D4A1B6812680E2803F0FC0343EA0223A5
:102D600008BF054A1BB204BF1560024A184608BFD7
:102D70001460F0BD34000144F486084008700D4032
:102D800000700D400C700D4010700D40024B186823
:102D9000B0FA80F04009704700B708404FF4004295
:102DA000064B10B5064CC3F89021C3F8902020685C
:102DB00018B101F049FC0023236010BD00E100E0E0
:102DC00028020020064A136843F002031360536888
:102DD00043F002035360936843F00203936070472B
:102DE00048200D4007B50C4800F0A2FDFFF7EAFFB0
:102DF0000A4B1A6842F002021A6000220192019AFC
:102E00000F2A06DD1A6822F002021A6003B05DF88C
:102E100004FB019A0132F1E78D2D200054200D4072
:102E2000064A136823F002031360536823F0020379
:102E30005360936823F002039360704748200D406D
:102E40000B4B1A689207FCD41B685B065FBFED2230
:102E5000084B1A601A60084B1B6813B1EF22054B30
:102E60001A60064A0120137803F07F03137070473D
:102E70004C860840388808402C860840C90D002040
:102E8000044B186800F02200A0F12003584258417A
:102E9000704700BF4C860840024B186800F04000A5
:102EA000704700BF4C860840044B1A6818B142F0C6
:102EB00001021A60704722F00102FAE7008608401A
:102EC000204B1870002832D01F4A13681B03FCD512
:102ED0001E4B1A6842F002021A601A6842F00102A0
:102EE0001A601A685007FCD51A6822F001021A60AD
:102EF0001A685107FCD41A6842F002021A601A6874
:102F000042F001021A601A685207FCD5104A136891
:102F100023F004031360D2F8A83123F00403C2F8AD
:102F2000A8314FF400520B4BC3F890207047084A69
:102F3000136843F0040313604FF40052054B1A6109
:102F4000704700BFC80D002004200D4004880840D1
:102F50008C86084000E100E0084B93F90020002A2D
:102F600009DBED21064A11601160E32111601A7836
:102F700062F07F021A700120704700BFC90D002067
:102F800038880840A0F10B01CBB20F2B10B50446D6
:102F900013D80B4B1B6813F03F0302D0FFF750FF11
:102FA000012301EB8101074A0B3111600BB1FFF7DF
:102FB000D3FF054B60B21C7010BD4FF0FF30FBE734
:102FC000488608403C8608403401002010B50C4675
:102FD000002900F08680102800F28580DFE800F0EC
:102FE00009101B22243B44575C727683837B7D54FB
:102FF0007F003E4B1B68003318BF0123236024E091
:1030000005223B4B1B6803F07F030B3B93FBF2F362
:103010000B33DBB2F2E7374B1A68043B1B6843EA19
:103020000223EBE7344BF7E700230B60334B344AC2
:103030001B6803F001030B601268900644BF43F065
:1030400002030B602F4B1B780BB900200BE00B68C1
:1030500043F00403D2E700202B4B08601B78002BC1
:10306000F3D001230B6010BD284B29491A680023B7
:10307000D2B201EBC3000079904202D851F833304C
:10308000BCE701330E2BF4D16FF01703B6E7214BE9
:103090001B685BB2493BB1E71F4B1B6899060FD118
:1030A000FFF75AFF01231D490A68D207FCD51C4AC5
:1030B0001168493949B20BB1FFF7C2FE2160C4E77C
:1030C0000023F0E7174B93F9003097E7164B1B7876
:1030D00003F07F0392E70B2390E71A238EE7072381
:1030E0008CE70220BFE70120BDE700BF2C86084027
:1030F0003C860840CC850840D485084000860840BE
:1031000024860840C80D0020350100204086084074
:103110008882200058860840488608406486084017
:1031200060860840CA0D0020C70D002008B50B4B73
:103130001B6899060FD1FFF70FFF012308490A68A2
:10314000D207FCD5074A1168C1F300110BB1FFF794
:1031500077FE084608BD0023F0E700BF4886084018
:10316000648608404C86084008B507285BD8DFE82D
:1031700000F0040F1A21253B4155012903D1FFF727
:10318000EBFE002035E000294FD1FFF759FEF8E7AC
:10319000A1F10B030F2B48D8C8B2FFF7F3FE0130A3
:1031A000EFD1032025E089B2214BCAB2090A1A6087
:1031B0005960E6E789B2CAB21E4BF7E731F0070360
:1031C00033D101F00100FFF76FFE1B4B11F0020F2E
:1031D0001A68C1F3800014BF42F0200222F02002DE
:1031E0001A60FFF76DFECCE731F001001DD1134BE3
:1031F000197008BD01F118031F2B16D80D23104AB2
:1032000052F83300814205DC02EBC3031A790D4BFF
:103210001A60B6E713F1FF33F2D2B2E7C9B20A4B34
:1032200049311960ADE70120E3E70220E1E700BF83
:10323000C8850840D0850840248608403501002014
:1032400088822000408608405886084038B50546E8
:103250000C46134A13689B07FCD4124B93F90030B9
:10326000002B01DBFFF778FEEE220F4B691E1A6080
:103270001A60A21C43F8102C2144022000F074FABA
:103280000A49013C41EA0411022000F07FFA0220C1
:1032900000F086FA022000F09BFA002038BD00BF43
:1032A0004C860840C90D00203888084002C001C083
:1032B000F8B5224B93F90030002B18DBFFF7C4FA66
:1032C0000446FFF749FEC4F1FF2404F57F04F634F9
:1032D000FFF7BAFAC442FBD40126194B1B7843B955
:1032E000184C2368990609D502210846F8BD002626
:1032F000F3E7FFF71BFF0028F2D1F5E7E9230427E6
:10330000114D2B6023689A0703D4013F17F0FF0784
:103310000BD123689B070CD4EE2301212B602B607B
:10332000002EE2D0FFF78CFDDFE70620FFF768FAFA
:10333000E8E7216811F00201FBD1F1E7C90D002097
:10334000350100204C860840388808400B280DD1F4
:10335000082A0DD161B1074B074A083111F8010D58
:1033600043F8040B9342F9D10020704701207047C5
:1033700002207047A8850840C885084070B5304EC7
:10338000336813F0400358D02E4D2C68230605D522
:10339000ED2200202C4B1A601A6070BDE4B2042CA0
:1033A000F6D9023C8C42F3DCE4B2032C1ED12B682C
:1033B00003702B6843702B6883702968234B49394D
:1033C00049B219702B68224D18062B70E0D589B2CE
:1033D000042001F0A5FD2978032001F07F0101F010
:1033E0009FFD1C4B1B78CBB12046D6E70119013954
:1033F000032000F0C1F9184B611E43EA01110320BC
:1034000000F0C4F9032000F0CBF9032000F0E0F94C
:10341000032000F0E9F90028FAD1CEE733685A0614
:10342000E2D533681B0603D50C4801F00DF9DBE744
:10343000ED22054B1A601A60D6E71846ADE700BFCB
:103440004C8608402888084038880840CA0D00206B
:10345000C70D0020C80D002002C0010C5000002044
:10346000F8B5294F3D7815F001054BD10124F8221C
:10347000264B7F261C605C609C60A3F59323A3F51C
:1034800014731A600922C3F89021152270331A6050
:103490000B2203F59B2303F59E731A604022A3F5CC
:1034A0009B23A3F5F0731A601A6842F020021A6099
:1034B000D52243F81C5CDE62DA61154B1878FFF701
:1034C00061FD4FF48042134B02201E60124B1A61C3
:1034D00000F072F91149022000F04EF9032000F0CB
:1034E0006BF90E49032000F03FF90D4B1878FFF7F8
:1034F000E7FC0C48294601F08FF820463B7823432F
:103500003B70F8BD0020FCE7C90D0020A8200D404D
:10351000340100209486084000E100E0288808403B
:10352000C80D00205000002038B50388044653B36E
:1035300040F20342934233D11B4B18781A4638BBF2
:10354000822923D1137873B901F09CFC01F028FC87
:103550008021FFF713FF002805DD80B201F0E0FBBA
:10356000124B1B699847124B1A7852060BD5002252
:103570001A70104B1D68FFF763FCFFF771FFAB0675
:1035800001D0FFF7E9FC40F20343238001200AE069
:103590001B78002BFAD0064B1B785806F6D5CFE7E0
:1035A00000230380032038BDC80D0020688320005D
:1035B000C90D0020488608400B282DE9F0470C462D
:1035C0000FD1082A79D1002977D03D4B3D4A4C1EB6
:1035D00053F80419934204F8011FF9D10020BDE803
:1035E000F0870C2867D1042A67D1002965D0364BB3
:1035F00036491A68DFF8E48022F007021A600A6888
:10360000334F42F008020A60D8F800003A681D689B
:10361000DFF8CCE025F07005DFF8C8C01D60DEF8EB
:103620000050DCF80060C0B2120240EA066092B2BC
:1036300002434FEA0549274809F47F09D0F800A062
:1036400042EA09061A685FFA8AF522F0070242F098
:1036500001021A600A6842F008020A60D8F80020E5
:103660003F68196821F0700141F010011960DEF81F
:103670000010DCF800C0D3B23A0243EA0C6392B205
:1036800013430A04016802F47F0243EA02085FFA66
:1036900081F9FFF7D9F8B6EB080165EB0905ED03F1
:1036A00007460D4AC803002345EA514103F040FD97
:1036B000381A206092E7012091E702208FE700BFCF
:1036C000C4850840A4850840108808400488084044
:1036D000188808401C8808400048E8011488084001
:1036E000248808402088084008B5054B1B7813B98A
:1036F000044800F0A9FF0022034B1A6008BD00BF78
:10370000C80D00205000002034880840064B0748B0
:103710001A68042A1FBF06490A7842F040020A705C
:1037200000221A6000F090BF2C8808405000002052
:10373000C90D002008B5094B40220021184603F0AE
:1037400021FF0121064A074B116050604FF480426F
:103750005A604FF400425A6008BD00BF00000020CC
:1037600004F00F4000E100E003289EBF014B000180
:10377000195070470000002003289EBF024B03EB46
:1037800000135960704700BF0000002003289EBF4F
:10379000024B03EB00139960704700BF000000204C
:1037A000032805D80123034A834011680B431360A3
:1037B000704700BF28F00F40032805D80123034AB3
:1037C000834011680B431360704700BF20F00F4027
:1037D000032805D80123034A834011680B43136073
:1037E000704700BF14F00F4003289FBF044B03EB4A
:1037F0000013986800F0070088BF0020704700BFE2
:10380000000000204FF0FF32014B1A60704700BFEC
:1038100004F50F400122014B1A6070474CF00F4035
:10382000084B19461A68D002FCD4074B1A6822F4D8
:1038300080321A600A68D203FCD41A6842F400325B
:103840001A60704704200D4000200D4010B5094C4F
:10385000226890070DD0084B1A4619684901FCD41C
:1038600013685B01FCD5FEF7D9FFFFF7D9FF0023F2
:10387000236010BD58200D4004200D4038B5264B64
:103880001C6814F03F0414D1244D55F8043B23B1B7
:10389000984770B10134052CF7D1214D2B7843B1F5
:1038A000FEF7CCFF0446FEF7CFFF201A092800D907
:1038B0000CB930BF27E01B4B1A6822F400321A60A3
:1038C000194A11461068C002FCD41A6842F48032CA
:1038D0001A600B68DB03FCD5FEF7B6FF201A092837
:1038E00003D8BDE83840FFF79BBF63280F4C0BD9C6
:1038F0002B78022B08D1236000F05CFE30B1FFF77B
:103900008FFF0023236038BD0123F4E7FEF796FF05
:103910000028F4D0CDE700BF488608402C020020E4
:10392000CB0D002000200D4004200D4058200D40FC
:10393000074A10B50023144652F8041B814202D0F6
:1039400011B944F8230010BD0133052BF4D1FAE777
:103950002C0200200022054B05491A600B6943F038
:1039600004030B61034B1A70704700BF58200D40D1
:1039700000ED00E0CB0D00204FF48032064B10B577
:10398000064CC3F89021C3F89020206818B100F0CD
:103990005BFE0023236010BD00E100E04002002038
:1039A00070B5184B1A78431E1AB9174A1278122AA2
:1039B0000AD001F52011154A2731914216D011F88D
:1039C000010903F8010FF8E7114A12784B2AF0D1E8
:1039D0004C0804F520120D4D2732AA4207D10023CE
:1039E00001F5201120442731A34205DB70BD12F8F8
:1039F000016903F8016FF0E7CA1A1278013300F881
:103A0000012BF1E72B0028002A00280027002800BE
:103A1000290028000FB407B504AA52F8041B044873
:103A2000019200F021F803B05DF804EB04B0704798
:103A30006000002070B505460C460A4E102C07D8D1
:103A400074B12B68224668680649BDE87040184783
:103A50002B68102231466868984710B9103CEDE792
:103A6000204670BD668520002DE9F04F8046154642
:103A700000268FB00791079B1B78002B00F0528324
:103A8000079B1A781C460133002A00F03A83252A46
:103A9000F7D1079B9C4205D036E323783E44002BA8
:103AA00000F040836378621C002B00F03B8300240D
:103AB000104610F8011B13462B2916D00AD82029CE
:103AC00016D0232917D0A1F13107082F3FD84FF086
:103AD000000A18E02D2904D03029F4D144F0100454
:103AE00001E044F001040246E2E744F00604FAE78C
:103AF00044F00204F7E744F00804F4E70A2303FB68
:103B00000A1AAAF1300A134612F8011BA1F130007B
:103B10000928F3D91A782E2A35D159785A1CA1F1DF
:103B20003000092828D8002711781346A1F1300069
:103B3000092802F101021AD91A786C2A40F0908003
:103B40005A786C2A22D144F08004023321E02A29D9
:103B50000AD1D5F800A00346BAF1000F05F104051B
:103B6000B8BF44F00104D5E74FF0000AD2E70A23BA
:103B700003FB0717303FD7E72A2903D12F68023309
:103B80000435D9E713464FF0FF37D5E7013344F04A
:103B900060041A78642A00F0908000F28380462A3C
:103BA00000F0AD806FD8252A00F0BE8064D8002ACE
:103BB00000F0B8820133079304F4E063B3F5806F3B
:103BC00000F0578200F2B380B3F5807F00F0EC8004
:103BD000B3F5407F7FF44FAF8F4B14F4804F8F4A83
:103BE00008BF1A460DF1330300211F46286804352B
:103BF00050EA010C40F07282FF1A04BF302203F831
:103C0000012C4FF0780208BF03F1FF3303F8012CB9
:103C10004FF0300208BF012703F8022C232203379C
:103C2000BA458CBFAAEB070A4FF0000A14F0010452
:103C3000A3F1030903F8032C06D151464046FFF7D0
:103C4000F9FE002840F06C82D8F800303A46494628
:103C5000D8F804009847002840F062823E4433E2DE
:103C6000682A96D15A78682A02D144F020046CE779
:103C7000013344F040048CE7412A4CD0452A99D1C5
:103C800044F4424496E7582A33D004D8472A91D1C5
:103C900044F4A1348EE7612A3AD0632A8AD144F4ED
:103CA000A06487E76E2A3CD00AD8662A24D029D39C
:103CB000672A2AD0692A7FF47DAF44F4245479E737
:103CC000732A2BD007D86F2A10D0702A7FF472AFD6
:103CD00044F440746EE7752A05D0782A7FF46AAF01
:103CE00044F4C85466E744F4106463E744F4885429
:103CF00060E744F4B2445DE744F400745AE744F4E6
:103D0000844457E744F4024454E744F4813451E7CF
:103D100044F4C1344EE744F4E1344BE744F48064A6
:103D200048E744F4E06445E744F4C06442E7B3F58F
:103D3000C06F2DD0B3F5E06F00F0DF81B3F5A06F59
:103D40007FF499AEBAF1010F38BF4FF0010A2B682A
:103D500014F0010405F104058DF820300AF1FF3755
:103D600007D139464046FFF765FE002840F0D8816C
:103D70003E44D8F80030012208A9D8F8040098473A
:103D8000002840F0CD81002C00F0A1813946E0E010
:103D9000D8F8003001222249D8F8040098470028BA
:103DA00040F0BE81013666E6002FACBF24F010045F
:103DB000012714F4005204F0E003069232D0402BA5
:103DC00023D008D823B3202B0FD000220023CDE925
:103DD0000023002317E0602B1AD0802BF5D1073584
:103DE00025F00705F5E8022303E095F90020D31735
:103DF0000435002A73F10001E9DA524263EB430310
:103E0000CDE90023012303931DE0B5F90020EEE77F
:103E10002A680435D317ECE79785200086852000B3
:103E2000B7852000402B00F0AF8000F29980002B76
:103E300000F0AC80202B00F0A080069B00220393B2
:103E40000023CDE9002304F4C053B3F5805F00F0F4
:103E5000D480B3F5C05F00F0D580B3F5006F00F0FB
:103E6000B68000230DF1360B0493049B41F2080247
:103E70009F4288BFFF1A41F6080304EA030198BF76
:103E8000002791421A4602D1002F08BF0127049B48
:103E9000914203EB070040F0CF80DDE9002313439C
:103EA00000F0CA80A14914F4804FA14B4FF00209E1
:103EB00018BF0B46069A72B1039A002A40F0C080E0
:103EC00004F00602022A00F0BF80062A994A04BFC5
:103ED0004FF00109134609EB000292458CBFAAEB93
:103EE000020A4FF0000A14F00102009204D1E10628
:103EF00040F1AE8057449246B9F1000F09D0D8F88E
:103F000000404A461946D8F80400A047002840F06F
:103F100007813C46049B1E44102CD8E9003000F277
:103F2000A1802CB1224684499847002840F0F880AF
:103F3000D8F80030049A5946D8F804004E449847FF
:103F4000002840F0ED80009B3E44002B00F0BF8035
:103F500051464046FFF76EFD002800F0B880DFE0D4
:103F6000602B13D0802B7FF468AF073525F0070551
:103F7000F5E80223CDE9002304E02A780023CDE907
:103F800000230435069B3EE72A88F7E72B680022CA
:103F900019460435CDE90012F4E7DDE904010A22EF
:103FA000002303F0C5F8DDE9040130320BF8012DE0
:103FB00000230A2203F0BCF8CDE90401DDE9042363
:103FC0001343EAD10DF13603A3EB0B034CE7DDE914
:103FD00000230DF1360BCDE90423EFE702F00701D2
:103FE00030310BF8011DD10841EA4371D8080A4667
:103FF000034652EA0301F1D1E4E7DDE900230DF1C4
:10400000360BF6E74D4B14F4804F0DF1360B4C494F
:1040100008BF1946DDE9002352EA0300D2D002F0BE
:104020000F00085C4FEA131C0BF8010D100940EA61
:10403000037002466346EFE74FF000094B4639E74D
:104040004FF001093F4B46E74FF001093E4B42E775
:10405000514640460393FFF7EDFC039B00283FF4D5
:104060004BAF5DE0102234499847002858D1103CEE
:1040700052E7D5F800B00435BBF1000F29D05B46FC
:10408000994699F800200133002AF9D1A9EB0B09D0
:10409000002F02DBB94528BFB946CA458CBFAAEB41
:1040A000090A4FF0000A14F0010404D151464046B9
:1040B000FFF7C0FCA0BBD8F800304A465946D8F8F4
:1040C0000400984760BB4E44002C7FF441AF564437
:1040D000D1E4DFF878B04FF00609D9E700F00F0C13
:1040E00012F80CC04FEA111E03F801CD4FEA101C64
:1040F0004CEA017C604671467AE52B6804351E6007
:10410000B9E4079B9C420DD0079B0799E71A3A46F2
:10411000D8F80030D8F80400984700283FF4BDAC28
:104120004FF0FF3630460FB0BDE8F08FA885200075
:10413000AB852000AE852000768520009785200085
:1041400086852000748820006B842000B0852000C4
:10415000F8B5038806461546CBB14A2B2BD18829E2
:104160001FD1174803F097FB0446C4B1231D9D429D
:104170001FD12146124803F098FB124D62692F6847
:104180002A60A2690AB1E06990472F6007E00C48F5
:1041900003F081FB044634B901220B4B1A704A2309
:1041A000338001200AE0A168201D03F038FB246859
:1041B000F1E72468D9E7002303800320F8BD00BF9E
:1041C00044020020D0030020CC0D002010B50024B4
:1041D000054B06481C7003F05BFB2146BDE8104010
:1041E000034800F019BA00BFCC0D002044020020A3
:1041F0006800002070B50446E3610B4B049D1B78FA
:10420000C4E905526BB1094D094B2E68201D2B6086
:1042100003F005FB2E602146BDE87040054803F021
:1042200057BBA160F7E700BFCC0D0020D0030020F2
:10423000680000204402002013B5034C2468009459
:10424000FFF7D8FF02B010BDD003002010B5084B17
:1042500004461B7843B1043000F0B4F82146BDE8B1
:104260001040044803F021BBC0E90333F6E700BF68
:10427000CC0D00204402002010B50E4C236813B969
:104280000D4A136010BDFEF7B1FA2168D1E9002391
:1042900013448A681B1A1AB91844074B1860F1E7CF
:1042A000D2E900142144091A8B4228BF0B469268B8
:1042B000F1E700BF4C02002048020020014800F056
:1042C000C3B900BF780000202DE9F84303880546F4
:1042D00053B1592B47D1872920D1002024490B689D
:1042E00063B918B10B6001E0214A13605923012022
:1042F0002B80BDE8F88301203346F1E7D3E902645F
:104300009442F8D000B10B6099680029EED0C868DB
:1043100090420ABF89680B469960F5E78229E5D18A
:10432000134F4FF00009B84600263C68002CDDD042
:10433000204603F09FFA98B122468821E06800F0F9
:1043400043F958B9E060A3682EB1B360C4F808908F
:10435000FFF792FFE8E7C8F80030F7E7FFF7AEFF96
:104360002646A468E2E7002303800320C1E700BFDC
:104370004C02002010B50446FFF7A0FFE3680B4A8B
:104380000BB1136833B90A4B1B68E3601368146000
:10439000A36004E0A34206D1054A1268DA60BDE8D2
:1043A0001040FFF769BF9B68ECE700BF4C0200209C
:1043B000D0030020024B1868003018BF012070475E
:1043C0004C02002010B50B4A04461368834208D102
:1043D00083681360FFF750FF0023C4E9023310BD68
:1043E0001346002BF8D09A68A242F9D1A2689A60CD
:1043F000F0E700BF4C02002038B5836804460D4644
:104400009BB10A4804600220A07304F10C00984795
:104410000238012801D9832D05D121462046BDE867
:10442000384000F005B80123A37338BDD003002045
:104430002DE9F8431C4F04463D6889462B46A342AC
:1044400004D00BB9BDE8F8831B68F8E7002CF9D05D
:10445000164EA37BD6F8008063B10023A3738DB9F9
:10446000A3683BB14C4505D034602A46832104F152
:104470000C0098473B68A3420ED123683B60C6F806
:104480000080DFE7A54204D022468721284603F0BA
:10449000DDF92D68E3E71346002BF0D01A68A2423D
:1044A000F9D122681A60EAE7D4030020D003002083
:1044B000002238B50125084B1A70084B1C6804B956
:1044C00038BDE37B2BB1E581002282212046FFF736
:1044D00093FF2468F3E700BFD00D0020D403002031
:1044E000024B1878421C1A70704700BFCE0D002096
:1044F000014B1968FFF79CBFD00300208A22064BAE
:104500001A700023054A1370054A1370054A136098
:10451000054A1360704700BFCE0D0020CD0D00206E
:10452000CF0D0020D4030020D00300202DE9F0415E
:104530001B4D2B780BB1FFF7BBFF1A4C22789AB1B9
:104540000C21194E194F3378013A59430133781829
:1045500003F01F0317F801803370D0E90170227057
:1045600090B9134B1E6826B92B7820781844BDE803
:10457000F0812B780BB1FFF79BFF30463A4641465E
:1045800003F064F93668EEE7B8F1810F08BF012344
:104590003A4608BF8373414603F058F9E4E700BF89
:1045A000D00D0020CF0D0020CD0D002050020020A6
:1045B000D4030020024A034B10781B78184470473C
:1045C000CF0D0020D00D0020F0B50B4E3378202BFE
:1045D0000FD00C25094C0A4F24781C4404F01F040A
:1045E0006C433D19C5E90120002001333955337072
:1045F000F0BD0120FCE700BFCF0D0020CD0D002055
:104600005002002038B5034C256803F01FF92560DF
:1046100038BD00BFD003002030B40A4C0A462568DC
:104620002B4683420CD04BB950B1012105608173F8
:1046300020608381812130BCFFF7E4BF1B68F0E775
:1046400030BC7047D403002038B1837B013B012B81
:104650009FBF0123014AC37313707047D00D002020
:10466000024610B5064853600468029B11609360CF
:10467000026014B90846FEF7F9F8002010BD00BF2B
:10468000D803002010B5084C206858B100232360DF
:10469000D0E901319847236823B1BDE8104018687C
:1046A000FEF7E4B810BD00BFD803002070B5058840
:1046B0000446672D09D0792D2FD0002D33D1FFF777
:1046C0000FFF1B4B18701B4B1D601B4E194D08E054
:1046D0000A282B680ED07E2B03DC5A1C2A60174A4E
:1046E000D054304603F075F9431CF1D16723238081
:1046F00001201BE05A1C2A600025104A2846D55488
:104700000B4B1978FFF760FF0D4B2A46852118687F
:10471000FFF75AFF18B97923E9E78529E8D1002284
:10472000044B1A60D1E700230380032070BD00BF53
:10473000B70F0020DC030020E0030020D10D002093
:10474000D00300200D2810B5014616D00C4C23785C
:1047500053B90C4803F02AF908B9012323700A4819
:10476000FFF772FF012010BD0A28F8D1054803F0B9
:104770001DF90028F3D00023F0E70020F3E700BF85
:10478000510E0020E00300208800002008B50549F4
:104790000548802203F003F9BDE8084000210348E2
:1047A000FFF73ABF520E0020E003002088000020EF
:1047B0002DE9F04104880646772C20D07E2C3DD090
:1047C000002C4ED1FFF78CFE284D294B294FDFF8E6
:1047D000B08018702C602B6857F823202AB9264A1D
:1047E00013707723338001203EE008F8034093687C
:1047F0000021802098472B6801332B60EBE70023D2
:104800001E4A1360194A1360184B1B4A1B68127822
:104810009A4204DC194B1B68002BF0D1E1E7184ADF
:10482000D256002A19DA134A002052F82320104BDE
:104830001978FFF7C9FE28B97E23D3E70C4B1B7804
:104840008B42D0D1094B0E491A688B5C03F07F0371
:104850008B540A4A136801331360044A1368013306
:10486000D1E7002303800320BDE8F081EC030020A2
:10487000B80F002040000020D20E0020E8030020E6
:10488000B30F002010B40A4B0A4A197800238B4258
:1048900003DA52F8044BA04208D107490748CA5C22
:1048A00062F07F02CA5410BCFFF7CEBE0133EEE7C0
:1048B000D20E002040000020B30F002098000020FE
:1048C000064A136843F004031360054B1868043369
:1048D0001B6840EA032080B2704700BF00700D40A3
:1048E00014700D4010B5174A136823F00C031360C1
:1048F0000122154B1A601A68012AFCD10822134BB9
:1049000013491A60E32203F505731A601A460B680F
:10491000DB07FCD50F4C102100232068013900F083
:10492000010043EA00034FEA43039BB2F5D1002B99
:10493000F1D00949180A03F0FE0308600B60EF2369
:10494000136010BD00700D40A8200D402486084063
:10495000648608409C86084014700D4010B50478A9
:10496000437843EA042303FA01F1044B985CC2F153
:10497000080200EA21201041C0B210BDEA852000E3
:10498000F8B506460A480D46174602F084FF04466D
:1049900030B93A4629463046BDE8F84003F090B9B0
:1049A000A3680BB128469847204602F0ADFFEEE71A
:1049B000F003002038B500F0EDF80546094802F094
:1049C0006AFF044628B95DB12846BDE8384003F0C7
:1049D00072B9636803B19847204602F095FFF0E78B
:1049E00038BD00BFF003002010B5044600F0E0F829
:1049F00038B100F0B1F9034B034821469B68984752
:104A0000012010BD948320008149200070B50B4C1B
:104A10000023616E0A4A04F13800FFF70DFCFFF72E
:104A20004FFF616E0023B0FBF1F5064A05FB110153
:104A300004F11800BDE87040FFF7FEBBF40300204E
:104A4000494A2000614A2000044B5A6E196E5200F8
:104A5000914294BF59665A66FFF7D8BFF40300200D
:104A600010B500F00FFA00F09BF900230380044614
:104A700000F0C0F82288930008B1017B51B9981C5E
:104A800080B200F04DF9238873B1BDE810400748AB
:104A900000F072B8818823445980C188013299801E
:104AA000228002F031FFE5E710BD00BFF4030020D3
:104AB0009DF80030012B04D1024B9A6D5A66FFF726
:104AC000A5BF7047F4030020F8B50F4616461D46F3
:104AD000064C0146064A204600F03CF8C4E916762A
:104AE00025660448BDE8F84000F07EB8F4030020D5
:104AF00030832000B14A200070B505460C461646AA
:104B000000F010F82E612046BDE87040014903F026
:104B1000DCB800BFF8852000014802F0B9BE00BF34
:104B20006004002081800146014802F0D1BE00BF30
:104B30006004002010B50446054802F0ACFE00B940
:104B400010BD8388A342FBD002F0DEFEF7E700BF72
:104B50006004002070B505460C461646044AFFF76F
:104B6000CBFF6E612046BDE87040024903F0ADB84E
:104B700038832000FA85200010B5044604491A2025
:104B800000F0DCF92046BDE8104003F092B800BF09
:104B9000B00F0020054B10B51B689847044618B1AC
:104BA0008188012000F0BCF9204610BD1883200048
:104BB00038B5064B05465B6898470446A98801202E
:104BC00000F0AEF9201C18BF012038BD188320006A
:104BD000014B9B68184700BF18832000014802F072
:104BE00057BE00BF64040020014B1860704700BF2F
:104BF00068040020014802F04EBE00BF640400209B
:104C00002DE9F04106460C480C46174602F043FEDB
:104C100008B9BDE8F0818388A34209D18568002DD9
:104C2000F7D03B4622463146AC46BDE8F0416047EE
:104C300002F06AFEECE700BF6404002008B50448F7
:104C400002F065FEBDE80840024802F060BE00BF09
:104C5000B4000020A800002038B50E4802F067FE1E
:104C6000054650B10C4802F062FE0446286030B997
:104C70002946084802F06FFE2546284638BD00F058
:104C800097F804F1B601A4F8800004F1820000F066
:104C90001FF9F2E7A8000020B400002010B501467B
:104CA0000446074802F06DFE48B12168054802F04D
:104CB00052FE2146BDE81040014802F04CBE10BD36
:104CC000A8000020B400002010B5014604460948A1
:104CD00002F057FE68B12468B4F88010204600F056
:104CE000E1F804F1B60104F18200BDE8104000F0E3
:104CF00003B910BDA800002010B507490B888342F6
:104D000008DB064C80B222880244181A0880012071
:104D1000228010BD0020FCE7B00D0020B20D002065
:104D2000014B1880704700BFB00D0020004870474D
:104D30008C040020014B1888704700BFB00D002084
:104D4000034A044B10781B781844C0B2704700BF68
:104D5000E30E0020B20D00202DE9F0410C4F3A88FF
:104D600072B100240B4B0C4EB3F800800B4B1D7836
:104D7000354421B2414504F1010403DB00233B80AB
:104D8000BDE8F081FFF7DCFF3044435C6B54F0E793
:104D9000B20D0020B00D00208C040020E30E002096
:104DA00008B5FFF7CDFF014B184408BD8C04002067
:104DB000F8B50C4B05461E780B4B1F88F419802C58
:104DC0000DDC3246094902F067FBFFF7E9FF354485
:104DD00001463A46284602F05FFB2046F8BD002413
:104DE000FBE700BFE30E0020B00D00208C04002084
:104DF00008B5FFF7A5FF024B1B88184480B208BD19
:104E0000B00D002010B50146FFF7F2FF4318802BCC
:104E100012DC0138094B00B203444A1C002805DAB1
:104E2000074B187808441870012010BD13F8014989
:104E300001389C5400B2F1E70020F6E78C04002012
:104E4000E30E002038B50C4D0C4C342200210C48E8
:104E500002F098FB2946204602F090FF2946A01C4C
:104E600002F08CFF2946201D02F088FF2946A01D74
:104E7000BDE8384002F082BFCC832000740F0020D0
:104E80007C0F00200023044A1380044A1380044A44
:104E90001370FFF7D7BF00BFB20D0020B00D002088
:104EA000E30E002038B50C460546FFF7EBFF802CDB
:104EB00028BF802429462246034802F0EDFA034B1E
:104EC00020461C8038BD00BF8C040020B00D00209F
:104ED00010B5074B03F1340253F8044B934240F8EA
:104EE000044BF9D1034A13680B6053684B6010BD43
:104EF0007C0F0020740F002010B5074B00F1340226
:104F000050F8044B904243F8044BF9D10B68034A24
:104F100013604B68536010BD7C0F0020740F00209D
:104F2000024B23F810100120704700BF7C0F0020B7
:104F3000014B33F8100070477C0F002008B5044B7C
:104F40001A3803EB400002F019FF012008BD00BF32
:104F5000740F0020024B1A3803EB4000704700BF6B
:104F6000740F00200149024802F00BBFCC832000DF
:104F7000760F0020084B10B51B689847074B5B68FD
:104F80009847074B5B689847064B5B689847BDE8B6
:104F90001040054B5B681847508220006883200052
:104FA000948320004C83200024832000F8B5FDF773
:104FB0001DFC114E0546002437461A20FFF7CAFF94
:104FC000314602F0DEFE80B10A20FFF7B1FF0C236C
:104FD00003FB0474237A83420CD16068281AB0F56D
:104FE000206F8CBF00200120F8BD0134102C06F189
:104FF0000C06E2D10020F7E70C05002070B5184D33
:1050000000242E461A20FFF7A5FF294602F0B9FE1C
:10501000013418B9102C05F10C05F3D10C23621ED4
:1050200003FB0464A4F10C057AB90A20FFF780FFA2
:105030003072FDF7DBFB70601A20FFF78BFFBDE8D5
:1050400070400146064802F099BE2B4654F8180DF0
:10505000013A616803C3A0682C461860E2E700BF0C
:105060000C05002030B591B0054600F04DFA4FF622
:10507000FF73984204D14FF0FF34204611B030BD89
:1050800040220021684602F07DFA404B1A782AB986
:1050900001221A70FFF714FC3D4B18701420FFF723
:1050A00047FF8DF810001320FFF742FF8DF8120024
:1050B000FFF758FF0446002848D000238DF813302E
:1050C0008DF81530002301248DF814308DF8184028
:1050D0004DB10A20FFF72CFF00283FD00A20FFF730
:1050E00027FF8DF81A0002248DF8194000F00CFA01
:1050F000ADF81C00FFF736FF00283CD04FF6FF73D9
:105100008DF81740ADF8003000F0FEF9ADF81E0044
:105110001A20FFF71FFF014602A802F02FFEFFF73B
:105120003FFE0E90FFF706FE0F90684602F030FF3C
:105130000446002DA1D0FFF765FE00289BD0FFF7A5
:10514000F5FD0146684602F06BFF96E70B20FFF77E
:10515000EFFE8DF815408DF81300B3E70C4B1A786D
:1051600002B91C7019780A204A1C1A708DF81A109E
:10517000FFF7D6FEB7E71B20FFF7ECFE01466846B7
:1051800002F0FCFD8DF81740BEE700BFE40E0020E2
:10519000E50E0020014BDB68184700BF9483200018
:1051A000014B5B69184700BF68832000014B9B6976
:1051B000184700BF68832000024BD86900B1004740
:1051C000704700BF6883200070B590F829500F4BDE
:1051D000042D28BF04250124DB6906469847AC400E
:1051E000651E041E08BF01246C4305D0FFF768FB51
:1051F000B0FBF4F303FB14043346214606F1080028
:10520000034ABDE87040FFF717B800BF688320006D
:10521000815320002DE9F04107461B208846FFF707
:1052200099FE484B05461A78474C22B901221A705C
:10523000FFF746FB208023880BB9012323802188B8
:105240000A204B1C2380FFF76BFE404802F023FB33
:105250000446002845D13E4802F069FB0446002878
:1052600065D02946201D02F089FD002304F12C00A1
:10527000C4E90B30238502F00BFB2146334802F0D2
:1052800027FB206B02F039FB072850DC314802F085
:105290004EFB054600283ED02F4802F048FBA86090
:1052A000A8B3FFF7D9FC686068B30920AE68FFF7C0
:1052B0003FFE00BB08233372C6E900780D20FFF7DC
:1052C00037FE01282946206B1AD102F00EFB206B15
:1052D00002F0E1FA854232D12046BDE8F041FFF705
:1052E00073BF2946201D02F04CFD0028C9D120467D
:1052F00002F00AFBACE70920FFF71AFE3072DBE789
:1053000002F0E6FAE3E7A968134802F024FB294615
:10531000104802F020FB206B02F0EFFA38B921466A
:105320000A4802F0C2FA2146094802F014FB41463D
:105330003846BDE8F0410123042202F0EBBEBDE88F
:10534000F08100BFE60E0020B40D00202C060020E6
:10535000CC000020D8000020C000002008B505487F
:1053600002F0D5FA044802F0D2FABDE8084003483A
:1053700002F0CDBAD8000020C0000020CC000020F0
:1053800013B5044668B1006B02F085FA024640B1DD
:105390002146054B0548DB68019302B0BDE810408B
:1053A000184702B010BD00BF688320002D542000B4
:1053B0002DE9F0470D4614468B688046D3E9006717
:1053C000106B92F8289002F070FA6868FFF766FC9C
:1053D000A968124802F0BFFA2946114802F0BBFA48
:1053E000206B02F058FA60B1002320462385FFF7B6
:1053F000EBFE4B46424639463046BDE8F04702F0E8
:1054000089BE04F10800FEF721FF2146054802F09D
:105410004CFA2146044802F09EFAEAE7C000002058
:10542000D80000202C060020CC0000202DE9F041FF
:105430000E461746044620B1006B02F02CFA0546D2
:1054400008B9BDE8F0810A21686802F091FC804645
:105450000A20FFF76DFD804546D0284602F054FA39
:10546000EDE794F8282000203A4484F828202946C3
:10547000224684F82900BDE8F041FFF799BF0022D9
:1054800084F8292094F828203A44D2B284F82820BD
:105490001B7A93421CD8224629460220EBE794F857
:1054A00029203A44D2B2052A84F8292007D90021BC
:1054B00094F8282084F82910013284F8282094F8E0
:1054C00028201B7A9A4203D3224629460120D2E79C
:1054D0002046FFF779FE6868BDE8F04102F034BC71
:1054E000224629463046C6E7AB68002BA9D0032EDA
:1054F000F6D801A252F826F0635420009F542000F1
:105500007F54200043542000014B1888704700BF8F
:10551000300100202DE9F041012986B006460F46F2
:10552000144651DD03A902F0C2FD03AB03CB1B8877
:10553000206123839DF811306161002B48D0B51C98
:1055400002AA01A903A802F079FC9DF81380B8F122
:10555000000F50D0029B2BB16A7815F8023B03EB89
:1055600002239BB2B8F1020FA38335D13349204601
:1055700002F004FC6B78237015F8023B63709DF811
:105580001580B8F1000F50D0019B002B3AD06A78FB
:1055900015F8023B03EB0223029A9BB2E38302B9A4
:1055A000A383B8F1020F30D1244904F1080002F0BE
:1055B000E5FB6B78237215F8023B6372A81B3B1A5C
:1055C0008742C4E90E5300DA002006B0BDE8F0813E
:1055D000B378F51CA376B3E7B8F1030FCFD105F18B
:1055E00008021346611E13F8010D9D4201F8010FD8
:1055F000F9D11546C3E71149204602F0BFFBA4F8D4
:105600001C80BCE7A38BE383CBE7B8F1030FD5D1B4
:1056100005F10802134604F1080113F8010D9D423B
:1056200001F8010BF9D11546C8E7044904F1080057
:1056300002F0A4FBA4F81E80C0E700BFCC832000CA
:1056400013B50024094B1C70094B1C80FDF7FCF8B6
:10565000009400F18001074B01220748FFF700F892
:105660000122064B1A7002B010BD00BFFE0E0020D2
:10567000B60D0020495B20001C070020F90E002019
:10568000074B82B01B784BB1064B1A7832B9012216
:105690001A70054B1B6A019302B0184702B070479D
:1056A000F90E0020FE0E002050822000094B82B02F
:1056B0001B786BB1084B1A7852B1084A127802F085
:1056C000FF012AB91970064B5B6A019302B01847B3
:1056D00002B07047F90E0020FE0E0020FA0E0020E6
:1056E0005082200008B5FFF7E1FF0022014B1A604D
:1056F00008BD00BF2C070020044B1B7823B9044BC6
:105700001B680BB9FFF7D2BF704700BF000F002026
:105710002C0700200022094B82B01A70084BC2B23D
:105720001A70084A084B28B101211B6A11700193B5
:1057300002B0184710705B6AF9E700BFF90E00204D
:10574000FA0E0020FE0E00205082200037B50B4BD1
:105750001A7802F0FF056AB901241C70084B1D700D
:10576000FDF772F8009500F18001064B22460648CD
:10577000FEF776FF012003B030BD00BFF90E002018
:10578000FA0E0020495B20001C07002037B50B4BA8
:1057900005461B780C4673B1FDF756F8231A022B09
:1057A0004FF0000348BF841C00930122044B2146A4
:1057B0002846FEF755FF03B030BD00BFF90E0020AC
:1057C000495B200013B5224C22680AB9FFF76EFF2F
:1057D000FFF7B0FA032823D0FFF70AFB00B31D4BF5
:1057E0009B68984700281BDBFFF7A4FAC0B1FFF7BE
:1057F000FFFAA8B11B20FFF7ADFB174902F0C1FA71
:1058000050B11320FFF794FB206058B9FFF74EFF0B
:105810001248FEF71BFD0DE0FFF7A4FB0028F0D1B6
:1058200002B010BDFFF72CFF00230D4A04210B48E6
:10583000FEF702FDFFF7BAFB0028F1D1FFF7DEFB10
:10584000084BDB68019302B0BDE81040184700BF69
:105850002C07002088832000B00F0020F8060020CD
:10586000E55620004C8320002DE9F04F784E8BB098
:10587000337805903BB9774B1B7823B9052528462B
:105880000BB0BDE8F08FFFF7B3FA0028F6D07249ED
:105890001A20FFF753FBFFF765FB80460C20FFF74C
:1058A00047FBA8B1FFF7A4FA4FF001096B4C019038
:1058B0006568FFF73BFA0199A847694FA36987F824
:1058C00000900293984768B100233B700125D6E70A
:1058D00001210B20FFF724FB624B5B6898470028EF
:1058E000E0DACBE7E3690393984705460028EBD15C
:1058F000FFF7DCFE337886F80090DBB20493059B5B
:105900007BBB4FF006096FF0030A6FF00F0BFCF73B
:105910009BFF0690FFF7B4FE0698AAEB00030693E0
:10592000FCF792FF069BC342F9D46369984748B9D4
:105930000190FFF7BBFE01983870FFF7B7FE049B9C
:105940003370C3E7FFF7B2FEFCF77EFFABEB00035B
:105950000693FCF779FF069BC342F9D4B9F101091C
:10596000D5D1B8F1000F01D1FFF78AFE0A20FFF769
:10597000DFFA5FFA80FBFDF7EBF8FCF765FF814685
:10598000394B1B1A06936FF0CF0AAAEB090AFCF7F2
:105990005BFF1AEB000F4BD5FDF7DAF8B8F1000FFB
:1059A0003ED0A36801989847FCF74EFF6FF00C03B8
:1059B0001B1A0793FCF748FF079BC342F9D4B8F1C1
:1059C000000FE4D1029B9847002835D0FCF73CFF3C
:1059D0006FF01409A9EB0009FCF736FF19EB000F73
:1059E000FAD42369032109A8984703282DD19DF8EB
:1059F00026305B4529D100244FF00109FFF756FE00
:105A0000049B337000233B70002C7FF45FAFB8F130
:105A1000000F7FF434AF994514BF1D4602252EE7D1
:105A2000059B002BBDD0FCF70FFF069BC342B8D4EB
:105A300000244FF00009E1E7039B98470028C5D1F7
:105A40006369984700289ED1C0E70124F1E700BFB1
:105A5000F90E0020FA0E0020B00F00205082200026
:105A6000000F002088832000DEFDFFFF2DE9F14FAD
:105A7000074688461446002A5DD0304B1E685EB14A
:105A80005068FFF721F901231A464146384601B014
:105A9000BDE8F04F02F03EBB1546DFF8A4A0DFF8EA
:105AA000A4B0284601F030FF81466868FFF70CF982
:105AB0000C20FFF73DFAE8B9B9F1000F03D001213E
:105AC0001320FFF72DFA51461A20FFF737FA01216C
:105AD0000B20FFF725FADBF804309847002802DA9C
:105AE00001230522D1E701210C20FFF719FA68688C
:105AF00002F030F94D46002DD3D1204601F004FFCD
:105B000005466068FFF7E0F81320FFF711FA8146B9
:105B10003046FFF7A9FE032804460CD002460123B5
:105B20004146384602F0F6FA2CB925B12C4601263A
:105B3000B9F1000FE1D101B0BDE8F08F2C070020D2
:105B4000B00F00208883200040F2B1122DE9F34706
:105B50006D4C05462388934215D0B3F5D97F04D206
:105B6000002B00F08680002393E040F2E312934282
:105B70002ED040F202229342F5D10023634A1370E3
:105B8000634A137007E0624A13780133DBB2012BDA
:105B9000137000F282805F4B1A78002A70D15E4A3F
:105BA0001268002A6CD11B780BB9FFF769FD5B4BBB
:105BB0005B699847002861D10122544B1A70FCF7A9
:105BC00043FE574B574A186000231370564A137010
:105BD000504B564E1B78002B7CD13378002B79D05C
:105BE000FCF732FE6FF4CC724D4B1B68C01A1044A8
:105BF00000286FDA494FDFF82C917B699847B84647
:105C000018B199F800000130C0B2474FD8F818A079
:105C10003B7889F8000001333B70D047002853D00F
:105C2000002389F800303B78D8F81C800A2B04D96F
:105C3000D04710B9C04700284AD0C047002849D1F2
:105C40003B4B1B7893B12E68FCF7FEFD331A13F122
:105C5000120F4FF0000348BF811C009358BF06F19C
:105C60001401344B01222846FEF7FAFC40F2E313FC
:105C70000FE0FCF7E9FD304B18607EE7FFF73CFDD5
:105C8000FCF7E2FD00F110012846FFF77FFD40F22E
:105C9000B113238002B0BDE8F0871C4B1B78002BAA
:105CA0008DD1254E336880333360FCF7CDFD3368EA
:105CB000C3F1A003C3427FF560AF31682846FFF708
:105CC00065FD40F20223E4E799F80030052BAAD9DC
:105CD000FFF712FD3378002BE3D0104EB3699847DD
:105CE00060B1FCF7B1FD0E4B1B68C01A6FF4CC73AA
:105CF00018440028D5DBFFF7FFFCD2E7F36998478B
:105D00000028EED1F7E700BFB60D0020FC0E002002
:105D1000FB0E0020000F00202C07002050822000E6
:105D200028070020FF0E0020FD0E0020FE0E0020A0
:105D3000F90E0020495B20001807002008B5024B2F
:105D40001B689847023008BD4083200038B50C4BD3
:105D50009B689847041E02DA4FF0FF3038BDFFF70A
:105D60001FF803780546002BF6D10220FEF7C4FF8A
:105D70000028F1D06878FEF7D3FFA01CEEE700BF43
:105D80004083200070B50220FFF73CF810B94FF0B7
:105D9000FF3070BDFEF7CAFF002505700446FEF710
:105DA000C9FF6070FFF724F80446FFF7C7FF2044DF
:105DB0002A2812DCC0F12B00C4B2FEF7F1FF064620
:105DC000FEF7B8FF22462946304401F0DBFBFEF720
:105DD000B1FF204480B2FEF7A3FF044B5B689847F5
:105DE000041ED4DBFEF7B8FFA01CD2E740832000DE
:105DF000014B9B68184700BF2483200070B5044600
:105E00000D4614200121FFF78BF8034B294620464D
:105E1000BDE870409B6818474C832000014601484C
:105E2000FDF7F8BDD68720002DE9F041038806462E
:105E3000002B3CD07B2B5BD1304801F002FD0028C9
:105E40004BD02F4B01205C68A047DFF8D8802D4D48
:105E5000A8F800000220A04728800320A0470420C3
:105E6000A0474FF47A73B8F80020274CB2FBF3F246
:105E700080B262602A880027B0FBF3F0B2FBF3F235
:105E8000224B234D1B68E060012138462760A26049
:105E90002361FCF743FE2F602B68052B1FDD0A21D1
:105EA0000020FCF73BFE154801F0C2FC13E078210E
:105EB0001848FDF7AFFD184A184B01211A60104B26
:105EC00081209C68A047164B01201968A0478021BB
:105ED0000A4801F0A4FC7B23338001200BE014F876
:105EE00023100020FCF71AFE2B6801332B60D3E748
:105EF000002303800320BDE8F08100BF30070020AD
:105F0000B4832000BA0D002068070020080100209B
:105F1000600700205A8720001D5E20005C0F0020D3
:105F20000C010020B80D002070B503888CB0054628
:105F30007BB1B12B40F0FB807F4B1B788B4231D182
:105F40007E4B9A4229D153680020984728BB2F22C4
:105F50001FE07B4B0B21DC6A0120A04707210620B4
:105F6000A04700F081FC00F04FFC764801F0FDFBFB
:105F700000F04AF9048800F055F9214602467248BB
:105F8000FDF748FD6D4B80214FF480709B6898476A
:105F90002E2286216D48FEF717FBB12301202B80AE
:105FA0000CB070BD882947D1694801F04AFCA8B1FE
:105FB000684B1B782F2B11D1302286216348FEF7C6
:105FC00003FB05216448FDF725FD0122634B604872
:105FD0001A800022624B1A60FEF7F4F9614801F062
:105FE00030FC88B15B4B1C78312C0DD15D4801F041
:105FF0001FFC5D4801F0B9FB224686215348FEF79D
:10600000E3FA0420FCF742FA584801F01AFC002891
:10601000C3D0504B1C78302CBFD1544801F008FC41
:10602000534801F0A2FB224686214848FEF7CCFAED
:106030000120FCF72BFAB0E78629AED1454CD1B24E
:106040004C482270FDF7E6FC23782E3B042B6AD8DF
:1060500001A252F823F000BF9B5F20006D6020007A
:1060600075602000E36020009B5F2000374800F04F
:106070002DFC92E700F0D6F8384C2388984206D1E0
:10608000013080B208288ABF01232080238069461E
:10609000208802F05FF8324E374B024618603368B2
:1060A0002188013335483360FDF7B4FC2388802113
:1060B00001332E48238001F0B2FB3368062B7FF7B3
:1060C0006CAF2A48FEF77EF9312286211F48FEF781
:1060D0007BFA01234FF480712248238001F09FFB5B
:1060E0005BE700F09FF81D4C2388984206D10130F1
:1060F00080B208288ABF0123208023806946208837
:1061000002F04CF81C4E0246306021881C48FDF716
:1061100081FC2388013323803368002B7FF43DAF5B
:106120000123238039E7174801F01FFB35E70023DF
:106130000380032034E700BFB80F0020D88120007F
:10614000508220004D86200066862000F800002046
:10615000640F0020360100208B86200032010020D1
:10616000E400002050070020A78620004007002000
:10617000BF862000D786200064070020E486200028
:106180001E8720004C87200038B50388044615463A
:1061900033B1B3F5A57F27D1154B1B788B4204D0C3
:1061A0004FF4A5730120238038BD0120FCF75CF972
:1061B0002B78042BF4D9052B12D168780D4B18607D
:1061C00000F012FD4FF033320B4B00F0A1FE00F057
:1061D00087FF0A4B186069780948FDF71BFCDFE769
:1061E0000848FDF717FCDBE7002303800320DBE70B
:1061F000B70F0020080100203333F33F0C010020CB
:10620000168620003886200000487047B00F002016
:106210000622034B013802FB00308088704700BF24
:10622000CE83200010B50A4B0A4A19881046002375
:1062300094888C4203D106225343C05A10BD0133C7
:10624000082B02F10602F3D14FF6FF70F6E700BF0C
:10625000B00F0020CE83200010B5038804462BB178
:10626000A22B13D10B4B1B788B4203D0A22301200E
:10627000238010BD084B1A79002AF7D01888DB88D4
:106280008342F3D8054B1B689847EFE70023038050
:106290000320EEE7600F0020BC0D00205C0F002003
:1062A0002DE9F0474FF49664274A284D136823F0F0
:1062B000040313602B885C431FFA84FC6446244B60
:1062C000A5F802C0D3E902104E1C40F10007D3E943
:1062D000040110EB0C0841F100099969C3E9048934
:1062E0000C441988C3E90267614538BFA3F800C0B0
:1062F0009C6191469846782200233046394600F04A
:1063000017FF134308D1DCB17823B4FBF3F4002367
:10631000A8F81C40C8F8183056EA070301D1C8E9AC
:10632000046700232B80D9F80020802142F004026A
:10633000C9F800200748084ABDE8F047FDF77CBFD0
:10634000A8F81C40E8E700BF10940D40BC0D0020E9
:10635000480100207C070020A162200008B5431EF0
:10636000032B1DD8114B1B78D3B1032812D004285E
:1063700013D0022802D00E4B588808BD0D4BD3E92C
:10638000040150EA01020ED0D3E9022300F0D0FE4E
:1063900080B2F2E7074B988BEFE7064B1888ECE7E3
:1063A0004FF0FF30E9E70020E7E700BF010F0020D2
:1063B000BC0D0020480100208128F8B50C4606D00D
:1063C000012855D0032857D04FF0FF3418E00020A3
:1063D000002100252A4B2B4EC3E90401C3E9020129
:1063E000294B2A4F1D711D805D805CB9284B2948BF
:1063F0001C60336823F004033360FEF779F83C70C7
:106400002046F8BD244A02211368284623F00403DD
:10641000136052F8203C23F0040342F8203C52F869
:10642000143C43F0040342F8143C52F8183C23F0A7
:10643000040342F8183C2A46FCF75AFC022229467B
:106440001648FCF7F9FB29461248FEF7E5F82B46FB
:10645000134A80211348FDF7EFFE0822336843F00A
:1064600004033360104B1A6001233B700024C7E71C
:10647000054B1871D980F9E70024034B1C71BFE765
:106480004801002010940D40BC0D0020010F002099
:106490005C0F00202001002020940D40AD642000FE
:1064A000A16220007C07002000E100E038B504462E
:1064B0000C480D4601F0DEF990B10221094801F0C7
:1064C000CDF96CB9022D0BD1074A08481388013366
:1064D0001380074B22461978BDE83840FEF774B8A0
:1064E00038BD00BF9C070020BC0D0020200100200B
:1064F000600F002070B503780446032B02D0042BF4
:1065000013D070BDB0F801101848FDF783FA0025CC
:10651000174E04EB45032946B3F8032030460135F6
:10652000FDF778FA082DF4D1EBE7124801F01DF9D8
:10653000B4F80120B4F803100F48FDF76BFAB4F873
:1065400005100E48FDF766FAB4F807100C48FDF781
:1065500061FAB4F809100B48FDF75CFAB4F80B10B7
:106560000948BDE87040FDF755BA00BF37882000E4
:106570005D882000648820007688200093882000B1
:10658000A0882000AD882000BE882000F8B5044611
:10659000FFF748FE214602460E48FDF73BFA0E483B
:1065A00001F0E3F800240D4D0D4FA5F1200604F194
:1065B000080236F8141015F8013B36F81220384658
:1065C0000134FDF727FA082CF1D1BDE8F840024864
:1065D00001F0CBB8CC8A2000DF8A2000220F0020F7
:1065E000098B200038B5124C05462368042B19DCB2
:1065F00030211048FDF70EFA30212846FEF752FCF4
:106600000D48FEF7B9FAC8254FF47A70FCF7F8F890
:10661000013DF9D1C8210948FDF7FCF92368013390
:10662000236038BD0521BDE838400548FDF7F2B9C3
:10663000BC070020368A2000A40700204D8A2000D5
:106640005F8A20002DE9F04F042091B00F46FEF73D
:106650006FFC3D7804B27E78FEF7A2FB00940346FF
:10666000324629465548FDF7D5F914F13B0F0EDAAD
:106670000220FBF7F9FE6FF03B0221465048FDF780
:10668000C9F9022011B0BDE8F04FFBF7F5BE4D4847
:1066900001F06BF80220FBF7E7FE4B48FEF788FBA2
:1066A00007224A494A4800F0BDFF4A4B04AA03F1B9
:1066B000280C14466646154618685968083303C501
:1066C00063452A46F7D1FFF7ADFD434902464348EB
:1066D000FDF7A0F9424801F048F80025DFF82491C1
:1066E0000DF1300810AB03EB4502114618F8013BE1
:1066F00032F8202C31F8301C48460135FDF78AF974
:10670000082DEFD1364801F030F83648FFF73EFF4C
:106710002D4B22469A46144618685968083303C41C
:10672000B3422246F7D100210C462F4E2F4B0DF1DC
:106730003809A6F1200B19F8015B16F8010B04F1DA
:106740000108854212D2401B01280FDD4146184640
:10675000FDF760F9398808342BF814100021244A19
:10676000013511600121214B06F8015C4446082CDB
:10677000E1D120480391FFF709FF0399A1B101235B
:106780008AF800301C4B134A03F1280153F8040B1C
:106790008B4242F8040BF9D1072218490C4800F04B
:1067A00041FF0948FFF71EFF0220FBF765FE144872
:1067B00011B0BDE8F04F01F03BB800BFD188200018
:1067C0000A892000368920002A0F002048892000ED
:1067D0002B0F0020320F00204E892000CC8A200091
:1067E000DF8A200072892000220F00209B89200070
:1067F000BC070020CC892000020F0020F489200073
:10680000640F0020098B20002DE9F0470024144D6F
:106810004FF0FF382E46A246124FB7F804900135CC
:1068200026F81490FFF7F0FC028804F108034A45AB
:1068300018BF06F8138004F1010415BF06EB4303EB
:1068400026F8132083F8018085F81FA018BF85F86B
:106850001F80082C07F10607DFD1BDE8F08700BFD5
:10686000020F0020CE832000024A81210248FEF759
:1068700071B900BFC4832000A407002038B50420EC
:106880000C46FBF7F1FDFEF7FDFA30210C48FEF750
:1068900009FB01460B48FDF7BDF825786478FEF743
:1068A0007FFA2246034629460748FDF7B3F8FEF76C
:1068B00077FAFFF797FEBDE838400420FBF7DCBD10
:1068C0002A0F0020FA8920000C8A200010B51548F4
:1068D00000F04BFF0022144B144C1A60FFF794FF9A
:1068E00007221349601C00F09DFE0122234603F895
:1068F000082B104A02F1280152F8040B8A4243F88F
:10690000040BF9D1FFF780FC01460B48FFF7B6FFF7
:106910000A4800F02AFFBDE810404FF420710848F3
:1069200000F07DBF888A2000BC0700202A0F0020CD
:10693000F4892000020F0020A4070020A48A200070
:10694000640F002081F0004102E000BF83F00043AB
:1069500030B54FEA41044FEA430594EA050F08BFFA
:1069600090EA020F1FBF54EA000C55EA020C7FEABE
:10697000645C7FEA655C00F0E2804FEA5454D4EB3B
:106980005555B8BF6D420CDD2C4480EA020281EA05
:10699000030382EA000083EA010180EA020281EA3D
:1069A0000303362D88BF30BD11F0004F4FEA01318F
:1069B0004FF4801C4CEA113102D0404261EB41019E
:1069C00013F0004F4FEA03334CEA133302D0524224
:1069D00063EB430394EA050F00F0A780A4F10104E0
:1069E000D5F1200E0DDB02FA0EFC22FA05F280181A
:1069F00041F1000103FA0EF2801843FA05F3594100
:106A00000EE0A5F120050EF1200E012A03FA0EFC7E
:106A100028BF4CF0020C43FA05F3C01851EBE371A8
:106A200001F0004507D54FF0000EDCF1000C7EEBC5
:106A300000006EEB0101B1F5801F1BD3B1F5001F03
:106A40000CD349085FEA30004FEA3C0C04F1010422
:106A50004FEA445212F5800F80F09A80BCF1004F4B
:106A600008BF5FEA500C50F1000041EB045141EACD
:106A7000050130BD5FEA4C0C404141EB010111F4CE
:106A8000801FA4F10104E9D191F0000F04BF014679
:106A90000020B1FA81F308BF2033A3F10B03B3F157
:106AA00020020CDA0C3208DD02F1140CC2F10C02E7
:106AB00001FA0CF021FA02F10CE002F11402D8BF45
:106AC000C2F1200C01FA02F120FA0CFCDCBF41EA11
:106AD0000C019040E41AA2BF01EB0451294330BDE0
:106AE0006FEA04041F3C1CDA0C340EDC04F11404BD
:106AF000C4F1200220FA04F001FA02F340EA030094
:106B000021FA04F345EA030130BDC4F10C04C4F1D9
:106B1000200220FA02F001FA04F340EA03002946B9
:106B200030BD21FA04F0294630BD94F0000F83F403
:106B3000801306BF81F480110134013D4EE77FEAE6
:106B4000645C18BF7FEA655C29D094EA050F08BF32
:106B500090EA020F05D054EA000C04BF1946104613
:106B600030BD91EA030F1EBF0021002030BD5FEA57
:106B7000545C05D14000494128BF41F0004130BD7F
:106B800014F580043CBF01F5801130BD01F00045D3
:106B900045F0FE4141F470014FF0000030BD7FEA46
:106BA000645C1ABF194610467FEA655C1CBF0B4641
:106BB000024650EA013406BF52EA033591EA030F58
:106BC00041F4002130BD00BF90F0000F04BF002150
:106BD000704730B54FF4806404F132044FF0000583
:106BE0004FF0000150E700BF90F0000F04BF0021FC
:106BF000704730B54FF4806404F1320410F0004562
:106C000048BF40424FF000013EE700BF42004FEA5C
:106C1000E2014FEA31014FEA02701FBF12F07F43D9
:106C200093F07F4F81F06051704732F07F4208BF90
:106C3000704793F07F4F04BF41F40021704730B597
:106C40004FF4607401F0004521F000411CE700BFE3
:106C500050EA010208BF704730B54FF000050AE066
:106C600050EA010208BF704730B511F0004502D567
:106C7000404261EB41014FF4806404F132045FEA69
:106C8000915C3FF4D8AE4FF003025FEADC0C18BF12
:106C900003325FEADC0C18BF033202EBDC02C2F104
:106CA000200300FA03FC20FA02F001FA03FE40EA96
:106CB0000E0021FA02F11444BDE600BF70B54FF09A
:106CC000FF0C4CF4E06C1CEA11541DBF1CEA135578
:106CD00094EA0C0F95EA0C0F00F0DEF82C4481EAE0
:106CE000030621EA4C5123EA4C5350EA013518BF00
:106CF00052EA033541F4801143F4801338D0A0FBED
:106D000002CE4FF00005E1FB02E506F00042E0FB99
:106D100003E54FF00006E1FB03569CF0000F18BF9F
:106D20004EF0010EA4F1FF04B6F5007F64F5407447
:106D300004D25FEA4E0E6D4146EB060642EAC621DA
:106D400041EA55514FEAC52040EA5E504FEACE2E47
:106D5000B4F1FD0C88BFBCF5E06F1ED8BEF1004F4A
:106D600008BF5FEA500E50F1000041EB045170BDC6
:106D700006F0004646EA010140EA020081EA03010A
:106D8000B4EB5C04C2BFD4EB0C0541EA045170BD06
:106D900041F480114FF0000E013C00F3AB8014F180
:106DA000360FDEBF002001F0004170BDC4F10004C9
:106DB000203C35DA0C341BDC04F11404C4F120054A
:106DC00000FA05F320FA04F001FA05F240EA0200A5
:106DD00001F0004221F0004110EBD37021FA04F6DB
:106DE00042EB06015EEA430E08BF20EAD37070BD95
:106DF000C4F10C04C4F1200500FA04F320FA05F0F4
:106E000001FA04F240EA020001F0004110EBD370F5
:106E100041F100015EEA430E08BF20EAD37070BD65
:106E2000C4F1200500FA05F24EEA020E20FA04F33E
:106E300001FA05F243EA020321FA04F001F00041ED
:106E400021FA04F220EA020000EBD3705EEA430E5E
:106E500008BF20EAD37070BD94F0000F0FD101F08D
:106E60000046400041EB010111F4801F08BF013CC6
:106E7000F7D041EA060195F0000F18BF704703F004
:106E80000046520043EB030313F4801F08BF013D8B
:106E9000F7D043EA0603704794EA0C0F0CEA135547
:106EA00018BF95EA0C0F0CD050EA410618BF52EA01
:106EB0004306D1D181EA030101F000414FF0000007
:106EC00070BD50EA410606BF1046194652EA430615
:106ED00019D094EA0C0F02D150EA013613D195EA89
:106EE0000C0F05D152EA03361CBF104619460AD1D1
:106EF00081EA030101F0004141F0FE4141F47001DB
:106F00004FF0000070BD41F0FE4141F4780170BDCA
:106F100070B54FF0FF0C4CF4E06C1CEA11541DBF2F
:106F20001CEA135594EA0C0F95EA0C0F00F0A7F831
:106F3000A4EB050481EA030E52EA03354FEA01315E
:106F400000F088804FEA03334FF0805545EA131371
:106F500043EA12634FEA022245EA111545EA106539
:106F60004FEA00260EF000419D4208BF964244F1D0
:106F7000FD0404F5407402D25B084FEA3202B61AEF
:106F800065EB03055B084FEA32024FF480104FF4C3
:106F9000002CB6EB020E75EB030E22BFB61A754637
:106FA00040EA0C005B084FEA3202B6EB020E75EBCA
:106FB000030E22BFB61A754640EA5C005B084FEA32
:106FC0003202B6EB020E75EB030E22BFB61A7546FF
:106FD00040EA9C005B084FEA3202B6EB020E75EB0A
:106FE000030E22BFB61A754640EADC0055EA060ECB
:106FF00018D04FEA051545EA16754FEA06164FEA0E
:10700000C30343EA52734FEAC2025FEA1C1CC0D1B9
:1070100011F4801F0BD141EA00014FF000004FF046
:10702000004CB6E711F4801F04BF01430020B4F107
:10703000FD0C88BFBCF5E06F3FF6AFAEB5EB030CBF
:1070400004BFB6EB020C5FEA500C50F1000041EBBC
:10705000045170BD0EF0004E4EEA113114EB5C0489
:10706000C2BFD4EB0C0541EA045170BD41F480115C
:107070004FF0000E013C90E645EA060E8DE60CEA64
:10708000135594EA0C0F08BF95EA0C0F3FF43BAF81
:1070900094EA0C0F0AD150EA01347FF434AF95EA38
:1070A0000C0F7FF425AF104619462CE795EA0C0F1C
:1070B00006D152EA03353FF4FDAE1046194622E7E9
:1070C00050EA410618BF52EA43067FF4C5AE50EAC3
:1070D00041047FF40DAF52EA43057FF4EBAE12E7B3
:1070E0004FEA410212F5001215D211D56FF47873F0
:1070F000B3EB625212D94FEAC12343F0004343EA93
:10710000505311F0004F23FA02F018BF404270476D
:107110004FF00000704750EA013005D111F00040F7
:1071200008BF6FF0004070474FF00000704700BF8D
:1071300053B94AB9002908BF00281CBF4FF0FF31DE
:107140004FF0FF3000F074B9ADF1080C6DE904CEDA
:1071500000F006F8DDF804E0DDE9022304B0704732
:107160002DE9F0478C460446089E002B40F08680AF
:107170008A42154648D9B2FA82F24AB1C2F12007D2
:1071800001FA02F320FA07F7954047EA030C94400E
:107190004FEA154EBCFBFEF71FFA85F80EFB17C32E
:1071A00007FB08F9210C41EA0343994509D9EB187B
:1071B00007F1FF3180F0E180994540F2DE80023F27
:1071C0002B44A3EB0903B3FBFEF00EFB103300FBD3
:1071D00008F1A4B244EA0344A14209D92C1900F1F0
:1071E000FF3380F0C880A14240F2C58002382C44B1
:1071F00040EA07400027641A1EB10023D440C6E9C4
:1072000000433946BDE8F087002A54D0B2FA82F232
:10721000002A40F0B4800127491B4FEA15481FFAA5
:1072200085F9B1FBF8FE08FB1E1109FB0EF04FEAD1
:10723000144C4CEA0143984207D9EB180EF1FF3188
:1072400002D2984200F2EB808E461B1AB3FBF8F094
:1072500008FB103309FB00F9A4B244EA0344A1453A
:1072600007D92C1900F1FF3302D2A14500F2DB80CF
:107270001846A4EB090440EA0E40BDE78B4208D94A
:10728000002E75D00027C6E9000138463946BDE812
:10729000F087B3FA83F77FB98B4202D3824200F2C0
:1072A000BC80841A61EB030301209C46002EA8D009
:1072B000C6E9004CA5E7FFDEC7F12005BB4022FA76
:1072C00005FC4CEA030C21FA05F44FEA1C4EB4FB12
:1072D000FEF91FFA8CF80EFB194420FA05F3B940A9
:1072E00009FB08FA19430B0C43EA0444A24502FACD
:1072F00007F200FA07F30BD91CEB040409F1FF3085
:1073000080F08980A24540F28680A9F10209644498
:10731000A4EB0A04B4FBFEF00EFB104400FB08FAD9
:1073200089B241EA0444A24508D91CEB040400F1E7
:10733000FF316CD2A2456AD90238644440EA094060
:10734000A0FB0289A4EB0A044C454146CE4655D326
:1073500052D0002E6AD05A1A64EB0E0404FA05F5D6
:1073600022FA07F3FC401D43C6E90054002748E712
:107370003746304645E718463AE70F4621E795403D
:10738000C2F1200321FA03F04FEA1548B0FBF8F7E9
:107390001FFA85F908FB170E24FA03FC914007FB3E
:1073A00009FA4CEA0101080C40EA0E40824504FA51
:1073B00002F407D9281807F1FF332AD2824528D9C9
:1073C000023F2844A0EB0A00B0FBF8FC08FB1C00BD
:1073D0000CFB09F389B241EA00418B4208D96918D4
:1073E0000CF1FF3011D28B420FD9ACF1020C2944C1
:1073F000C91A4CEA074714E74345AAD2B8EB020181
:1074000069EB0C0201389646A3E78446F0E708468C
:1074100094E71F46D6E781467AE7384646E7AEF15D
:10742000020E2B4411E702382C4422E73746E8E6E7
:10743000704700BF032A70B414D940EA0105AD07B4
:1074400004460B4622D11D6826681946AE422046E6
:1074500003F1040304F1040418D1043A032A20467A
:107460001946F0D8541E72B103780A78934208BFC7
:10747000241806D00CE010F8013F11F8012F9342B8
:1074800006D1A042F7D1002070BC7047541EEBE734
:10749000981A70BC704700BF844641EA000313F09D
:1074A000030349D1403A23D30B6803604B68436020
:1074B0008B688360CB68C3600B6903614B69436170
:1074C0008B698361CB69C3610B6A03624B6A436258
:1074D0008B6A8362CB6AC3620B6B03634B6B436340
:1074E0008B6B8363CB6BC36340304031403ADBD25C
:1074F00030320BD30B6803604B6843608B6883604A
:10750000CB68C36010301031103AF3D20C3205D37F
:1075100051F8043B40F8043B043AF9D2043208D055
:10752000D2071CBF11F8013B00F8013B01D30B88C7
:1075300003806046704700BF082A13D38B07B1D081
:1075400010F00303AED0C3F10403D21ADB071CBF53
:1075500011F8013B00F8013BA4D331F8023B20F8BD
:10756000023B9FE7043AD9D3013A11F8013B00F8F6
:10757000013BF9D20B7803704B7843708B788370A2
:1075800060467047F0B4860746D0541E002A3CD0AF
:10759000CAB2034602E014F1FF3436D303F8012BDC
:1075A0009D07F8D1032C29D9CDB245EA05250F2C2A
:1075B00045EA054533D9A4F11006360903F1200741
:1075C00007EB061703F1100242E9045542E90255A0
:1075D0001032BA42F8D1721C14F00C0F03EB0212F5
:1075E00004F00F0613D0331F23F0030304331344B6
:1075F00042F8045B9342FBD106F003042CB1C9B2FC
:107600001C4403F8011B9C42FBD1F0BC704734467C
:107610001346002CF3D1F8E714460346C2E71A4696
:107620002646E0E770B440EA0104A30727D1032A05
:1076300025D90B460646194653F8045BA5F10134DB
:1076400024EA050414F0803F06D1043A032A46F8E0
:10765000045B1946EFD882B133460C78551E03F807
:10766000014B74B132442E4405E011F8014FF51A74
:1076700003F8014B2CB19A42F7D170BC7047064613
:10768000E9E7002DF9D000221D4403F8012BAB429D
:10769000FBD170BC704700BFFEE708B5FAF7F6FDF6
:1076A000F7B500240646254627463046FAF7DCFEA5
:1076B0000197019BAB4215DB3046FAF7DDFEC5F5BD
:1076C000C8750197019B9D4211DC0134B4F5487FD8
:1076D00001D103B0F0BDB4F5C87FCCBFC4F5487587
:1076E0002546E2E700BF019B01330193E1E700BFBC
:1076F000019B01330193E5E7FAF77CBFFBF726B85E
:1077000070470020FBF7F4B80120FBF7F1B8002028
:10771000FBF7B2BA0120FBF7AFBA0220FBF7ACBA15
:107720000320FBF7A9BA10B50C46FBF78FFD2046E6
:10773000BDE81040FBF7BCBD10B50446C1B2002047
:10774000FBF7ECF9204610BD70B50E460024451E2F
:107750006B1C02D015F8010F08B9204670BDB44269
:10776000FBD0FFF7E9FF0134F2E738B50546002406
:1077700015F8010B20B1FFF7DFFF0134002DF7D121
:107780000A20FFF7D9FF204638BD002070470120AE
:10779000704710B50446302200210E20FBF7BCFADA
:1077A0006CB1012C0CD142F210730011A0F28E507A
:1077B00058432A2390FBF3F000F5C340283010BD56
:1077C0004FF00040FBE7002070470120704710B5E4
:1077D0000446302200210F20FBF79EFA5CB1012CF9
:1077E00003BF40F6F253584347F6F0734FF00040A2
:1077F00008BF90FBF3F010BD08B5084612B1114662
:10780000FFF7A2FF002008BD10B5041F54F8040FB5
:1078100000B910BD0021FCF7FFFEF7E7704710B577
:10782000044600F01BF82046BDE81040FCF7A2BD5E
:1078300010B5044600F019F82046BDE81040FCF7EA
:1078400099BDC068B0FA80F040097047837BDB07C0
:1078500001D5FCF7D1BD7047FFF752BF10B54160AD
:107860000446FAF7C3FF206010BDD0E9003213448C
:107870000360704710B50446FAF7B8FF2368C3F1F8
:1078800001030344606898422CBF0020012010BD12
:1078900000230360704700687047006808B97047AC
:1078A00018460368002BFBD17047036810B53BB145
:1078B000002499421A6806D11CB9026000221A609D
:1078C00010BD2260FAE71C46002AF9D01346F0E703
:1078D00038B50546FFF7E9FF00230B60FFF7DDFF32
:1078E00008B9296038BD0160FCE738B50446FFF7E8
:1078F000DCFF03680B60216038BD0368002003B91A
:10790000704701301B68FAE700B10068704710B596
:107910000446428800214068FFF734FE23886288CD
:10792000A0685A43BDE810400021FFF72BBE00239A
:1079300010B54188994201DC002009E04268D41862
:10794000D25C32B9012222700288806803FB0200F7
:1079500010BD0133EEE7002330B5826844889C42B5
:1079600001DCFF2008E08A4207D14168CA5C0AB105
:10797000013ACA544268D05C30BD058801332A44BC
:10798000EDE782688A4208D84388008800FB03201C
:1079900081422CBF00200120704700207047002347
:1079A000013A0160027143718371704710B54279E9
:1079B00083790479D31A34EA030308D0036899540D
:1079C00043790279013313404371012010BD002037
:1079D000FCE7837942790179D21A0A421FBF026813
:1079E000D25C01330B401ABF837110464FF0FF3059
:1079F0007047831C0020023313F8042C02B970472F
:107A000013F8032C1044F6E7072B2DE9F84307463B
:107A1000884615461C4607DC1A4629464046FCF7B0
:107A20009DFF3870BDE8F883DE107AB918F805308C
:107A30007B550135AE42F9DC14F00702F2D000218B
:107A400008EB0600FCF78AFFB855EBE74FF000099A
:107A500008EB090008222946FCF780FF07F8090017
:107A600009F101094E45F3DC14F00702DAD029468A
:107A7000E6E72DE9F743FDF793F904460220FDF709
:107A80003BF920B90025284603B0BDE8F0836378B0
:107A9000207800EB032080B2FDF74CF80546002863
:107AA000F0D0FDF77DF98046287B10F0070318BF62
:107AB000012303EBD000FDF71FF90028E2D00026D8
:107AC000B146AC68023414F8023C002BDBD0192B11
:107AD00014F8017C08EBE60106F007020BD901A8B7
