:020000040020DA
:10200000981800208D222000C77D2000C57D20006B
:10201000C57D2000C57D2000C57D2000000000009A
:102020000000000000000000000000005D842000AF
:10203000C57D2000000000007B842000297E200058
:102040003B7E2000417E2000477E20004D7E200008
:10205000000000002F7E2000357E2000C57D20007E
:10206000C57D20000000000000000000000000000E
:102070000000000000000000C57D200000000000FE
:102080000000000000000000C57D2000C57D20008C
:10209000C57D2000C57D2000C57D2000C57D2000B8
:1020A000C57D2000C57D2000C57D2000C57D2000A8
:1020B000C57D2000C57D2000C57D2000C57D200098
:1020C000C57D2000C57D2000C57D2000C57D200088
:1020D000C57D20000000000000000000000000009E
:1020E00000000000000000000000000000000000F0
:1020F0000000000000000000F53720000538200037
:1021000000000000000000000000000000000000CF
:1021100000000000000000000000000000000000BF
:1021200000000000000000000000000000000000AF
:10213000000000000000000000000000000000009F
:10214000000000000000000000000000000000008F
:10215000000000000000000000000000000000007F
:10216000000000000000000000000000000000006F
:10217000000000000000000000000000000000005F
:10218000000000000000000000000000000000004F
:10219000000000000000000000000000000000003F
:1021A000000000000000000000000000000000002F
:1021B000000000000000000000000000000000001F
:1021C000000000000000000000000000000000000F
:1021D00000000000000000000000000000000000FF
:1021E00000000000000000000000000000000000EF
:1021F00000000000000000000000000000000000DF
:1022000000000000000000000000000000000000CE
:1022100000000000000000000000000000000000BE
:1022200000000000000000000000000000000000AE
:10223000000000000000000000000000000000009E
:10224000000000000000000000000000000000008E
:10225000000000000000000000000000000000007E
:10226000000000000000000000000000000000006E
:10227000C57D2000D9362000FD3620008D2D2000A0
:1022800069392000B5282000C57D2000FF224824A0
:1022900008B5084B08481A60084AE369121A084949
:1022A00098470848084AA369121A0021984700F085
:1022B0000DF8FEE7B4200D4040000020570100203B
:1022C000C4962000580100209710002073B500F03C
:1022D0003FFC00F0F7FC00F055FC00F059FA01F06B
:1022E00031FB05F04FFE00F0E5FC00F0B3F80120F3
:1022F00005F06CFD02F0FAF800F016FC002000F08A
:1023000031FB012000F02EFB4049002000F0F6FBDD
:1023100002F034FA62B6042005F058FD3C4805F09E
:10232000BAFD3C4805F0B7FD00F0D0F9002002F0FE
:1023300049FA01F0F7F90021374802F065F901F098
:102340003DFF05F06FFD00F045FD00F061FD02F07E
:1023500095FC0821684601F01BFB9DF806309DF8AE
:1023600007502E4C45EA0325BDF806302C48238043
:1023700001F048FB2B4E21782B4801F043FB61789C
:102380002A4801F03FFBF46A4AF6CD310220A0470B
:1023900029460320A0471A210120A04708226946A8
:1023A000736B0B209847224801F02CFB214B1868D7
:1023B00005F071FD204801F025FB204B186805F061
:1023C0006AFD1F4801F01EFB1E4B186805F063FDF7
:1023D00000211D4802F018F91C4B01219B68812047
:1023E000984705F0B1FD1A4805F0A4FD00F0A2FBE6
:1023F000022005F0EBFC00F0A3FB02F08FF810F0D8
:10240000FF0FF8D101F032FAF5E700BF35472000A1
:102410001E8B2000308B20007800002052100020FE
:10242000558B200058892000738B2000798B200069
:102430007F8B20003C8A2000868B2000508A200061
:102440008D8B2000848A200098000020E0882000E6
:10245000B48A200008B500F0DDF80022014B1A70A4
:1024600008BD00BF200E0020024A137818431070E8
:1024700000F0F4B8200E0020034A137823EA00008D
:10248000107000F0EBB800BF200E002018B101283A
:1024900004D000207047034B18687047024B18782F
:1024A000704700BF20900D40210E002010B5094A52
:1024B0000020137801331370074B197802F07CF871
:1024C000BDE8104005490023054A0968054801F0A8
:1024D000ABBE00BF210E002090100020B0010020F4
:1024E000AD24200090010020812808B52BD0B0F544
:1024F000807F3AD0802824D101F0EAFF1C4B1D4A8E
:1025000018701368032123F00803136052F8203C6D
:10251000002023F0080342F8203C52F81C3C23F032
:10252000080342F81C3C52F8183C43F0080342F8F8
:10253000183C042200F0D4FB032200210E4800F0D6
:1025400073FB012108E00D4B0D481A6831B142F0D0
:1025500008021A6001230360084608BD22F0080241
:102560001A600123C0F88030F6E7064B1960E8E7EF
:102570009010002020940D408925200010940D40DB
:1025800000E100E0B001002008B50F4805F008FDAB
:10259000C8B108210C4805F0F7FC0C4B196849B18B
:1025A00000220B4B1A700B4B1B6843B90A4A0B48AD
:1025B00001F03AFEBDE80840094802F0A9B9074811
:1025C00001F03CFEF6E708BD88010020B0010020C4
:1025D000210E002020900D40AD242000900100200D
:1025E000E0882000084A136823F00403136052F8BF
:1025F000203C43F0040342F8203C0022034B1A60C5
:102600000122034B1A70704720C40D4010C00D40CA
:10261000220E00200D4A0E49136823F0C0031360F8
:1026200052F8203C43F0C00342F8203C0022094B02
:102630001A600B6823F010030B6051F8203C43F044
:10264000100341F8203C044B1A60704720A40D4051
:1026500020C40D4000A30D4040C00D4010F0020208
:1026600018BFFF22084B1A6010F0040218BFFF22A7
:10267000064B10F001001A6018BFFF22044B14BF74
:102680001A601860704700BF00A20D4000A10D4005
:1026900040C00D40044B1868C0F30720030904BF75
:1026A0001030C0B2704700BF1C300D40064B186898
:1026B000C00910F0060F03BF00F00700C0F10200D0
:1026C00040034FF40040704714300D402DE9F047AF
:1026D000482588B0FFF7DEFF164B07461C68AB683D
:1026E00098476B68804698470546FFF7DFFF064628
:1026F00000F082FA814600F08BFA824600F038FA48
:10270000B60A04F00103AD0AC4F34004CDE905A004
:102710000393CDF8109002940196009507F00F03F3
:10272000C7F307124146044801F06CF908B0BDE850
:10273000F08700BF1C300D409B8B20002DE9F84333
:1027400000F07AF810490246D1E90045AC46A042B3
:1027500038BF05F1010C6346C1E900230B48D0E9FD
:102760000089B8EB040169EB05048E1844EB0C07F3
:10277000C0E9006701F016FE18B1BDE8F84301F0AA
:1027800095BDBDE8F88300BF60010020580100201E
:10279000E0210D4B0D4A5A600D4A82F823100022A9
:1027A00007219A6019600B490B6843F001030B6025
:1027B000094B1A60042243F80C2C012243F8082C20
:1027C0000F22DA62704700BF10E000E047E8010026
:1027D00000ED00E008200D400C000340034BD3E95E
:1027E0000023100A40EA0360704700BF6001002028
:1027F000054B18601C3B1A6842F001021A601A6807
:10280000D207FCD4704700BF2800034010B5064C27
:10281000236823F001032360FFF790FF236843F050
:102820000103236010BD00BF10E000E0014B1868F9
:10283000704700BFB4010020064B18685A6808337F
:102840001B681B0443EA0223034A0343106843EA5C
:102850000060704740500D404C500D40014608B597
:10286000104A1368DB07FCD572B6FFF7E5FF0B1AB9
:10287000062BD8BFC11D0C4B0A0E1A60C1F30742CC
:1028800043F8042CC1F3072243F8082CCAB243F8DA
:102890000C2C62B64FF40032044B1960044B1A61E1
:1028A00008BD00BF50500D404C500D40B4010020F9
:1028B00000E100E008B500F0C1FF0022064B1A60FD
:1028C0004FF40032054BC3F89021C3F89020BDE8C7
:1028D000084001F0CFBE00BFB401002000E100E0DD
:1028E0002C23154A70B503FB00234FF6BF72DC683A
:1028F0000546236C626413F050020DD00F4EA3699D
:10290000DB0600D570BD56F825301BB12068C0B27B
:102910009847F4E72368F2E713F4D06FF2D04FF44E
:1029200040732363FF236360E36AE262E362236B25
:1029300043F001032363E5E7F0882000B80100209D
:10294000064B1B681B075FBF054B186880F008002B
:10295000C0F3C00048BF0020704700BF18C000404F
:1029600018D0004001282DE9F74F064600F2B48048
:102970002C2545435A4F7C1994F92080B8F1000F5B
:10298000C0F2AA8094F92290B9F1000FC0F2A4809D
:10299000544800F0C5FF544A79591368E5680B4361
:1029A00013605368616894F921A00B4353609368E6
:1029B000A1685FFA89FB0B4393600023C5F8C83F09
:1029C00023690AEBC8021A6094F92330227D009330
:1029D0009DF8003058461946019300F08BF9019B91
:1029E00008221946584600F07BF901233F494FEA77
:1029F0000939009A59F8010003FA02F2024349F832
:102A000001204FEA083858F8010003FA0AF202439D
:102A100048F801205022AA63AA6B94F9240042F4DA
:102A2000D062AA6302226A634FF440722A63A269E9
:102A300000286A62E269AA624FF07002EA620D46FB
:102A400014DB94F925102A4A41EAC00414600203F9
:102A500054598B4023435351C9B20022C0B200F0F5
:102A60003FF9244A136843F4004313602C2303FB0B
:102A7000067393F92640002C1BDB93F927A05FFA1D
:102A800084F85FFA8AF901224946404600F032F99B
:102A900001232403625903FA0AF313436351082202
:102AA0004946404600F01CF9124A136843F480433B
:102AB00013602C2303FB0676F268136B43F00103CB
:102AC0001363012296F82830590903F01F0302FA14
:102AD00003F3094A42F8213003B0BDE8F08F00BF8C
:102AE000F08820004129200028200D4020940D402E
:102AF00004410D4030D0004000E100E001289CBFBF
:102B0000014B43F820107047B8010020012808D875
:102B10002C22044B02FB0030C3689A699206FCD455
:102B200019607047F08820000022014B1A6070473E
:102B300000500D400822014B1A60704700500D40B4
:102B4000A022024B1A6050221A60704700500D40BC
:102B5000014A024B9A6070470020200000ED00E01F
:102B6000024B1868C0F38150704700BF04200D402D
:102B700008B5FFF7F5FF024B53F8200008BD00BF72
:102B80004889200038B5164D164C2B68012223F0D9
:102B900040032B602368062123F0400323600320B9
:102BA00000F09EF82B68012223F080032B6023683D
:102BB000072123F080032360032000F091F80A4BE3
:102BC0000A4A0B491A600B4A134610680842FCD1A6
:102BD0001A685101FCD41A685201FCD538BD00BFF7
:102BE00020C40D4000C40D4000200D400101020032
:102BF0000000010104200D40034B04481B6803F052
:102C000007031841704700BF04200D400048E80149
:102C1000034B04481B68C3F302231841704700BFED
:102C200004200D400048E801024B02EBC10243F8CA
:102C300022007047C0010020F8B507460E46002468
:102C4000084D05EB411547FA04F3DB07E1B204D563
:102C500055F824300BB1304698470134082CF2D196
:102C6000F8BD00BFC00100202DE9F8430746DFF89A
:102C7000408000F0E3FD0C4B3D03EE5855F8084052
:102C80004FEAC70924FA09F446EA04003946C0B2FB
:102C9000FFF7D2FFE4B2054BF6B204FA09F4EE50A6
:102CA00045F80840BDE8F88318940D401C940D4089
:102CB00018970D4080220021014804F0F9BF00BFA1
:102CC000C0010020034B044A1A60044B803A1A608A
:102CD000704700BF4002002080400D4044020020A9
:102CE000034B01EBC0011B6843F82120704700BF74
:102CF00040020020034B01EBC0011B6843F8212078
:102D0000704700BF440200200E28F0B50BD1154DCE
:102D1000154F2C6844F002032B603D6825F03F06F8
:102D200046F001063E60114E336823F0FF03134363
:102D30000B4303430E4A336013681B06FCD50D4B4F
:102D40000D4A1B6812680E2803F0FC0343EA0223B5
:102D500008BF054A1BB204BF1560024A184608BFE7
:102D60001460F0BD34000144F486084008700D4042
:102D700000700D400C700D4010700D40024B186833
:102D8000B0FA80F04009704700B708404FF40042A5
:102D9000064B10B5064CC3F89021C3F8902020686C
:102DA00018B101F049FC0023236010BD00E100E0F0
:102DB00048020020064A136843F002031360536878
:102DC00043F002035360936843F00203936070473B
:102DD00048200D4007B50C4800F0A2FDFFF7EAFFC0
:102DE0000A4B1A6842F002021A6000220192019A0C
:102DF0000F2A06DD1A6822F002021A6003B05DF89D
:102E000004FB019A0132F1E77D2D200054200D4092
:102E1000064A136823F002031360536823F0020389
:102E20005360936823F002039360704748200D407D
:102E30000B4B1A689207FCD41B685B065FBFED2240
:102E4000084B1A601A60084B1B6813B1EF22054B40
:102E50001A60064A0120137803F07F03137070474D
:102E60004C860840388808402C860840250E0020F3
:102E7000044B186800F02200A0F12003584258418A
:102E8000704700BF4C860840024B186800F04000B5
:102E9000704700BF4C860840044B1A6818B142F0D6
:102EA00001021A60704722F00102FAE7008608402A
:102EB000204B1870002832D01F4A13681B03FCD522
:102EC0001E4B1A6842F002021A601A6842F00102B0
:102ED0001A601A685007FCD51A6822F001021A60BD
:102EE0001A685107FCD41A6842F002021A601A6884
:102EF00042F001021A601A685207FCD5104A1368A2
:102F000023F004031360D2F8A83123F00403C2F8BD
:102F1000A8314FF400520B4BC3F890207047084A79
:102F2000136843F0040313604FF40052054B1A6119
:102F3000704700BF240E002004200D400488084084
:102F40008C86084000E100E0084B93F90020002A3D
:102F500009DBED21064A11601160E32111601A7846
:102F600062F07F021A700120704700BF250E00201A
:102F700038880840A0F10B01CBB20F2B10B50446E6
:102F800013D80B4B1B6813F03F0302D0FFF750FF21
:102F9000012301EB8101074A0B3111600BB1FFF7EF
:102FA000D3FF054B60B21C7010BD4FF0FF30FBE744
:102FB000488608403C8608405401002010B50C4665
:102FC000002900F08680102800F28580DFE800F0FC
:102FD00009101B22243B44575C727683837B7D540B
:102FE0007F003E4B1B68003318BF0123236024E0A1
:102FF00005223B4B1B6803F07F030B3B93FBF2F373
:103000000B33DBB2F2E7374B1A68043B1B6843EA29
:103010000223EBE7344BF7E700230B60334B344AD2
:103020001B6803F001030B601268900644BF43F075
:1030300002030B602F4B1B780BB900200BE00B68D1
:1030400043F00403D2E700202B4B08601B78002BD1
:10305000F3D001230B6010BD284B29491A680023C7
:10306000D2B201EBC3000079904202D851F833305C
:10307000BCE701330E2BF4D16FF01703B6E7214BF9
:103080001B685BB2493BB1E71F4B1B6899060FD128
:10309000FFF75AFF01231D490A68D207FCD51C4AD5
:1030A0001168493949B20BB1FFF7C2FE2160C4E78C
:1030B0000023F0E7174B93F9003097E7164B1B7886
:1030C00003F07F0392E70B2390E71A238EE7072391
:1030D0008CE70220BFE70120BDE700BF2C86084037
:1030E0003C860840CC850840D485084000860840CE
:1030F00024860840240E0020550100204086084008
:103100009089200058860840488608406486084018
:1031100060860840260E0020230E002008B50B4BC9
:103120001B6899060FD1FFF70FFF012308490A68B2
:10313000D207FCD5074A1168C1F300110BB1FFF7A4
:1031400077FE084608BD0023F0E700BF4886084028
:10315000648608404C86084008B507285BD8DFE83D
:1031600000F0040F1A21253B4155012903D1FFF737
:10317000EBFE002035E000294FD1FFF759FEF8E7BC
:10318000A1F10B030F2B48D8C8B2FFF7F3FE0130B3
:10319000EFD1032025E089B2214BCAB2090A1A6097
:1031A0005960E6E789B2CAB21E4BF7E731F0070370
:1031B00033D101F00100FFF76FFE1B4B11F0020F3E
:1031C0001A68C1F3800014BF42F0200222F02002EE
:1031D0001A60FFF76DFECCE731F001001DD1134BF3
:1031E000197008BD01F118031F2B16D80D23104AC2
:1031F00052F83300814205DC02EBC3031A790D4B10
:103200001A60B6E713F1FF33F2D2B2E7C9B20A4B44
:1032100049311960ADE70120E3E70220E1E700BF93
:10322000C8850840D0850840248608405501002004
:1032300090892000408608405886084038B50546E9
:103240000C46134A13689B07FCD4124B93F90030C9
:10325000002B01DBFFF778FEEE220F4B691E1A6090
:103260001A60A21C43F8102C2144022000F074FACA
:103270000A49013C41EA0411022000F07FFA0220D1
:1032800000F086FA022000F09BFA002038BD00BF53
:103290004C860840250E00203888084002C001C036
:1032A000F8B5224B93F90030002B18DBFFF7C4FA76
:1032B0000446FFF749FEC4F1FF2404F57F04F63409
:1032C000FFF7BAFAC442FBD40126194B1B7843B965
:1032D000184C2368990609D502210846F8BD002636
:1032E000F3E7FFF71BFF0028F2D1F5E7E9230427F6
:1032F000114D2B6023689A0703D4013F17F0FF0795
:103300000BD123689B070CD4EE2301212B602B608B
:10331000002EE2D0FFF78CFDDFE70620FFF768FA0A
:10332000E8E7216811F00201FBD1F1E7250E00204A
:10333000550100204C860840388808400B280DD1E4
:10334000082A0DD161B1074B074A083111F8010D68
:1033500043F8040B9342F9D10020704701207047D5
:1033600002207047A8850840C885084070B5304ED7
:10337000336813F0400358D02E4D2C68230605D532
:10338000ED2200202C4B1A601A6070BDE4B2042CB0
:10339000F6D9023C8C42F3DCE4B2032C1ED12B683C
:1033A00003702B6843702B6883702968234B49395D
:1033B00049B219702B68224D18062B70E0D589B2DE
:1033C000042001F08BFD2978032001F07F0101F03A
:1033D00085FD1C4B1B78CBB12046D6E7011901397E
:1033E000032000F0C1F9184B611E43EA01110320CC
:1033F00000F0C4F9032000F0CBF9032000F0E0F95D
:10340000032000F0E9F90028FAD1CEE733685A0624
:10341000E2D533681B0603D50C4801F00DF9DBE754
:10342000ED22054B1A601A60D6E71846ADE700BFDB
:103430004C8608402888084038880840260E00201E
:10344000230E0020240E002002C0010C500000209A
:10345000F8B5294F3D7815F001054BD10124F8222C
:10346000264B7F261C605C609C60A3F59323A3F52C
:1034700014731A600922C3F89021152270331A6060
:103480000B2203F59B2303F59E731A604022A3F5DC
:103490009B23A3F5F0731A601A6842F020021A60A9
:1034A000D52243F81C5CDE62DA61154B1878FFF711
:1034B00061FD4FF48042134B02201E60124B1A61D3
:1034C00000F072F91149022000F04EF9032000F0DB
:1034D0006BF90E49032000F03FF90D4B1878FFF708
:1034E000E7FC0C48294601F08FF820463B7823433F
:1034F0003B70F8BD0020FCE7250E0020A8200D4001
:10350000540100209486084000E100E0288808402B
:10351000240E00205000002038B50388044653B321
:1035200040F20342934233D11B4B18781A4638BB02
:10353000822923D1137873B901F082FC01F00EFCCB
:103540008021FFF713FF002805DD80B201F0C6FBE4
:10355000124B1B699847124B1A7852060BD5002262
:103560001A70104B1D68FFF763FCFFF771FFAB0685
:1035700001D0FFF7E9FC40F20343238001200AE079
:103580001B78002BFAD0064B1B785806F6D5CFE7F0
:1035900000230380032038BD240E0020848A2000ED
:1035A000250E0020488608400B282DE9F0470C46E0
:1035B0000FD1082A79D1002977D03D4B3D4A4C1EC6
:1035C00053F80419934204F8011FF9D10020BDE813
:1035D000F0870C2867D1042A67D1002965D0364BC3
:1035E00036491A68DFF8E48022F007021A600A6898
:1035F000334F42F008020A60D8F800003A681D68AC
:10360000DFF8CCE025F07005DFF8C8C01D60DEF8FB
:103610000050DCF80060C0B2120240EA066092B2CC
:1036200002434FEA0549274809F47F09D0F800A072
:1036300042EA09061A685FFA8AF522F0070242F0A8
:1036400001021A600A6842F008020A60D8F80020F5
:103650003F68196821F0700141F010011960DEF82F
:103660000010DCF800C0D3B23A0243EA0C6392B215
:1036700013430A04016802F47F0243EA02085FFA76
:1036800081F9FFF7D9F8B6EB080165EB0905ED0301
:1036900007460D4AC803002345EA514104F0DEF80D
:1036A000381A206092E7012091E702208FE700BFDF
:1036B000C4850840A4850840108808400488084054
:1036C000188808401C8808400048E8011488084011
:1036D000248808402088084008B5054B1B7813B99A
:1036E000044800F0A9FF0022034B1A6008BD00BF88
:1036F000240E00205000002034880840064B074864
:103700001A68042A1FBF06490A7842F040020A706C
:1037100000221A6000F090BF2C8808405000002062
:10372000250E002008B5094B40220021184604F060
:10373000BFFA0121064A074B116050604FF48042E6
:103740005A604FF400425A6008BD00BF00000020DC
:1037500004F00F4000E100E003289EBF014B000190
:10376000195070470000002003289EBF024B03EB56
:1037700000135960704700BF0000002003289EBF5F
:10378000024B03EB00139960704700BF000000205C
:10379000032805D80123034A834011680B431360B3
:1037A000704700BF28F00F40032805D80123034AC3
:1037B000834011680B431360704700BF20F00F4037
:1037C000032805D80123034A834011680B43136083
:1037D000704700BF14F00F4003289FBF044B03EB5A
:1037E0000013986800F0070088BF0020704700BFF2
:1037F000000000204FF0FF32014B1A60704700BFFD
:1038000004F50F400122014B1A6070474CF00F4045
:10381000084B19461A68D002FCD4074B1A6822F4E8
:1038200080321A600A68D203FCD41A6842F400326B
:103830001A60704704200D4000200D4010B5094C5F
:10384000226890070DD0084B1A4619684901FCD42C
:1038500013685B01FCD5FEF7D9FFFFF7D9FF002302
:10386000236010BD58200D4004200D4038B5264B74
:103870001C6814F03F0414D1244D55F8043B23B1C7
:10388000984770B10134052CF7D1214D2B7843B105
:10389000FEF7CCFF0446FEF7CFFF201A092800D917
:1038A0000CB930BF27E01B4B1A6822F400321A60B3
:1038B000194A11461068C002FCD41A6842F48032DA
:1038C0001A600B68DB03FCD5FEF7B6FF201A092847
:1038D00003D8BDE83840FFF79BBF63280F4C0BD9D6
:1038E0002B78022B08D1236000F05CFE30B1FFF78B
:1038F0008FFF0023236038BD0123F4E7FEF796FF16
:103900000028F4D0CDE700BF488608404C020020D4
:10391000270E002000200D4004200D4058200D40AF
:10392000074A10B50023144652F8041B814202D006
:1039300011B944F8230010BD0133052BF4D1FAE787
:103940004C0200200022054B05491A600B6943F028
:1039500004030B61034B1A70704700BF58200D40E1
:1039600000ED00E0270E00204FF48032064B10B52A
:10397000064CC3F89021C3F89020206818B100F0DD
:103980005BFE0023236010BD00E100E06002002028
:1039900070B5184B1A78431E1AB9174A1278122AB2
:1039A0000AD001F52011154A2731914216D011F89D
:1039B000010903F8010FF8E7114A12784B2AF0D1F8
:1039C0004C0804F520120D4D2732AA4207D10023DE
:1039D00001F5201120442731A34205DB70BD12F808
:1039E000016903F8016FF0E7CA1A1278013300F891
:1039F000012BF1E72B0028002A00280027002800CF
:103A0000290028000FB407B504AA52F8041B044883
:103A1000019200F021F803B05DF804EB04B07047A8
:103A20006000002070B505460C460A4E102C07D8E1
:103A300074B12B68224668680649BDE87040184793
:103A40002B68102231466868984710B9103CEDE7A2
:103A5000204670BD868C20002DE9F04F804615462B
:103A600000268FB00791079B1B78002B00F0528334
:103A7000079B1A781C460133002A00F03A83252A56
:103A8000F7D1079B9C4205D036E323783E44002BB8
:103A900000F040836378621C002B00F03B8300241D
:103AA000104610F8011B13462B2916D00AD82029DE
:103AB00016D0232917D0A1F13107082F3FD84FF096
:103AC000000A18E02D2904D03029F4D144F0100464
:103AD00001E044F001040246E2E744F00604FAE79C
:103AE00044F00204F7E744F00804F4E70A2303FB78
:103AF0000A1AAAF1300A134612F8011BA1F130008C
:103B00000928F3D91A782E2A35D159785A1CA1F1EF
:103B10003000092828D8002711781346A1F1300079
:103B2000092802F101021AD91A786C2A40F0908013
:103B30005A786C2A22D144F08004023321E02A29E9
:103B40000AD1D5F800A00346BAF1000F05F104052B
:103B5000B8BF44F00104D5E74FF0000AD2E70A23CA
:103B600003FB0717303FD7E72A2903D12F68023319
:103B70000435D9E713464FF0FF37D5E7013344F05A
:103B800060041A78642A00F0908000F28380462A4C
:103B900000F0AD806FD8252A00F0BE8064D8002ADE
:103BA00000F0B8820133079304F4E063B3F5806F4B
:103BB00000F0578200F2B380B3F5807F00F0EC8014
:103BC000B3F5407F7FF44FAF8F4B14F4804F8F4A93
:103BD00008BF1A460DF1330300211F46286804353B
:103BE00050EA010C40F07282FF1A04BF302203F841
:103BF000012C4FF0780208BF03F1FF3303F8012CCA
:103C00004FF0300208BF012703F8022C23220337AC
:103C1000BA458CBFAAEB070A4FF0000A14F0010462
:103C2000A3F1030903F8032C06D151464046FFF7E0
:103C3000F9FE002840F06C82D8F800303A46494638
:103C4000D8F804009847002840F062823E4433E2EE
:103C5000682A96D15A78682A02D144F020046CE789
:103C6000013344F040048CE7412A4CD0452A99D1D5
:103C700044F4424496E7582A33D004D8472A91D1D5
:103C800044F4A1348EE7612A3AD0632A8AD144F4FD
:103C9000A06487E76E2A3CD00AD8662A24D029D3AC
:103CA000672A2AD0692A7FF47DAF44F4245479E747
:103CB000732A2BD007D86F2A10D0702A7FF472AFE6
:103CC00044F440746EE7752A05D0782A7FF46AAF11
:103CD00044F4C85466E744F4106463E744F4885439
:103CE00060E744F4B2445DE744F400745AE744F4F6
:103CF000844457E744F4024454E744F4813451E7E0
:103D000044F4C1344EE744F4E1344BE744F48064B6
:103D100048E744F4E06445E744F4C06442E7B3F59F
:103D2000C06F2DD0B3F5E06F00F0DF81B3F5A06F69
:103D30007FF499AEBAF1010F38BF4FF0010A2B683A
:103D400014F0010405F104058DF820300AF1FF3765
:103D500007D139464046FFF765FE002840F0D8817C
:103D60003E44D8F80030012208A9D8F8040098474A
:103D7000002840F0CD81002C00F0A1813946E0E020
:103D8000D8F8003001222249D8F8040098470028CA
:103D900040F0BE81013666E6002FACBF24F010046F
:103DA000012714F4005204F0E003069232D0402BB5
:103DB00023D008D823B3202B0FD000220023CDE935
:103DC0000023002317E0602B1AD0802BF5D1073594
:103DD00025F00705F5E8022303E095F90020D31745
:103DE0000435002A73F10001E9DA524263EB430320
:103DF000CDE90023012303931DE0B5F90020EEE790
:103E00002A680435D317ECE7B78C2000A68C200075
:103E1000D78C2000402B00F0AF8000F29980002B5F
:103E200000F0AC80202B00F0A080069B00220393C2
:103E30000023CDE9002304F4C053B3F5805F00F004
:103E4000D480B3F5C05F00F0D580B3F5006F00F00B
:103E5000B68000230DF1360B0493049B41F2080257
:103E60009F4288BFFF1A41F6080304EA030198BF86
:103E7000002791421A4602D1002F08BF0127049B58
:103E8000914203EB070040F0CF80DDE900231343AC
:103E900000F0CA80A14914F4804FA14B4FF00209F1
:103EA00018BF0B46069A72B1039A002A40F0C080F0
:103EB00004F00602022A00F0BF80062A994A04BFD5
:103EC0004FF00109134609EB000292458CBFAAEBA3
:103ED000020A4FF0000A14F00102009204D1E10638
:103EE00040F1AE8057449246B9F1000F09D0D8F89E
:103EF00000404A461946D8F80400A047002840F080
:103F000007813C46049B1E44102CD8E9003000F287
:103F1000A1802CB1224684499847002840F0F880BF
:103F2000D8F80030049A5946D8F804004E4498470F
:103F3000002840F0ED80009B3E44002B00F0BF8045
:103F400051464046FFF76EFD002800F0B880DFE0E4
:103F5000602B13D0802B7FF468AF073525F0070561
:103F6000F5E80223CDE9002304E02A780023CDE917
:103F700000230435069B3EE72A88F7E72B680022DA
:103F800019460435CDE90012F4E7DDE904010A22FF
:103F9000002303F063FCDDE9040130320BF8012D4E
:103FA00000230A2203F05AFCCDE90401DDE90423D1
:103FB0001343EAD10DF13603A3EB0B034CE7DDE924
:103FC00000230DF1360BCDE90423EFE702F00701E2
:103FD00030310BF8011DD10841EA4371D8080A4677
:103FE000034652EA0301F1D1E4E7DDE900230DF1D4
:103FF000360BF6E74D4B14F4804F0DF1360B4C4960
:1040000008BF1946DDE9002352EA0300D2D002F0CE
:104010000F00085C4FEA131C0BF8010D100940EA71
:10402000037002466346EFE74FF000094B4639E75D
:104030004FF001093F4B46E74FF001093E4B42E785
:10404000514640460393FFF7EDFC039B00283FF4E5
:104050004BAF5DE0102234499847002858D1103CFE
:1040600052E7D5F800B00435BBF1000F29D05B460C
:10407000994699F800200133002AF9D1A9EB0B09E0
:10408000002F02DBB94528BFB946CA458CBFAAEB51
:10409000090A4FF0000A14F0010404D151464046C9
:1040A000FFF7C0FCA0BBD8F800304A465946D8F804
:1040B0000400984760BB4E44002C7FF441AF564447
:1040C000D1E4DFF878B04FF00609D9E700F00F0C23
:1040D00012F80CC04FEA111E03F801CD4FEA101C74
:1040E0004CEA017C604671467AE52B6804351E6017
:1040F000B9E4079B9C420DD0079B0799E71A3A4603
:10410000D8F80030D8F80400984700283FF4BDAC38
:104110004FF0FF3630460FB0BDE8F08FC88C20005E
:10412000CB8C2000CE8C2000968C2000B78C2000F9
:10413000A68C2000649320008B8B2000D08C200064
:10414000F8B5038806461546CBB14A2B2BD18829F2
:104150001FD1174803F035FF0446C4B1231D9D420B
:104160001FD12146124803F036FF124D62692F68B5
:104170002A60A2690AB1E06990472F6007E00C4805
:1041800003F01FFF044634B901220B4B1A704A2377
:10419000338001200AE0A168201D03F0D6FE2468C8
:1041A000F1E72468D9E7002303800320F8BD00BFAE
:1041B00064020020F0030020280E002010B5002427
:1041C000054B06481C7003F0F9FE2146BDE810407F
:1041D000034800F019BA00BF280E00206402002036
:1041E0006800002070B50446E3610B4B049D1B780A
:1041F000C4E905526BB1094D094B2E68201D2B6097
:1042000003F0A3FE2E602146BDE87040054803F090
:10421000F5BEA160F7E700BF280E0020F0030020E4
:10422000680000206402002013B5034C2468009449
:10423000FFF7D8FF02B010BDF003002010B5084B07
:1042400004461B7843B1043000F0B4F82146BDE8C1
:104250001040044803F0BFBEC0E90333F6E700BFD7
:10426000280E00206402002010B50E4C236813B9FC
:104270000D4A136010BDFEF7B1FA2168D1E90023A1
:1042800013448A681B1A1AB91844074B1860F1E7DF
:10429000D2E900142144091A8B4228BF0B469268C8
:1042A000F1E700BF6C02002068020020014800F026
:1042B000C3B900BF780000202DE9F8430388054604
:1042C00053B1592B47D1872920D1002024490B68AD
:1042D00063B918B10B6001E0214A13605923012032
:1042E0002B80BDE8F88301203346F1E7D3E902646F
:1042F0009442F8D000B10B6099680029EED0C868EC
:1043000090420ABF89680B469960F5E78229E5D19A
:10431000134F4FF00009B84600263C68002CDDD052
:10432000204603F03DFE98B122468821E06800F067
:1043300043F958B9E060A3682EB1B360C4F808909F
:10434000FFF792FFE8E7C8F80030F7E7FFF7AEFFA6
:104350002646A468E2E7002303800320C1E700BFEC
:104360006C02002010B50446FFF7A0FFE3680B4A7B
:104370000BB1136833B90A4B1B68E3601368146010
:10438000A36004E0A34206D1054A1268DA60BDE8E2
:104390001040FFF769BF9B68ECE700BF6C0200208C
:1043A000F0030020024B1868003018BF012070474E
:1043B0006C02002010B50B4A04461368834208D1F2
:1043C00083681360FFF750FF0023C4E9023310BD78
:1043D0001346002BF8D09A68A242F9D1A2689A60DD
:1043E000F0E700BF6C02002038B5836804460D4634
:1043F0009BB10A4804600220A07304F10C009847A6
:104400000238012801D9832D05D121462046BDE877
:10441000384000F005B80123A37338BDF003002035
:104420002DE9F8431C4F04463D6889462B46A342BC
:1044300004D00BB9BDE8F8831B68F8E7002CF9D06D
:10444000164EA37BD6F8008063B10023A3738DB909
:10445000A3683BB14C4505D034602A46832104F162
:104460000C0098473B68A3420ED123683B60C6F816
:104470000080DFE7A54204D022468721284603F0CA
:104480007BFD2D68E3E71346002BF0D01A68A242AB
:10449000F9D122681A60EAE7F4030020F003002053
:1044A000002238B50125084B1A70084B1C6804B966
:1044B00038BDE37B2BB1E581002282212046FFF746
:1044C00093FF2468F3E700BF2C0E0020F4030020C4
:1044D000024B1878421C1A70704700BF2A0E002049
:1044E000014B1968FFF79CBFF00300208A22064B9E
:1044F0001A700023054A1370054A1370054A1360A9
:10450000054A1360704700BF2A0E0020290E0020C4
:104510002B0E0020F4030020F00300202DE9F041D1
:104520001B4D2B780BB1FFF7BBFF1A4C22789AB1C9
:104530000C21194E194F3378013A59430133781839
:1045400003F01F0317F801803370D0E90170227067
:1045500090B9134B1E6826B92B7820781844BDE813
:10456000F0812B780BB1FFF79BFF30463A4641466E
:1045700003F002FD3668EEE7B8F1810F08BF0123B2
:104580003A4608BF8373414603F0F6FCE4E700BFF8
:104590002C0E00202B0E0020290E0020700200207F
:1045A000F4030020024A034B10781B78184470472C
:1045B0002B0E00202C0E0020F0B50B4E3378202B54
:1045C0000FD00C25094C0A4F24781C4404F01F041A
:1045D0006C433D19C5E90120002001333955337082
:1045E000F0BD0120FCE700BF2B0E0020290E0020AB
:1045F0007002002038B5034C256803F0BDFC25602F
:1046000038BD00BFF003002030B40A4C0A462568CC
:104610002B4683420CD04BB950B101210560817308
:1046200020608381812130BCFFF7E4BF1B68F0E785
:1046300030BC7047F403002038B1837B013B012B71
:104640009FBF0123014AC373137070472C0E0020D3
:10465000024610B5064853600468029B11609360DF
:10466000026014B90846FEF7F9F8002010BD00BF3B
:10467000F803002010B5084C206858B100232360CF
:10468000D0E901319847236823B1BDE8104018688C
:10469000FEF7E4B810BD00BFF803002070B5058830
:1046A0000446672D09D0792D2FD0002D33D1FFF787
:1046B0000FFF1B4B18701B4B1D601B4E194D08E064
:1046C0000A282B680ED07E2B03DC5A1C2A60174A5E
:1046D000D054304603F013FD431CF1D167232380EF
:1046E00001201BE05A1C2A600025104A2846D55498
:1046F0000B4B1978FFF760FF0D4B2A468521186890
:10470000FFF75AFF18B97923E9E78529E8D1002294
:10471000044B1A60D1E700230380032070BD00BF63
:1047200095100020FC030020000400202D0E002026
:10473000F00300200D2810B5014616D00C4C23784C
:1047400053B90C4803F0C8FC08B9012323700A4888
:10475000FFF772FF012010BD0A28F8D1054803F0C9
:10476000BBFC0028F3D00023F0E70020F3E700BFF4
:10477000AD0E0020000400208800002008B5054987
:104780000548802203F0A1FCBDE808400021034851
:10479000FFF73ABFAE0E0020000400208800002082
:1047A000064A136843F004031360054B186804338A
:1047B0001B6840EA032080B2704700BF00700D40C4
:1047C00014700D4010B5174A136823F00C031360E2
:1047D0000122154B1A601A68012AFCD10822134BDA
:1047E00013491A60E32203F505731A601A460B6831
:1047F000DB07FCD50F4C102100232068013900F0A5
:10480000010043EA00034FEA43039BB2F5D1002BBA
:10481000F1D00949180A03F0FE0308600B60EF238A
:10482000136010BD00700D40A8200D402486084084
:10483000648608409C86084014700D402DE9F041C4
:1048400004880646772C20D07E2C3DD0002C4ED1FB
:10485000FFF73EFE284D294B294FDFF8B080187036
:104860002C602B6857F823202AB9264A1370772327
:10487000338001203EE008F8034093680021802047
:1048800098472B6801332B60EBE700231E4A136027
:10489000194A1360184B1B4A1B6812789A4204DCB1
:1048A000194B1B68002BF0D1E1E7184AD256002AB9
:1048B00019DA134A002052F82320104B1978FFF719
:1048C0007BFE28B97E23D3E70C4B1B788B42D0D1DB
:1048D000094B0E491A688B5C03F07F038B540A4A1C
:1048E000136801331360044A13680133D1E70023CE
:1048F00003800320BDE8F0810C0400209610002006
:10490000400000202E0F00200804002091100020FD
:1049100010B40A4B0A4A197800238B4203DA52F882
:10492000044BA04208D107490748CA5C62F07F02E5
:10493000CA5410BCFFF780BE0133EEE72E0F0020F3
:1049400040000020911000209800002070B505461E
:104950000C46164600F00CF92E612046BDE870406A
:10496000014903F04DBD00BF0A8D2000014803F04E
:1049700025BB00BF10040020014B1860704700BF2A
:1049800014040020014803F01CBB00BF10040020E9
:104990002DE9F04106460C480C46174603F011FB82
:1049A00008B9BDE8F0818388A34209D18568002D4C
:1049B000F7D03B4622463146AC46BDE8F041604761
:1049C00003F038FBECE700BF1004002070B50B4C7F
:1049D0000023616E0A4A04F13800FFF725FCFFF757
:1049E000DFFE616E0023B0FBF1F5064A05FB110105
:1049F00004F11800BDE87040FFF716BC1804002051
:104A0000094A2000214A2000044B5A6E196E5200B8
:104A1000914294BF59665A66FFF7D8BF1804002028
:104A200010B500F00DFA00F099F900230380044658
:104A3000FFF7A8FF2288930008B1017B51B9981CA9
:104A400080B200F04BF9238873B1BDE810400748ED
:104A500000F044B8818823445980C188013299808C
:104A6000228003F0E7FAE5E710BD00BF180400203C
:104A70009DF80030012B04D1024B9A6D5A66FFF766
:104A8000A5BF704718040020F8B50F4616461D460E
:104A9000064C0146064A204600F00EF8C4E9167698
:104AA00025660448BDE8F840FFF766BF18040020FB
:104AB000208A2000714A200070B505460C46164633
:104AC000044AFFF743FF6E612046BDE8704002498B
:104AD00003F096BC288A20000C8D200010B50446F7
:104AE00004491A2000F008FA2046BDE8104003F0FF
:104AF00016BB00BF5210002010B50478437843EA7B
:104B0000042303FA01F1044B985CC2F1080200EAA5
:104B100021201041C0B210BD108D2000054B10B5F2
:104B20001B689847044618B18188012000F0D6F927
:104B3000204610BD308A200038B5064B05465B681C
:104B400098470446A988012000F0C8F9201C18BF26
:104B5000012038BD308A2000014B9B68184700BFF8
:104B6000308A2000014803F029BA00BF84040020E5
:104B700081800146014803F041BA00BF840400204F
:104B800010B50446054803F01CFA00B910BD83882F
:104B9000A342FBD003F04EFAF7E700BF84040020E5
:104BA000F8B506460A480D46174603F00AFA0446C9
:104BB00030B93A4629463046BDE8F84003F0B6BA67
:104BC000A3680BB128469847204603F033FAEEE776
:104BD0008804002038B5FFF7A1FF0546094803F017
:104BE000F0F9044628B95DB12846BDE8384003F025
:104BF00098BA636803B19847204603F01BFAF0E7C0
:104C000038BD00BF8804002010B50446FFF794FFAC
:104C100038B100F07FF8034B034821469B68984762
:104C2000012010BDA48A2000A14B200070B50446CD
:104C30001B200D4600F06CF9064903F02DFC38B13D
:104C4000A3691B6823B129462046BDE87040184778
:104C500070BD00BF5210002070B505460C461646C8
:104C6000044AFFF729FFAE612046BDE870400249C3
:104C700003F0C6BB488A20001E8D2000084B10B5EB
:104C80001B689847074B5B689847074B5B689847DA
:104C9000064B5B689847BDE81040054B5B681847BA
:104CA00058892000848A2000A48A2000508A20008D
:104CB0003C8A200010B507490B88834208DB064C6C
:104CC00080B222880244181A08800120228010BD78
:104CD0000020FCE71C0800201E080020014B188063
:104CE000704700BF1C080020004870478C0400205B
:104CF000014B1888704700BF1C080020034A044B72
:104D000010781B781844C0B2704700BF2F0F0020E6
:104D10001E0800202DE9F0410C4F3A8872B10024A2
:104D20000B4B0C4EB3F800800B4B1D78354421B271
:104D3000414504F1010403DB00233B80BDE8F08121
:104D4000FFF7DCFF3044435C6B54F0E71E080020A3
:104D50001C0800208C0400202F0F002008B5FFF74E
:104D6000CDFF014B184408BD8C040020F8B50C4B56
:104D700005461E780B4B1F88F419802C0DDC32463B
:104D8000094902F01FFFFFF7E9FF354401463A46A3
:104D9000284602F017FF2046F8BD0024FBE700BFBD
:104DA0002F0F00201C0800208C04002008B5FFF7FE
:104DB000A5FF024B1B88184480B208BD1C080020C8
:104DC00010B50146FFF7F2FF4318802B12DC0138C3
:104DD000094B00B203444A1C002805DA074B187837
:104DE00008441870012010BD13F8014901389C5483
:104DF00000B2F1E70020F6E78C0400202F0F00201E
:104E000038B50C4D0C4C342200210C4802F050FFF8
:104E10002946204603F03DFB2946A01C03F039FB40
:104E20002946201D03F035FB2946A01DBDE838406A
:104E300003F02FBBEC8A2000541000205C100020EF
:104E40000023044A1380044A1380044A1370FFF7B6
:104E5000D7BF00BF1E0800201C0800202F0F002015
:104E600038B50C460546FFF7EBFF802C28BF8024A1
:104E700029462246034802F0A5FE034B20461C802B
:104E800038BD00BF8C0400201C08002010B5074B63
:104E900003F1340253F8044B934240F8044BF9D128
:104EA000034A13680B6053684B6010BD5C10002010
:104EB0005410002010B5074B00F1340250F8044B99
:104EC000904243F8044BF9D10B68034A13604B68D6
:104ED000536010BD5C10002054100020024B23F8DA
:104EE00010100120704700BF5C100020014B33F808
:104EF000100070475C10002008B5044B1A3803EB13
:104F0000400003F0C6FA012008BD00BF5410002085
:104F1000024B1A3803EB4000704700BF54100020CA
:104F20000149024803F0B8BAEC8A2000561000206C
:104F300008B5044803F081F8BDE80840024803F0D2
:104F40007CB800BFB4000020A800002038B50E488F
:104F500003F083F8054650B10C4803F07EF8044690
:104F6000286030B92946084803F08BF825462846C2
:104F700038BDFFF7FBFE04F1B601A4F8800004F190
:104F80008200FFF783FFF2E7A8000020B4000020B2
:104F900010B501460446074803F089F848B1216876
:104FA000054803F06EF82146BDE81040014803F0C3
:104FB00068B810BDA8000020B400002010B501465C
:104FC0000446094803F073F868B12468B4F8801007
:104FD0002046FFF745FF04F1B60104F18200BDE869
:104FE0001040FFF767BF10BDA8000020014BDB6831
:104FF000184700BFA48A2000014B5B69184700BF17
:10500000848A2000014B9B69184700BF848A2000D6
:10501000024BD86900B10047704700BF848A200066
:1050200070B590F829500F4B042D28BF042501249A
:10503000DB6906469847AC40651E041E08BF012484
:105040006C4305D0FFF7ACFBB0FBF4F303FB140497
:105050003346214606F10800034ABDE87040FFF7D9
:10506000E3B800BF848A2000D95120002DE9F04127
:1050700007461B208846FFF74BFF484B05461A782A
:10508000474C22B901221A70FFF78AFB208023883F
:105090000BB90123238021880A204B1C2380FFF7B2
:1050A0001DFF404802F08DFF0446002845D13E48D0
:1050B00002F0D3FF0446002865D02946201D03F0E6
:1050C000E8F9002304F12C00C4E90B30238502F039
:1050D00075FF2146334802F091FF206B02F0A3FFD9
:1050E000072850DC314802F0B8FF054600283ED0C2
:1050F0002F4802F0B2FFA860A8B3FFF727FF68604F
:1051000068B30920AE68FFF7F1FE00BB08233372D5
:10511000C6E900780D20FFF7E9FE01282946206B3B
:105120001AD102F078FF206B02F04BFF854232D19A
:105130002046BDE8F041FFF773BF2946201D03F06C
:10514000ABF90028C9D1204602F074FFACE7092072
:10515000FFF7CCFE3072DBE702F050FFE3E7A9680F
:10516000134802F08EFF2946104802F08AFF206B98
:1051700002F059FF38B921460A4802F02CFF2146B7
:10518000094802F07EFF41463846BDE8F041012360
:10519000042203F064BBBDE8F08100BF400F002093
:1051A000100E00208C050020CC000020D80000202C
:1051B000C000002008B5054802F03FFF044802F097
:1051C0003CFFBDE80840034802F037BFD80000208C
:1051D000C0000020CC00002013B5044668B1006B6D
:1051E00002F0EFFE024640B12146054B0548DB6860
:1051F000019302B0BDE81040184702B010BD00BFD7
:10520000848A2000855220002DE9F0470D4614467F
:105210008B688046D3E90067106B92F8289002F003
:10522000DAFE6868FFF7B4FEA968124802F029FFA9
:105230002946114802F025FF206B02F0C2FE60B142
:10524000002320462385FFF7EBFE4B4642463946B6
:105250003046BDE8F04703F002BB04F10800FEF75A
:10526000EDFF2146054802F0B6FE2146044802F053
:1052700008FFEAE7C0000020D80000208C050020CD
:10528000CC0000202DE9F0410E461746044620B11F
:10529000006B02F096FE054608B9BDE8F0810A21D0
:1052A000686803F015F980460A20FFF71FFE804565
:1052B00046D0284602F0BEFEEDE794F828200020F4
:1052C0003A4484F828202946224684F82900BDE87B
:1052D000F041FFF799BF002284F8292094F8282094
:1052E0003A44D2B284F828201B7A93421CD8224632
:1052F00029460220EBE794F829203A44D2B2052A45
:1053000084F8292007D9002194F8282084F829104E
:10531000013284F8282094F828201B7A9A4203D37B
:10532000224629460120D2E72046FFF779FE686829
:10533000BDE8F04103F0B8B8224629463046C6E73A
:10534000AB68002BA9D0032EF6D801A252F826F0A4
:10535000BB522000F7522000D75220009B52200061
:10536000014B1888704700BF500100202DE9F04123
:10537000012986B006460F46144651DD03A903F005
:10538000E6F903AB03CB1B88206123839DF8113022
:105390006161002B48D0B51C02AA01A903A803F043
:1053A0009DF89DF81380B8F1000F50D0029B2BB1EF
:1053B0006A7815F8023B03EB02239BB2B8F1020FA7
:1053C000A38335D13349204603F063F86B7823700B
:1053D00015F8023B63709DF81580B8F1000F50D0AE
:1053E000019B002B3AD06A7815F8023B03EB0223AD
:1053F000029A9BB2E38302B9A383B8F1020F30D1C2
:10540000244904F1080003F044F86B78237215F87E
:10541000023B6372A81B3B1A8742C4E90E5300DAB1
:10542000002006B0BDE8F081B378F51CA376B3E7A1
:10543000B8F1030FCFD105F108021346611E13F82E
:10544000010D9D4201F8010FF9D11546C3E711493D
:10545000204603F01EF8A4F81C80BCE7A38BE3836E
:10546000CBE7B8F1030FD5D105F10802134604F1DB
:10547000080113F8010D9D4201F8010BF9D1154601
:10548000C8E7044904F1080003F003F8A4F81E80FB
:10549000C0E700BFEC8A200030B591B00546FFF7A9
:1054A0005FFF4FF6FF73984204D14FF0FF34204660
:1054B00011B030BD40220021684602F0F9FB404B9C
:1054C0001A782AB901221A70FFF76AF93D4B187051
:1054D0001420FFF70BFD8DF810001320FFF706FDD9
:1054E0008DF81200FFF71CFD0446002848D0002369
:1054F0008DF813308DF81530002301248DF8143009
:105500008DF818404DB10A20FFF7F0FC00283FD07D
:105510000A20FFF7EBFC8DF81A0002248DF81940E1
:10552000FFF71EFFADF81C00FFF7FAFC00283CD087
:105530004FF6FF738DF81740ADF80030FFF710FFFE
:10554000ADF81E001A20FFF7E3FC014602A802F0A6
:10555000A0FFFFF703FC0E90FFF7CAFB0F90684611
:1055600003F066F80446002DA1D0FFF729FC0028BF
:105570009BD0FFF7B9FB0146684603F0A1F896E718
:105580000B20FFF7B3FC8DF815408DF81300B3E73F
:105590000C4B1A7802B91C7019780A204A1C1A7030
:1055A0008DF81A10FFF79AFCB7E71B20FFF7B0FC45
:1055B0000146684602F06DFF8DF81740BEE700BF58
:1055C000530F0020540F0020F8B5FDF707F9114ED6
:1055D0000546002437461A20FFF79AFC314602F0B0
:1055E0005BFF80B10A20FFF781FC0C2303FB0474EE
:1055F000237A83420CD16068281AB0F5206F8CBFE3
:1056000000200120F8BD0134102C06F10C06E2D177
:105610000020F7E75806002070B5184D00242E46EC
:105620001A20FFF775FC294602F036FF013418B93D
:10563000102C05F10C05F3D10C23621E03FB04644E
:10564000A4F10C057AB90A20FFF750FC3072FDF77F
:10565000C5F870601A20FFF75BFCBDE8704001469A
:10566000064802F016BF2B4654F8180D013A61683F
:1056700003C3A0682C461860E2E700BF580600206C
:1056800008B5024B1B689847023008BD6C8A2000A1
:1056900038B50C4B9B689847041E02DA4FF0FF3078
:1056A00038BDFFF75BFB03780546002BF6D10220DF
:1056B000FFF700FB0028F1D06878FFF70FFBA01C74
:1056C000EEE700BF6C8A200070B50220FFF778FB80
:1056D00010B94FF0FF3070BDFFF706FB00250570D5
:1056E0000446FFF705FB6070FFF760FB0446FFF719
:1056F000C7FF20442A2812DCC0F12B00C4B2FFF7F8
:105700002DFB0646FFF7F4FA22462946304402F004
:10571000CFFAFFF7EDFA204480B2FFF7DFFA044B2F
:105720005B689847041ED4DBFFF7F4FAA01CD2E7AD
:105730006C8A200013B50024094B1C70094B1C8097
:10574000FDF77AF8009400F18001074B0122074829
:10575000FEF77EFF0122064B1A7002B010BD00BF9B
:105760005A0F0020120E00203D5C20003C07002054
:10577000550F0020074B82B01B784BB1064B1A78AF
:1057800032B901221A70054B1B6A019302B0184707
:1057900002B07047550F00205A0F00205889200092
:1057A000094B82B01B786BB1084B1A7852B1084A8A
:1057B000127802F0FF012AB91970064B5B6A019357
:1057C00002B0184702B07047550F00205A0F002052
:1057D000560F00205889200008B5FFF7E1FF00228E
:1057E000014B1A6008BD00BF4C070020044B1B781A
:1057F00023B9044B1B680BB9FFF7D2BF704700BF3A
:105800005C0F00204C0700200022094B82B01A7068
:10581000084BC2B21A70084A084B28B101211B6A12
:105820001170019302B0184710705B6AF9E700BF6E
:10583000550F0020560F00205A0F002058892000D5
:1058400037B50B4B1A7802F0FF056AB901241C70BA
:10585000084B1D70FCF7F0FF009500F18001064B2E
:1058600022460648FEF7F4FE012003B030BD00BF1B
:10587000550F0020560F00203D5C20003C07002003
:1058800037B50B4B05461B780C4673B1FCF7D4FFBC
:10589000231A022B4FF0000348BF841C00930122FF
:1058A000044B21462846FEF7D3FE03B030BD00BFAF
:1058B000550F00203D5C200013B5224C22680AB928
:1058C000FFF76EFFFFF714FA032823D0FFF76EFAF5
:1058D00000B31D4B9B68984700281BDBFFF708FAB5
:1058E000C0B1FFF763FAA8B11B20FFF711FB1749FE
:1058F00002F0D2FD50B11320FFF7F8FA206058B93A
:10590000FFF74EFF1248FEF799FC0DE0FFF708FB8A
:105910000028F0D102B010BDFFF72CFF00230D4A84
:1059200004210B48FEF780FCFFF74EFE0028F1D162
:10593000FFF772FE084BDB68019302B0BDE8104030
:10594000184700BF4C070020788A20005210002022
:1059500018070020D9572000508A20002DE9F04F69
:10596000784E8BB0337805903BB9774B1B7823B9D1
:10597000052528460BB0BDE8F08FFFF717FA002881
:10598000F6D072491A20FFF7B7FAFFF7C9FA804636
:105990000C20FFF7ABFAA8B1FFF708FA4FF00109A6
:1059A0006B4C01906568FFF79FF90199A847694F13
:1059B000A36987F800900293984768B100233B7071
:1059C0000125D6E701210B20FFF788FA624B5B68BF
:1059D00098470028E0DACBE7E36903939847054648
:1059E0000028EBD1FFF7DCFE337886F80090DBB2BD
:1059F0000493059B7BBB4FF006096FF0030A6FF021
:105A00000F0BFCF719FF0690FFF7B4FE0698AAEB00
:105A100000030693FCF710FF069BC342F9D46369A9
:105A2000984748B90190FFF7BBFE01983870FFF71F
:105A3000B7FE049B3370C3E7FFF7B2FEFCF7FCFE32
:105A4000ABEB00030693FCF7F7FE069BC342F9D4C9
:105A5000B9F10109D5D1B8F1000F01D1FFF78AFEE4
:105A60000A20FFF743FA5FFA80FBFDF769F8FCF7BD
:105A7000E3FE8146394B1B1A06936FF0CF0AAAEB5F
:105A8000090AFCF7D9FE1AEB000F4BD5FDF758F8C1
:105A9000B8F1000F3ED0A36801989847FCF7CCFE00
:105AA0006FF00C031B1A0793FCF7C6FE079BC3425B
:105AB000F9D4B8F1000FE4D1029B9847002835D003
:105AC000FCF7BAFE6FF01409A9EB0009FCF7B4FE6D
:105AD00019EB000FFAD42369032109A8984703287A
:105AE0002DD19DF826305B4529D100244FF00109C6
:105AF000FFF756FE049B337000233B70002C7FF4AD
:105B00005FAFB8F1000F7FF434AF994514BF1D4665
:105B100002252EE7059B002BBDD0FCF78DFE069BD2
:105B2000C342B8D400244FF00009E1E7039B984733
:105B30000028C5D16369984700289ED1C0E7012499
:105B4000F1E700BF550F0020560F00205210002033
:105B5000588920005C0F0020788A2000DEFDFFFFBE
:105B60002DE9F14F074688461446002A5DD0304B98
:105B70001E685EB15068FFF721FA01231A464146BC
:105B8000384601B0BDE8F04F02F069BE1546DFF8B7
:105B9000A4A0DFF8A4B0284602F04CFA8146686859
:105BA000FFF70CFA0C20FFF7A1F9E8B9B9F1000FE3
:105BB00003D001211320FFF791F951461A20FFF776
:105BC0009BF901210B20FFF789F9DBF80430984796
:105BD000002802DA01230522D1E701210C20FFF77A
:105BE0007DF9686802F066FC4D46002DD3D1204651
:105BF00002F020FA05466068FFF7E0F91320FFF78E
:105C000075F981463046FFF7A9FE032804460CD0FB
:105C1000024601234146384602F021FE2CB925B147
:105C20002C460126B9F1000FE1D101B0BDE8F08F9B
:105C30004C07002052100020788A200040F2B11258
:105C40002DE9F3476D4C05462388934215D0B3F5F3
:105C5000D97F04D2002B00F08680002393E040F22D
:105C6000E31293422ED040F202229342F5D1002358
:105C7000634A1370634A137007E0624A1378013372
:105C8000DBB2012B137000F282805F4B1A78002A7E
:105C900070D15E4A1268002A6CD11B780BB9FFF7ED
:105CA00069FD5B4B5B699847002861D10122544B29
:105CB0001A70FCF7C1FD574B574A18600023137048
:105CC000564A1370504B564E1B78002B7CD13378BC
:105CD000002B79D0FCF7B0FD6FF4CC724D4B1B68F4
:105CE000C01A104400286FDA494FDFF82C917B6905
:105CF0009847B84618B199F800000130C0B2474F34
:105D0000D8F818A03B7889F8000001333B70D047E1
:105D1000002853D0002389F800303B78D8F81C8045
:105D20000A2B04D9D04710B9C04700284AD0C04731
:105D3000002849D13B4B1B7893B12E68FCF77CFDC2
:105D4000331A13F1120F4FF0000348BF811C009368
:105D500058BF06F11401344B01222846FEF778FCA7
:105D600040F2E3130FE0FCF767FD304B18607EE76D
:105D7000FFF73CFDFCF760FD00F110012846FFF73E
:105D80007FFD40F2B113238002B0BDE8F0871C4BC9
:105D90001B78002B8DD1254E336880333360FCF7A0
:105DA0004BFD3368C3F1A003C3427FF560AF316898
:105DB0002846FFF765FD40F20223E4E799F800303A
:105DC000052BAAD9FFF712FD3378002BE3D0104E34
:105DD000B369984760B1FCF72FFD0E4B1B68C01AE2
:105DE0006FF4CC7318440028D5DBFFF7FFFCD2E733
:105DF000F36998470028EED1F7E700BF120E0020A4
:105E0000580F0020570F00205C0F00204C07002087
:105E100058892000480700205B0F0020590F002000
:105E20005A0F0020550F00203D5C2000380700204D
:105E3000014B9B68184700BF3C8A200070B50446A0
:105E40000D4614200121FFF749F8034B294620464F
:105E5000BDE870409B681847508A20000146014801
:105E6000FDF7D0BD528E20002DE9F0410388064693
:105E7000002B3CD07F2B5BD1304802F078F8002813
:105E80004BD02F4B01205C68A047DFF8D8802D4D08
:105E9000A8F800000220A0470320A0472880042083
:105EA000A0474FF47A73B8F80020274CB2FBF3F206
:105EB00080B262602A880027B0FBF3F0B2FBF3F2F5
:105EC000224B234D1B68E060012138462760A26009
:105ED0002361FCF71BFE2F602B68052B1FDD0A21B9
:105EE0000020FCF713FE154802F038F813E0782183
:105EF0001848FDF787FD184A184B01211A60104B0E
:105F000081209C68A047164B01201968A04780217A
:105F10000A4802F01AF87F23338001200BE014F8BE
:105F200023100020FCF7F2FD2B6801332B60D3E730
:105F3000002303800320BDE8F08100BF500700204C
:105F4000CC8A2000160E00206407002004010020E7
:105F500060070020D68D20005D5E20004C100020E0
:105F600008010020140E002038B50388044673B1E0
:105F7000AF2B6FD1394B1B788B4232D1384B9A42C1
:105F80002BD153680020984738BB2D2221E0354B98
:105F90000B21DD6A0120A84707210620A84700F051
:105FA0004BFC00F053FC00F0ABFA2F4801F073FFFC
:105FB00000F0BAF8058800F0C5F8294602462B48DB
:105FC000FDF720FD264B80214FF480709B68984799
:105FD0002E2286212648FEF7EFFAAF2301202380E8
:105FE00038BD8629F9D1234DD1B223482A70FDF757
:105FF00009FD2B782D3B052B28D801A252F823F060
:1060000019602000DB5F2000256020003160200047
:1060100045602000DB5F20001848FEF761FA00F0C1
:10602000DFFBDAE71548FEF75BFA00F0A5FBD4E7E3
:1060300000211248FEF7E8FA00F096FF05228621BB
:106040000E48C8E700F084FF0422F8E70C4801F08E
:1060500022FFC2E7002303800320C1E7961000203F
:10606000E088200058892000738D20008C8D20004E
:10607000F400002056010020B18D200040010020D6
:10608000BE8D200038B50388044615463BB140F26A
:106090000712934235D11D4B1B788B4204D040F23E
:1060A00007130120238038BD0120FCF7DDF92B7890
:1060B000052B22D8DFE803F00808030C080E2D2278
:1060C00086211348FEF778FA0120FCF7D5F9E6E7B8
:1060D0000222F5E768780F4B186001F01BF94FF0CA
:1060E00033320D4B01F0AAFA01F090FB0B4B186014
:1060F00069780B48FDF786FCE6E70A48FDF782FC65
:10610000E2E7002303800320CDE700BF95100020C5
:10611000F4000020040100203333F33F0801002085
:106120003C8D20005E8D20000048704752100020FA
:106130000622034B013802FB00308088704700BF05
:10614000EE8A200010B50A4B0A4A1988104600232F
:1061500094888C4203D106225343C05A10BD0133A8
:10616000082B02F10602F3D14FF6FF70F6E700BFED
:1061700052100020EE8A200010B50A4A0188002340
:10618000104694888C4205D106225343C05A0138E8
:1061900080B210BD0133082B02F10602F1D14FF697
:1061A000FF70F6E7EE8A200010B5038804462BB195
:1061B000A22B13D10B4B1B788B4203D0A2230120BF
:1061C000238010BD084B1A79002AF7D01888DB8885
:1061D0008342F3D8054B1B689847EFE70023038001
:1061E0000320EEE750100020180E00204C10002075
:1061F0002DE9F0474FF49664274A284D136823F0A1
:10620000040313602B885C431FFA84FC6446244B10
:10621000A5F802C0D3E902104E1C40F10007D3E9F3
:10622000040110EB0C0841F100099969C3E90489E4
:106230000C441988C3E90267614538BFA3F800C060
:106240009C6191469846782200233046394601F0F9
:1062500005FB134308D1DCB17823B4FBF3F400232E
:10626000A8F81C40C8F8183056EA070301D1C8E95D
:10627000046700232B80D9F80020802142F004021B
:10628000C9F800200748084ABDE8F047FDF7CCBF31
:10629000A8F81C40E8E700BF10940D40180E00203D
:1062A0006801002078070020F161200008B5431E36
:1062B000032B1DD8114B1B78D3B1032812D004280F
:1062C00013D0022802D00E4B588808BD0D4BD3E9DD
:1062D000040150EA01020ED0D3E9022301F0BEFA14
:1062E00080B2F2E7074B988BEFE7064B1888ECE794
:1062F0004FF0FF30E9E70020E7E700BF5D0F002027
:10630000180E0020680100208128F8B50C4606D040
:10631000012855D0032857D04FF0FF3418E0002053
:10632000002100252A4B2B4EC3E90401C3E90201D9
:10633000294B2A4F1D711D805D805CB9284B29486F
:106340001C60336823F004033360FEF7C9F83C7027
:106350002046F8BD244A02211368284623F004038E
:10636000136052F8203C23F0040342F8203C52F81A
:10637000143C43F0040342F8143C52F8183C23F058
:10638000040342F8183C2A46FCF7AAFC02222946DC
:106390001648FCF749FC29461248FEF735F92B460A
:1063A000134A80211348FDF73FFF0822336843F06A
:1063B00004033360104B1A6001233B700024C7E7CD
:1063C000054B1871D980F9E70024034B1C71BFE716
:1063D0006801002010940D40180E00205D0F002071
:1063E0004C1000201C01002020940D40FD63200073
:1063F000F16120007807002000E100E038B5044694
:106400000C480D4601F0CCFD90B10221094801F085
:10641000BBFD6CB9022D0BD1074A08481388013324
:106420001380074B22461978BDE83840FEF7C4B800
:1064300038BD00BF98070020180E00201C01002066
:1064400050100020F8B50446FFF77CFE21460246B6
:106450000E48FDF7D7FA0E4801F01DFD00240D4D42
:106460000D4FA5F1200604F1080236F8141015F8B6
:10647000013B36F8122038460134FDF7C3FA082CE8
:10648000F1D1BDE8F840024801F005BDAE90200012
:10649000C19020007F0F0020EB902000F7B5154C35
:1064A00003200D46FBF7E0FF30220021204601F0DB
:1064B000FFFB2046FEF75AFC01460F48FDF7A2FA03
:1064C0002E786D78FEF74AFC07460420FEF70EFD95
:1064D00000B200903B462A4631460848FDF792FA42
:1064E0002146002000F054FD032003B0BDE8F04039
:1064F000FBF7C2BFE70F0020149120002691200077
:106500002DE9F0470024154D4FF0FF382E46A246E6
:10651000134B144F1C60B7F80490013526F8149003
:10652000FFF702FE028804F108034A4518BF06F887
:10653000138004F1010415BF06EB430326F8132072
:1065400083F8018085F81FA018BF85F81F80082CEC
:1065500007F10607DFD1BDE8F08700BF5F0F00201D
:10656000B8070020EE8A20002DE9F04F694C91B069
:1065700020460E46FEF7FAFB0420FEF7B7FC3778FC
:1065800005B296F80180FEF7E9FB00950346424606
:1065900039466148FDF736FA15F13B0F0EDA022055
:1065A000FBF762FF6FF03B0229465C48FDF72AFAD1
:1065B000022011B0BDE8F04FFBF75EBF584801F074
:1065C0006AFC0220FBF750FF2578022D00F087803F
:1065D000072D00F08A80012DEAD10722601C514965
:1065E00001F0B6FB04F1080304AA3034154627462F
:1065F0009446186859680833ACE80300A342624621
:10660000F6D1FFF79FFD484902464848FDF7FAF9E1
:10661000474801F040FC0024DFF83C910DF13008C0
:1066200010AB03EB4402114618F8013B32F8202C62
:1066300031F8301C48460134FDF7E4F9082CEFD15D
:106640003B4801F028FC3B48FFF7FCFE2A46314B53
:10665000144618685968083303C4BB422246F7D170
:1066600000221446344FDFF8F4A00DF13809A7F1E9
:10667000200B19F8015B17F8013B04F101089D425A
:106680000ED25B1B012B0BDD41465046FDF7BAF9DC
:1066900001223388083401352BF8143007F8015CE7
:1066A0004446082CE5D125480392FFF7CBFE039A18
:1066B000002A3FF47DAF0123214A02F8083B214B19
:1066C00003F1280153F8040B8B4242F8040BF9D173
:1066D000072214491C4801F03BFB012200E02A4636
:1066E00086211A48FDF768FF62E7FFF709FF18489F
:1066F000FFF7A8FE174C124B1D702378002B7FF478
:1067000057AF2A4686211148FDF756FF0123237013
:106710004EE700BF870F0020B38E2000EC8E2000D4
:10672000188F20002A8F20002F8F2000AE9020008D
:10673000C1902000538F20007F0F0020AD8F2000DC
:10674000B70F00205F0F0020B80F00202C010020A1
:10675000D58F20005E0F0020EB9020007C8F200062
:10676000044B073033F810004FF6FF73C01A18BF00
:10677000012070475F0F002010B5124801F08BFB1D
:106780000023114A114C1360114A1370FFF7B8FE31
:1067900007221049601C01F0DBFA0122234603F8AE
:1067A000082B0D4A02F1280152F8040B8A4243F8E3
:1067B000040BF9D1BDE81040012286210748FDF7FE
:1067C000FBBE00BF3C902000B8070020B70F0020A0
:1067D0005E0F0020589020005F0F00202C01002049
:1067E00038B50E4801F057FB002307240C4A0D4D25
:1067F00013600D4A1370FFF783FE07220B49681CD4
:1068000001F0A6FA0A482C70FFF71CFE2246BDE8EC
:10681000384086210748FDF7CFBE00BF5D902000BD
:10682000B8070020B70F00205E0F002079902000ED
:106830007E9020002C010020024A81210248FEF7B0
:106840003BB900BFDC8A2000A0070020024A922149
:106850000248FEF701BA00BFE48A2000BC0700200E
:1068600038B504200C46FBF7FFFDFEF7E9FA3021AE
:106870001348FEF7F5FA01461248FDF7C3F82578EC
:106880006478FEF76BFA2246034629460E48FDF768
:10689000B9F8FEF763FA044630210C48FDF7B2F868
:1068A00030212046FEF7DCFA0948FEF717F9094ABD
:1068B0000420136801331360BDE83840FBF7DCBDEA
:1068C000B70F002014912000FB8F2000259020009E
:1068D000A0070020B807002008B5FFF725FCBDE899
:1068E000084001460148FFF7BBBF00BFA0070020DA
:1068F00030B58DB00446FEF7A3FAFFF723FC22461D
:1069000001461E48FDF77EF820463021FEF7A8FA22
:1069100022466C4602F13005234610685168083261
:1069200003C3AA421C46F7D19DF80030042B0CD0BB
:10693000052B01D0032B1CD1114801F0ACFA0DF14D
:106940000100FFF719FC014604E00E4801F0A3FA2C
:10695000BDF801100C4C01F1080534F815200B4866
:10696000FDF750F804EB4501094801F06DFD0DB04D
:1069700030BD084801F08FFA0021EBE75C91200060
:1069800096912000809120005F0F0020B19120009F
:10699000BC0700208196200070B503880546144688
:1069A000D3B11B2B70D1862928D1394B1B7813B159
:1069B000384801F0D3FAE4B2374B012C1C700FD1E8
:1069C0000222364B364840211A6001F0BEFA354BA0
:1069D00035481C7001F05FFA1B2301202B8070BD2D
:1069E000072CF9D100222D4B2D4840211A6001F0CF
:1069F000ACFA01222B4B2D481A70EBE78829EBD11A
:106A0000274801F0B4FA88B1264E337873B1234C8D
:106A10002368042B24DCFFF75FFF214801F09EFA76
:106A20002168234801312160FCF7ECFF194801F08F
:106A30009EFA0028D0D0164E3378002BCCD0164CBE
:106A40001C482178FCF7DEFF1248FDF7B3FC002359
:106A500033702378012B11D0072BBDD12F220EE0EC
:106A60000F48FDF7A7FC002301223370084B4FF4B9
:106A7000A06108481A7001F068FAD7E73022862131
:106A80000D48FDF799FDA7E7002303800320A6E743
:106A900019100020EC07002018100020E807002043
:106AA000D807002017100020DC912000F79120006B
:106AB000129220003D922000F400002070B50446A0
:106AC00001783548FCF79EFF2378042B2BD0052B4B
:106AD00016D0032B49D1B4F80130082B43D92F48E5
:106AE00001F0D9F900252E4E04EB45032946B3F8F1
:106AF000032030460135FCF785FF082DF4D111E065
:106B0000B4F801102748FCF77DFF0025244E04EB64
:106B100045032946B3F8032030460135FCF772FFE0
:106B2000082DF4D170BD204801F0B5F9B4F801206A
:106B3000B4F803101D48FCF765FFB4F805101C48B5
:106B4000FCF760FFB4F807101A48FCF75BFFB4F8D5
:106B500009101948FCF756FFB4F80B101748BDE8A8
:106B60007040FCF74FBF1648DEE7164801F093F976
:106B7000B4F8012021781448FCF744FF0025134E97
:106B800004EB45032946B3F8032030460135FCF7F2
:106B900039FF082DF4D1C5E7A09220004E932000C4
:106BA000DA922000B3922000E1922000F3922000BC
:106BB000109320001D9320002A9320003B93200077
:106BC0006693200081932000A1932000E093200091
:106BD00038B505460C4801F05EF900214FF6FF7309
:106BE00005EB4104B4F803209A4208D10748FCF7AA
:106BF00009FFFFF799FA0388A4F8033038BD013183
:106C00000829EDD1FAE700BF799220009092200088
:106C10002DE9F041044600254FF001080E4E0F4FBC
:106C2000FFF790FAA0420BD10135013429463046D6
:106C3000A4B2FCF7E7FE082C0AD8082DF0D104E036
:106C40002046FFF78DFD0028EED02046BDE8F081FC
:106C500087F800800124F0E7659520001A100020D5
:106C60002DE9F843374C384D21882A683748FCF71E
:106C7000C9FE2088FFF7CCFF4FF00508344F2A6883
:106C8000014620803348FCF7BDFE334E3978334847
:106C9000FCF7B8FE3248FCF7B5FE0521304601F09E
:106CA000FEFD208886F80080FFF742FADFF8E090CA
:106CB000A6F801003046FFF78BFF3046FFF7FEFED7
:106CC00099F8003043B32748FDF7B8FA264801F099
:106CD000E2F829682548FCF795FE01232B60002384
:106CE0002188234889F80030FCF78CFE3B7833B1CB
:106CF000204801F0D0F8312286211F4808E01F48C3
:106D000001F0C9F84246862123881D4801332380BB
:106D1000BDE8F843FDF750BC3C780CB11948E8E7F2
:106D20003046FFF7E5FD2346174A4FF480710D48C2
:106D3000FDF77AFA154801F0AEF82B6801332B60A5
:106D4000BDE8F883520100203C010020129420008D
:106D50001A1000203F9420001C1000206C9420008A
:106D60008B942000FC070020B7942000CB942000D7
:106D7000EB942000FC942000F40000200F952000EC
:106D80004001002022952000956D200036952000BE
:106D90001B10002010B50D4C0D4801F07CF8216847
:106DA0000C48FCF72FFEFFF75BFF2368022B0CDD7E
:106DB0000948FDF743FA094801F06DF8BDE81040B5
:106DC0002D2286210648FDF7F7BB10BD3C010020AF
:106DD000E7932000D0942000FC070020FF932000C0
:106DE000F400002083292DE9F84F80468946144697
:106DF00005D1434B43481B685968FCF703FEB8F8BC
:106E0000003063B1402B75D1B9F1860F0DD1E4B2DA
:106E1000042C10D0052C08D1FFF722FF05E0384BD9
:106E200039481B685968FCF7EDFD40230120A8F89C
:106E30000030BDE8F88F354D354E29883268354829
:106E4000FCF7E0FD2888FFF7E3FE32680146288062
:106E50003148FCF7D7FD314B314F19783148FCF7F9
:106E6000D1FD3148FCF7CEFD2146384601F017FD33
:106E70003C70FFF767F9DFF8D4B02B88A7F8030060
:106E80003846A7F80130FFF719FE9BF800A0BAF1C9
:106E9000000F1ED02548FDF7D1F9254800F0FBFF73
:106EA00031682448FCF7AEFD0123336000232988B4
:106EB00021488BF80030FCF7A5FD204800F0EBFFDF
:106EC0002B882246013349461D482B80FDF774FB71
:106ED000ABE73846FFF70CFD53461A4A4FF4807172
:106EE0001248FDF7A1F9184800F0D5FF33680133C7
:106EF00033609AE700230320A8F8003099E700BF29
:106F0000F003002095962000A0962000520100205A
:106F10003C010020129420003F9420001A10002011
:106F20001C1000206C9420008B942000FC07002093
:106F3000B7942000CB942000EB9420000F95200004
:106F400040010020956D2000369520001B10002088
:106F50000122034B1A800022024B1A70704700BFB7
:106F6000520100201B1000200123054A1380054A0E
:106F700013600023044A1370044A1370704700BF63
:106F8000520100203C0100201A1000201B1000209C
:106F900038B50D462B48FCF735FD2B78042B4AD02D
:106FA000052B4CD0032B2CD1B5F80130082B2ED952
:106FB000254800F070FF00244FF6FF7305EB4402F4
:106FC000B2F803209A421ED121462048FCF71AFD50
:106FD0001F4B013C1888FFF7ABF805EB4404B4F8ED
:106FE000033083420DD11B4800F055FF01221A4B9C
:106FF0001A481A70FDF722F9052286211848FDF774
:10700000DBFA002038BD0134082CD7D1E0E7154861
:1070100000F041FF0E4BB5F803201B889A42F0D1D7
:107020000C4800F038FF01220B4B0C481A70FDF79A
:1070300005F90422E1E70C4800F02DFFE1E70B48D9
:10704000FAE700BF9C952000B4952000D69520005B
:1070500052010020E59520001B100020FC070020B5
:107060004001002004962000309620006496200005
:1070700081F0004102E000BF83F0004330B54FEAE9
:1070800041044FEA430594EA050F08BF90EA020F56
:107090001FBF54EA000C55EA020C7FEA645C7FEAE9
:1070A000655C00F0E2804FEA5454D4EB5555B8BF0C
:1070B0006D420CDD2C4480EA020281EA030382EA7D
:1070C000000083EA010180EA020281EA0303362D0F
:1070D00088BF30BD11F0004F4FEA01314FF4801CE2
:1070E0004CEA113102D0404261EB410113F0004FF4
:1070F0004FEA03334CEA133302D0524263EB4303AB
:1071000094EA050F00F0A780A4F10104D5F1200E48
:107110000DDB02FA0EFC22FA05F2801841F10001A3
:1071200003FA0EF2801843FA05F359410EE0A5F177
:1071300020050EF1200E012A03FA0EFC28BF4CF0A8
:10714000020C43FA05F3C01851EBE37101F000455E
:1071500007D54FF0000EDCF1000C7EEB00006EEB6B
:107160000101B1F5801F1BD3B1F5001F0CD34908F5
:107170005FEA30004FEA3C0C04F101044FEA44524C
:1071800012F5800F80F09A80BCF1004F08BF5FEAD3
:10719000500C50F1000041EB045141EA050130BDB3
:1071A0005FEA4C0C404141EB010111F4801FA4F156
:1071B0000104E9D191F0000F04BF01460020B1FAAB
:1071C00081F308BF2033A3F10B03B3F120020CDAE3
:1071D0000C3208DD02F1140CC2F10C0201FA0CF0C1
:1071E00021FA02F10CE002F11402D8BFC2F1200C26
:1071F00001FA02F120FA0CFCDCBF41EA0C019040DC
:10720000E41AA2BF01EB0451294330BD6FEA040424
:107210001F3C1CDA0C340EDC04F11404C4F120020F
:1072200020FA04F001FA02F340EA030021FA04F321
:1072300045EA030130BDC4F10C04C4F1200220FA78
:1072400002F001FA04F340EA0300294630BD21FAB6
:1072500004F0294630BD94F0000F83F4801306BF7C
:1072600081F480110134013D4EE77FEA645C18BF70
:107270007FEA655C29D094EA050F08BF90EA020F07
:1072800005D054EA000C04BF1946104630BD91EAFF
:10729000030F1EBF0021002030BD5FEA545C05D102
:1072A0004000494128BF41F0004130BD14F5800441
:1072B0003CBF01F5801130BD01F0004545F0FE41B5
:1072C00041F470014FF0000030BD7FEA645C1ABFEA
:1072D000194610467FEA655C1CBF0B46024650EA21
:1072E000013406BF52EA033591EA030F41F400214D
:1072F00030BD00BF90F0000F04BF0021704730B5D3
:107300004FF4806404F132044FF000054FF00001A7
:1073100050E700BF90F0000F04BF0021704730B568
:107320004FF4806404F1320410F0004548BF40423D
:107330004FF000013EE700BF42004FEAE2014FEA92
:1073400031014FEA02701FBF12F07F4393F07F4F6D
:1073500081F06051704732F07F4208BF704793F070
:107360007F4F04BF41F40021704730B54FF4607483
:1073700001F0004521F000411CE700BF50EA010286
:1073800008BF704730B54FF000050AE050EA01022F
:1073900008BF704730B511F0004502D5404261EB9F
:1073A00041014FF4806404F132045FEA915C3FF4E0
:1073B000D8AE4FF003025FEADC0C18BF03325FEA7D
:1073C000DC0C18BF033202EBDC02C2F1200300FA2E
:1073D00003FC20FA02F001FA03FE40EA0E0021FA53
:1073E00002F11444BDE600BF70B54FF0FF0C4CF441
:1073F000E06C1CEA11541DBF1CEA135594EA0C0FF3
:1074000095EA0C0F00F0DEF82C4481EA030621EA2D
:107410004C5123EA4C5350EA013518BF52EA033568
:1074200041F4801143F4801338D0A0FB02CE4FF01A
:107430000005E1FB02E506F00042E0FB03E54FF04A
:107440000006E1FB03569CF0000F18BF4EF0010E42
:10745000A4F1FF04B6F5007F64F5407404D25FEA3E
:107460004E0E6D4146EB060642EAC62141EA5551F1
:107470004FEAC52040EA5E504FEACE2EB4F1FD0C33
:1074800088BFBCF5E06F1ED8BEF1004F08BF5FEAB1
:10749000500E50F1000041EB045170BD06F0004663
:1074A00046EA010140EA020081EA0301B4EB5C0410
:1074B000C2BFD4EB0C0541EA045170BD41F4801108
:1074C0004FF0000E013C00F3AB8014F1360FDEBF2D
:1074D000002001F0004170BDC4F10004203C35DA09
:1074E0000C341BDC04F11404C4F1200500FA05F38C
:1074F00020FA04F001FA05F240EA020001F000422D
:1075000021F0004110EBD37021FA04F642EB0601A2
:107510005EEA430E08BF20EAD37070BDC4F10C04CC
:10752000C4F1200500FA04F320FA05F001FA04F290
:1075300040EA020001F0004110EBD37041F100017C
:107540005EEA430E08BF20EAD37070BDC4F1200587
:1075500000FA05F24EEA020E20FA04F301FA05F2EF
:1075600043EA020321FA04F001F0004121FA04F297
:1075700020EA020000EBD3705EEA430E08BF20EA67
:10758000D37070BD94F0000F0FD101F000464000A1
:1075900041EB010111F4801F08BF013CF7D041EA23
:1075A000060195F0000F18BF704703F00046520027
:1075B00043EB030313F4801F08BF013DF7D043EAF8
:1075C0000603704794EA0C0F0CEA135518BF95EAAE
:1075D0000C0F0CD050EA410618BF52EA4306D1D135
:1075E00081EA030101F000414FF0000070BD50EA54
:1075F000410606BF1046194652EA430619D094EADE
:107600000C0F02D150EA013613D195EA0C0F05D1C7
:1076100052EA03361CBF104619460AD181EA03011B
:1076200001F0004141F0FE4141F470014FF00000D3
:1076300070BD41F0FE4141F4780170BD70B54FF06E
:10764000FF0C4CF4E06C1CEA11541DBF1CEA1355EE
:1076500094EA0C0F95EA0C0F00F0A7F8A4EB0504D0
:1076600081EA030E52EA03354FEA013100F08880C7
:107670004FEA03334FF0805545EA131343EA126390
:107680004FEA022245EA111545EA10654FEA002645
:107690000EF000419D4208BF964244F1FD0404F5FE
:1076A000407402D25B084FEA3202B61A65EB03055A
:1076B0005B084FEA32024FF480104FF4002CB6EB17
:1076C000020E75EB030E22BFB61A754640EA0C0097
:1076D0005B084FEA3202B6EB020E75EB030E22BFD7
:1076E000B61A754640EA5C005B084FEA3202B6EB18
:1076F000020E75EB030E22BFB61A754640EA9C00D7
:107700005B084FEA3202B6EB020E75EB030E22BFA6
:10771000B61A754640EADC0055EA060E18D04FEA64
:10772000051545EA16754FEA06164FEAC30343EA04
:1077300052734FEAC2025FEA1C1CC0D111F4801FD1
:107740000BD141EA00014FF000004FF0004CB6E7CA
:1077500011F4801F04BF01430020B4F1FD0C88BF69
:10776000BCF5E06F3FF6AFAEB5EB030C04BFB6EB74
:10777000020C5FEA500C50F1000041EB045170BD67
:107780000EF0004E4EEA113114EB5C04C2BFD4EB94
:107790000C0541EA045170BD41F480114FF0000E18
:1077A000013C90E645EA060E8DE60CEA135594EA94
:1077B0000C0F08BF95EA0C0F3FF43BAF94EA0C0F97
:1077C0000AD150EA01347FF434AF95EA0C0F7FF40C
:1077D00025AF104619462CE795EA0C0F06D152EA60
:1077E00003353FF4FDAE1046194622E750EA410644
:1077F00018BF52EA43067FF4C5AE50EA41047FF455
:107800000DAF52EA43057FF4EBAE12E74FEA4102B7
:1078100012F5001215D211D56FF47873B3EB6252E2
:1078200012D94FEAC12343F0004343EA505311F009
:10783000004F23FA02F018BF404270474FF000009B
:10784000704750EA013005D111F0004008BF6FF0D9
:10785000004070474FF00000704700BF53B94AB96D
:10786000002908BF00281CBF4FF0FF314FF0FF3048
:1078700000F074B9ADF1080C6DE904CE00F006F823
:10788000DDF804E0DDE9022304B070472DE9F0479C
:107890008C460446089E002B40F086808A4215469E
:1078A00048D9B2FA82F24AB1C2F1200701FA02F3D2
:1078B00020FA07F7954047EA030C94404FEA154E2B
:1078C000BCFBFEF71FFA85F80EFB17C307FB08F990
:1078D000210C41EA0343994509D9EB1807F1FF311F
:1078E00080F0E180994540F2DE80023F2B44A3EB1B
:1078F0000903B3FBFEF00EFB103300FB08F1A4B24A
:1079000044EA0344A14209D92C1900F1FF3380F065
:10791000C880A14240F2C58002382C4440EA0740AA
:107920000027641A1EB10023D440C6E9004339463B
:10793000BDE8F087002A54D0B2FA82F2002A40F063
:10794000B4800127491B4FEA15481FFA85F9B1FB9E
:10795000F8FE08FB1E1109FB0EF04FEA144C4CEA2E
:107960000143984207D9EB180EF1FF3102D2984239
:1079700000F2EB808E461B1AB3FBF8F008FB1033C5
:1079800009FB00F9A4B244EA0344A14507D92C1924
:1079900000F1FF3302D2A14500F2DB801846A4EBD0
:1079A000090440EA0E40BDE78B4208D9002E75D08D
:1079B0000027C6E9000138463946BDE8F087B3FA2A
:1079C00083F77FB98B4202D3824200F2BC80841AD3
:1079D00061EB030301209C46002EA8D0C6E9004CB1
:1079E000A5E7FFDEC7F12005BB4022FA05FC4CEA03
:1079F000030C21FA05F44FEA1C4EB4FBFEF91FFA02
:107A00008CF80EFB194420FA05F3B94009FB08FA7B
:107A100019430B0C43EA0444A24502FA07F200FAA8
:107A200007F30BD91CEB040409F1FF3080F08980C7
:107A3000A24540F28680A9F102096444A4EB0A043D
:107A4000B4FBFEF00EFB104400FB08FA89B241EAD9
:107A50000444A24508D91CEB040400F1FF316CD2A8
:107A6000A2456AD90238644440EA0940A0FB028971
:107A7000A4EB0A044C454146CE4655D352D0002EC5
:107A80006AD05A1A64EB0E0404FA05F522FA07F3D9
:107A9000FC401D43C6E90054002748E737463046FE
:107AA00045E718463AE70F4621E79540C2F1200323
:107AB00021FA03F04FEA1548B0FBF8F71FFA85F9F1
:107AC00008FB170E24FA03FC914007FB09FA4CEA65
:107AD0000101080C40EA0E40824504FA02F407D97D
