:020000040020DA
:10200000681900208D2220009383200091832000F6
:102010009183200091832000918320000000000024
:10202000000000000000000000000000298A2000DD
:102030009183200000000000478A2000F5832000E3
:10204000078420000D8420001384200019842000C0
:1020500000000000FB832000018420009183200009
:10206000918320000000000000000000000000003C
:10207000000000000000000091832000000000002C
:1020800000000000000000009183200091832000E8
:102090009183200091832000918320009183200070
:1020A0009183200091832000918320009183200060
:1020B0009183200091832000918320009183200050
:1020C0009183200091832000918320009183200040
:1020D00091832000000000000000000000000000CC
:1020E00000000000000000000000000000000000F0
:1020F0000000000000000000053820001538200016
:1021000000000000000000000000000000000000CF
:1021100000000000000000000000000000000000BF
:1021200000000000000000000000000000000000AF
:10213000000000000000000000000000000000009F
:10214000000000000000000000000000000000008F
:10215000000000000000000000000000000000007F
:10216000000000000000000000000000000000006F
:10217000000000000000000000000000000000005F
:10218000000000000000000000000000000000004F
:10219000000000000000000000000000000000003F
:1021A000000000000000000000000000000000002F
:1021B000000000000000000000000000000000001F
:1021C000000000000000000000000000000000000F
:1021D00000000000000000000000000000000000FF
:1021E00000000000000000000000000000000000EF
:1021F00000000000000000000000000000000000DF
:1022000000000000000000000000000000000000CE
:1022100000000000000000000000000000000000BE
:1022200000000000000000000000000000000000AE
:10223000000000000000000000000000000000009E
:10224000000000000000000000000000000000008E
:10225000000000000000000000000000000000007E
:10226000000000000000000000000000000000006E
:1022700091832000E93620000D3720009D2D20009D
:1022800079392000C528200091832000FF224824AE
:1022900008B5084B08481A60084AE369121A084949
:1022A00098470848084AA369121A0021984700F085
:1022B0000DF8FEE7B4200D4040000020570100203B
:1022C000809F2000580100206711002073B500F0A6
:1022D00047FC00F0FFFC00F05DFC00F061FA01F04B
:1022E00039FB06F035F900F0EDFC00F0B3F8012001
:1022F00006F052F802F070FA00F01EFC002000F028
:1023000039FB012000F036FB4049002000F0FEFBC5
:1023100002F0AAFB62B6042006F03EF83C4806F044
:10232000A0F83C4806F09DF800F0D8F9002002F033
:1023300047FC01F0FFF90021374802F0DBFA02F018
:1023400097F806F055F800F04DFD00F069FD02F039
:10235000A7FF0821684601F023FB9DF806309DF891
:1023600007502E4C45EA0325BDF806302C48238043
:1023700001F0A2FC2B4E21782B4801F09DFC6178E6
:102380002A4801F099FCF46A4AF6CD310220A047B0
:1023900029460320A0471A210120A04708226946A8
:1023A000736B0B209847224801F086FC214B18687C
:1023B00006F057F8204801F07FFC204B186806F023
:1023C00050F81F4801F078FC1E4B186806F049F8D9
:1023D00000211D4802F08EFA1C4B01219B688120D0
:1023E000984706F097F81A4806F08AF800F0AAFB1A
:1023F000022005F0D1FF00F0ABFB02F005FA10F06F
:10240000FF0FF8D101F03AFAF5E700BF214A2000AA
:102410001091200022912000780000205E11002001
:1024200047912000448F2000659120006B9120008F
:102430007191200018902000789120004890200091
:102440007F9120006490200098000020CC8E200016
:10245000A090200008B500F0E5F80022014B1A70AA
:1024600008BD00BF6C0E0020024A1378184310709C
:1024700000F0FCB86C0E0020034A137823EA000039
:10248000107000F0F3B800BF6C0E0020024A137801
:102490005840107000F0EAB86C0E002018B1012806
:1024A00004D000207047034B18687047024B18781F
:1024B000704700BF20900D406D0E002010B5094AF6
:1024C0000020137801331370074B197802F0EAF9F2
:1024D000BDE8104005490023054A0968054801F098
:1024E000FDBF00BF6D0E002060110020B001002074
:1024F000BD24200090010020812808B52BD0B0F524
:10250000807F3AD0802824D102F058F91C4B1D4A14
:1025100018701368032123F00803136052F8203C5D
:10252000002023F0080342F8203C52F81C3C23F022
:10253000080342F81C3C52F8183C43F0080342F8E8
:10254000183C042200F0D4FB032200210E4800F0C6
:1025500073FB012108E00D4B0D481A6831B142F0C0
:1025600008021A6001230360084608BD22F0080231
:102570001A600123C0F88030F6E7064B1960E8E7DF
:102580006011002020940D409925200010940D40EA
:1025900000E100E0B001002008B50F4805F0E6FFBB
:1025A000C8B108210C4805F0D5FF0C4B196849B19A
:1025B00000220B4B1A700B4B1B6843B90A4A0B489D
:1025C00001F08CFFBDE80840094802F0C9BA07488D
:1025D00001F0AAFFF6E708BD88010020B001002045
:1025E0006D0E002020900D40BD24200090010020A1
:1025F000CC8E2000084A136823F00403136052F8BD
:10260000203C43F0040342F8203C0022034B1A60B4
:102610000122034B1A70704720C40D4010C00D40BA
:102620006E0E00200D4A0E49136823F0C00313609C
:1026300052F8203C43F0C00342F8203C0022094BF2
:102640001A600B6823F010030B6051F8203C43F034
:10265000100341F8203C044B1A60704720A40D4041
:1026600020C40D4000A30D4040C00D4010F00202F8
:1026700018BFFF22084B1A6010F0040218BFFF2297
:10268000064B10F001001A6018BFFF22044B14BF64
:102690001A601860704700BF00A20D4000A10D40F5
:1026A00040C00D40044B1868C0F30720030904BF65
:1026B0001030C0B2704700BF1C300D40064B186888
:1026C000C00910F0060F03BF00F00700C0F10200C0
:1026D00040034FF40040704714300D402DE9F0479F
:1026E000482588B0FFF7DEFF164B07461C68AB682D
:1026F00098476B68804698470546FFF7DFFF064618
:1027000000F082FA814600F08BFA824600F038FA37
:10271000B60A04F00103AD0AC4F34004CDE905A0F4
:102720000393CDF8109002940196009507F00F03E3
:10273000C7F307124146044801F0BEFA08B0BDE8ED
:10274000F08700BF1C300D408D9120002DE9F8432B
:1027500000F07AF810490246D1E90045AC46A042A3
:1027600038BF05F1010C6346C1E900230B48D0E9ED
:102770000089B8EB040169EB05048E1844EB0C07E3
:10278000C0E9006701F084FF18B1BDE8F84301F02B
:1027900003BFBDE8F88300BF60010020580100209E
:1027A000E0210D4B0D4A5A600D4A82F82310002299
:1027B00007219A6019600B490B6843F001030B6015
:1027C000094B1A60042243F80C2C012243F8082C10
:1027D0000F22DA62704700BF10E000E047E8010016
:1027E00000ED00E008200D400C000340034BD3E94E
:1027F0000023100A40EA0360704700BF6001002018
:10280000054B18601C3B1A6842F001021A601A68F6
:10281000D207FCD4704700BF2800034010B5064C17
:10282000236823F001032360FFF790FF236843F040
:102830000103236010BD00BF10E000E0014B1868E9
:10284000704700BFB4010020064B18685A6808336F
:102850001B681B0443EA0223034A0343106843EA4C
:102860000060704740500D404C500D40014608B587
:10287000104A1368DB07FCD572B6FFF7E5FF0B1AA9
:10288000062BD8BFC11D0C4B0A0E1A60C1F30742BC
:1028900043F8042CC1F3072243F8082CCAB243F8CA
:1028A0000C2C62B64FF40032044B1960044B1A61D1
:1028B00008BD00BF50500D404C500D40B4010020E9
:1028C00000E100E008B500F0C1FF0022064B1A60ED
:1028D0004FF40032054BC3F89021C3F89020BDE8B7
:1028E000084002F03DB800BFB401002000E100E064
:1028F0002C23154A70B503FB00234FF6BF72DC682A
:102900000546236C626413F050020DD00F4EA3698C
:10291000DB0600D570BD56F825301BB12068C0B26B
:102920009847F4E72368F2E713F4D06FF2D04FF43E
:1029300040732363FF236360E36AE262E362236B15
:1029400043F001032363E5E7DC8E2000B80100209B
:10295000064B1B681B075FBF054B186880F008001B
:10296000C0F3C00048BF0020704700BF18C000403F
:1029700018D0004001282DE9F74F064600F2B48038
:102980002C2545435A4F7C1994F92080B8F1000F4B
:10299000C0F2AA8094F92290B9F1000FC0F2A4808D
:1029A000544800F0C5FF544A79591368E5680B4351
:1029B00013605368616894F921A00B4353609368D6
:1029C000A1685FFA89FB0B4393600023C5F8C83FF9
:1029D00023690AEBC8021A6094F92330227D009320
:1029E0009DF8003058461946019300F08BF9019B81
:1029F00008221946584600F07BF901233F494FEA67
:102A00000939009A59F8010003FA02F2024349F821
:102A100001204FEA083858F8010003FA0AF202438D
:102A200048F801205022AA63AA6B94F9240042F4CA
:102A3000D062AA6302226A634FF440722A63A269D9
:102A400000286A62E269AA624FF07002EA620D46EB
:102A500014DB94F925102A4A41EAC00414600203E9
:102A600054598B4023435351C9B20022C0B200F0E5
:102A70003FF9244A136843F4004313602C2303FBFB
:102A8000067393F92640002C1BDB93F927A05FFA0D
:102A900084F85FFA8AF901224946404600F032F98B
:102AA00001232403625903FA0AF3134363510822F2
:102AB0004946404600F01CF9124A136843F480432B
:102AC00013602C2303FB0676F268136B43F00103BB
:102AD0001363012296F82830590903F01F0302FA04
:102AE00003F3094A42F8213003B0BDE8F08F00BF7C
:102AF000DC8E20005129200028200D4020940D401C
:102B000004410D4030D0004000E100E001289CBFAE
:102B1000014B43F820107047B8010020012808D865
:102B20002C22044B02FB0030C3689A699206FCD445
:102B300019607047DC8E20000022014B1A6070473C
:102B400000500D400822014B1A60704700500D40A4
:102B5000A022024B1A6050221A60704700500D40AC
:102B6000014A024B9A6070470020200000ED00E00F
:102B7000024B1868C0F38150704700BF04200D401D
:102B800008B5FFF7F5FF024B53F8200008BD00BF62
:102B9000348F200038B5164D164C2B68012223F0D7
:102BA00040032B602368062123F0400323600320A9
:102BB00000F09EF82B68012223F080032B6023682D
:102BC000072123F080032360032000F091F80A4BD3
:102BD0000A4A0B491A600B4A134610680842FCD196
:102BE0001A685101FCD41A685201FCD538BD00BFE7
:102BF00020C40D4000C40D4000200D400101020022
:102C00000000010104200D40034B04481B6803F041
:102C100007031841704700BF04200D400048E80139
:102C2000034B04481B68C3F302231841704700BFDD
:102C300004200D400048E801024B02EBC10243F8BA
:102C400022007047C0010020F8B507460E46002458
:102C5000084D05EB411547FA04F3DB07E1B204D553
:102C600055F824300BB1304698470134082CF2D186
:102C7000F8BD00BFC00100202DE9F8430746DFF88A
:102C8000408000F0E3FD0C4B3D03EE5855F8084042
:102C90004FEAC70924FA09F446EA04003946C0B2EB
:102CA000FFF7D2FFE4B2054BF6B204FA09F4EE5096
:102CB00045F80840BDE8F88318940D401C940D4079
:102CC00018970D4080220021014805F0D7BA00BFB7
:102CD000C0010020034B044A1A60044B803A1A607A
:102CE000704700BF4002002080400D404402002099
:102CF000034B01EBC0011B6843F82120704700BF64
:102D000040020020034B01EBC0011B6843F8212067
:102D1000704700BF440200200E28F0B50BD1154DBE
:102D2000154F2C6844F002032B603D6825F03F06E8
:102D300046F001063E60114E336823F0FF03134353
:102D40000B4303430E4A336013681B06FCD50D4B3F
:102D50000D4A1B6812680E2803F0FC0343EA0223A5
:102D600008BF054A1BB204BF1560024A184608BFD7
:102D70001460F0BD34000144F486084008700D4032
:102D800000700D400C700D4010700D40024B186823
:102D9000B0FA80F04009704700B708404FF4004295
:102DA000064B10B5064CC3F89021C3F8902020685C
:102DB00018B101F0B7FD0023236010BD00E100E071
:102DC00048020020064A136843F002031360536868
:102DD00043F002035360936843F00203936070472B
:102DE00048200D4007B50C4800F0A2FDFFF7EAFFB0
:102DF0000A4B1A6842F002021A6000220192019AFC
:102E00000F2A06DD1A6822F002021A6003B05DF88C
:102E100004FB019A0132F1E78D2D200054200D4072
:102E2000064A136823F002031360536823F0020379
:102E30005360936823F002039360704748200D406D
:102E40000B4B1A689207FCD41B685B065FBFED2230
:102E5000084B1A601A60084B1B6813B1EF22054B30
:102E60001A60064A0120137803F07F03137070473D
:102E70004C860840388808402C860840710E002097
:102E8000044B186800F02200A0F12003584258417A
:102E9000704700BF4C860840024B186800F04000A5
:102EA000704700BF4C860840044B1A6818B142F0C6
:102EB00001021A60704722F00102FAE7008608401A
:102EC000204B1870002832D01F4A13681B03FCD512
:102ED0001E4B1A6842F002021A601A6842F00102A0
:102EE0001A601A685007FCD51A6822F001021A60AD
:102EF0001A685107FCD41A6842F002021A601A6874
:102F000042F001021A601A685207FCD5104A136891
:102F100023F004031360D2F8A83123F00403C2F8AD
:102F2000A8314FF400520B4BC3F890207047084A69
:102F3000136843F0040313604FF40052054B1A6109
:102F4000704700BF700E002004200D400488084028
:102F50008C86084000E100E0084B93F90020002A2D
:102F600009DBED21064A11601160E32111601A7836
:102F700062F07F021A700120704700BF710E0020BE
:102F800038880840A0F10B01CBB20F2B10B50446D6
:102F900013D80B4B1B6813F03F0302D0FFF750FF11
:102FA000012301EB8101074A0B3111600BB1FFF7DF
:102FB000D3FF054B60B21C7010BD4FF0FF30FBE734
:102FC000488608403C8608405401002010B50C4655
:102FD000002900F08680102800F28580DFE800F0EC
:102FE00009101B22243B44575C727683837B7D54FB
:102FF0007F003E4B1B68003318BF0123236024E091
:1030000005223B4B1B6803F07F030B3B93FBF2F362
:103010000B33DBB2F2E7374B1A68043B1B6843EA19
:103020000223EBE7344BF7E700230B60334B344AC2
:103030001B6803F001030B601268900644BF43F065
:1030400002030B602F4B1B780BB900200BE00B68C1
:1030500043F00403D2E700202B4B08601B78002BC1
:10306000F3D001230B6010BD284B29491A680023B7
:10307000D2B201EBC3000079904202D851F833304C
:10308000BCE701330E2BF4D16FF01703B6E7214BE9
:103090001B685BB2493BB1E71F4B1B6899060FD118
:1030A000FFF75AFF01231D490A68D207FCD51C4AC5
:1030B0001168493949B20BB1FFF7C2FE2160C4E77C
:1030C0000023F0E7174B93F9003097E7164B1B7876
:1030D00003F07F0392E70B2390E71A238EE7072381
:1030E0008CE70220BFE70120BDE700BF2C86084027
:1030F0003C860840CC850840D485084000860840BE
:1031000024860840700E00205501002040860840AB
:103110007C8F200058860840488608406486084016
:1031200060860840720E00206F0E002008B50B4B21
:103130001B6899060FD1FFF70FFF012308490A68A2
:10314000D207FCD5074A1168C1F300110BB1FFF794
:1031500077FE084608BD0023F0E700BF4886084018
:10316000648608404C86084008B507285BD8DFE82D
:1031700000F0040F1A21253B4155012903D1FFF727
:10318000EBFE002035E000294FD1FFF759FEF8E7AC
:10319000A1F10B030F2B48D8C8B2FFF7F3FE0130A3
:1031A000EFD1032025E089B2214BCAB2090A1A6087
:1031B0005960E6E789B2CAB21E4BF7E731F0070360
:1031C00033D101F00100FFF76FFE1B4B11F0020F2E
:1031D0001A68C1F3800014BF42F0200222F02002DE
:1031E0001A60FFF76DFECCE731F001001DD1134BE3
:1031F000197008BD01F118031F2B16D80D23104AB2
:1032000052F83300814205DC02EBC3031A790D4BFF
:103210001A60B6E713F1FF33F2D2B2E7C9B20A4B34
:1032200049311960ADE70120E3E70220E1E700BF83
:10323000C8850840D08508402486084055010020F4
:103240007C8F2000408608405886084038B50546E7
:103250000C46134A13689B07FCD4124B93F90030B9
:10326000002B01DBFFF778FEEE220F4B691E1A6080
:103270001A60A21C43F8102C2144022000F074FABA
:103280000A49013C41EA0411022000F07FFA0220C1
:1032900000F086FA022000F09BFA002038BD00BF43
:1032A0004C860840710E00203888084002C001C0DA
:1032B000F8B5224B93F90030002B18DBFFF7C4FA66
:1032C0000446FFF749FEC4F1FF2404F57F04F634F9
:1032D000FFF7BAFAC442FBD40126194B1B7843B955
:1032E000184C2368990609D502210846F8BD002626
:1032F000F3E7FFF71BFF0028F2D1F5E7E9230427E6
:10330000114D2B6023689A0703D4013F17F0FF0784
:103310000BD123689B070CD4EE2301212B602B607B
:10332000002EE2D0FFF78CFDDFE70620FFF768FAFA
:10333000E8E7216811F00201FBD1F1E7710E0020EE
:10334000550100204C860840388808400B280DD1D4
:10335000082A0DD161B1074B074A083111F8010D58
:1033600043F8040B9342F9D10020704701207047C5
:1033700002207047A8850840C885084070B5304EC7
:10338000336813F0400358D02E4D2C68230605D522
:10339000ED2200202C4B1A601A6070BDE4B2042CA0
:1033A000F6D9023C8C42F3DCE4B2032C1ED12B682C
:1033B00003702B6843702B6883702968234B49394D
:1033C00049B219702B68224D18062B70E0D589B2CE
:1033D000042001F03BFF2978032001F07F0101F078
:1033E00035FF1C4B1B78CBB12046D6E701190139BC
:1033F000032000F0C1F9184B611E43EA01110320BC
:1034000000F0C4F9032000F0CBF9032000F0E0F94C
:10341000032000F0E9F90028FAD1CEE733685A0614
:10342000E2D533681B0603D50C4801F07BFADBE7D5
:10343000ED22054B1A601A60D6E71846ADE700BFCB
:103440004C8608402888084038880840720E0020C2
:103450006F0E0020700E002002C0010C50000020F2
:10346000F8B5294F3D7815F001054BD10124F8221C
:10347000264B7F261C605C609C60A3F59323A3F51C
:1034800014731A600922C3F89021152270331A6050
:103490000B2203F59B2303F59E731A604022A3F5CC
:1034A0009B23A3F5F0731A601A6842F020021A6099
:1034B000D52243F81C5CDE62DA61154B1878FFF701
:1034C00061FD4FF48042134B02201E60124B1A61C3
:1034D00000F072F91149022000F04EF9032000F0CB
:1034E0006BF90E49032000F03FF90D4B1878FFF7F8
:1034F000E7FC0C48294601F0FDF920463B782343C0
:103500003B70F8BD0020FCE7710E0020A8200D40A4
:10351000540100209486084000E100E0288808401B
:10352000700E00205000002038B50388044653B3C5
:1035300040F20342934233D11B4B18781A4638BBF2
:10354000822923D1137873B901F032FE01F0BEFD58
:103550008021FFF713FF002805DD80B201F076FD22
:10356000124B1B699847124B1A7852060BD5002252
:103570001A70104B1D68FFF763FCFFF771FFAB0675
:1035800001D0FFF7E9FC40F20343238001200AE069
:103590001B78002BFAD0064B1B785806F6D5CFE7E0
:1035A00000230380032038BD700E002064902000AB
:1035B000710E0020488608400B282DE9F0470C4684
:1035C0000FD1082A79D1002977D03D4B3D4A4C1EB6
:1035D00053F80419934204F8011FF9D10020BDE803
:1035E000F0870C2867D1042A67D1002965D0364BB3
:1035F00036491A68DFF8E48022F007021A600A6888
:10360000334F42F008020A60D8F800003A681D689B
:10361000DFF8CCE025F07005DFF8C8C01D60DEF8EB
:103620000050DCF80060C0B2120240EA066092B2BC
:1036300002434FEA0549274809F47F09D0F800A062
:1036400042EA09061A685FFA8AF522F0070242F098
:1036500001021A600A6842F008020A60D8F80020E5
:103660003F68196821F0700141F010011960DEF81F
:103670000010DCF800C0D3B23A0243EA0C6392B205
:1036800013430A04016802F47F0243EA02085FFA66
:1036900081F9FFF7D9F8B6EB080165EB0905ED03F1
:1036A00007460D4AC803002345EA514104F0BCFB1C
:1036B000381A206092E7012091E702208FE700BFCF
:1036C000C4850840A4850840108808400488084044
:1036D000188808401C8808400048E8011488084001
:1036E000248808402088084008B5054B1B7813B98A
:1036F000044801F017F90022034B1A6008BD00BF0F
:10370000700E00205000002034880840064B074807
:103710001A68042A1FBF06490A7842F040020A705C
:1037200000221A6001F0FEB82C88084050000020EA
:10373000710E002008B5094B40220021184604F004
:103740009DFD0121064A074B116050604FF48042F5
:103750005A604FF400425A6008BD00BF00000020CC
:1037600004F00F4000E100E003289EBF014B000180
:10377000195070470000002003289EBF024B03EB46
:1037800000135960704700BF0000002003289EBF4F
:10379000024B03EB00139960704700BF000000204C
:1037A000032805D80123034A834011680B431360A3
:1037B000704700BF28F00F40032805D80123034AB3
:1037C000834011680B431360704700BF20F00F4027
:1037D000032805D80123034A834011680B43136073
:1037E000704700BF14F00F4003289FBF044B03EB4A
:1037F0000013986800F0070088BF0020704700BFE2
:10380000000000204FF0FF32014B1A60704700BFEC
:1038100004F50F400122014B1A6070474CF00F4035
:10382000084B19461A68D002FCD4074B1A6822F4D8
:1038300080321A600A68D203FCD41A6842F400325B
:103840001A60704704200D4000200D4010B5094C4F
:10385000226890070DD0084B1A4619684901FCD41C
:1038600013685B01FCD5FEF7D9FFFFF7D9FF0023F2
:10387000236010BD58200D4004200D4038B5264B64
:103880001C6814F03F0414D1244D55F8043B23B1B7
:10389000984770B10134052CF7D1214D2B7843B1F5
:1038A000FEF7CCFF0446FEF7CFFF201A092800D907
:1038B0000CB930BF27E01B4B1A6822F400321A60A3
:1038C000194A11461068C002FCD41A6842F48032CA
:1038D0001A600B68DB03FCD5FEF7B6FF201A092837
:1038E00003D8BDE83840FFF79BBF63280F4C0BD9C6
:1038F0002B78022B08D1236000F0CAFF30B1FFF70C
:103900008FFF0023236038BD0123F4E7FEF796FF05
:103910000028F4D0CDE700BF488608404C020020C4
:10392000730E002000200D4004200D4058200D4053
:10393000074A10B50023144652F8041B814202D0F6
:1039400011B944F8230010BD0133052BF4D1FAE777
:103950004C0200200022054B05491A600B6943F018
:1039600004030B61034B1A70704700BF58200D40D1
:1039700000ED00E0730E00204FF48032064B10B5CE
:10398000064CC3F89021C3F89020206818B100F0CD
:10399000C9FF0023236010BD00E100E060020020A9
:1039A00070B5184B1A78431E1AB9174A1278122AA2
:1039B0000AD001F52011154A2731914216D011F88D
:1039C000010903F8010FF8E7114A12784B2AF0D1E8
:1039D0004C0804F520120D4D2732AA4207D10023CE
:1039E00001F5201120442731A34205DB70BD12F8F8
:1039F000016903F8016FF0E7CA1A1278013300F881
:103A0000012BF1E72B0028002A00280027002800BE
:103A100029002800002918BF0421054A02EB0032C2
:103A2000505810F008001CBF5058C0F340007047B9
:103A30000400034038B500230D4CDDB200212846B8
:103A4000FFF7E8FF28B11A031259D10701D500206A
:103A500038BD01212846FFF7DDFF18B11A031259BE
:103A6000D205F4D40133042BE7D10120F0E700BFE5
:103A70000C0003402DE9F04F9A46584B1546421E64
:103A800085B09A4206460F469DF8389004D86429BE
:103A900002D8BAF1030F07D9514804F0E2FC4FF005
:103AA000FF3005B0BDE8F08F5AEA090301D14D4857
:103AB000F3E72B460A46CDE900A901464A4800F043
:103AC000FBF84A48FFF734FFB9F1010F14BF012397
:103AD0004FF48073039314BF002304234FEA0A3882
:103AE00014BF4FF0400B4FF4804B08F1804404F5B5
:103AF00040341A4621463E48029300F0DDF8012189
:103B0000DFF80891039B58F8092043EA0B0322EAE7
:103B10000303384A0393136801FA0AFA43EA0A03D3
:103B2000136053684AEA0303536093684AEA030345
:103B300093600023042248F809302260029A14445A
:103B40006360636843F008036360636843F00203E3
:103B500063605FB955B958F8093043EA0B0B039B12
:103B60004BEA030348F8093000209AE7FFF74CF8C6
:103B7000B0FBF6F627B1642577430137B7FBF5F5BF
:103B8000FFF742F832462B4601461B4800F094F8F6
:103B9000B3B2013BA362ABB2013BC6F30746C5F328
:103BA00007452363A663256458F80930134843EAA0
:103BB0000B0B039B4BEA030348F80930A16A00F0A2
:103BC0007BF8216B0E4800F077F8A16B0D4800F0F0
:103BD00073F8216C0C4800F06FF8C5E7FF70020025
:103BE0007892200092922000C9922000353A20005D
:103BF000EE92200008200D400C9320002593200019
:103C000035932000449320004F9320000C00034084
:103C100001292DE9F04106460F461446984601D881
:103C2000032806D91F4804F01CFC4FF0FF30BDE804
:103C3000F081FFF7EFFE08B91B48F4E7032C01D829
:103C4000072B01D91948EEE7012F4FEA460514BFAB
:103C50000D350E3519462046EAB2FFF753F82046D7
:103C600008224146FFF744F80123012F0CBF4FF40F
:103C7000807001200E4A2403A15803FA08F30B4375
:103C8000A350A2F529223103A2F214428B58034318
:103C90008B5008482B463A46314600F00DF800207C
:103CA000C5E700BF92932000AA932000CA9320008A
:103CB00020940D405A9320000FB407B504AA52F87F
:103CC000041B0448019200F021F803B05DF804EBF6
:103CD00004B070476000002070B505460C460A4EDF
:103CE000102C07D874B12B68224668680649BDE8D5
:103CF000704018472B68102231466868984710B901
:103D0000103CEDE7204670BD2C9420002DE9F04FCB
:103D10008046154600268FB00791079B1B78002B25
:103D200000F05283079B1A781C460133002A00F0EA
:103D30003A83252AF7D1079B9C4205D036E32378A6
:103D40003E44002B00F040836378621C002B00F09F
:103D50003B830024104610F8011B13462B2916D074
:103D60000AD8202916D0232917D0A1F13107082F0E
:103D70003FD84FF0000A18E02D2904D03029F4D1A3
:103D800044F0100401E044F001040246E2E744F08C
:103D90000604FAE744F00204F7E744F00804F4E705
:103DA0000A2303FB0A1AAAF1300A134612F8011B70
:103DB000A1F130000928F3D91A782E2A35D1597883
:103DC0005A1CA1F13000092828D800271178134681
:103DD000A1F13000092802F101021AD91A786C2ADF
:103DE00040F090805A786C2A22D144F0800402334B
:103DF00021E02A290AD1D5F800A00346BAF1000F24
:103E000005F10405B8BF44F00104D5E74FF0000AFE
:103E1000D2E70A2303FB0717303FD7E72A2903D14C
:103E20002F6802330435D9E713464FF0FF37D5E743
:103E3000013344F060041A78642A00F0908000F2A4
:103E40008380462A00F0AD806FD8252A00F0BE801E
:103E500064D8002A00F0B8820133079304F4E063C9
:103E6000B3F5806F00F0578200F2B380B3F5807F26
:103E700000F0EC80B3F5407F7FF44FAF8F4B14F42C
:103E8000804F8F4A08BF1A460DF1330300211F46A9
:103E90002868043550EA010C40F07282FF1A04BF12
:103EA000302203F8012C4FF0780208BF03F1FF33F2
:103EB00003F8012C4FF0300208BF012703F8022C51
:103EC00023220337BA458CBFAAEB070A4FF0000A3A
:103ED00014F00104A3F1030903F8032C06D15146A1
:103EE0004046FFF7F9FE002840F06C82D8F8003019
:103EF0003A464946D8F804009847002840F06282C4
:103F00003E4433E2682A96D15A78682A02D144F0B6
:103F100020046CE7013344F040048CE7412A4CD084
:103F2000452A99D144F4424496E7582A33D004D81C
:103F3000472A91D144F4A1348EE7612A3AD0632A0A
:103F40008AD144F4A06487E76E2A3CD00AD8662A56
:103F500024D029D3672A2AD0692A7FF47DAF44F47C
:103F6000245479E7732A2BD007D86F2A10D0702AEF
:103F70007FF472AF44F440746EE7752A05D0782A56
:103F80007FF46AAF44F4C85466E744F4106463E70E
:103F900044F4885460E744F4B2445DE744F40074A8
:103FA0005AE744F4844457E744F4024454E744F4A1
:103FB000813451E744F4C1344EE744F4E1344BE733
:103FC00044F4806448E744F4E06445E744F4C064A2
:103FD00042E7B3F5C06F2DD0B3F5E06F00F0DF819D
:103FE000B3F5A06F7FF499AEBAF1010F38BF4FF06F
:103FF000010A2B6814F0010405F104058DF8203046
:104000000AF1FF3707D139464046FFF765FE002821
:1040100040F0D8813E44D8F80030012208A9D8F8F1
:1040200004009847002840F0CD81002C00F0A181C9
:104030003946E0E0D8F8003001222249D8F80400DF
:104040009847002840F0BE81013666E6002FACBFDD
:1040500024F01004012714F4005204F0E003069247
:1040600032D0402B23D008D823B3202B0FD00022EE
:104070000023CDE90023002317E0602B1AD0802B0A
:10408000F5D1073525F00705F5E8022303E095F99A
:104090000020D3170435002A73F10001E9DA5242F7
:1040A00063EB4303CDE90023012303931DE0B5F93E
:1040B0000020EEE72A680435D317ECE75D94200072
:1040C0004C9420007F942000402B00F0AF8000F241
:1040D0009980002B00F0AC80202B00F0A080069B84
:1040E000002203930023CDE9002304F4C053B3F569
:1040F000805F00F0D480B3F5C05F00F0D580B3F5E9
:10410000006F00F0B68000230DF1360B0493049B82
:1041100041F208029F4288BFFF1A41F6080304EAF1
:10412000030198BF002791421A4602D1002F08BF11
:104130000127049B914203EB070040F0CF80DDE9AB
:104140000023134300F0CA80A14914F4804FA14B0F
:104150004FF0020918BF0B46069A72B1039A002A63
:1041600040F0C08004F00602022A00F0BF80062A58
:10417000994A04BF4FF00109134609EB000292452A
:104180008CBFAAEB020A4FF0000A14F00102009261
:1041900004D1E10640F1AE8057449246B9F1000FD8
:1041A00009D0D8F800404A461946D8F80400A0477C
:1041B000002840F007813C46049B1E44102CD8E99F
:1041C000003000F2A1802CB1224684499847002893
:1041D00040F0F880D8F80030049A5946D8F8040026
:1041E0004E449847002840F0ED80009B3E44002B51
:1041F00000F0BF8051464046FFF76EFD002800F0FA
:10420000B880DFE0602B13D0802B7FF468AF0735D8
:1042100025F00705F5E80223CDE9002304E02A781C
:104220000023CDE900230435069B3EE72A88F7E703
:104230002B68002219460435CDE90012F4E7DDE9C8
:1042400004010A22002303F0EFFDDDE9040130320E
:104250000BF8012D00230A2203F0E6FDCDE904014D
:10426000DDE904231343EAD10DF13603A3EB0B037D
:104270004CE7DDE900230DF1360BCDE90423EFE730
:1042800002F0070130310BF8011DD10841EA4371FA
:10429000D8080A46034652EA0301F1D1E4E7DDE912
:1042A00000230DF1360BF6E74D4B14F4804F0DF162
:1042B000360B4C4908BF1946DDE9002352EA0300DA
:1042C000D2D002F00F00085C4FEA131C0BF8010D6E
:1042D000100940EA037002466346EFE74FF0000919
:1042E0004B4639E74FF001093F4B46E74FF00109D4
:1042F0003E4B42E7514640460393FFF7EDFC039BDC
:1043000000283FF44BAF5DE0102234499847002865
:1043100058D1103C52E7D5F800B00435BBF1000F7E
:1043200029D05B46994699F800200133002AF9D13B
:10433000A9EB0B09002F02DBB94528BFB946CA45D6
:104340008CBFAAEB090A4FF0000A14F0010404D153
:1043500051464046FFF7C0FCA0BBD8F800304A46A3
:104360005946D8F80400984760BB4E44002C7FF4AF
:1043700041AF5644D1E4DFF878B04FF00609D9E7F1
:1043800000F00F0C12F80CC04FEA111E03F801CD1B
:104390004FEA101C4CEA017C604671467AE52B68B6
:1043A00004351E60B9E4079B9C420DD0079B07991A
:1043B000E71A3A46D8F80030D8F8040098470028A1
:1043C0003FF4BDAC4FF0FF3630460FB0BDE8F08F84
:1043D0006E94200071942000749420003C9420007E
:1043E0005D9420004C94200076942000429320009D
:1043F00078942000F8B5038806461546CBB14A2BC1
:104400002BD188291FD1174804F0EBF80446C4B11A
:10441000231D9D421FD12146124804F0ECF8124D95
:1044200062692F682A60A2690AB1E06990472F602B
:1044300007E00C4804F0D5F8044634B901220B4BD0
:104440001A704A23338001200AE0A168201D04F07D
:1044500062F82468F1E72468D9E700230380032089
:10446000F8BD00BF64020020F0030020740E00209D
:1044700010B50024054B06481C7004F0AFF8214627
:10448000BDE81040034800F035BA00BF740E0020AC
:10449000640200206800002070B50446E3610B4B05
:1044A000049D1B78C4E905526BB1094D094B2E6878
:1044B000201D2B6004F02FF82E602146BDE87040CF
:1044C000054804F0ABB8A160F7E700BF740E002008
:1044D000F0030020680000206402002013B5034CA4
:1044E00024680094FFF7D8FF02B010BDF00300204D
:1044F00070B5094B05461B783BB1084C084B266844
:104500000430236004F010F826602946BDE87040AE
:10451000044804F083B800BF740E0020F0030020AC
:10452000680000206402002010B5084B04461B7888
:1045300043B1043000F0B4F82146BDE8104004480F
:1045400004F059B8C0E90333F6E700BF740E002049
:104550006402002010B50E4C236813B90D4A136095
:1045600010BDFEF743F92168D1E9002313448A689E
:104570001B1A1AB91844074B1860F1E7D2E9001466
:104580002144091A8B4228BF0B469268F1E700BF0D
:104590006C02002068020020014800F0C3B900BF8F
:1045A000780000202DE9F8430388054653B1592BC4
:1045B00047D1872920D1002024490B6863B918B15D
:1045C0000B6001E0214A1360592301202B80BDE8D4
:1045D000F88301203346F1E7D3E902649442F8D02E
:1045E00000B10B6099680029EED0C86890420ABFFC
:1045F00089680B469960F5E78229E5D1134F4FF0A2
:104600000009B84600263C68002CDDD0204603F0A7
:10461000ADFF98B122468821E06800F043F958B90F
:10462000E060A3682EB1B360C4F80890FFF792FF72
:10463000E8E7C8F80030F7E7FFF7AEFF2646A468C2
:10464000E2E7002303800320C1E700BF6C020020E3
:1046500010B50446FFF7A0FFE3680B4A0BB11368DF
:1046600033B90A4B1B68E36013681460A36004E06D
:10467000A34206D1054A1268DA60BDE81040FFF790
:1046800069BF9B68ECE700BF6C020020F0030020CC
:10469000024B1868003018BF012070476C020020E0
:1046A00010B50B4A04461368834208D1836813602F
:1046B000FFF750FF0023C4E9023310BD1346002B5F
:1046C000F8D09A68A242F9D1A2689A60F0E700BFD8
:1046D0006C02002038B5836804460D469BB10A4839
:1046E00004600220A07304F10C00984702380128EE
:1046F00001D9832D05D121462046BDE8384000F080
:1047000005B80123A37338BDF00300202DE9F84359
:104710001C4F04463D6889462B46A34204D00BB982
:10472000BDE8F8831B68F8E7002CF9D0164EA37B90
:10473000D6F8008063B10023A3738DB9A3683BB1A1
:104740004C4505D034602A46832104F10C0098477B
:104750003B68A3420ED123683B60C6F80080DFE7C8
:10476000A54204D022468721284603F0EBFE2D689F
:10477000E3E71346002BF0D01A68A242F9D1226871
:104780001A60EAE7F4030020F0030020002238B5A5
:104790000125084B1A70084B1C6804B938BDE37B2F
:1047A0002BB1E581002282212046FFF793FF246888
:1047B000F3E700BF780E0020F4030020024B1878C6
:1047C000421C1A70704700BF760E0020014B19681A
:1047D000FFF79CBFF00300208A22064B1A700023CB
:1047E000054A1370054A1370054A1360054A1360A1
:1047F000704700BF760E0020750E0020770E002057
:10480000F4030020F00300202DE9F0411B4D2B782C
:104810000BB1FFF7BBFF1A4C22789AB10C21194E4D
:10482000194F3378013A59430133781803F01F03C5
:1048300017F801803370D0E90170227090B9134BE2
:104840001E6826B92B7820781844BDE8F0812B78B3
:104850000BB1FFF79BFF30463A46414603F072FE2C
:104860003668EEE7B8F1810F08BF01233A4608BF6A
:104870008373414603F066FEE4E700BF780E002034
:10488000770E0020750E002070020020F403002037
:10489000024A034B10781B7818447047770E0020AB
:1048A000780E0020F0B50B4E3378202B0FD00C255E
:1048B000094C0A4F24781C4404F01F046C433D1932
:1048C000C5E901200020013339553370F0BD0120C6
:1048D000FCE700BF770E0020750E0020700200205C
:1048E00038B5034C256803F02DFE256038BD00BFA8
:1048F000F003002030B40A4C0A4625682B46834258
:104900000CD04BB950B101210560817320608381C7
:10491000812130BCFFF7E4BF1B68F0E730BC704773
:10492000F403002038B1837B013B012B9FBF01239F
:10493000014AC37313707047780E0020024610B509
:10494000064853600468029B11609360026014B9CA
:104950000846FDF78BFF002010BD00BFF8030020C4
:1049600010B5084C206858B100232360D0E901310C
:104970009847236823B1BDE810401868FDF776BF5B
:1049800010BD00BFF803002070B505880446672DF0
:1049900009D0792D2FD0002D33D1FFF70FFF1B4BFE
:1049A00018701B4B1D601B4E194D08E00A282B6820
:1049B0000ED07E2B03DC5A1C2A60174AD054304696
:1049C00003F0FCFD431CF1D16723238001201BE091
:1049D0005A1C2A600025104A2846D5540B4B1978DA
:1049E000FFF760FF0D4B2A4685211868FFF75AFF35
:1049F00018B97923E9E78529E8D10022044B1A6028
:104A0000D1E700230380032070BD00BF65110020A3
:104A1000FC03002000040020790E0020F003002099
:104A20000D2810B5014616D00C4C237853B90C480C
:104A300003F0B1FD08B9012323700A48FFF772FFA4
:104A4000012010BD0A28F8D1054803F0A4FD002874
:104A5000F3D00023F0E70020F3E700BFF90E0020B9
:104A6000000400208800002008B505490548802280
:104A700003F08AFDBDE8084000210348FFF73ABF74
:104A8000FA0E002000040020880000202DE9F041EB
:104A900004880646772C20D07E2C3DD0002C4ED1A9
:104AA000FFF78CFE284D294B294FDFF8B080187096
:104AB0002C602B6857F823202AB9264A13707723D5
:104AC000338001203EE008F80340936800218020F5
:104AD00098472B6801332B60EBE700231E4A1360D5
:104AE000194A1360184B1B4A1B6812789A4204DC5F
:104AF000194B1B68002BF0D1E1E7184AD256002A67
:104B000019DA134A002052F82320104B1978FFF7C6
:104B1000C9FE28B97E23D3E70C4B1B788B42D0D13A
:104B2000094B0E491A688B5C03F07F038B540A4AC9
:104B3000136801331360044A13680133D1E700237B
:104B400003800320BDE8F0810C04002066110020E2
:104B5000400000207A0F002008040020611100208E
:104B600010B40A4B0A4A197800238B4203DA52F830
:104B7000044BA04208D107490748CA5C62F07F0293
:104B8000CA5410BCFFF7CEBE0133EEE77A0F002007
:104B9000400000206111002098000020064A1368A0
:104BA00043F004031360054B186804331B6840EAA4
:104BB000032080B2704700BF00700D4014700D409C
:104BC00010B5174A136823F00C0313600122154B2C
:104BD0001A601A68012AFCD10822134B13491A6083
:104BE000E32203F505731A601A460B68DB07FCD550
:104BF0000F4C102100232068013900F0010043EA26
:104C000000034FEA43039BB2F5D1002BF1D00949D1
:104C1000180A03F0FE0308600B60EF23136010BD59
:104C200000700D40A8200D4024860840648608408E
:104C30009C86084014700D4010B50478437843EA10
:104C4000042303FA01F1044B985CC2F1080200EA64
:104C500021201041C0B210BDB2942000F8B5064624
:104C60000A480D46174603F0BCFC044630B93A46E4
:104C700029463046BDE8F84003F0D1BEA3680BB129
:104C800028469847204603F0E5FCEEE71004002094
:104C900038B500F0CFF80546094803F0A2FC0446F9
:104CA00028B95DB12846BDE8384003F0B3BE63685B
:104CB00003B19847204603F0CDFCF0E738BD00BFB4
:104CC0001004002010B5044600F0C2F838B100F01E
:104CD000D9F9034B034821469B689847012010BD32
:104CE000909020005D4C200070B50B4C0023616E4D
:104CF0000A4A04F13800FFF7F1FBFFF74FFF616E3E
:104D00000023B0FBF1F5064A05FB110104F1180080
:104D1000BDE87040FFF7E2BB14040020254D2000E1
:104D20003D4D2000044B5A6E196E5200914294BFC3
:104D300059665A66FFF7D8BF1404002010B500F07A
:104D400037FA00F0C3F900230380044600F04EF860
:104D50002288930008B1017B51B9981C80B200F001
:104D600075F9238873B1BDE81040074800F0B6B864
:104D7000818823445980C18801329980228003F0C0
:104D800069FCE5E710BD00BF140400209DF8003069
:104D9000012B04D1024B9A6D5A66FFF7A5BF7047ED
:104DA00014040020F8B50F4616461D46064C014671
:104DB000064A204600F080F8C4E9167625660448C5
:104DC000BDE8F84000F00CB8140400202490200046
:104DD0008D4D2000014803F001BC00BF800400207D
:104DE000014B1860704700BF84040020014803F0A5
:104DF000F8BB00BF800400202DE9F04106460C48B6
:104E00000C46174603F0EDFB08B9BDE8F081838836
:104E1000A34209D18568002DF7D03B462246314692
:104E2000AC46BDE8F041604703F014FCECE700BF7E
:104E300080040020054B10B51B689847044618B144
:104E40008188012000F002FA204610BD0C9020005D
:104E500038B5064B05465B6898470446A98801208B
:104E600000F0F4F9201C18BF012038BD0C90200080
:104E7000014B9B68184700BF0C902000014803F0CD
:104E8000ADBB00BF8804002081800146014803F0CB
:104E9000C5BB00BF8804002010B50446054803F0D8
:104EA000A0FB00B910BD8388A342FBD003F0D2FB66
:104EB000F7E700BF8804002070B505460C4616468B
:104EC000044A00F041F86E612046BDE87040024996
:104ED00003F06DBD2C902000C094200010B5044656
:104EE00004491A2000F0C0F92046BDE8104003F044
:104EF0008FBD00BF5E11002070B504461B200D461B
:104F000000F0BEF9064903F0C7FD38B1A3691B687C
:104F100023B129462046BDE87040184770BD00BF48
:104F20005E11002070B505460C461646044AFFF790
:104F3000C3FFAE612046BDE87040024903F037BDB3
:104F400034902000C494200070B505460C461646E7
:104F5000FFF79AFF2E612046BDE87040014903F03B
:104F600026BD00BFCA94200008B5044803F075FBB5
:104F7000BDE80840024803F070BB00BFB400002049
:104F8000A800002038B50E4803F077FB054650B165
:104F90000C4803F072FB0446286030B929460848E3
:104FA00003F07FFB2546284638BD00F097F804F152
:104FB000B601A4F8800004F1820000F01FF9F2E7C6
:104FC000A8000020B400002010B5014604460748A0
:104FD00003F07DFB48B12168054803F062FB2146E0
:104FE000BDE81040014803F05CBB10BDA8000020E4
:104FF000B400002010B501460446094803F067FBE1
:1050000068B12468B4F88010204600F0E1F804F19B
:10501000B60104F18200BDE8104000F003B910BDF4
:10502000A800002010B507490B88834208DB064C16
:1050300080B222880244181A08800120228010BD04
:105040000020FCE7580E00205A0E0020014B18806B
:10505000704700BF580E002000487047AC04002085
:10506000014B1888704700BF580E0020034A044BBC
:1050700010781B781844C0B2704700BF8B0F002017
:105080005A0E00202DE9F0410C4F3A8872B10024ED
:105090000B4B0C4EB3F800800B4B1D78354421B2FE
:1050A000414504F1010403DB00233B80BDE8F081AE
:1050B000FFF7DCFF3044435C6B54F0E75A0E0020EE
:1050C000580E0020AC0400208B0F002008B5FFF71D
:1050D000CDFF014B184408BDAC040020F8B50C4BC3
:1050E00005461E780B4B1F88F419802C0DDC3246C8
:1050F000094903F04DF8FFF7E9FF354401463A4608
:10510000284603F045F82046F8BD0024FBE700BF21
:105110008B0F0020580E0020AC04002008B5FFF7CC
:10512000A5FF024B1B88184480B208BD580E002012
:1051300010B50146FFF7F2FF4318802B12DC01384F
:10514000094B00B203444A1C002805DA074B1878C3
:1051500008441870012010BD13F8014901389C540F
:1051600000B2F1E70020F6E7AC0400208B0F00202E
:1051700038B50C4D0C4C342200210C4803F07EF85D
:105180002946204603F085FC2946A01C03F081FC3B
:105190002946201D03F07DFC2946A01DBDE83840AE
:1051A00003F077BCD8902000221100202A110020A3
:1051B0000023044A1380044A1380044A1370FFF743
:1051C000D7BF00BF5A0E0020580E00208B0F0020C2
:1051D00038B50C460546FFF7EBFF802C28BF80242E
:1051E00029462246034802F0D3FF034B20461C8089
:1051F00038BD00BFAC040020580E002010B5074B8E
:1052000003F1340253F8044B934240F8044BF9D1B4
:10521000034A13680B6053684B6010BD2A110020CD
:105220002211002010B5074B00F1340250F8044B56
:10523000904243F8044BF9D10B68034A13604B6862
:10524000536010BD2A11002022110020024B23F8C8
:1052500010100120704700BF2A110020014B33F8C5
:10526000100070472A11002008B5044B1A3803EBD0
:10527000400003F00EFC012008BD00BF22110020F9
:10528000024B1A3803EB4000704700BF2211002088
:105290000149024803F000BCD890200024110020EE
:1052A000084B10B51B689847074B5B689847074B3E
:1052B0005B689847064B5B689847BDE81040054B14
:1052C0005B681847448F2000649020009090200075
:1052D0004890200018902000F8B5FDF787FA114E8D
:1052E0000546002437461A20FFF7CAFF314603F06F
:1052F000D3FB80B10A20FFF7B1FF0C2303FB04743A
:10530000237A83420CD16068281AB0F5206F8CBFD5
:1053100000200120F8BD0134102C06F10C06E2D16A
:105320000020F7E72C05002070B5184D00242E460C
:105330001A20FFF7A5FF294603F0AEFB013418B988
:10534000102C05F10C05F3D10C23621E03FB046441
:10535000A4F10C057AB90A20FFF780FF3072FDF73F
:1053600045FA70601A20FFF78BFFBDE870400146D8
:10537000064803F08EBB2B4654F8180D013A6168BD
:1053800003C3A0682C461860E2E700BF2C0500208C
:10539000014B1888704700BF500100202DE9F041F3
:1053A000012986B006460F46144651DD03A903F0D5
:1053B000B4FC03AB03CB1B88206123839DF8113021
:1053C0006161002B48D0B51C02AA01A903A803F013
:1053D0006BFB9DF81380B8F1000F50D0029B2BB1EE
:1053E0006A7815F8023B03EB02239BB2B8F1020F77
:1053F000A38335D13349204603F04BFB6B782370F0
:1054000015F8023B63709DF81580B8F1000F50D07D
:10541000019B002B3AD06A7815F8023B03EB02237C
:10542000029A9BB2E38302B9A383B8F1020F30D191
:10543000244904F1080003F02CFB6B78237215F863
:10544000023B6372A81B3B1A8742C4E90E5300DA81
:10545000002006B0BDE8F081B378F51CA376B3E771
:10546000B8F1030FCFD105F108021346611E13F8FE
:10547000010D9D4201F8010FF9D11546C3E711490D
:10548000204603F006FBA4F81C80BCE7A38BE38353
:10549000CBE7B8F1030FD5D105F10802134604F1AB
:1054A000080113F8010D9D4201F8010BF9D11546D1
:1054B000C8E7044904F1080003F0EBFAA4F81E80E1
:1054C000C0E700BFD890200030B591B00546FFF787
:1054D0005FFF4FF6FF73984204D14FF0FF34204630
:1054E00011B030BD40220021684602F0C7FE404B9B
:1054F0001A782AB901221A70FFF750FB3D4B187039
:105500001420FFF7ABFE8DF810001320FFF7A6FE66
:105510008DF81200FFF7BCFE0446002848D0002397
:105520008DF813308DF81530002301248DF81430D8
:105530008DF818404DB10A20FFF790FE00283FD0AB
:105540000A20FFF78BFE8DF81A0002248DF819400F
:10555000FFF71EFFADF81C00FFF79AFE00283CD0B5
:105560004FF6FF738DF81740ADF80030FFF710FFCE
:10557000ADF81E001A20FFF783FE014602A803F0D3
:1055800088FAFFF7A3FD0E90FFF76AFD0F906846BB
:1055900003F034FB0446002DA1D0FFF7C9FD00281D
:1055A0009BD0FFF759FD0146684603F06FFB96E775
:1055B0000B20FFF753FE8DF815408DF81300B3E76D
:1055C0000C4B1A7802B91C7019780A204A1C1A7000
:1055D0008DF81A10FFF73AFEB7E71B20FFF750FED1
:1055E0000146684603F055FA8DF81740BEE700BF44
:1055F0008C0F00208D0F0020014BDB68184700BF87
:1056000090902000014B5B69184700BF6490200018
:10561000014B9B69184700BF64902000024BD8697A
:1056200000B10047704700BF6490200070B590F84B
:1056300029500F4B042D28BF04250124DB690646A1
:105640009847AC40651E041E08BF01246C4305D07A
:10565000FFF7A4FAB0FBF4F303FB1404334621462E
:1056600006F10800034ABDE87040FEF737BF00BFEF
:1056700064902000E55720002DE9F04107461B20EB
:105680008846FFF7FDFD484B05461A78474C22B97E
:1056900001221A70FFF782FA208023880BB90123B8
:1056A000238021880A204B1C2380FFF7CFFD404830
:1056B00002F097FF0446002845D13E4802F0DDFF86
:1056C0000446002865D02946201D03F0E2F9002396
:1056D00004F12C00C4E90B30238502F07FFF214642
:1056E000334802F09BFF206B02F0ADFF072850DC2F
:1056F000314802F0C2FF054600283ED02F4802F094
:10570000BCFFA860A8B3FFF73DFC686068B3092040
:10571000AE68FFF7A3FD00BB08233372C6E900782B
:105720000D20FFF79BFD01282946206B1AD102F0BE
:1057300082FF206B02F055FF854232D12046BDE842
:10574000F041FFF773BF2946201D03F0A5F900289B
:10575000C9D1204602F07EFFACE70920FFF77EFDAD
:105760003072DBE702F05AFFE3E7A968134802F062
:1057700098FF2946104802F094FF206B02F063FF67
:1057800038B921460A4802F036FF2146094802F09E
:1057900088FF41463846BDE8F0410123042203F06A
:1057A000EFBABDE8F08100BF8E0F00205C0E002034
:1057B0004C060020CC000020D8000020C0000020B3
:1057C00008B5054802F049FF044802F046FFBDE86D
:1057D0000840034802F041BFD8000020C00000206C
:1057E000CC00002013B5044668B1006B02F0F9FE4E
:1057F000024640B12146054B0548DB68019302B0E3
:10580000BDE81040184702B010BD00BF64902000F2
:10581000915820002DE9F0470D4614468B688046CC
:10582000D3E90067106B92F8289002F0E4FE6868F4
:10583000FFF7CAFBA968124802F033FF2946114856
:1058400002F02FFF206B02F0CCFE60B10023204657
:105850002385FFF7EBFE4B46424639463046BDE80E
:10586000F04703F08DBA04F10800FEF75DFE214613
:10587000054802F0C0FE2146044802F012FFEAE7A4
:10588000C0000020D80000204C060020CC000020E2
:105890002DE9F0410E461746044620B1006B02F098
:1058A000A0FE054608B9BDE8F0810A21686803F04A
:1058B000EAF880460A20FFF7D1FC804546D028460A
:1058C00002F0C8FEEDE794F8282000203A4484F85E
:1058D00028202946224684F82900BDE8F041FFF738
:1058E00099BF002284F8292094F828203A44D2B2A3
:1058F00084F828201B7A93421CD82246294602208D
:10590000EBE794F829203A44D2B2052A84F82920FA
:1059100007D9002194F8282084F82910013284F84E
:10592000282094F828201B7A9A4203D3224629463D
:105930000120D2E72046FFF779FE6868BDE8F04114
:1059400003F08DB8224629463046C6E7AB68002BE7
:10595000A9D0032EF6D801A252F826F0C75820008D
:1059600003592000E3582000A758200013B5002455
:10597000094B1C70094B1C80FCF766FF009400F17A
:105980008001074B01220748FEF7D8FF0122064B92
:105990001A7002B010BD00BFA60F00205E0E0020DE
:1059A000755E20003C070020A10F0020074B82B04D
:1059B0001B784BB1064B1A7832B901221A70054B8D
:1059C0001B6A019302B0184702B07047A10F002074
:1059D000A60F0020448F2000094B82B01B786BB1CA
:1059E000084B1A7852B1084A127802F0FF012AB91E
:1059F0001970064B5B6A019302B0184702B07047FA
:105A0000A10F0020A60F0020A20F0020448F20002D
:105A100008B5FFF7E1FF0022014B1A6008BD00BF87
:105A20004C070020044B1B7823B9044B1B680BB9AF
:105A3000FFF7D2BF704700BFA80F00204C0700201F
:105A40000022094B82B01A70084BC2B21A70084A81
:105A5000084B28B101211B6A1170019302B018474D
:105A600010705B6AF9E700BFA10F0020A20F0020B1
:105A7000A60F0020448F200037B50B4B1A7802F098
:105A8000FF056AB901241C70084B1D70FCF7DCFE91
:105A9000009500F18001064B22460648FEF74EFFB6
:105AA000012003B030BD00BFA10F0020A20F0020D5
:105AB000755E20003C07002037B50B4B05461B7870
:105AC0000C4673B1FCF7C0FE231A022B4FF0000303
:105AD00048BF841C00930122044B21462846FEF750
:105AE0002DFF03B030BD00BFA10F0020755E200068
:105AF00013B5224C22680AB9FFF76EFFFFF7B0FA20
:105B0000032823D0FFF70AFB00B31D4B9B6898477F
:105B100000281BDBFFF7A4FAC0B1FFF7FFFAA8B11A
:105B20001B20FFF7ADFB174902F0B6FF50B1132061
:105B3000FFF794FB206058B9FFF74EFF1248FEF7BD
:105B4000F3FC0DE0FFF7A4FB0028F0D102B010BD7C
:105B5000FFF72CFF00230D4A04210B48FEF7BEFC83
:105B6000FFF7BAFB0028F1D1FFF7DEFB084BDB683B
:105B7000019302B0BDE81040184700BF4C07002059
:105B8000849020005E11002018070020115A200088
:105B9000489020002DE9F04F784E8BB03378059077
:105BA0003BB9774B1B7823B9052528460BB0BDE8D8
:105BB000F08FFFF7B3FA0028F6D072491A20FFF7EA
:105BC00053FBFFF765FB80460C20FFF747FBA8B1AE
:105BD000FFF7A4FA4FF001096B4C01906568FFF7DD
:105BE0003BFA0199A847694FA36987F8009002938F
:105BF000984768B100233B700125D6E701210B20AF
:105C0000FFF724FB624B5B6898470028E0DACBE79C
:105C1000E3690393984705460028EBD1FFF7DCFEC4
:105C2000337886F80090DBB20493059B7BBB4FF082
:105C300006096FF0030A6FF00F0BFCF705FE0690E4
:105C4000FFF7B4FE0698AAEB00030693FCF7FCFDF1
:105C5000069BC342F9D46369984748B90190FFF79E
:105C6000BBFE01983870FFF7B7FE049B3370C3E7A3
:105C7000FFF7B2FEFCF7E8FDABEB00030693FCF781
:105C8000E3FD069BC342F9D4B9F10109D5D1B8F1BE
:105C9000000F01D1FFF78AFE0A20FFF7DFFA5FFA53
:105CA00080FBFCF755FFFCF7CFFD8146394B1B1AF3
:105CB00006936FF0CF0AAAEB090AFCF7C5FD1AEBB1
:105CC000000F4BD5FCF744FFB8F1000F3ED0A3689E
:105CD00001989847FCF7B8FD6FF00C031B1A079367
:105CE000FCF7B2FD079BC342F9D4B8F1000FE4D131
:105CF000029B9847002835D0FCF7A6FD6FF01409E9
:105D0000A9EB0009FCF7A0FD19EB000FFAD42369F9
:105D1000032109A8984703282DD19DF826305B451B
:105D200029D100244FF00109FFF756FE049B337080
:105D300000233B70002C7FF45FAFB8F1000F7FF4BD
:105D400034AF994514BF1D4602252EE7059B002B55
:105D5000BDD0FCF779FD069BC342B8D400244FF0B8
:105D60000009E1E7039B98470028C5D1636998477C
:105D700000289ED1C0E70124F1E700BFA10F002059
:105D8000A20F00205E110020448F2000A80F0020E9
:105D900084902000DEFDFFFF2DE9F14F0746884685
:105DA0001446002A5DD0304B1E685EB15068FFF784
:105DB00021F901231A464146384601B0BDE8F04FAB
:105DC00002F0DEBF1546DFF8A4A0DFF8A4B0284635
:105DD00002F040FC81466868FFF70CF90C20FFF7E1
:105DE0003DFAE8B9B9F1000F03D001211320FFF704
:105DF0002DFA51461A20FFF737FA01210B20FFF741
:105E000025FADBF804309847002802DA012305223E
:105E1000D1E701210C20FFF719FA686802F025FE8E
:105E20004D46002DD3D1204602F014FC0546606893
:105E3000FFF7E0F81320FFF711FA81463046FFF72D
:105E4000A9FE032804460CD00246012341463846E9
:105E500002F096FF2CB925B12C460126B9F1000FAE
:105E6000E1D101B0BDE8F08F4C0700205E110020A9
:105E70008490200040F2B1122DE9F3476D4C0546A5
:105E80002388934215D0B3F5D97F04D2002B00F0BC
:105E90008680002393E040F2E31293422ED040F23A
:105EA00002229342F5D10023634A1370634A1370B0
:105EB00007E0624A13780133DBB2012B137000F262
:105EC00082805F4B1A78002A70D15E4A1268002ADD
:105ED0006CD11B780BB9FFF769FD5B4B5B69984789
:105EE000002861D10122544B1A70FCF7ADFC574BCE
:105EF000574A186000231370564A1370504B564E81
:105F00001B78002B7CD13378002B79D0FCF79CFCDC
:105F10006FF4CC724D4B1B68C01A104400286FDA26
:105F2000494FDFF82C917B699847B84618B199F82A
:105F300000000130C0B2474FD8F818A03B7889F86C
:105F4000000001333B70D047002853D0002389F86C
:105F500000303B78D8F81C800A2B04D9D04710B900
:105F6000C04700284AD0C047002849D13B4B1B7886
:105F700093B12E68FCF768FC331A13F1120F4FF03F
:105F8000000348BF811C009358BF06F11401344B35
:105F900001222846FEF7D2FC40F2E3130FE0FCF7A3
:105FA00053FC304B18607EE7FFF73CFDFCF74CFCE0
:105FB00000F110012846FFF77FFD40F2B113238066
:105FC00002B0BDE8F0871C4B1B78002B8DD1254E0D
:105FD000336880333360FCF737FC3368C3F1A003C8
:105FE000C3427FF560AF31682846FFF765FD40F298
:105FF0000223E4E799F80030052BAAD9FFF712FD38
:106000003378002BE3D0104EB369984760B1FCF7AA
:106010001BFC0E4B1B68C01A6FF4CC73184400288D
:10602000D5DBFFF7FFFCD2E7F36998470028EED1F4
:10603000F7E700BF5E0E0020A40F0020A30F002092
:10604000A80F00204C070020448F200048070020A4
:10605000A70F0020A50F0020A60F0020A10F0020F1
:10606000755E20003807002008B5024B1B68984772
:10607000023008BD3C90200038B50C4B9B68984717
:10608000041E02DA4FF0FF3038BDFFF71FF8037827
:106090000546002BF6D10220FEF7C4FF0028F1D000
:1060A0006878FEF7D3FFA01CEEE700BF3C9020000D
:1060B00070B50220FFF73CF810B94FF0FF3070BD0B
:1060C000FEF7CAFF002505700446FEF7C9FF6070A1
:1060D000FFF724F80446FFF7C7FF20442A2812DC04
:1060E000C0F12B00C4B2FEF7F1FF0646FEF7B8FF81
:1060F00022462946304402F0C1F8FEF7B1FF2044A1
:1061000080B2FEF7A3FF044B5B689847041ED4DB04
:10611000FEF7B8FFA01CD2E73C902000014B9B6823
:10612000184700BF1890200070B504460D46142093
:106130000121FFF78BF8034B29462046BDE870404C
:106140009B68184748902000F8B503880546002B47
:1061500030D0812B46D1254802F0EFF900283FD0FE
:10616000234B01205C68A047224F234E3880022039
:10617000A0470320A04730800420A04701221F4BE6
:1061800039881A704FF47A72B1FBF2F15970318884
:1061900080B2B1FBF2F1B0FBF2F0194A99701268CB
:1061A000D870052118461A7102F07AFE0F4802F0E5
:1061B000BBF913E078211348FDF77EFD124A134B1B
:1061C00001211A600A4B81209C68A047104B0120D6
:1061D0001968A0478021054802F09DF981232B8092
:1061E000012002E0002303800320F8BD50070020B7
:1061F000B8902000600E0020620E0020A90F002041
:106200000401002096952000156220001C1100203A
:106210000801002008B5064B024619680548FDF73D
:106220004BFDBDE80840022286210348FEF73ABB39
:106230000401002012962000F400002037B50388E6
:10624000044673B1AC2B7BD13F4B1B788B4233D1CF
:106250003E4B9A422BD153680020984738BB2D22E1
:1062600021E03B4B0B21DD6A0120A84707210620D6
:10627000A84700F067FD00F06FFD00F073FB3548A4
:1062800002F0EFF800F0CAF8058800F0D5F82946CA
:1062900002463148FDF710FD2C4B80214FF48070F1
:1062A0009B6898472E2286212C48FEF7FBFAAC23E8
:1062B0000120238003B030BD8629F8D1284DD1B20A
:1062C00028482A70FDF7F8FC2B782D3B052B33D896
:1062D00001A252F823F000BFF1622000AF6220005B
:1062E0000B63200011632000256320002D63200034
:1062F0006FF0FC0305216846009302F0D1FD1A48B7
:10630000FEF764FA00F0C4FCD1E700F08BFCCEE7A6
:1063100000211548FEF7EEFA01F058F80522862113
:106320001148C2E701F042F80422F8E70E48FEF7F0
:106330004DFA00F0DDFCBAE70C4802F092F8B6E73F
:10634000002303800320B5E766110020CC8E2000D7
:10635000448F2000339520004C952000F40000204D
:106360005601002071952000400100207E952000FC
:1063700038B503880446154633B1B3F5877F39D164
:106380001E4B1B788B4204D04FF48773012023806F
:1063900038BD0120FCF768F82B78013B052B25D888
:1063A000DFE803F00808030C08112D2286211448A9
:1063B000FEF778FA0120FCF75FF8E5E7114802F0F4
:1063C00050F83222F2E768780F4B186001F088FA33
:1063D0004FF033320D4B01F017FC01F0FDFC0C4B7C
:1063E000186069780B48FDF767FCE3E70A48FDF79A
:1063F00063FCDFE7002303800320C9E76511002069
:10640000F4000020E4942000040100203333F33F23
:1064100008010020FB9420001E95200000487047D2
:106420005E1100200622034B013802FB00308088F9
:10643000704700BFDA90200010B50A4B0A4A19884D
:106440001046002394888C4203D106225343C05A3D
:1064500010BD0133092B02F10602F3D14FF6FF7094
:10646000F6E700BF5E110020DA90200010B50A4A5E
:1064700001880023104694888C4205D1062253439C
:10648000C05A013880B210BD0133092B02F1060257
:10649000F1D14FF6FF70F6E7DA90200010B5044610
:1064A000B428D4BF83B25A23022200214FF4807053
:1064B00000F006F8014B00201C6010BD60070020B2
:1064C00003292DE9F3410E46174601D8072A03D9BF
:1064D0001A4801F0C6FF05E0B42B08D9B4211848CA
:1064E000FDF7EAFB4FF0FF3002B0BDE8F0814FF45A
:1064F000E144B4225C43B4FBF2F4C5B2020A04F5F1
:1065000016545FFA82F8CDE9003432212B460D484B
:10651000FDF7D2FB00954346224600213220FDF7CD
:10652000A9FA08B10848D4E73B4632462946404616
:10653000FDF76EFB0028D7D00448CAE74796200035
:10654000689620008A962000BA962000E5962000E2
:1065500010B5038804462BB1A22B13D10B4B1B782B
:106560008B4203D0A2230120238010BD084B1A794F
:10657000002AF7D01888DB888342F3D8054B1B68C4
:106580009847EFE7002303800320EEE72011002067
:10659000640E00201C1100202DE9F0474FF4966492
:1065A000274A284D136823F0040313602B885C43AB
:1065B0001FFA84FC6446244BA5F802C0D3E90210FC
:1065C0004E1C40F10007D3E9040110EB0C0841F127
:1065D00000099969C3E904890C441988C3E9026771
:1065E000614538BFA3F800C09C6191469846782267
:1065F00000233046394601F017FC134308D1DCB1C3
:106600007823B4FBF3F40023A8F81C40C8F8183032
:1066100056EA070301D1C8E9046700232B80D9F8A3
:106620000020802142F00402C9F800200748084AEF
:10663000BDE8F047FDF752BFA8F81C40E8E700BFEF
:1066400010940D40640E00206801002064070020B3
:106650009965200008B5431E032B1DD8114B1B78EC
:10666000D3B1032812D0042813D0022802D00E4B35
:10667000588808BD0D4BD3E9040150EA01020ED041
:10668000D3E9022301F0D0FB80B2F2E7074B988BED
:10669000EFE7064B1888ECE74FF0FF30E9E7002002
:1066A000E7E700BFAE0F0020640E00206801002065
:1066B0008128F8B50C4606D0012855D0032857D0BC
:1066C0004FF0FF3418E00020002100252A4B2B4E0C
:1066D000C3E90401C3E90201294B2A4F1D711D8042
:1066E0005D805CB9284B29481C60336823F00403A3
:1066F0003360FEF76BF83C702046F8BD244A022157
:106700001368284623F00403136052F8203C23F05A
:10671000040342F8203C52F8143C43F0040342F8CE
:10672000143C52F8183C23F0040342F8183C2A4663
:10673000FCF7DEFA022229461648FCF77DFA2946C4
:106740001248FEF7D7F82B46134A80211348FDF76D
:10675000C5FE0822336843F004033360104B1A600F
:1067600001233B700024C7E7054B1871D980F9E776
:106770000024034B1C71BFE76801002010940D40FA
:10678000640E0020AE0F00201C1100201C01002010
:1067900020940D40A5672000996520006407002023
:1067A00000E100E038B504460C480D4601F0DEFE7D
:1067B00090B10221094801F0CDFE6CB9022D0BD138
:1067C000074A0848138801331380074B224619787B
:1067D000BDE83840FEF766B838BD00BF840700202A
:1067E000640E00201C01002020110020F8B5044692
:1067F000FFF722FE214602460F48FDF75DFA0F48DB
:1068000001F02FFE00240E4D0E4FA5F1240604F1D9
:10681000080206EB420236F8141015F8013B5288C4
:1068200038460134FDF748FA092CF0D1BDE8F840AC
:10683000024801F016BE00BFC0992000D399200085
:10684000D40F0020FD99200008B50448FDF750FE44
:10685000BDE808400120FBF719BE00BFA8070020D3
:10686000F7B5154C03200D46FBF7FEFD3522002140
:10687000204601F003FD2046FEF730FC01460F489C
:10688000FDF71AFA2E786D78FEF720FC07460420F3
:10689000FEF7E4FC00B200903B462A463146084829
:1068A000FDF70AFA2146002000F0A4FD032003B002
:1068B000BDE8F040FBF7E0BD47100020269A20001D
:1068C000389A200084B038B504AC84E80F009DF8F5
:1068D0001030042B13D0052B2CD0032B2CD11948AE
:1068E000FDF7EAF9BDF81130092B21D9164801F05E
:1068F000B8FD0DF11100FFF7B9FD044606E013489D
:1069000001F0AFFDBDF81140013CA4B2104D04F1FF
:10691000080305EB43035A88611C0E48FDF7CCF9C8
:1069200004F1090005EB4000BDE8384004B07047B1
:106930000948E5E70948DAE7094801F092FD002433
:10694000E4E700BFE79820000A9C2000D1982000CF
:10695000B00F002008992000299C2000F198200009
:10696000999D20002DE9F0470024144D4FF0FF3889
:106970002F46A246124B134E1C60B6F80490013508
:1069800027F81490FFF74AFD028804F108034A45EE
:1069900007EB430304F101040BBF5A8083F8028024
:1069A00085F823A083F8038018BF85F82380092C7D
:1069B00006F10606E1D1BDE8F08700BFB00F002068
:1069C000A4070020DA9020002DE9F04F774E93B015
:1069D00030460D46FEF782FB0420FEF73FFC2F7881
:1069E00004B295F80180FEF771FB39460346009426
:1069F00042466F48FDF760F914F13B0F374611DA54
:106A00003378012B0ED10220FBF72EFD6FF03B02F5
:106A100021466848FDF750F9022013B0BDE8F04F59
:106A2000FBF72ABD644801F01CFD0220FBF71CFDAA
:106A30003C78022C00F09080072C00F09C80012C08
:106A4000EAD107225D495E4801F068FC5D4B04AA6B
:106A500003F1280C1446674616461868596808332F
:106A600003C663453246F7D11868DFF89491306069
:106A70001B790DF134083371FFF7DEFC52490246F1
:106A80005248FDF719F9524801F0EBFC002612AB11
:106A900003EB4602114618F8013B32F8262C31F878
:106AA000381C48460136FDF707F9092EEFD1484852
:106AB00001F0D7FC4748FFF799FE23463B4A1C46A6
:106AC00010685168083203C4BA422346F7D11068EF
:106AD000414F20601279DFF82CA122710022144668
:106AE0000DF13C09A7F1240B19F8016B17F8013BD4
:106AF00004F101089E420ED29B1B012B0BDD414687
:106B00005046FDF7D9F801222B880BEB44040136DF
:106B1000638207F8016C4446092CE5D12F480392A3
:106B2000FFF764FE039A002A3FF476AF01222C4B54
:106B300003F8082B2B4A02F12C0152F8040B8A426D
:106B400043F8040BF9D112781C491A702648072221
:106B500001F0E4FB012209E0FF20FFF79FFC234A3C
:106B6000002380212248FDF7B9FC224686212148D6
:106B7000FDF798FE50E71E48FDF7D6FC0120FBF715
:106B80007BFCFFF7EFFE1C48FFF730FE1B4D144B5C
:106B90001C702B78002B7FF43FAF224686211548CE
:106BA000FDF780FE01232B7036E700BFDD0F0020CC
:106BB0004897200081972000AD972000BF972000C4
:106BC000DE0F0020E50F0020C4972000C0992000B0
:106BD000D3992000E8972000D40F0020429820008D
:106BE00012100020B00F0020131000204968200070
:106BF000A80700202C0100206A982000AF0F002079
:106C0000FD99200011982000054B073003EB40034D
:106C100058884FF6FF73C01A18BF0120704700BF95
:106C2000B00F002010B5134801F01BFC0023124ADE
:106C3000124C1360124A1370FFF794FE0722114999
:106C4000601C01F06BFB0122234603F8082B0E4A5F
:106C500002F12C0152F8040B8A4243F8040BF9D1DB
:106C6000127886211A7009480122BDE81040FDF70C
:106C700019BE00BF4E992000A4070020121000206A
:106C8000AF0F00206A992000B00F00202C010020D7
:106C900038B50F48FDF748FC0E4801F0E2FB002331
:106CA00007240D4A0D4D13600D4A1370FFF75AFE6D
:106CB00007220C49681C01F031FB0B482C70FFF7D0
:106CC00095FD2246BDE8384086210848FDF7EABD1B
:106CD000A80700206F992000A407002012100020B0
:106CE000AF0F00208B992000909920002C010020EC
:106CF00010B50E4801F0B5FB0D4B0E4C1968C4F8E9
:106D0000011099889B79A4F80510E37100F06EF9E1
:106D100000230222084922700B60084908480B70C2
:106D2000BDE810408621FDF7BDBD00BF33992000AE
:106D30004799200012100020A4070020AF0F002068
:106D40002C010020024A81210248FEF7B5B800BF9D
:106D5000C89020008C070020024A92210248FEF7CA
:106D6000E1B800BFD0902000C807002038B504204B
:106D70000C46FBF779FBFEF71BFA35211348FEF7AB
:106D800027FA01461248FCF797FF25786478FEF74A
:106D90009DF92246034629460E48FCF78DFFFEF773
:106DA00095F9044635210C48FCF786FF352120462D
:106DB000FEF70EFA0948FEF791F8094A0420136815
:106DC00001331360BDE83840FBF756BB12100020BA
:106DD000269A200090982000BA9820008C07002066
:106DE000A407002008B5FFF719FBBDE808400146DD
:106DF0000148FFF7BBBF00BF8C0700202DE9F0471B
:106E000004468AB0FEF7D4F9FFF716FB04F110062A
:106E100081466F463546D4F800A0D4F804E0A26855
:106E2000E36804F13008BC46306871680836ACE8A5
:106E3000030046456746F6D1D8F80000CCF80000BC
:106E400098F8041050468CF804107146FFF73AFD8C
:106E50002346028849461248FCF72EFF204635217A
:106E6000FEF7B6F9D4F800C06768A268E3682C465C
:106E70006D462E4620686168083403C64445354691
:106E8000F7D1206830602179604631713946FFF7CB
:106E900019FD014603480AB0BDE8F04701F0AEBD58
:106EA0006E9A2000C807002070B503880546144676
:106EB000D3B11C2B7ED1862936D1404B1B7813B120
:106EC0003F4801F031FBE4B23E4B012C1C700FD166
:106ED00002223D4B3D4840211A6001F01CFB3C4B17
:106EE0003C481C7001F0BDFA1C2301202B8070BDB2
:106EF000022C0BD10022344B344840211A6001F09F
:106F00000AFB0122324B34481A70EBE7072CEBD115
:106F100000222D4B2D4840211A6001F0FCFA01227D
:106F20002B4B2E481A70DDE78829DDD1274801F068
:106F300004FB88B1264E337873B1234C2368042BAD
:106F400024DCFFF74FFF214801F0EEFA21682448C6
:106F500001312160FCF7B0FE194801F0EEFA00287B
:106F6000C2D0164E3378002BBED0164C1D48217867
:106F7000FCF7A2FE1248FDF793FB00233370237841
:106F8000012B11D0072BAFD12F220EE00F48FDF7B8
:106F900087FB002301223370084B4FF4207108480F
:106FA0001A7001F0B8FAD7E7302286210E48FDF7B3
:106FB00079FC99E700230380032098E77E100020E6
:106FC000F80700207D100020F4070020E4070020CF
:106FD0007C100020999A2000B49A2000D09A2000BA
:106FE000EB9A2000169B2000F400002008B504480E
:106FF000FDF756FBBDE808400248FDF751BB00BF56
:10700000F8070020E407002070B506460E4801F09E
:1070100028FA00244FF6FF7306EB4405B5F8032069
:107020009A4206D121460948FCF746FE082C04D1B5
:1070300070BD0134092CEFD1FAE7FFF7EFF90388AF
:10704000A5F80330F4E700BF529B2000699B2000A5
:10705000042810B504460ED0052807D1074801F0D2
:1070600000FA224686210648FDF71CFCBDE81040C8
:107070000448FDF759BA0448F1E700BFF09B20002F
:1070800040010020480800200F9C2000F8B504466D
:10709000092501270C4EFFF7CFF9A04206D1013494
:1070A000A4B2092C0DD8013DF5D104E02046FFF72C
:1070B000ABFD0028F3D021460448FCF7FDFD204637
:1070C000F8BD37700124EEE77F100020319C2000CE
:1070D00010B50F4C0F4801F0C4F921680E48FCF7B9
:1070E000EBFD052286210D48FDF7DCFB2368052B0F
:1070F0000CDD0B48FDF718FA0A4801F0B2F9BDE8BB
:1071000010402D2286210848FDF7CCBB10BD00BFE2
:107110003C010020799B2000139E200040010020AC
:1071200008080020969B2000F400002010B50F4CAA
:107130000F4801F096F921680E48FCF7BDFD0422C6
:1071400086210D48FDF7AEFB2368052B0CDD0B48AF
:10715000FDF7EAF90A4801F084F9BDE810402D2254
:1071600086210848FDF79EBB10BD00BF3C010020F2
:10717000B09B2000139E2000400100202808002022
:10718000D79B2000F400002083292DE9F84F814689
:107190008846144605D16C4B6C481B685968FCF74F
:1071A0008BFDB9F80030002B45D0652B40F0C7802F
:1071B000B8F1860F45D1E4B2042C6BD0052C40D138
:1071C000634E644D3088FFF761FF3080624801F004
:1071D00048F92146284601F049FE30882C70FFF717
:1071E00021F9DFF8C4A1A5F801002846FFF70CFF3C
:1071F000284601F03AFE9AF80030584F002B31D063
:10720000574D5848FDF790F929685748FCF754FD49
:1072100001232B6000238AF800303B78BBB1534830
:1072200001F01FF94F48FDF77FF9312241465048E0
:10723000FDF738FB05E0444B4E481B685968FCF7E6
:107240003BFD65230120A9F80030BDE8F88F3188A7
:107250004948FCF731FD33880133338022464146EB
:107260004648E5E73C7834B13E48FDF75DF93F48D4
:1072700001F0F7F8D9E72846FFF7C0FD2346404A5A
:107280004FF480713748FDF729F9354A1368013307
:107290001360D6E72E4D324E3A4801F0E2F83268DC
:1072A00029883948FCF708FD2888FFF7EFFE294FA9
:1072B0003268014628803548FCF7FEFC264801F07C
:1072C000D0F82146384601F0D1FD3C70FFF7B4F804
:1072D000DFF8D4B02B88A7F803003846A7F80130B0
:1072E00001F0C3FD9BF800A0BAF1000F16D02848AA
:1072F000FDF71AF9274801F0B4F831682648FCF781
:10730000DBFC012333600023298824488BF80030FC
:10731000FCF7D2FC2B8801332B809FE73846FFF720
:107320006DFD53461E4A4FF480711948FDF7D6F89B
:107330001C4801F096F833680133336081E700237D
:107340000320A9F8003080E7F0030020AD9D200065
:107350005201002081100020E29D20007F100020BB
:107360003C010020080800200E9E20002E9E2000D8
:10737000F4000020D69D2000419E20004001002006
:10738000D1702000679E2000919E2000BE9E2000AC
:1073900028080020EB9E2000FF9E20001F9F200059
:1073A0002D712000379F2000801000200123044A07
:1073B0001380044A13600022034B1A70FFF716BEB5
:1073C000520100203C010020801000200123054ACA
:1073D0001380054A13600023044A1370044A137093
:1073E000FFF704BE520100203C0100207F10002066
:1073F000801000202DE9F0470B780C46042B00F09C
:10740000E080052B00F0E180032B6AD1B1F8013058
:10741000092B75D900254FF6FF7304EB4502B2F82E
:1074200003209A4202D00135092DF6D1684B013D67
:107430001888FEF7F7FF04EB4505B5F803308342E3
:107440004FD1644801F00DF800F0E8F800F0F2F8D0
:107450000323064600254FF6FF78DFF8B891037046
:1074600004EB4507B7F803104846FCF725FCB7F8CE
:107470000330434502D00135092DF1D1013D04EB24
:1074800045000330FEF7F2FF411C2A4689B25248FC
:10749000FCF712FC00274FF6FF78DFF87C9104F12F
:1074A000010A04EB4703B3F803303D46434503D0DC
:1074B00001370A2F18D10925FF232E44737000F0DD
:1074C000B9F8691C01F0ECFC0122444B44481A70E5
:1074D000FDF72AF80523434A4FF480714248FCF730
:1074E000FDFF0020BDE8F0870AEB4700FEF7BEFF76
:1074F000421CD2B2F25529464846FCF7DDFBD0E7E4
:107500003A4800F0AEFF324BB4F803201B889A4291
:10751000E7D10122314B36481A70FDF705F80423F4
:10752000304A4FF480713048FCF7D8FF00F082F801
:1075300002220346054603F8012B04F10D01621CEB
:1075400052F8040B8A4243F8040BF9D111882948F8
:107550001980927800269A70B4F80120B4F80310CC
:10756000FCF7AAFBB4F805102348FCF7A5FBB4F818
:1075700007102248FCF7A0FBB4F809102048FCF7DC
:107580009BFBB4F80B101F48FCF796FB1E4FAA5D3F
:10759000314638460136FCF78FFB0F2EF7D1B4F891
:1075A000093013B9FF236B72AB72B4F80B3013B907
:1075B000FF23EB722B7300F03DF80F2101F070FCFC
:1075C0008FE7124800F04DFF8BE71148FAE700BF44
:1075D00052010020459C2000599C20008010002072
:1075E000080800205170200048080020B09C2000AE
:1075F00028080020DC9C2000F99C2000069D20002B
:10760000139D2000249D2000379D2000489D2000D0
:107610007C9D20002F992000909C200008B5044BF1
:1076200064220021184600F029FE0322027008BDE2
:10763000B610002000487047B610002081F00041CD
:1076400002E000BF83F0004330B54FEA41044FEA47
:10765000430594EA050F08BF90EA020F1FBF54EAE2
:10766000000C55EA020C7FEA645C7FEA655C00F07E
:10767000E2804FEA5454D4EB5555B8BF6D420CDD4F
:107680002C4480EA020281EA030382EA000083EAD2
:10769000010180EA020281EA0303362D88BF30BD72
:1076A00011F0004F4FEA01314FF4801C4CEA1131C8
:1076B00002D0404261EB410113F0004F4FEA033327
:1076C0004CEA133302D0524263EB430394EA050FB2
:1076D00000F0A780A4F10104D5F1200E0DDB02FA21
:1076E0000EFC22FA05F2801841F1000103FA0EF2B5
:1076F000801843FA05F359410EE0A5F120050EF17B
:10770000200E012A03FA0EFC28BF4CF0020C43FAAB
:1077100005F3C01851EBE37101F0004507D54FF0B8
:10772000000EDCF1000C7EEB00006EEB0101B1F508
:10773000801F1BD3B1F5001F0CD349085FEA30004E
:107740004FEA3C0C04F101044FEA445212F5800F59
:1077500080F09A80BCF1004F08BF5FEA500C50F1F6
:10776000000041EB045141EA050130BD5FEA4C0CD9
:10777000404141EB010111F4801FA4F10104E9D162
:1077800091F0000F04BF01460020B1FA81F308BF59
:107790002033A3F10B03B3F120020CDA0C3208DD25
:1077A00002F1140CC2F10C0201FA0CF021FA02F100
:1077B0000CE002F11402D8BFC2F1200C01FA02F170
:1077C00020FA0CFCDCBF41EA0C019040E41AA2BF95
:1077D00001EB0451294330BD6FEA04041F3C1CDA5D
:1077E0000C340EDC04F11404C4F1200220FA04F07D
:1077F00001FA02F340EA030021FA04F345EA030127
:1078000030BDC4F10C04C4F1200220FA02F001FAE8
:1078100004F340EA0300294630BD21FA04F029466A
:1078200030BD94F0000F83F4801306BF81F4801103
:107830000134013D4EE77FEA645C18BF7FEA655C76
:1078400029D094EA050F08BF90EA020F05D054EA48
:10785000000C04BF1946104630BD91EA030F1EBF4D
:107860000021002030BD5FEA545C05D14000494151
:1078700028BF41F0004130BD14F580043CBF01F544
:10788000801130BD01F0004545F0FE4141F470012A
:107890004FF0000030BD7FEA645C1ABF1946104605
:1078A0007FEA655C1CBF0B46024650EA013406BF06
:1078B00052EA033591EA030F41F4002130BD00BFC5
:1078C00090F0000F04BF0021704730B54FF4806482
:1078D00004F132044FF000054FF0000150E700BF03
:1078E00090F0000F04BF0021704730B54FF4806462
:1078F00004F1320410F0004548BF40424FF000014F
:107900003EE700BF42004FEAE2014FEA31014FEA91
:1079100002701FBF12F07F4393F07F4F81F06051E0
:10792000704732F07F4208BF704793F07F4F04BF2B
:1079300041F40021704730B54FF4607401F0004508
:1079400021F000411CE700BF50EA010208BF704768
:1079500030B54FF000050AE050EA010208BF704759
:1079600030B511F0004502D5404261EB41014FF4C2
:10797000806404F132045FEA915C3FF4D8AE4FF0CA
:1079800003025FEADC0C18BF03325FEADC0C18BFAD
:10799000033202EBDC02C2F1200300FA03FC20FAFE
:1079A00002F001FA03FE40EA0E0021FA02F114444B
:1079B000BDE600BF70B54FF0FF0C4CF4E06C1CEA64
:1079C00011541DBF1CEA135594EA0C0F95EA0C0FD5
:1079D00000F0DEF82C4481EA030621EA4C5123EA48
:1079E0004C5350EA013518BF52EA033541F4801177
:1079F00043F4801338D0A0FB02CE4FF00005E1FB2A
:107A000002E506F00042E0FB03E54FF00006E1FB73
:107A100003569CF0000F18BF4EF0010EA4F1FF04B6
:107A2000B6F5007F64F5407404D25FEA4E0E6D41F6
:107A300046EB060642EAC62141EA55514FEAC52007
:107A400040EA5E504FEACE2EB4F1FD0C88BFBCF583
:107A5000E06F1ED8BEF1004F08BF5FEA500E50F134
:107A6000000041EB045170BD06F0004646EA0101FA
:107A700040EA020081EA0301B4EB5C04C2BFD4EB2C
:107A80000C0541EA045170BD41F480114FF0000E25
:107A9000013C00F3AB8014F1360FDEBF002001F093
:107AA000004170BDC4F10004203C35DA0C341BDC0D
:107AB00004F11404C4F1200500FA05F320FA04F0DF
:107AC00001FA05F240EA020001F0004221F0004113
:107AD00010EBD37021FA04F642EB06015EEA430E86
