:020000040020DA
:10200000983100208D222000C3AF2000C1AF2000F6
:10201000C1AF2000C1AF2000C1AF20000000000010
:10202000000000000000000000000000C1C020000F
:10203000C1AF200000000000DFC0200025B020005C
:1020400037B020003DB0200043B0200049B0200050
:10205000000000002BB0200031B02000C1AF2000F4
:10206000C1AF2000000000000000000000000000E0
:102070000000000000000000C1AF200000000000D0
:102080000000000000000000C1AF2000C1AF200030
:10209000C1AF2000C1AF2000C1AF2000C1AF200000
:1020A000C1AF2000C1AF2000C1AF2000C1AF2000F0
:1020B000C1AF2000C1AF2000C1AF2000C1AF2000E0
:1020C000C1AF2000C1AF2000C1AF2000C1AF2000D0
:1020D000C1AF200000000000000000000000000070
:1020E00000000000000000000000000000000000F0
:1020F000000000000000000049382000593820008E
:1021000000000000000000000000000000000000CF
:1021100000000000000000000000000000000000BF
:1021200000000000000000000000000000000000AF
:10213000000000000000000000000000000000009F
:10214000000000000000000000000000000000008F
:10215000000000000000000000000000000000007F
:10216000000000000000000000000000000000006F
:10217000000000000000000000000000000000005F
:10218000000000000000000000000000000000004F
:10219000000000000000000000000000000000003F
:1021A000000000000000000000000000000000002F
:1021B000000000000000000000000000000000001F
:1021C000000000000000000000000000000000000F
:1021D00000000000000000000000000000000000FF
:1021E00000000000000000000000000000000000EF
:1021F00000000000000000000000000000000000DF
:1022000000000000000000000000000000000000CE
:1022100000000000000000000000000000000000BE
:1022200000000000000000000000000000000000AE
:10223000000000000000000000000000000000009E
:10224000000000000000000000000000000000008E
:10225000000000000000000000000000000000007E
:10226000000000000000000000000000000000006E
:10227000C1AF20002D37200051372000E12D200074
:10228000BD39200009292000C1AF2000FF224824C9
:1022900008B5084B08481A60084AE369121A084949
:1022A00098470848084AA369121A0021984700F085
:1022B0000DF8FEE7B4200D40400000200D02002084
:1022C00080CA200010020020972900202DE9F34148
:1022D00000F068FC00F020FD00F07EFC00F078FAD1
:1022E00001F05AFB08F060FF00F00EFD00F0CAF8A4
:1022F000012008F069FE02F065F900F03FFC0020C3
:1023000000F05AFB012000F057FB4A49002000F082
:102310001FFC02F09FFA62B6042008F055FE464802
:1023200008F0B7FE454808F0B4FE00F0EFF90020D1
:1023300002F03CFB01F020FA0021414802F0D0F904
:1023400001F066FF08F06CFE00F06EFD00F08AFD03
:1023500007F010FB0821684601F044FB9DF80630A9
:102360009DF80760374C46EA03266B4603CB206096
:102370006160354801F070FB00272546DFF80081D9
:1023800014F8011B4046013701F066FB072FF7D117
:102390002E4FE9792E4801F05FFBFC6A4AF6CD31F9
:1023A0000220A04731460320A0471A210120A04760
:1023B000694608227B6B0B209847264801F04CFBAE
:1023C000254B186808F065FE244801F045FB244BB6
:1023D000186808F05EFE234801F03EFB224B1868A7
:1023E00008F057FE214A2B6813606B68536006F0B3
:1023F000B3FF00211E4802F073F900211D4802F0CE
:102400006FF91D4B01219B688120984708F09AFEC7
:102410001A4808F08DFE00F0B7FB022008F0D4FD4A
:1024200000F0B8FB02F0E6F810F0FF0FF8D101F071
:1024300047FAF5E70D48200090C72000A2C720000A
:10244000780000208F290020C7C7200058C6200030
:10245000EBC72000F1C7200020C72000F8C72000EC
:1024600038C72000FFC7200054C72000741F002079
:102470001801002098000020E0C5200084C720003B
:10248000E5C7200008B500F0E5F80022014B1A70FE
:1024900008BD00BF00170020024A137818431070CF
:1024A00000F0FCB800170020034A137823EA00006C
:1024B000107000F0F3B800BF00170020024A137834
:1024C0005840107000F0EAB80017002018B1012839
:1024D00004D000207047034B18687047024B1878EF
:1024E000704700BF20900D400117002010B5094A29
:1024F0000020137801331370074B197802F0C8F8E5
:10250000BDE8104005490023054A0968054801F067
:10251000B5BE00BF01170020862900204802002018
:10252000ED24200028020020812808B52BD0B0F52A
:10253000807F3AD0802824D102F03CF81C4B1D4A01
:1025400018701368032123F00803136052F8203C2D
:10255000002023F0080342F8203C52F81C3C23F0F2
:10256000080342F81C3C52F8183C43F0080342F8B8
:10257000183C042200F0DEFB032200210E4800F08C
:102580007DFB012108E00D4B0D481A6831B142F086
:1025900008021A6001230360084608BD22F0080201
:1025A0001A600123C0F88030F6E7064B1960E8E7AF
:1025B0008629002020940D40C925200010940D404C
:1025C00000E100E04802002008B50F4808F000FED6
:1025D000C8B108210C4808F0E9FD0C4B196849B155
:1025E00000220B4B1A700B4B1B6843B90A4A0B486D
:1025F00001F044FEBDE80840094802F0A7B90748C9
:1026000001F07EFEF6E708BD20020020480200200F
:102610000117002020900D40ED242000280200200A
:10262000E0C52000084A136823F00403136052F841
:10263000203C43F0040342F8203C0022034B1A6084
:102640000122034B1A70704720C40D4010C00D408A
:10265000021700200D4A0E49136823F0C0031360CF
:1026600052F8203C43F0C00342F8203C0022094BC2
:102670001A600B6823F010030B6051F8203C43F004
:10268000100341F8203C044B1A60704720A40D4011
:1026900020C40D4000A30D4040C00D4010F00202C8
:1026A00018BFFF22084B1A6010F0040218BFFF2267
:1026B000064B10F001001A6018BFFF22044B14BF34
:1026C0001A601860704700BF00A20D4000A10D40C5
:1026D00040C00D40044B1868C0F30720030904BF35
:1026E0001030C0B2704700BF1C300D40064B186858
:1026F000C00910F0060F03BF00F00700C0F1020090
:1027000040034FF40040704714300D402DE9F0476E
:10271000482588B0FFF7DEFF164B07461C68AB68FC
:1027200098476B68804698470546FFF7DFFF0646E7
:1027300000F08CFA814600F095FA824600F042FAE9
:10274000B60A04F00103AD0AC4F34004CDE905A0C4
:102750000393CDF8109002940196009507F00F03B3
:10276000C7F307124146044801F076F908B0BDE806
:10277000F08700BF1C300D400DC820002DE9F84344
:1027800000F084F810490246D1E90045AC46A04269
:1027900038BF05F1010C6346C1E900230B48D0E9BD
:1027A0000089B8EB040169EB05048E1844EB0C07B3
:1027B000C0E9006701F058FE18B1BDE8F84301F028
:1027C000D7BDBDE8F88300BF18020020100200202A
:1027D000E0210D4B0D4A5A600D4A82F82310002269
:1027E00007219A6019600B490B6843F001030B60E5
:1027F000094B1A60042243F80C2C012243F8082CE0
:102800000F22DA62704700BF10E000E047E80100E5
:1028100000ED00E008200D400C000340034BD3E91D
:102820000023100A40EA0360704700BF180200202E
:10283000034BD3E90023D00B40EA4340704700BF6D
:1028400010020020054B18601C3B1A6842F0010280
:102850001A601A68D207FCD4704700BF28000340F2
:1028600010B5064C236823F001032360FFF786FFB1
:10287000236843F00103236010BD00BF10E000E0B7
:10288000014B1868704700BF4C020020064B1868C7
:102890005A6808331B681B0443EA0223034A0343B4
:1028A000106843EA0060704740500D404C500D40A6
:1028B000014608B5104A1368DB07FCD572B6FFF76E
:1028C000E5FF0B1A062BD8BFC11D0C4B0A0E1A6070
:1028D000C1F3074243F8042CC1F3072243F8082C44
:1028E000CAB243F80C2C62B64FF40032044B1960A4
:1028F000044B1A6108BD00BF50500D404C500D40B4
:102900004C02002000E100E008B500F0C1FF002209
:10291000064B1A604FF40032054BC3F89021C3F800
:102920009020BDE8084001F011BF00BF4C0200201C
:1029300000E100E02C23154A70B503FB00234FF69D
:10294000BF72DC680546236C626413F050020DD040
:102950000F4EA369DB0600D570BD56F825301BB1BC
:102960002068C0B29847F4E72368F2E713F4D06F09
:10297000F2D04FF440732363FF236360E36AE262A3
:10298000E362236B43F001032363E5E7F0C5200016
:1029900050020020064B1B681B075FBF054B1868E1
:1029A00080F00800C0F3C00048BF0020704700BF9F
:1029B00018C0004018D0004001282DE9F74F064606
:1029C00000F2B4802C2545435A4F7C1994F920809D
:1029D000B8F1000FC0F2AA8094F92290B9F1000F6B
:1029E000C0F2A480544800F0C5FF544A79591368D6
:1029F000E5680B4313605368616894F921A00B43A9
:102A000053609368A1685FFA89FB0B4393600023CE
:102A1000C5F8C83F23690AEBC8021A6094F923304D
:102A2000227D00939DF8003058461946019300F02E
:102A30008BF9019B08221946584600F07BF90123C7
:102A40003F494FEA0939009A59F8010003FA02F2A6
:102A5000024349F801204FEA083858F8010003FA08
:102A60000AF2024348F801205022AA63AA6B94F9A3
:102A7000240042F4D062AA6302226A634FF44072D7
:102A80002A63A26900286A62E269AA624FF07002B2
:102A9000EA620D4614DB94F925102A4A41EAC00483
:102AA0001460020354598B4023435351C9B200228E
:102AB000C0B200F03FF9244A136843F400431360A6
:102AC0002C2303FB067393F92640002C1BDB93F9A0
:102AD00027A05FFA84F85FFA8AF901224946404646
:102AE00000F032F901232403625903FA0AF3134375
:102AF000635108224946404600F01CF9124A136807
:102B000043F4804313602C2303FB0676F268136BB7
:102B100043F001031363012296F82830590903F0AA
:102B20001F0302FA03F3094A42F8213003B0BDE85B
:102B3000F08F00BFF0C520009529200028200D400F
:102B400020940D4004410D4030D0004000E100E0F1
:102B500001289CBF014B43F8201070475002002011
:102B6000012808D82C22044B02FB0030C3689A6964
:102B70009206FCD419607047F0C520000022014B7A
:102B80001A60704700500D400822014B1A607047D0
:102B900000500D40A022024B1A6050221A6070476C
:102BA00000500D40014A024B9A60704700202000FF
:102BB00000ED00E0024B1868C0F38150704700BF81
:102BC00004200D4008B5FFF7F5FF024B53F8200035
:102BD00008BD00BF48C6200038B5164D164C2B68FE
:102BE000012223F040032B602368062123F04003D9
:102BF0002360032000F09EF82B68012223F080035D
:102C00002B602368072123F080032360032000F05A
:102C100091F80A4B0A4A0B491A600B4A134610688E
:102C20000842FCD11A685101FCD41A685201FCD543
:102C300038BD00BF20C40D4000C40D4000200D4031
:102C4000010102000000010104200D40034B044873
:102C50001B6803F007031841704700BF04200D40B4
:102C60000048E801034B04481B68C3F302231841E2
:102C7000704700BF04200D400048E801024B02EB02
:102C8000C10243F82200704758020020F8B50746F9
:102C90000E460024084D05EB411547FA04F3DB0707
:102CA000E1B204D555F824300BB1304698470134D1
:102CB000082CF2D1F8BD00BF580200202DE9F843DE
:102CC0000746DFF8408000F0E3FD0C4B3D03EE5873
:102CD00055F808404FEAC70924FA09F446EA040007
:102CE0003946C0B2FFF7D2FFE4B2054BF6B204FAA0
:102CF00009F4EE5045F80840BDE8F88318940D40FB
:102D00001C940D4018970D4080220021014808F0C6
:102D1000CDB800BF58020020034B044A1A60044B90
:102D2000803A1A60704700BFD802002080400D40F2
:102D3000DC020020034B01EBC0011B6843F821209B
:102D4000704700BFD8020020034B01EBC0011B6895
:102D500043F82120704700BFDC0200200E28F0B5A8
:102D60000BD1154D154F2C6844F002032B603D68C4
:102D700025F03F0646F001063E60114E336823F011
:102D8000FF0313430B4303430E4A336013681B06D0
:102D9000FCD50D4B0D4A1B6812680E2803F0FC038E
:102DA00043EA022308BF054A1BB204BF1560024A6A
:102DB000184608BF1460F0BD34000144F486084092
:102DC00008700D4000700D400C700D4010700D40EB
:102DD000024B1868B0FA80F04009704700B708400D
:102DE0004FF40042064B10B5064CC3F89021C3F8CF
:102DF0009020206818B101F08BFC0023236010BDE7
:102E000000E100E0E0020020064A136843F00203FC
:102E10001360536843F002035360936843F0020366
:102E20009360704748200D4007B50C4800F0A2FDA4
:102E3000FFF7EAFF0A4B1A6842F002021A6000220A
:102E40000192019A0F2A06DD1A6822F002021A6026
:102E500003B05DF804FB019A0132F1E7D12D2000A7
:102E600054200D40064A136823F002031360536890
:102E700023F002035360936823F0020393607047CA
:102E800048200D400B4B1A689207FCD41B685B0668
:102E90005FBFED22084B1A601A60084B1B6813B124
:102EA000EF22054B1A60064A0120137803F07F03D6
:102EB000137070474C860840388808402C860840BC
:102EC00005170020044B186800F02200A0F1200331
:102ED00058425841704700BF4C860840024B186862
:102EE00000F04000704700BF4C860840044B1A6851
:102EF00018B142F001021A60704722F00102FAE7AD
:102F000000860840204B1870002832D01F4A1368F2
:102F10001B03FCD51E4B1A6842F002021A601A68A5
:102F200042F001021A601A685007FCD51A6822F0B4
:102F300001021A601A685107FCD41A6842F00202B2
:102F40001A601A6842F001021A601A685207FCD52A
:102F5000104A136823F004031360D2F8A83123F059
:102F60000403C2F8A8314FF400520B4BC3F8902071
:102F70007047084A136843F0040313604FF400528B
:102F8000054B1A61704700BF0417002004200D4054
:102F9000048808408C86084000E100E0084B93F963
:102FA0000020002A09DBED21064A11601160E321AF
:102FB00011601A7862F07F021A700120704700BF1A
:102FC0000517002038880840A0F10B01CBB20F2B69
:102FD00010B5044613D80B4B1B6813F03F0302D007
:102FE000FFF750FF012301EB8101074A0B3111600C
:102FF0000BB1FFF7D3FF054B60B21C7010BD4FF053
:10300000FF30FBE7488608403C8608400A02002063
:1030100010B50C46002900F08680102800F285804B
:10302000DFE800F009101B22243B44575C727683D2
:10303000837B7D547F003E4B1B68003318BF012308
:10304000236024E005223B4B1B6803F07F030B3B0E
:1030500093FBF2F30B33DBB2F2E7374B1A68043B16
:103060001B6843EA0223EBE7344BF7E700230B60CE
:10307000334B344A1B6803F001030B60126890065F
:1030800044BF43F002030B602F4B1B780BB90020A9
:103090000BE00B6843F00403D2E700202B4B0860E1
:1030A0001B78002BF3D001230B6010BD284B29495E
:1030B0001A680023D2B201EBC3000079904202D813
:1030C00051F83330BCE701330E2BF4D16FF0170306
:1030D000B6E7214B1B685BB2493BB1E71F4B1B684E
:1030E00099060FD1FFF75AFF01231D490A68D2073D
:1030F000FCD51C4A1168493949B20BB1FFF7C2FE31
:103100002160C4E70023F0E7174B93F9003097E7FD
:10311000164B1B7803F07F0392E70B2390E71A23EB
:103120008EE707238CE70220BFE70120BDE700BF41
:103130002C8608403C860840CC850840D485084051
:103140000086084024860840041700200B02002057
:103150004086084090C620005886084048860840AF
:103160006486084060860840061700200317002088
:1031700008B50B4B1B6899060FD1FFF70FFF012312
:1031800008490A68D207FCD5074A1168C1F3001143
:103190000BB1FFF777FE084608BD0023F0E700BF3C
:1031A00048860840648608404C86084008B50728D1
:1031B0005BD8DFE800F0040F1A21253B41550129B7
:1031C00003D1FFF7EBFE002035E000294FD1FFF7D8
:1031D00059FEF8E7A1F10B030F2B48D8C8B2FFF74F
:1031E000F3FE0130EFD1032025E089B2214BCAB2B2
:1031F000090A1A605960E6E789B2CAB21E4BF7E7BE
:1032000031F0070333D101F00100FFF76FFE1B4BD4
:1032100011F0020F1A68C1F3800014BF42F02002BF
:1032200022F020021A60FFF76DFECCE731F00100BA
:103230001DD1134B197008BD01F118031F2B16D8AF
:103240000D23104A52F83300814205DC02EBC30320
:103250001A790D4B1A60B6E713F1FF33F2D2B2E7D9
:10326000C9B20A4B49311960ADE70120E3E70220FA
:10327000E1E700BFC8850840D085084024860840A3
:103280000B02002090C62000408608405886084067
:1032900038B505460C46134A13689B07FCD4124BFD
:1032A00093F90030002B01DBFFF778FEEE220F4B85
:1032B000691E1A601A60A21C43F8102C21440220D7
:1032C00000F074FA0A49013C41EA0411022000F0BE
:1032D0007FFA022000F086FA022000F09BFA00201C
:1032E00038BD00BF4C8608400517002038880840CC
:1032F00002C001C0F8B5224B93F90030002B18DB57
:10330000FFF7C4FA0446FFF749FEC4F1FF2404F5B1
:103310007F04F634FFF7BAFAC442FBD40126194BF6
:103320001B7843B9184C2368990609D50221084631
:10333000F8BD0026F3E7FFF71BFF0028F2D1F5E701
:10334000E9230427114D2B6023689A0703D4013F1A
:1033500017F0FF070BD123689B070CD4EE23012144
:103360002B602B60002EE2D0FFF78CFDDFE70620FC
:10337000FFF768FAE8E7216811F00201FBD1F1E7F5
:10338000051700200B0200204C86084038880840B2
:103390000B280DD1082A0DD161B1074B074A08311E
:1033A00011F8010D43F8040B9342F9D10020704746
:1033B0000120704702207047A8850840C885084052
:1033C00070B5304E336813F0400358D02E4D2C6842
:1033D000230605D5ED2200202C4B1A601A6070BD23
:1033E000E4B2042CF6D9023C8C42F3DCE4B2032CA8
:1033F0001ED12B6803702B6843702B68837029687B
:10340000234B493949B219702B68224D18062B708D
:10341000E0D589B2042006F083FA2978032001F070
:103420007F0106F07DFA1C4B1B78CBB12046D6E716
:1034300001190139032000F0C1F9184B611E43EA5C
:103440000111032000F0C4F9032000F0CBF90320A0
:1034500000F0E0F9032000F0E9F90028FAD1CEE706
:1034600033685A06E2D533681B0603D50C4801F0D1
:103470004FF9DBE7ED22054B1A601A60D6E71846D4
:10348000ADE700BF4C8608402888084038880840CF
:1034900006170020031700200417002002C0010CAB
:1034A00050000020F8B5294F3D7815F001054BD1AB
:1034B0000124F822264B7F261C605C609C60A3F5EB
:1034C0009323A3F514731A600922C3F890211522DF
:1034D00070331A600B2203F59B2303F59E731A6069
:1034E0004022A3F59B23A3F5F0731A601A6842F0FB
:1034F00020021A60D52243F81C5CDE62DA61154BAB
:103500001878FFF761FD4FF48042134B02201E60D4
:10351000124B1A6100F072F91149022000F04EF9C5
:10352000032000F06BF90E49032000F03FF90D4B2A
:103530001878FFF7E7FC0C48294601F0D1F820463F
:103540003B7823433B70F8BD0020FCE705170020C3
:10355000A8200D400A0200209486084000E100E007
:1035600028880840041700205000002038B5038840
:10357000044653B340F20342934233D11B4B1878B5
:103580001A4638BB822923D1137873B906F06EF935
:1035900006F000F98021FFF713FF002805DD80B257
:1035A00006F0DCF8124B1B699847124B1A7852064A
:1035B0000BD500221A70104B1D68FFF763FCFFF754
:1035C00071FFAB0601D0FFF7E9FC40F20343238013
:1035D00001200AE01B78002BFAD0064B1B78580616
:1035E000F6D5CFE700230380032038BD0417002061
:1035F00054C7200005170020488608400B282DE9F5
:10360000F0470C460FD1082A79D1002977D03D4BDD
:103610003D4A4C1E53F80419934204F8011FF9D196
:103620000020BDE8F0870C2867D1042A67D1002963
:1036300065D0364B36491A68DFF8E48022F007027D
:103640001A600A68334F42F008020A60D8F8000096
:103650003A681D68DFF8CCE025F07005DFF8C8C0D7
:103660001D60DEF80050DCF80060C0B2120240EAD3
:10367000066092B202434FEA0549274809F47F09E0
:10368000D0F800A042EA09061A685FFA8AF522F02B
:10369000070242F001021A600A6842F008020A605A
:1036A000D8F800203F68196821F0700141F010013E
:1036B0001960DEF80010DCF800C0D3B23A0243EA29
:1036C0000C6392B213430A04016802F47F0243EAD6
:1036D00002085FFA81F9FFF7D9F8B6EB080165EB4C
:1036E0000905ED0307460D4AC803002345EA514189
:1036F00007F04CF9381A206092E7012091E7022088
:103700008FE700BFC4850840A485084010880840A2
:1037100004880840188808401C8808400048E801D0
:1037200014880840248808402088084008B5054BC4
:103730001B7813B9044800F0EBFF0022034B1A601A
:1037400008BD00BF04170020500000203488084046
:10375000064B07481A68042A1FBF06490A7842F038
:1037600040020A7000221A6000F0D2BF2C88084084
:10377000500000200517002008B5094B4022002109
:10378000184607F093FB0121064A074B1160506071
:103790004FF480425A604FF400425A6008BD00BFA7
:1037A0000000002004F00F4000E100E003289EBF6D
:1037B000014B0001195070470000002003289EBFF4
:1037C000024B03EB00135960704700BF000000205C
:1037D00003289EBF024B03EB00139960704700BFA4
:1037E00000000020032805D80123034A8340116804
:1037F0000B431360704700BF28F00F40032805D823
:103800000123034A834011680B431360704700BFD4
:1038100020F00F40032805D80123034A8340116894
:103820000B431360704700BF14F00F4003289FBF85
:10383000044B03EB0013986800F0070088BF0020DA
:10384000704700BF000000204FF0FF32014B1A60AC
:10385000704700BF04F50F400122014B1A6070470A
:103860004CF00F40084B19461A68D002FCD4074BA5
:103870001A6822F480321A600A68D203FCD41A68EB
:1038800042F400321A60704704200D4000200D40C1
:1038900010B5094C226890070DD0084B1A461968DC
:1038A0004901FCD413685B01FCD5FEF7D9FFFFF793
:1038B000D9FF0023236010BD58200D4004200D4087
:1038C00038B5264B1C6814F03F0414D1244D55F82C
:1038D000043B23B1984770B10134052CF7D1214D39
:1038E0002B7843B1FEF7CCFF0446FEF7CFFF201A3A
:1038F000092800D90CB930BF27E01B4B1A6822F405
:1039000000321A60194A11461068C002FCD41A68C5
:1039100042F480321A600B68DB03FCD5FEF7B6FF79
:10392000201A092803D8BDE83840FFF79BBF632859
:103930000F4C0BD92B78022B08D1236000F09EFE90
:1039400030B1FFF78FFF0023236038BD0123F4E778
:10395000FEF796FF0028F4D0CDE700BF4886084068
:10396000E40200200717002000200D4004200D4035
:1039700058200D40074A10B50023144652F8041B86
:10398000814202D011B944F8230010BD0133052B48
:10399000F4D1FAE7E40200200022054B05491A6041
:1039A0000B6943F004030B61034B1A70704700BFAF
:1039B00058200D4000ED00E0071700204FF4803242
:1039C000064B10B5064CC3F89021C3F89020206830
:1039D00018B100F09DFE0023236010BD00E100E05F
:1039E000F802002070B5184B1A78431E1AB9174A0E
:1039F0001278122A0AD001F52011154A2731914276
:103A000016D011F8010903F8010FF8E7114A1278EE
:103A10004B2AF0D14C0804F520120D4D2732AA4252
:103A200007D1002301F5201120442731A34205DBF3
:103A300070BD12F8016903F8016FF0E7CA1A127835
:103A4000013300F8012BF1E72B0028002A002800A1
:103A500027002800290028000FB407B504AA52F84F
:103A6000041B0448019200F021F803B05DF804EB58
:103A700004B070476000002070B505460C460A4E41
:103A8000102C07D874B12B68224668680649BDE837
:103A9000704018472B68102231466868984710B963
:103AA000103CEDE7204670BDF8C820002DE9F04F2E
:103AB0008046154600268FB00791079B1B78002B88
:103AC00000F05283079B1A781C460133002A00F04D
:103AD0003A83252AF7D1079B9C4205D036E3237809
:103AE0003E44002B00F040836378621C002B00F002
:103AF0003B830024104610F8011B13462B2916D0D7
:103B00000AD8202916D0232917D0A1F13107082F70
:103B10003FD84FF0000A18E02D2904D03029F4D105
:103B200044F0100401E044F001040246E2E744F0EE
:103B30000604FAE744F00204F7E744F00804F4E767
:103B40000A2303FB0A1AAAF1300A134612F8011BD2
:103B5000A1F130000928F3D91A782E2A35D15978E5
:103B60005A1CA1F13000092828D8002711781346E3
:103B7000A1F13000092802F101021AD91A786C2A41
:103B800040F090805A786C2A22D144F080040233AD
:103B900021E02A290AD1D5F800A00346BAF1000F86
:103BA00005F10405B8BF44F00104D5E74FF0000A61
:103BB000D2E70A2303FB0717303FD7E72A2903D1AF
:103BC0002F6802330435D9E713464FF0FF37D5E7A6
:103BD000013344F060041A78642A00F0908000F207
:103BE0008380462A00F0AD806FD8252A00F0BE8081
:103BF00064D8002A00F0B8820133079304F4E0632C
:103C0000B3F5806F00F0578200F2B380B3F5807F88
:103C100000F0EC80B3F5407F7FF44FAF8F4B14F48E
:103C2000804F8F4A08BF1A460DF1330300211F460B
:103C30002868043550EA010C40F07282FF1A04BF74
:103C4000302203F8012C4FF0780208BF03F1FF3354
:103C500003F8012C4FF0300208BF012703F8022CB3
:103C600023220337BA458CBFAAEB070A4FF0000A9C
:103C700014F00104A3F1030903F8032C06D1514603
:103C80004046FFF7F9FE002840F06C82D8F800307B
:103C90003A464946D8F804009847002840F0628226
:103CA0003E4433E2682A96D15A78682A02D144F019
:103CB00020046CE7013344F040048CE7412A4CD0E7
:103CC000452A99D144F4424496E7582A33D004D87F
:103CD000472A91D144F4A1348EE7612A3AD0632A6D
:103CE0008AD144F4A06487E76E2A3CD00AD8662AB9
:103CF00024D029D3672A2AD0692A7FF47DAF44F4DF
:103D0000245479E7732A2BD007D86F2A10D0702A51
:103D10007FF472AF44F440746EE7752A05D0782AB8
:103D20007FF46AAF44F4C85466E744F4106463E770
:103D300044F4885460E744F4B2445DE744F400740A
:103D40005AE744F4844457E744F4024454E744F403
:103D5000813451E744F4C1344EE744F4E1344BE795
:103D600044F4806448E744F4E06445E744F4C06404
:103D700042E7B3F5C06F2DD0B3F5E06F00F0DF81FF
:103D8000B3F5A06F7FF499AEBAF1010F38BF4FF0D1
:103D9000010A2B6814F0010405F104058DF82030A8
:103DA0000AF1FF3707D139464046FFF765FE002884
:103DB00040F0D8813E44D8F80030012208A9D8F854
:103DC00004009847002840F0CD81002C00F0A1812C
:103DD0003946E0E0D8F8003001222249D8F8040042
:103DE0009847002840F0BE81013666E6002FACBF40
:103DF00024F01004012714F4005204F0E0030692AA
:103E000032D0402B23D008D823B3202B0FD0002250
:103E10000023CDE90023002317E0602B1AD0802B6C
:103E2000F5D1073525F00705F5E8022303E095F9FC
:103E30000020D3170435002A73F10001E9DA524259
:103E400063EB4303CDE90023012303931DE0B5F9A0
:103E50000020EEE72A680435D317ECE729C92000D3
:103E600018C920004BC92000402B00F0AF8000F2A1
:103E70009980002B00F0AC80202B00F0A080069BE6
:103E8000002203930023CDE9002304F4C053B3F5CB
:103E9000805F00F0D480B3F5C05F00F0D580B3F54B
:103EA000006F00F0B68000230DF1360B0493049BE5
:103EB00041F208029F4288BFFF1A41F6080304EA54
:103EC000030198BF002791421A4602D1002F08BF74
:103ED0000127049B914203EB070040F0CF80DDE90E
:103EE0000023134300F0CA80A14914F4804FA14B72
:103EF0004FF0020918BF0B46069A72B1039A002AC6
:103F000040F0C08004F00602022A00F0BF80062ABA
:103F1000994A04BF4FF00109134609EB000292458C
:103F20008CBFAAEB020A4FF0000A14F001020092C3
:103F300004D1E10640F1AE8057449246B9F1000F3A
:103F400009D0D8F800404A461946D8F80400A047DE
:103F5000002840F007813C46049B1E44102CD8E901
:103F6000003000F2A1802CB12246844998470028F5
:103F700040F0F880D8F80030049A5946D8F8040088
:103F80004E449847002840F0ED80009B3E44002BB3
:103F900000F0BF8051464046FFF76EFD002800F05C
:103FA000B880DFE0602B13D0802B7FF468AF07353B
:103FB00025F00705F5E80223CDE9002304E02A787F
:103FC0000023CDE900230435069B3EE72A88F7E766
:103FD0002B68002219460435CDE90012F4E7DDE92B
:103FE00004010A22002306F0D1FCDDE9040130328D
:103FF0000BF8012D00230A2206F0C8FCCDE90401CC
:10400000DDE904231343EAD10DF13603A3EB0B03DF
:104010004CE7DDE900230DF1360BCDE90423EFE792
:1040200002F0070130310BF8011DD10841EA43715C
:10403000D8080A46034652EA0301F1D1E4E7DDE974
:1040400000230DF1360BF6E74D4B14F4804F0DF1C4
:10405000360B4C4908BF1946DDE9002352EA03003C
:10406000D2D002F00F00085C4FEA131C0BF8010DD0
:10407000100940EA037002466346EFE74FF000097B
:104080004B4639E74FF001093F4B46E74FF0010936
:104090003E4B42E7514640460393FFF7EDFC039B3E
:1040A00000283FF44BAF5DE01022344998470028C8
:1040B00058D1103C52E7D5F800B00435BBF1000FE1
:1040C00029D05B46994699F800200133002AF9D19E
:1040D000A9EB0B09002F02DBB94528BFB946CA4539
:1040E0008CBFAAEB090A4FF0000A14F0010404D1B6
:1040F00051464046FFF7C0FCA0BBD8F800304A4606
:104100005946D8F80400984760BB4E44002C7FF411
:1041100041AF5644D1E4DFF878B04FF00609D9E753
:1041200000F00F0C12F80CC04FEA111E03F801CD7D
:104130004FEA101C4CEA017C604671467AE52B6818
:1041400004351E60B9E4079B9C420DD0079B07997C
:10415000E71A3A46D8F80030D8F804009847002803
:104160003FF4BDAC4FF0FF3630460FB0BDE8F08FE6
:104170003AC920003DC9200040C9200008C92000DC
:1041800029C9200018C9200042C92000FDC720000D
:1041900044C92000F8B5038806461546CBB14A2B22
:1041A0002BD188291FD1174807F04DF80446C4B118
:1041B000231D9D421FD12146124807F04EF8124D93
:1041C00062692F682A60A2690AB1E06990472F608E
:1041D00007E00C4807F037F8044634B901220B4BCE
:1041E0001A704A23338001200AE0A168201D06F0DE
:1041F000AAFF2468F1E72468D9E70023038003209D
:10420000F8BD00BFFC020020880400200817002031
:1042100010B50024054B06481C7007F011F8214624
:10422000BDE81040034800F05BBA00BF081700204B
:10423000FC0200206800002070B50446E3610B4BCF
:10424000049D1B78C4E905526BB1094D094B2E68DA
:10425000201D2B6006F077FF2E602146BDE87040E0
:10426000054807F00DB8A160F7E700BF0817002068
:104270008804002068000020FC02002013B5034CD5
:1042800024680094FFF7D8FF02B010BD8804002016
:1042900070B5094B05461B783BB1084C084B2668A6
:1042A0000430236006F058FF26602946BDE87040C0
:1042B000044806F0E5BF00BF08170020880400206E
:1042C00068000020FC02002070B5094B05461B78F1
:1042D0003BB1084C084B26680430236006F045FFCC
:1042E00026602946BDE87040044806F0C9BF00BFFB
:1042F000081700208804002068000020FC0200202D
:1043000010B5084B04461B7843B1043000F0B4F8F4
:104310002146BDE81040044806F09FBFC0E90333C2
:10432000F6E700BF08170020FC02002010B50E4C75
:10433000236813B90D4A136010BDFEF76FFA2168A8
:10434000D1E9002313448A681B1A1AB91844074B91
:104350001860F1E7D2E900142144091A8B4228BF02
:104360000B469268F1E700BF040300200003002021
:10437000014800F0CDB900BF780000202DE9F843D6
:104380000388054653B1592B47D1872920D10020F6
:1043900024490B6863B918B10B6001E0214A13602E
:1043A000592301202B80BDE8F88301203346F1E733
:1043B000D3E902649442F8D000B10B6099680029F7
:1043C000EED0C86890420ABF89680B469960F5E74D
:1043D0008229E5D1134F4FF00009B84600263C680A
:1043E000002CDDD0204606F0F3FE98B1224688214D
:1043F000E06800F04DF958B9E060A3682EB1B360F1
:10440000C4F80890FFF792FFE8E7C8F80030F7E734
:10441000FFF7AEFF2646A468E2E7002303800320EF
:10442000C1E700BF0403002010B50446FFF7A0FF5A
:10443000E3680B4A0BB1136833B90A4B1B68E3609E
:1044400013681460A36004E0A34206D1054A126811
:10445000DA60BDE81040FFF769BF9B68ECE700BF7A
:104460000403002088040020024B1868003018BFA5
:10447000012070470403002010B50B4A044613685E
:10448000834208D183681360FFF750FF0023C4E91B
:10449000023310BD1346002BF8D09A68A242F9D11E
:1044A000A2689A60F0E700BF0403002010B504463C
:1044B000FEF7BEF9D4E900321344C01A024B984209
:1044C0008CBF0020012010BDFEFFFF7F38B5836840
:1044D00004460D469BB10A4804600220A07304F113
:1044E0000C0098470238012801D9832D05D12146B7
:1044F0002046BDE8384000F005B80123A37338BD5D
:10450000880400202DE9F8431C4F04463D68894685
:104510002B46A34204D00BB9BDE8F8831B68F8E72B
:10452000002CF9D0164EA37BD6F8008063B100238F
:10453000A3738DB9A3683BB14C4505D034602A46BE
:10454000832104F10C0098473B68A3420ED12368F5
:104550003B60C6F80080DFE7A54204D022468721F1
:10456000284606F01BFE2D68E3E71346002BF0D02B
:104570001A68A242F9D122681A60EAE78C04002086
:1045800088040020002238B50125084B1A70084B1A
:104590001C6804B938BDE37B2BB1E5810022822180
:1045A0002046FFF793FF2468F3E700BF0C170020B5
:1045B0008C040020024B1878421C1A70704700BF10
:1045C0000A1700208A22064B1A700023054A13702E
:1045D000054A1370054A1360054A1360704700BF0F
:1045E0000A170020091700200B1700208C04002058
:1045F000880400202DE9F0411B4D2B780BB1FFF70B
:10460000C1FF1A4C22789AB10C21194E194F3378F8
:10461000013A59430133781803F01F0317F801805A
:104620003370D0E90170227090B9134B1E6826B91F
:104630002B7820781844BDE8F0812B780BB1FFF778
:10464000A1FF30463A46414606F0A8FD3668EEE73F
:10465000B8F1810F08BF01233A4608BF8373414672
:1046600006F09CFDE4E700BF0C1700200B170020AC
:1046700009170020080300208C040020024A034B85
:1046800010781B78184470470B1700200C17002077
:10469000F0B50B4E3378202B0FD00C25094C0A4F68
:1046A00024781C4404F01F046C433D19C5E9012023
:1046B0000020013339553370F0BD0120FCE700BF05
:1046C0000B170020091700200803002038B5034C01
:1046D000256806F063FD256038BD00BF8804002012
:1046E00030B40A4C0A4625682B4683420CD04BB99D
:1046F00050B101210560817320608381812130BC2C
:10470000FFF7E4BF1B68F0E730BC70478C04002063
:1047100038B1837B013B012B9FBF0123014AC37347
:10472000137070470C170020024610B506485360FE
:104730000468029B11609360026014B90846FEF79A
:10474000B7F8002010BD00BF9004002010B5084C41
:10475000206858B100232360D0E9013198472368CD
:1047600023B1BDE810401868FEF7A2B810BD00BF25
:104770009004002070B505880446672D09D0792D76
:104780002FD0002D33D1FFF715FF1B4B18701B4B9B
:104790001D601B4E194D08E00A282B680ED07E2B99
:1047A00003DC5A1C2A60174AD054304606F038FD04
:1047B000431CF1D16723238001201BE05A1C2A608F
:1047C0000025104A2846D5540B4B1978FFF760FF97
:1047D0000D4B2A4685211868FFF75AFF18B979232F
:1047E000E9E78529E8D10022044B1A60D1E70023CC
:1047F0000380032070BD00BF8B290020940400209B
:10480000980400200D170020880400200D2810B502
:10481000014616D00C4C237853B90C4806F0EDFC39
:1048200008B9012323700A48FFF772FF012010BD69
:104830000A28F8D1054806F0E0FC0028F3D0002350
:10484000F0E70020F3E700BF8D1700209804002058
:104850008800002008B505490548802206F0C6FCFE
:10486000BDE8084000210348FFF73ABF8E1700203B
:1048700098040020880000202DE9F04104880646B5
:10488000772C20D07E2C3DD0002C4ED1FFF792FE0D
:10489000284D294B294FDFF8B08018702C602B6809
:1048A00057F823202AB9264A137077233380012032
:1048B0003EE008F8034093680021802098472B6869
:1048C00001332B60EBE700231E4A1360194A136083
:1048D000184B1B4A1B6812789A4204DC194B1B6860
:1048E000002BF0D1E1E7184AD256002A19DA134A10
:1048F000002052F82320104B1978FFF7C9FE28B981
:104900007E23D3E70C4B1B788B42D0D1094B0E4949
:104910001A688B5C03F07F038B540A4A13680133D7
:104920001360044A13680133D1E700230380032096
:10493000BDE8F081A40400208C2900204000002064
:104940000E180020A00400208729002010B40A4B74
:104950000A4A197800238B4203DA52F8044BA0422A
:1049600008D107490748CA5C62F07F02CA5410BCEC
:10497000FFF7CEBE0133EEE70E1800204000002006
:104980008729002098000020064A136843F004039A
:104990001360054B186804331B6840EA032080B29B
:1049A000704700BF00700D4014700D4010B5174ADD
:1049B000136823F00C0313600122154B1A601A6868
:1049C000012AFCD10822134B13491A60E32203F594
:1049D00005731A601A460B68DB07FCD50F4C1021D3
:1049E00000232068013900F0010043EA00034FEA88
:1049F00043039BB2F5D1002BF1D00949180A03F00B
:104A0000FE0308600B60EF23136010BD00700D40C3
:104A1000A8200D4024860840648608409C860840F3
:104A200014700D402DE9FF476F46224C224D04F1D2
:104A300008030FCB87E80F002B7894F80780BBB1F1
:104A40003A221E49A2710A88D21A92B20A80A2F1B1
:104A500028010812207103F128002044C3F1040347
:104A600061712C3A011D184406F0BAF900232B702D
:104A7000134806F0E8FB0646DFF840A02EB90F4BBE
:104A80002E701E8004B0BDE8F087D6F80490B9F10E
:104A9000000F09D0BAF800302A782C3B38329BB28C
:104AA000224441463846C847304606F005FC0646D3
:104AB000E4E700BF7C1F002036180020681F00209C
:104AC000A8040020F8B52C4B2C4C1B7904F11806D7
:104AD000E371237E04F10805FF2B31D195E80F0027
:104AE00086E80F003146284600F0BEFA244D2B78A8
:104AF000BBB13A222349A2710A8803F12800D21AD5
:104B000092B20A80C3F10403A2F1280120440E12DC
:104B100061712C3A011D1844267106F061F90023D9
:104B20002B7081212B782833E218E1520023538027
:104B300006F088FCC0432B78134A13445880F8BD14
:104B40002F46124A3B4603CBB342106051601F46CA
:104B500002F10802F6D196E80F0085E80F000B4B32
:104B60000B4D03F110062A4618685968083303C232
:104B7000B3421546F7D1B9E7FC1D00207C1F002089
:104B800036180020681F0020A41F002030100020CD
:104B9000941F002038B504460B480D4606F053FB21
:104BA00008B901200FE00379A34204D143799D4263
:104BB00004D0FF2B02D006F07FFBF1E78368002BC7
:104BC000EFD09847002038BDAC04002001460148D2
:104BD00006F056BBAC0400202DE9F74F464D824647
:104BE0002B788946934653B1444A9B5C3A2B0ED1AD
:104BF0000023434A2B70138003B0BDE8F08F414B74
:104C00009A793A2A03D193F92830002BF0DA3E4CF6
:104C100004F0A6F904F110063746A0463B4A2346A5
:104C200003CBB342106051601C4602F10802F6D17A
:104C3000334E344C3388214630339BB2B3F5A06FEA
:104C400088BF4FF4A063338032882B78D21A04EBEC
:104C50004300303A3030019306F0C2F86022019BE5
:104C600022603A22002B45D084F82820284B628904
:104C70001B79E37123891343A2891343E289134308
:104C8000228A1343628A1343A28A1343E28A13439C
:104C9000AED0204B0FCB88E80F001C4B1B78FF2BAE
:104CA00005D1BAF1040FA3D1B9F1020FA0D1174970
:104CB000184800F0D9F995F80080584608F1280303
:104CC000E21804F803A082F8019001F049FC124BAD
:104CD00043F808003388283B1A12227100226371BE
:104CE0002B783B445A8006F0ADFBC0432B781F4421
:104CF000788081E7A271B9E736180020A41F002050
:104D0000681F00207C1F0020941F0020301000200E
:104D1000FC1D0020841F0020A81F00202DE9F04169
:104D20001E4660231A4C0F4623603A230546A371A2
:104D3000184B90461B7900F1100CE371331D1A12C9
:104D40002271637104F118021346286869680835F6
:104D500003C365451A46F7D10F49104DA1F1100064
:104D600000F082F92B782C362833E218E754002320
:104D700082F80180538006F065FBC0432B78084A17
:104D800013445880074B1E80BDE8F04102F0DABDA5
:104D90007C1F0020FC1D0020941F002036180020DE
:104DA000A41F0020681F002008B50448FFF70EFF6D
:104DB000BDE808400248FFF709BF00BFB40000206B
:104DC000A80000202DE9F341154D0446CDE900155A
:104DD0000E4690461F46202203460321114806F046
:104DE000C4FA01282B4618D12A6804F1100110706A
:104DF00020462A68023250F8044B884242F8044B9D
:104E0000F9D11868089B86744361099B80F8138068
:104E10000777836102B0BDE8F0810020FAE700BFA8
:104E2000B8040020F81E0020F8B507460B4E0C4DC4
:104E30002E6060362C68B44201D30020F8BD237880
:104E400033B1A27C3946D208A01C05F021FF10B175
:104E500020342C60EEE70120F0E700BFF81E0020B0
:104E6000B8040020802313B5074C00930194034637
:104E700020220321054806F078FA10B9206802B014
:104E800010BD0020FBE700BFB0040020141E00206E
:104E900030B548F2FE040B490B4A116060311368CB
:104EA0008B4202D30023184630BD1D783DB1451C0E
:104EB00002D09D7C854202D15D88A542F3D020338B
:104EC0001360ECE7141E0020B0040020802337B5E7
:104ED0000F4D0093044603460195122205210D480B
:104EE00006F043FA01282B460FD12A6804F110017D
:104EF000107020462A68023250F8044B884242F86B
:104F0000044BF9D1186803B030BD0020FBE700BFA7
:104F1000B4040020981E00208023F7B5214C009394
:104F2000054603460E4617460194202203211E48DB
:104F300006F01BFA012832D12A46236805F1100138
:104F400018702368023352F8040B8A4243F8040BAA
:104F5000F9D12068C774DEB90123037501222368E3
:104F600012489A7440F2FF23038000234380838019
:104F7000C38003814FF480734381FF2303736B7BF2
:104F80004373EB89C381FFF7A1FF206803B0F0BD35
:104F9000002331460375183006F0F9F8DEE70020EB
:104FA000F4E700BFB0040020141E002040100020D1
:104FB000802313B5074C0093019403461222052168
:104FC000054806F0D2F910B9206802B010BD0020E3
:104FD000FBE700BFB4040020981E002038B505464A
:104FE000C8B140F2FF230C48002403804FF48073C3
:104FF0004381FF2344808480C48004810373EB7B5E
:1050000043732B8AC381FFF7D3FF044A106008B1B2
:1050100006F0CEF92C7038BD40100020B4040020FA
:1050200038B50E4D0E4C256060352068A84206D379
:1050300000F0F8FABDE838400A4806F08DB8037869
:1050400043B1037D33B91830FFF730FA10B120684F
:10505000FFF7C4FF236820332360E6E7141E002017
:10506000B0040020581F00202DE9F84F48F2FE033D
:105070000A8805469A420F462ED00A78FF2A2BD07E
:1050800000241C49A04689469B461B4A0A6002F13F
:10509000600AD9F8006056450AD314BB2C806C8096
:1050A000AC80EC802C816C81AC81EC81BDE8F88F08
:1050B00033786BB1B37C012B0AD173885B4507D081
:1050C000B11C384606F081F980459CBF34468046C5
:1050D0002036C9F80060DCE70120FFF7D9FE04465E
:1050E000DBE7A31C123453F8042BA34245F8042B2E
:1050F000F9D1DBE7B0040020141E002070B5094E82
:10510000B0684508FFF740FC0446FFF73DFC240269
:10511000B268A4B22044B0FBF2F302FB13002844AF
:1051200070BD00BFFC1D002073B5304C01F036FA95
:1051300000F096F8602200212D4805F0B7FE00210E
:105140002046F42205F0B2FE20222A4B40261A7097
:105150001822294B00251A704FF4A06344F8043C30
:10516000264B04F80469A360FFF7C8FF42F21073EE
:10517000236148F2FE03E0602575214C2A46238016
:1051800065802B46A580E5803146CDE90055204657
:10519000FFF718FE20461B4906F00EF929460122AA
:1051A000FFF7BAFE40F2FF264FF480732046E381FA
:1051B00026806580A580E58025816581A581FFF732
:1051C00085FE4FF40073204626806580A580E5802B
:1051D00025816581A581E381FFF778FE0C210A48CE
:1051E00002B0BDE8704005F0AEBF00BF001E002059
:1051F000F81E0020F51E0020F41E0020C027090024
:1052000040100020741F0020581F00202DE9F04797
:10521000054610480F46904606F015F80446DFF89C
:105220003890DFF838A00CB9BDE8F087012D0DDC0F
:10523000504606F03AF80346424639462846666824
:10524000B047204606F038F80446ECE7D9F80030BD
:10525000F2E700BF00060020040600203C05002005
:1052600008B50B4806F02BF80A4805F0E9FF0A4B91
:105270000A49186804F05EF9094806F020F8094860
:1052800005F0DEFFBDE80840074805F0D9BF00BFC4
:10529000EC00002008060020CC00002009B420000B
:1052A000C00000203C0500200006002008B540B1E9
:1052B000044B4168186806F091FFBDE8084006F00D
:1052C000CAB808BDCC000020014805F0BCBF00BF33
:1052D0000806002008B506F0C0F838B1044B0146B6
:1052E000186806F064FF003018BF012008BD00BF39
:1052F000CC0000202DE9F04180460027FFF7E4FFB5
:105300003C46054685B964B1124805F09CFF8442CD
:1053100007D021460F4805F0A0FF21460D4805F0B3
:10532000BCFF2046BDE8F08195F82460BE420AD358
:10533000F20805F10801404605F0AAFC18B9802ED4
:1053400006D037462C46284606F05AF80546D9E7D7
:105350002C46D9E70806002038B5044600283FD07F
:105360004368002B3CD001461E4805F076FF636879
:10537000586805F068FF054668B343689C4226D12B
:1053800063682946586805F068FF6368586805F047
:105390005AFF28B963685968134B186804F07CF900
:1053A0002146124805F0AFFF2946114805F0ABFF32
:1053B000104A20461368013B1360FFF777FF04F1A2
:1053C00008010246BDE838400320FFF71FBF28460A
:1053D00005F072FFCFE704F1080002F01FFCCFE7F1
:1053E00038BD00BF08060020CC000020EC000020E3
:1053F000E00000200406002010B5044680B140689B
:1054000070B105F020FF30B9064B2146BDE81040D1
:10541000186804F041B94068FFF79EFF6068F0E744
:1054200010BD00BFCC0000202DE9F84F804610468B
:105430008A46914606F011F8834618B900242046A2
:10544000BDE8F88F4046FFF755FF044660B1FFF70F
:105450002DFF014628B11022484605F019FC00280E
:10546000EDD02046FFF778FF284F3B68102BE5D0A2
:10547000274E5946306806F09AFE054668B903463D
:1054800004225946306804F083F805460028D5D038
:1054900000236860036005F0D3FE1E4805F01FFF7F
:1054A00004460028CAD001461B4805F0F6FE1B48FA
:1054B00005F015FF20B92146164805F024FFBDE789
:1054C00044600146686805F0DBFE3B6865600133B7
:1054D000294630683B6004F0F5F8434604F10805BE
:1054E00008F110062A4618685968083303C2B34207
:1054F0001546F7D1002284F824A0A261E26122625D
:1055000041464A460220FFF781FE98E70406002044
:10551000CC000020EC00002008060020E000002065
:1055200038B505460D4805F08EFE044600B938BD75
:10553000AC420ED12146094805F08FFE21460848AD
:1055400005F0E1FE221D1146BDE838400120FFF7BD
:105550005DBE204605F0B0FEE7E700BF3C05002039
:10556000C000002038B50546084805F06CFE04462A
:1055700008B9204638BD10222946201D05F088FBB9
:105580000028F6D0204605F097FEF0E73C05002005
:10559000F8B505460F46FFF7E5FF044640B9134846
:1055A00005F09DFE0446E0B10146114805F075FE88
:1055B0002B46261D05F1100C324618685968083331
:1055C00003C263451646F7D16FB1394604F11400A2
:1055D00005F0DDFD002323772A4629460020FFF74A
:1055E00015FE2046F8BD0123F5E700BFC0000020EE
:1055F0003C05002038B50A4805F025FE0025044684
:105600000CB9284638BD251D284600F0FBFF10B117
:10561000437C002BF5D1204605F04EFE0446EFE713
:105620003C05002038B50D4805F00DFE04460B4D35
:1056300004B938BD237F63B904F11400FEF736FFC7
:1056400038B12046FFF76CFF284605F0FCFD044604
:10565000EEE7204605F030FEF9E700BF3C050020EC
:1056600037B5114B114D1C782B7905F10801C4EBAE
:1056700003226B7913449BB2ADF80630BDF80630B7
:105680002022184480B205F0C1FE04F12801BDF8C3
:105690000620294405F0BAFE18B140BA80B203B022
:1056A00030BD4FF6FF70FAE7361800207C1F00204F
:1056B00002200021F8B5284F284D3A78284C28328E
:1056C00053195E782070F6000736B04202DD71B3E0
:1056D00020702CE0131805EB030CEB5C012B11D0B0
:1056E00063B1632B13D003F0C003802B21D0C02BF8
:1056F00028D0402B2CD179B120700DE00130C0B200
:105700000121E2E7831C9CF801001844F7E701B18E
:10571000207003F0A7FB08B90120F8BD22783B7880
:10572000104913440B445B7802321A442270002063
:10573000F3E701B12070024402210420FFF74CFA84
:105740000220EAE701B120702B7EFF2BF3D1E3E7C3
:1057500002309CF80130D8E7361800207C1F00206A
:1057600037180020A41F002070B5C578124B0D44D7
:10577000EDB2DD7082780E0A3244D2B29A7044786B
:1057800096425C700078187005D90134E4B25C7000
:105790000CB901301870C9B28D420BDA0132D2B2A5
:1057A0009A703AB95A780132D2B25A7012B91A784C
:1057B00001321A7070BD00BF701F002010B5094C77
:1057C0000146236803F11400FFF7CEFF064A236861
:1057D00011781975517859759178D2789975DA756B
:1057E00010BD00BFA0240020701F002008B5FFF7E7
:1057F0009BFCFFF7D9FA01F075F8002319460F4A10
:10580000138053809380D380138153819381D381FC
:105810000B4A01330A2B82F8251002F13002F8D12D
:105820004FF48062074B1A8000231946064A013361
:105830000A2B118202F12002F9D108BD8C2600202A
:10584000A424002050100020A0260020F8B5104EFF
:10585000357845B10F4F05F127033C88A34203DBA0
:1058600000233B803370F8BD0B4BA4F12802521B80
:105870005919184605F0B4FA641BA4B23C80283CC0
:10588000221200F8242C00F8234C0023EAE700BF82
:1058900036180020681F0020A41F0020074A00239C
:1058A000114610B532F8024B844203D1002221F890
:1058B000132010BD0133082BF4D1FAE78C26002009
:1058C00004282DE9F74FAD4E00F02081AC4FAD49D3
:1058D000AD4DAE4A03283C680D601560BA46894656
:1058E0005ED194F8253003F00F03032B14D1A38B62
:1058F000002B40F082800822A54B1A7002F058F964
:10590000A34B1A78A34B12F0200100F09B850022D4
:105910001A8084F8252096E0022B6ED1002305F82A
:10592000073C9D4B93F8352042F0020283F8352066
:105930009A4ADA6340223280602283F83420237D41
:10594000954D85F83030637D05F1180785F83130C5
:10595000A37D85F83230E37D85F83330237E85F8EA
:105960002C30637E85F82D30A37E85F82E30E37EC3
:1059700085F82F30238A2B85638A6B8594E80F0086
:1059800087E80F00394605F10800FFF76DFB94F832
:105990002530DB064CBF00234FF48043EB8643E306
:1059A000022840F09F8000237D4A33801370794A9B
:1059B00013807C4AD3780133DBB2D37063B9937818
:1059C0000133DBB293703BB953780133DBB25370D0
:1059D00013B913780133137094F8253003F0FD02E6
:1059E000052A13D194F826300133DBB2782B84F8E2
:1059F000263002D1002384F825300023684A338002
:105A00001370694A1370624A137002E1002BF4D0DC
:105A1000A28B5F49002A5ED094F82620501E84F89D
:105A20002600002AE9D194F82720082A04D0581E1D
:105A300001280CD8052A0AD1002384F825308023B8
:105A40000B7002F0B5F8544B142200F0C2BC042ACB
:105A500015464FF0030028BF042503F00F03A840AC
:105A60000132013B84F8260084F82720072BC4D894
:105A700001A252F823F000BF11612000995A2000C2
:105A8000A35A2000CF632000FB592000CF632000E1
:105A9000FB592000CF63200000223F4B83F83520C4
:105AA0003FE704230B7002F083F8384B1B68C9F8FA
:105AB0000030384B1B88002B00F0E484A38B002BB4
:105AC00000F0E08418223C333380334B83F83520D8
:105AD000314B502231E703F00F03032B8DD1082304
:105AE0000B700BE7052863D1304B1B681B8A002B1A
:105AF00083D000230C3D1560264A3B6013800822AA
:105B00003380234B0D601A7002F052F8214B1A8833
:105B1000002A3FF472AF02F130031F4C9BB2338076
:105B2000283B19126371214B08321B6852BA21714C
:105B3000197DA2850022E1711121E2851A8AA171E5
:105B400022855A8A04F1180562850FCB85E80F007B
:105B5000294604F10800FFF787FA0A4B04F13C02DA
:105B60001A6005F075FCC04380B2002800F0FF8188
:105B7000E0856022084B1A6048E000BF681F0020E3
:105B8000A02400209C240020B81F00206C1F0020AF
:105B9000902400209C2600207C1F0020020400404E
:105BA00036180020311800203518002098240020D5
:105BB00015F83C3C3C3D03F0F003602B7FF41DAF37
:105BC0002B796A791B023188981888423FF715AF04
:105BD0002832134433802B7AFF2B3FF40EAFC04B97
:105BE000AA1D1A600022BF4FBF4C3A702270AA79DA
:105BF0009846E2B901232370FFF75AFD01283FF4CC
:105C0000FCAE10F0FF0F07D0022810D10022B74BD6
:105C10001A7003B0BDE8F08F3B7803F128022A44E4
:105C2000C8F800205278083303EBC2033B70B04839
:105C3000FFF718F9002840F01281AD48FFF7B8F9D6
:105C4000002840F00C81297E2B89FF293DD048F2A5
:105C5000FE002A8B824238D083423BD069890B43B5
:105C6000A9890B43E9890B43298A0B43698A0B43B2
:105C7000A98A0B43E98A0B433FF4BFAE6B8B1343F6
:105C8000AA8B1343EA8B13432A8C13436A8C134366
:105C9000AA8C134304D1EB8CB3F5807F3FF4ADAEF7
:105CA0003388B3F5A06F06D94FF4A062002102201B
:105CB000FEF792FFAAE7EB79012B03D8002203201D
:105CC0001146F5E7013BEB71A0E748F2FE02934273
:105CD0007FF493AE6A8B2B8B1343AA8B1343EA8B0F
:105CE00013432A8C13436A8C1343AA8C134304D1A5
:105CF000EB8CB3F5807F3FF480AEFF293FF47DAE9F
:105D00007B48FFF791F8024600287FF476AE022127
:105D10000120CDE7BBF13A0F78D006D8BBF12C0FAC
:105D20003FF46BAE521B0121CFE0BBF13B0F3FF4C0
:105D300064AEBBF13C0FF5D12378980740F1818028
:105D40005906EFD443F04003A3E0FFF77FFD85F849
:105D500006B005F07AFB4FF6FF7398427FF44DAE24
:105D6000B5F82AB0BBF1000F3FF447AE2B8D002BE6
:105D70003FF443AE4FF00A085E4C94F825200092A1
:105D8000002A00F0F880228A5A4540F0F480628AA6
:105D90009A4240F0F080102221465748019304F0C7
:105DA00077FF019B0246002840F0E58095F835100A
:105DB0004E4B11F0040FCAF800401870984600F0DE
:105DC000AE81202284F825001A7001F0F1FE14E65D
:105DD000FFF73CFDEB8D85F806B0002B40F094807A
:105DE000B5F82A80B8F1000F3FF407AE434B444F9B
:105DF000B5F828B01F601D463F4B07F5A0772C680B
:105E0000BC42C0F089800022042181E705F01AFB22
:105E10004FF6FF7398427FF4F0AD3B78394AD05C7F
:105E200001F06AFD3B782833EA185178E85CFEF708
:105E3000B1FE01283FF4E1AD3388002B7FF4E6AEDC
:105E4000DBE543F0020324E03B7803F128022A4417
:105E5000C8F800205278083303EBC2033B70D8F82F
:105E6000002092F800B0BBF12B0F1FD03FF652AFCD
:105E7000BBF1060F3FF469AFBBF1110FA8D0BBF126
:105E8000000F7FF44FAF2378D9073FF54BAF43F0B6
:105E900001032370FFF70CFC01283FF4AEAD10F0B6
:105EA000FF0FD1D002283FF4B1AED8E7237813F02A
:105EB00004017FF437AF3A7843F00403237002F112
:105EC00028032B44D87810B12A320420F0E6C8F811
:105ED00000305B78083202EBC3023A70BFE700BFC4
:105EE000942400203618002035180020902400202B
:105EF000941F0020A4240020841F00209824002048
:105F0000A0260020A41F002005F0A2FA4FF6FF7380
:105F100098427FF472AD63E7228A2AB3904523D179
:105F2000628A0AB15A451FD122682AB962681AB931
:105F3000A2680AB9E26832B118461022214604F07C
:105F4000A7FE8E4B80B9022033888D49303B3380C9
:105F500000238C4A08708C49C9F800200A608B4ADB
:105F6000CAF800301380CFE520342C6047E74FF6A5
:105F7000FF73E385FDE5B8F1010804F130047FF417
:105F8000FCAE95F8352002F03F02022A09D1804A82
:105F900032F8021B8B4559D008F10108B8F1080FFF
:105FA000F6D195F835305A073FF527AD3C233380BD
:105FB00041F2504395F8310095F82F10AB866B8E67
:105FC00095F82E2095F83040EB85013195F82D306D
:105FD00085F82D0095F82C00C9B285F8322085F897
:105FE000313085F82C4085F8300085F8331061B9E0
:105FF0000132D2B285F832203AB90133DBB285F8EA
:10600000313013B9013085F830002B8D6A8D614C29
:106010002A856B85A4F1100595E80F0084E80F0030
:1060200021462846FFF720F806235B4CA3715B4B03
:106030001B79E3713388283B1A12637100232271A4
:10604000A36305F002FAC043208792E500242146AD
:10605000534A92F82500002834D13024504A04FBDA
:1060600001246382454BA4F810B00FCB84E80F00E5
:106070004FF48063012063844A4BA08363624A4BE0
:10608000CAF800401A7822765A7862769A78DB78D5
:10609000A276E376EB6A6361FFF790FB95F8343004
:1060A00003F0F002502A33D900221B09053B9B0064
:1060B000A91891F83C705FB3012F18D101329342B7
:1060C000F6DC25E0072807D17CB192F8267094F819
:1060D0002600874288BF144601310A2902F13002A6
:1060E000B7D1002C3FF489ACBBE71446F4E7022F8C
:1060F00091F83D000FD104280DD191F83E2091F880
:106100003F3043EA0223402B28BF4023E38323840C
:10611000214B1022C2E40028FAD00244CFE7338892
:1061200095F83400283B0009A3EB800300989BB24C
:1061300000F00F0CBCF1020F338017D101F03F00CB
:10614000122833D00BB98B0730D0E86A63699842C4
:106150002CD0880706D5BCF1010FD9D0BCF1020FB5
:106160003FF4DFAB102385F8353034E1BCF1010F8B
:10617000E8D101F03F000228E3E700BF841F0020C0
:1061800090240020AC1F00206C1F00209C260020C3
:106190008C260020941F00207C1F0020FC1D002066
:1061A000A42400200301030031180020C90658D59B
:1061B000A18B002955D004F118000092FFF7D4FA02
:1061C000BC4B95F830C01978009A8C4549D1597864
:1061D00095F83100884244D193F802E095F83210E6
:1061E00071453ED193F803E095F83330734538D1CB
:1061F000E37694F8273084F818C06076A1763BBB2C
:1062000094F8260094F824B094F82230ABEB000107
:106210004FEAD30CA1EB0C01C9B24FFA81FEBEF1DB
:10622000000FBEBFACEB0B0C60444FFA80FE94F83D
:1062300023000B44A0EB90008644DBB25FFA8EFE95
:1062400084F822300EEBD30384F823E084F8243062
:106250000121994B197094F8243084F826300023DA
:10626000A38394F82510DFF850B201F00F03013B2F
:10627000072B3FF6C2AB01A050F823F09D6220002F
:10628000DD62200085632000C56420001B652000BE
:1062900045652000656120009B6420009BF800306C
:1062A000DA0713D5032384F8253040238BF8003018
:1062B00000233088A38320B142238BF80030FFF7FE
:1062C0007DFA00227D4B1A80FFF718BB95F8353018
:1062D00003F03F03022B7FF490AB19E79BF80030EB
:1062E000DB0744D595F8353003F03F03122B3ED140
:1062F00095F8343003F0F001502921D91B09053BF2
:106300009B00A91891F83CC0BCF1000F18D0BCF15B
:10631000010F03D101329A42F3DB11E0BCF1020F0D
:1063200091F83D001FD104281DD191F83E2091F82D
:106330003F3043EA0223402B28BF4023E3832384DA
:10634000032384F82530EB6A01206361FFF736FAF6
:10635000422388F800300023584AA38333803B70DF
:106360001380FFF7CBBA0028EAD00244D3E72023FA
:106370008BF8003001F01CFC0022DAF8003083F8C2
:1063800025200EE695F83530DF0728D5C80626D437
:10639000A38B002B7FF431AB3088013080B2FFF744
:1063A0000DFA9BF8003043F010028BF80020328881
:1063B0001AB143F012038BF8003001F0F9FB01230E
:1063C000A383082384F82530002384F82730112282
:1063D0003B4B83F835203C233380FFF779BB9A068B
:1063E00010D56B8FD9F800205BBA95F83AC095F8B4
:1063F0003B709BB230881344C9F8003047EA0C2345
:10640000C31A3380308848B1CB0607D49BF80030DC
:1064100043F002038BF80030FFF7D0F995F83620EF
:1064200095F8373003EB0223228C9BB29A4202D3B9
:10643000002B18BF1A469BF80030E2839F073FF4F9
:10644000DCAA3EE712F0100008D019800123A383D4
:10645000042384F8271084F82530B8E7198851B14F
:10646000D50748BFA083A28B52B9E28B914288BF67
:106470001A801B88A383002384F82730FFF715BBFD
:106480001A80F8E70C4B1B789A077FF5B6AA3C23D5
:10649000102233800A4BFFF719BB9BF80030DB0753
:1064A0007FF5ABAA002384F8253010238BF8003049
:1064B0008BE400BF701F0020902400209C26002049
:1064C0007C1F0020308808B1FFF778F995F8353047
:1064D00013F0010317D09BF80030DF0749BF0723F3
:1064E000062384F82530002352BF84F8253084F831
:1064F0002630A3830120FFF761F910238BF80030C9
:1065000001F056FB2EE69BF80020D00714D505229B
:10651000A38384F82520FFF770BA308808B1FFF70D
:106520004DF995F83530D90706D5072384F825307D
:10653000002384F82630DDE73388002B7FF412AE89
:10654000FFF75BBA9BF80030DA077FF556AA0723FE
:1065500084F82530002384F82630FFF74EBA00BFB8
:10656000054BC0F3072203EA0023000C40BA134393
:1065700080B240EA0340704700FFFF0010B50446B8
:1065800040B102F0B3FD044B2146BDE8104018684D
:1065900003F082B810BD00BFF800002008B503F07A
:1065A00083FA034B03491868BDE8084002F0C2BFF4
:1065B000F80000207D65200070B504460C481E469A
:1065C0009DF81020059B006802F0E2FF054668B1C7
:1065D00020462B4604F1100250F8041B904243F869
:1065E000041BF9D16E74284602F080FD284670BD68
:1065F000F8000020024B0146186805F0EFBD00BF0F
:10660000F800002070B50C4D0646286802F0A6FF81
:10661000044676B90024204670BD1022314620463B
:1066200004F036FB0028F6D02146286805F0A8FDC6
:106630000446002CF1D1EDE7F8000020024B0146A2
:10664000186805F0B4BD00BFF800002070B505461D
:1066500010200E4603F07EF90849044605F0C9FDF6
:1066600058B932462946204603F0BCF9324629463D
:106670002046BDE8704002F01BBD70BDD2C92000AD
:106680002DE9F04F8A4C87B0E3798A4EFF2BDFF873
:106690004C9240F00881337804F12C055A19127994
:1066A000FF2A00F0008104F128010B445A7802917E
:1066B000002A40F0F880804B804F1A6014229846E0
:1066C000DFF81CA23A7030783B782C30B9F8002003
:1066D000034493427DDB20440430FEF7C3FB784B38
:1066E00018609B46002800F0DE80628923891343EE
:1066F000A2891343E2891343228A1343628A134314
:10670000A28A1343E28A134300F0CD806D4F3846CE
:10671000FEF7A8FBB846002840F0C58040F2FF23F2
:10672000228B07F1100A9A4240F0AA80A28B638B59
:106730001343E28B1343228C134340F0A180638CFC
:10674000B3F5807F40F09C8094F82430FF2B40F01C
:10675000978097E80F008AE80F0033781D440435CE
:1067600095E80F0087E80F00002360223370564B36
:10677000564FC4E9002388232385E023DBF800205B
:1067800084F82C30931C12323D461868596808333F
:1067900003C593422F46F7D140F202234C49A4F897
:1067A00040300A684B4BC4F842204A685A600022C5
:1067B000C4F84A209A81628504F044FE3378029A34
:1067C000C0431A4450235080A9F8003007B0BDE8F8
:1067D000F08FE2185178002965D014F803B0BBF1AE
:1067E000010F25D161892389C8F800200B43A189B5
:1067F0000B43E1890B43218A0B43618A0B43A18A36
:106800000B43E18A0B434ED052F8020F04AB5168A0
:1068100003C32C48FFF7F6FE0246CAF8000080B911
:1068200005230190009304A902232648FFF7C4FE24
:106830003A78337813442B445B7802EBC3023A7006
:1068400041E7FFF7D7FE034668B3D8F800001946C2
:1068500008220230039304F01BFA039B50B15A46FE
:1068600004A9184602F03EFFE8B1DAF8003002222F
:106870005A74DDE7DAF800305A7C002AD8D1F6E7FE
:106880001548FEF7EFFADBF8003083420BD198E8A9
:106890000F008AE80F0033781D44043595E80F0097
:1068A00088E80F0060E70023A9F8003033708DE717
:1068B0007C1F002036180020940800203818002083
:1068C0008C080020841F002000283AFFAC1F002005
:1068D000741F0020BE1F0020941F0020681F00208E
:1068E000900800200148FEF771B900BF0C0100209C
:1068F000B8220B4B30B502FB0032002301461C4688
:1069000018465382074A957825B115788D4204BF01
:106910009470013001330C2B02F17102F3D130BDC0
:10692000A00800204318002008B5064800F0DEFF4C
:106930000122054BFD211A70002299705A70DA70FD
:1069400008BD00BF716B20003918002030B51378E6
:106950000446087A83F0020398421FD1487A53789C
:1069600098421BD1887A9378984217D1C87AD37805
:10697000984213D1087B137998420FD1487B537901
:1069800098420BD1887B9379984207D1C87BD37901
:10699000984203D10320A040C0B230BD0E4B0889FD
:1069A0001A681D4660B94889B0F57F4F08D18889BB
:1069B000FE2805D1C989022022F8021B1A60EAE7E5
:1069C00001F1080303CB083242F8080C42F8041C1A
:1069D00001202A60DFE700BF100A002010B50E4C2E
:1069E0000220A17902F09CFFA379112B09D1218DFE
:1069F000638D994228BF1946BDE81040012002F07E
:106A00008FBF062BF3D03A2B03D1218D49BA89B21F
:106A1000F2E70021F0E700BF7C1F002010B5084C12
:106A200001462378012B08D10822A01C04F030F97C
:106A300000280CBF2046002010BD0020FCE700BF4E
:106A40003918002008B50146102002F077FF044BEA
:106A500000219B6803489847BDE80840FCF79AB8B6
:106A600074C72000696A200010B50C461146204604
:106A7000FFF7ECFD044B1B6813B19B682046984759
:106A8000024B1C6010BD00BF98080020180A0020AF
:106A9000164A2DE9F0410023074615469078E0B9E3
:106AA00071245C432E19717002F062FEDFF844809D
:106AB0000F4B98F800102F55401A1F68B0700F4404
:106AC00002F056FE98F800200334821A394628193D
:106AD00004F010F9B078BDE8F08101330C2B02F11D
:106AE0007102DBD14FF0FF30F5E700BF4318002003
:106AF000200A00208F1D00202DE9F04115090F2DDF
:106B000008BF102502F00F040F2C06461F4608BFD1
:106B1000102415B12A4604F0EDF82A190F2A05DCD5
:106B2000C2F110020021701904F0C0F9ACB10F4F8E
:106B3000C4F11000D7F8008022464146304404F0EA
:106B4000D9F8022C05D10A2D9FBFFF23F372FE2333
:106B5000337344443C60BDE8F081002DFBD03946DE
:106B60003046BDE8F04104F027BC00BF100A002009
:106B700000232DE9F04FC54EC54D87B033702B7003
:106B8000044602F073FE02F005FEC24AC24B1268D0
:106B90001860CDE9015603930AB1FFF71FFF002CDF
:106BA00040F01F81BD4904A805F01EFB039BDFF8E0
:106BB000F8921D68019B93F800A0B94B1B883E2BEF
:106BC00040F23C82B74CAB1C236000230AF1020860
:106BD00005F8083009F11800FFF720FF30B909F176
:106BE0000800FFF71BFF002800F0FD80EB1C23606E
:106BF000802499F8016099F80000330943EA0013F2
:106C0000DBB29A0842EA831252B200F00F0026F07B
:106C10000F0316F00F0FD7B240EA0300A14940F06E
:106C2000E480B9F80230002B40F0DF80002800F04B
:106C3000F48070260B6803F8017B0B609A4B9879FF
:106C4000112816BF0A6846F0040602F8010BDB792A
:106C500018BF0A60402B00F0E280FF2B00F0E280BA
:106C6000012B40F0E28046F00106B9F808B0B9F80F
:106C70000A30B9F80C204BEA03031343B9F80E208D
:106C8000884F1343B9F810201343B9F81220134367
:106C9000B9F814201343B9F81620134340F0CA8002
:106CA00044F04004DFF8009299F81830FF2B40F0D0
:106CB000608199F8190044F008020228B9F81A1006
:106CC0003B6840F00F81002940F04081B9F81EC0B8
:106CD000B9F81C1041EA0C01B9F820C041EA0C01D6
:106CE000B9F822C041EA0C01B9F824C051EA0C01FC
:106CF00040F0F98099F82610002940F0F48099F8C6
:106D0000272044F00B0403F8012B3B602823029A50
:106D10001370654A9379112B31D14FF2B00E178D54
:106D2000B2F82AC0390A41EA072189B24FEA1C2782
:106D300047EA0C2721F00F0C5A481FFA8CFCF44547
:106D40000368BFB240F0578127F00F0EE64540F0D0
:106D50005281F3211970118D02330F0A518D090AE6
:106D600001EB071101F5AA6103F8011C0360036838
:106D7000D28D23F8022B03603023029A1370494B03
:106D800005F80A601B68AA445D1B019B8AF8014054
:106D90001D700DF1100A5146102002F0CFFD434B3B
:106DA0003F4D1B6898470028B8BF1520029A0199EB
:106DB0002B8816780C78C0F17D089A1BA8EB04018B
:106DC0008A4240F3FD81C0F1780793FBF7F402F0AB
:106DD000D1FA01388442C0F24D81002007B0BDE8ED
:106DE000F08F2146DFE6044603E70B68DFF8B8C002
:106DF00058B922F03F0216431E70BCF8022003333C
:106E000023F8022C68260B6018E7DCF800206026C7
:106E10001A6003F8047B0B6010E778260EE746F053
:106E2000020622E746F003061FE70A6802F8013B64
:106E30000A601AE71E48FFF7F1FD1E4B186078B193
:106E4000427815F808301A4943EA021305F8083069
:106E5000194A0420FFF77AFD60F03F00C4B221E731
:106E600048F2FE039B4529D1B9F81C20B9F81A3025
:106E70001343B9F81E20134320D10F4A0C490420B4
:106E8000FFF764FD0443E4B20CE700BF901D00204F
:106E90008F1D002098080020200A0020D2C9200061
:106EA000681F0020100A00207C1F00202CC7200033
:106EB000841F00209C080020741F00203A68DFF81F
:106EC0003CE394460EF11009734603CB4B45CCF8D6
:106ED0000000CCF804109E460CF1080CF4D11032DE
:106EE0003A60DFE691BBBF49B1F81EC08F8B47EA1D
:106EF0000C07B1F820C047EA0C07B1F822C057EAE6
:106F00000C0C8C4611D191F824707FB91A4602F806
:106F1000010B31F8250F44F00A04A3F80100897829
:106F200004339170B04A1360F0E67FB99CF82210E8
:106F300061B91A46AD4902F8010B086844F009042A
:106F4000C3F80100097906331171EBE71F46DFF83A
:106F5000B0C20CF1100E644603CC74453860796001
:106F6000A44607F10807F6D19F4910330B60144679
:106F7000CCE609F11800FFF751FD9D4B186080B178
:106F8000427815F8083009F11801134305F8083064
:106F900004AA0020FFF7DAFC2043C0B240F004044A
:106FA000B4E648F2FE03B9F818209A4210D1B9F8B5
:106FB0001C20B9F81A301343B9F81E20134307D127
:106FC00004AA09F11801FFF7C1FC0443E4B29DE6ED
:106FD0003A68DFF82CC217460CF1100E634603CB5B
:106FE0007345386079609C4607F10807F6D17E4BFF
:106FF00010321A608AE607F47F47B7F5704F09D15F
:10700000F1211970118DA3F80110518D090AD97061
:107010000433ABE601F47F41B1F5704F07D1F221A3
:107020001970118D090A5970518D5980F0E7F021BE
:107030001970916A053343F8041C97E641232B70BD
:107040000AF10103DBB21D4409F128024B4603CBD0
:10705000934228606960994605F10805F6D1019BC5
:107060000AF1290A83F800A0029B029A1B782833B0
:1070700013708EE60023DFF88CB15E4ECBF8003043
:10708000039BD3F80090019B49461C7809F104004A
:10709000224603F0A5FE2B88574A1B0A63F03F03E4
:1070A00089F800302B88043489F801301388E4B261
:1070B000591C118089F803301A0A019BA8EB0408B7
:1070C0001C70029B28F007081978464B89F80220AB
:1070D0001944424609EB0400C6F8008003F00AFE9A
:1070E00004EB080080B202F039FB02F049F93D4B95
:1070F00080461C4600283FF470AE5046FFF7A2FCC5
:10710000404602F075F9404602F05CF9DBF80030C9
:10711000012B3FF462AE043B012B7FF65EAE029B77
:10712000019A93F80080336827F0070798440523F5
:107130001370039B1FFA88F81A682B8837601B0AA4
:1071400063F01F0313702B8853702B88434501D8BD
:10715000012043E6039AA3EB080310684FEAD80224
:107160000271326804EB08019342B8BF3360019B9F
:10717000D6F800901F784A46384403F0BBFD07EB71
:10718000090080B202F0EAFA02F0FAF80746002895
:107190003FF423AE5046FFF755FC384602F028F97D
:1071A000384602F00FF933689844DBF800301FFAD4
:1071B00088F8012B3FF411AE043B012BC5D80CE637
:1071C000039B084918683144204403F093FD288844
:1071D0002044801B80B202F0C1FA5046FFF732FC17
:1071E000B6E700BF7C1F0020100A00209F1F002070
:1071F0009C0800201C0A002072110020841F00201F
:10720000941F0020180A00202DE9F8438046894683
:1072100017464C4D002A3BD16B8A53BB0024B5F86E
:10722000CA30002B00F08A80474803F0D1FF10B12C
:107230000120FFF75DFB631C40F08280B5F8CA3087
:10724000A3B90124B8266643AF19A7F81290A7F88E
:1072500010800F2002F07EFB0146384604F0C4FF88
:1072600006F118004021284403F0A0FF2046BDE8A5
:10727000F88305F1180003F0ABFF28B96B8A002BE7
:10728000CCD04FF0FF34CAE73846FFF731FBF5E7C3
:107290002B8A83420AD16B8A43B10F2002F05AFB3A
:1072A0000146284604F0A5FF002840D1B5F8C830B3
:1072B00043453ED1B5F8CA30002B3AD00F2002F03A
:1072C00049FB0146214804F094FF90B301245FFA82
:1072D00084F839464046FFF7DBFB00281DDA6E8A4A
:1072E0004EB14CB31A4803F073FF064618B10020A4
:1072F000FFF7FEFA0646B5F8CA3043B13CB912486A
:1073000003F066FF18B10120FFF7F2FA0644002EE1
:107310000FDD39464046FFF7BBFB002809DDB823E7
:1073200003FB0455AB8A64B21844A8829EE700248C
:10733000CDE74FF0FF3499E72646DCE7013480D0F3
:1073400000247FE7A00800207009002058090020D1
:10735000B80800202DE9F04F002787B07D4C0F20A2
:10736000DFF818B202F0F6FA02F078FB8BF8007042
:10737000277002F00FFA784DA2462860042002F030
:10738000D7FA2A68754B168800B276BAB6B218607A
:10739000331203F0F803C02B00F0C280E02B00F0A2
:1073A000EF80B946B8463E466D4C2B689AF80010FF
:1073B0005A5C02F0E000602840F04182881C1844CA
:1073C0000B445D78DFF89CC16FB2002FCCF8000051
:1073D000BCBF0130CCF80000D006614602F0080CBA
:1073E00000F16A810B68BCF1000F40F05281184631
:1073F00030F801CFA4F801C08078E07013F8040BD6
:107400000B60830803F00F0141F060012170617887
:1074100003F0300343EA801301F00F010B43637064
:1074200012F00403009305D14E490B6813F8010BC9
:10743000A0710B6012F003020BBF4A4A4A4B13685B
:107440009B5C09BF13F8011BE3711360E1716B06CC
:10745000C5F3011240F15F81002FBDBF3E4B9AF88A
:1074600000101B680023BEBF5B189B781B09002A15
:1074700040F0438104F108030193002A40F0478162
:1074800011463A4B0F209A5C0391029202F062FA85
:10749000DDE9022103460198FFF72EFB05F0030208
:1074A00005F0040315F0080500F04181ABB9304B3D
:1074B0001B88ADF81430531E012B06D829490B68E0
:1074C00013F8010B8DF815000B60002329498A5C25
:1074D00005A904F11800FFF70FFB9BF800002149F4
:1074E00000F128038BF80030009B002B00F059813D
:1074F0000B681A7802F0F802F02A40F0528111224B
:10750000A2711A7802F0040502F0F302F03A032A9D
:1075100000F25F81DFE812F0340160016D01770154
:1075200050882378C6F30A0640BA04333A463146F7
:1075300080B22370FFF768FEB0F1FF3F814600F094
:107540009B81B8240C4B4FF0010804FB003422341B
:107550002BE700BF8F1D0020200A0020140A002006
:107560007C1F0020100A00208DC9200091C9200036
:107570007EC9200099C92000A0080020901D00208D
:1075800013795088227840BA0532C6F30A06227071
:1075900031461A4680B20093FFF736FEB0F1FF3F46
:1075A000814600F06981B822B5494FF0010802FB1D
:1075B0000012958A3C46B54234BF00250125009B48
:1075C000009302F0D5F89AF80020824200F254812C
:1075D00002F0CEF89AF80010AA4AA0EB010AC2F80D
:1075E00000A040F214529BF800B0009B0BEBC303C9
:1075F0005344934200F240813CB1A34B52461B6876
:1076000004EB0B00194403F075FB002E00F02E81F3
:1076100047B1B8239A490BEB0A0203FB091392B254
:107620009A821A84002D00F04381B82303FB09F3EA
:1076300093499648CA18223396821944128C03F053
:1076400059FB0025924C914FA27842B1237899457D
:1076500005D16078E11C07EBC00003F04BFB01355E
:107660000C2D04F17104EFD15FFA89F0FFF740F9B6
:10767000B8F1000F00F01F81864B874C1E802368F5
:1076800023B1FFF7ABF923685B68984700F048F92E
:10769000F2E06020207093F800C003334FEA9C00B2
:1076A00000F030000CF00F0C40EA0C00607033F872
:1076B000020C60800B60B3E6BCF1000F12D10B68C6
:1076C0001878C0F3830040F06000207013F801EBDD
:1076D000A4F802C04FEA9E0000F0300040EA8E108D
:1076E0006070E7E7602323800023638098E690F8CA
:1076F00001C09C4506D10860BCE6684801780129B4
:107700006749F4D000250D6047462B4658E7644B87
:1077100019680231B5E6634B0F209A5C019202F0C2
:1077200019F9019A0346604904F10800B4E6F3B17F
:10773000002F07DA544B9AF800101B680B449D7811
:1077400005F00F05554F3B78012B554B02D0002516
:107750001D60D9E77978A942F9D11F60534B1020F9
:107760009D5C02F0F7F82A460346B91CB1E64D4B82
:1077700010209D5C02F0EEF82A4603464A49A8E62E
:10778000B3F801200533228533F8022C62850B60A3
:1077900025B90B6833F8022BE2850B6030308BF88B
:1077A0000000394A0B6812689B1A8AF80030002ED4
:1077B0003FD101F0DDFF9AF80030C31A9BF80000BA
:1077C0000344283B5BBAA380A379112B01D1A38882
:1077D000A3854746002598E7B3F801202285DA788B
:1077E000A2F5805292B2120242F0F0026285043396
:1077F000CDE75A78A2F5805292B2120242F0F0021E
:1078000022855A88F2E75A7802331209A2F5756286
:1078100092B2120242F0F002228513F8012C02F01B
:107820000F02A2F5756292B2120242F0F002628576
:10783000ADE7A6F128031A1222716371C4E7412A49
:107840001AD14A1CD2B21344224603F1280053F83D
:10785000045B834242F8045BF9D19BF80030293184
:1078600028338AF800108BF80030B2E7B8F1000F27
:1078700021D0002D7FF400AF07B0BDE8F08F00BF2E
:10788000A00800201C0A0020200A00207C1F0020E5
:1078900043180020681F0020980800203918002095
:1078A0009C08002095C9200080C9200091C92000B3
:1078B000B8F1000FE0D10BEB0A06B6B2DCE600BF70
:1078C00008B5054803F05AFC20B1BDE8084002485D
:1078D00003F04BBC08BD00BF280A0020024B1B6808
:1078E00003B1184718467047240A0020014B18605E
:1078F000704700BF240A002007B5074B8DF807002A
:10790000186828B1054B0DF107021978FCF7DEFE67
:1079100003B05DF804FB00BF842600208E29002000
:1079200008B5002202210448FCF7D0FE0023034AD8
:107930001380034A137008BD18010020681F00203F
:107940003618002070B52B4E33883546002B32D0C8
:10795000B3F5A06F04D900232B80274A13702AE0C7
:10796000264C628B238B1343A28B1343E28B13436E
:10797000228C1343628C1343A28C1343E28C134377
:10798000E9D001F027FB0028E5D0237EFF2B2BD088
:1079900004F11800FDF748FAF0B904F11800FDF7FA
:1079A000A9FC044640B9FDF725FE0028D3D0FEF718
:1079B00029FEA0B9288070BDFDF778FC0028F6D11B
:1079C000E36923B11B6A93F8940003F0B3FF2046E8
:1079D000BDE87040FDF7C0BC04F11800E7E7FEF712
:1079E00009FEFFF77BFFB6E70020FFF777FF0023D4
:1079F0003380B2E7681F0020361800207C1F00206B
:107A00002DE9F041038806461446002B00F09780CC
:107A100040F24B32934240F0AF80022979D009D82E
:107A2000002962D001296CD040F24B330120338011
:107A3000BDE8F081872920D08829F5D1504B9C42A0
:107A400046D1204603F09AFB0028EDD000274D4D8B
:107A5000DFF8408195F825304BB1204603F085FBD7
:107A60000220C8F80050FDF72BFFFFF76BFF01372E
:107A7000082F05F13005EDD1D6E708254FF00008B5
:107A8000414F7B689C4206D13888FDF707FFA7F875
:107A90000080C7F80480013D15F0FF0507F10807D5
:107AA000EFD10823374A916A30328C4204BF42F842
:107AB000085C02F80B5C013BF5D10A21334A90695E
:107AC0002032844208BF22F8103C0139F7D1ABE7DD
:107AD0002F4B9C42A8D1204603F050FB0028A3D096
