:020000040020DA
:1020000080160020992320004F6D20004D6D200088
:102010004D6D20004D6D20004D6D20000000000032
:10202000000000000000000000000000A773200076
:102030004D6D200000000000C5732000B56D20002C
:10204000C76D2000CD6D2000D36D2000D96D20001C
:1020500000000000BB6D2000C16D20004D6D200010
:102060004D6D200000000000000000000000000096
:1020700000000000000000004D6D20000000000086
:1020800000000000000000004D6D20004D6D20009C
:102090004D6D20004D6D20004D6D20004D6D2000D8
:1020A0004D6D20004D6D20004D6D20004D6D2000C8
:1020B0004D6D20004D6D20004D6D20004D6D2000B8
:1020C0004D6D20004D6D20004D6D20004D6D2000A8
:1020D0004D6D200000000000000000000000000026
:1020E00000000000000000000000000000000000F0
:1020F0000000000000000000D5392000E539200074
:1021000000000000000000000000000000000000CF
:1021100000000000000000000000000000000000BF
:1021200000000000000000000000000000000000AF
:10213000000000000000000000000000000000009F
:10214000000000000000000000000000000000008F
:10215000000000000000000000000000000000007F
:10216000000000000000000000000000000000006F
:10217000000000000000000000000000000000005F
:10218000000000000000000000000000000000004F
:10219000000000000000000000000000000000003F
:1021A000000000000000000000000000000000002F
:1021B000000000000000000000000000000000001F
:1021C000000000000000000000000000000000000F
:1021D00000000000000000000000000000000000FF
:1021E00000000000000000000000000000000000EF
:1021F00000000000000000000000000000000000DF
:1022000000000000000000000000000000000000CE
:1022100000000000000000000000000000000000BE
:1022200000000000000000000000000000000000AE
:10223000000000000000000000000000000000009E
:10224000000000000000000000000000000000008E
:10225000000000000000000000000000000000007E
:10226000000000000000000000000000000000006E
:102270004D6D2000B9382000DD3820006D2F200082
:10228000493B2000852A20004D6D20000000000001
:1022900070B503880446002B36D0832B51D1882992
:1022A0004BD1052000F066F92F4B20205E68B04727
:1022B0002E4D001128800420B0472D4E0011308093
:1022C00029882C4801F08EFC31882B4801F08AFCCB
:1022D000287803F0F7FF1EA3D3E9002304F086F962
:1022E0001DA3D3E9002304F057F81DA3D3E900236D
:1022F00003F09CFE04F062FAC1B2204801F072FCC7
:10230000052000F03FF914E01D4801F06BFC1D486A
:1023100001F068FC1C4B0B21DB6A012098478121EE
:102320001A481B4A02F0F8FC0F4B242180209B68BE
:1023300098478021174804F0CEFD83230120238095
:1023400070BD002303800320FAE700BFAFF30080D5
:10235000FCA9F1D24D621040000000001B9EF73F27
:10236000000000803FB54340E8772000F00C0020DB
:10237000F20C00208C7C2000A47C2000BC7C20007F
:10238000417C2000657C200070782000D006002071
:10239000CC792000E8060020FF22482408B5084B2D
:1023A00008481A60084AE369121A08499847084819
:1023B000084AA369121A0021984700F00DF8FEE7B9
:1023C000B4200D4040000020F8000020EC7C2000EC
:1023D000F8000020790E002073B500F0A1FC00F099
:1023E00059FD00F0B7FC00F0BBFA01F09BFB04F0D4
:1023F00081FD00F047FD00F0B3F8012004F0AAFCD5
:1024000002F05EF900F078FC002000F093FB012060
:1024100000F090FB4049002000F058FC02F098FAD0
:1024200062B6042004F096FC3C4804F0FAFC3C48F8
:1024300004F0F7FC00F032FA002002F035FB01F066
:1024400061FA0021374802F0C9F901F0A7FF04F052
:10245000AFFC00F0AFFD00F0CBFD02F06DFE0821F7
:10246000684601F085FB9DF806309DF807502E4C1C
:1024700045EA0325BDF806302C48238001F0B2FB65
:102480002B4E21782B4801F0ADFB61782A4801F0F2
:10249000A9FBF46A4AF6CD310220A0472946032061
:1024A000A0471A210120A04708226946736B0B2020
:1024B0009847224801F096FB214B186804F0B1FCC4
:1024C000204801F08FFB204B186804F0AAFC1F483D
:1024D00001F088FB1E4B186804F0A3FC00211D4886
:1024E00002F07CF91C4B01219B688120984704F085
:1024F000F1FC1A4804F0E4FC00F004FC022004F0B3
:1025000029FC00F005FC02F0F3F810F0FF0FF8D101
:1025100001F09CFAF5E700BF09492000D6792000B8
:10252000E879200078000020700E00200D7A20004D
:10253000707820002B7A2000317A2000377A200032
:10254000447920003E7A20006C792000457A2000F2
:102550008879200098000020F8772000C4792000B6
:1025600008B500F03FF90022014B1A7008BD00BF0A
:10257000F40C0020024A13781843107000F056B98A
:10258000F40C0020034A137823EA0000107000F0D6
:102590004DB900BFF40C002008B50B4B1B7803426B
:1025A0000FD020280BD004280BD10220074B80210C
:1025B0001A7800F099FC20EAE07000B208BD05200E
:1025C000F4E74FF00040F9E7F60C0020F50C00208E
:1025D000802810B50C4605D0B0F5807F27D04FF08D
:1025E000004023E08B1E222BF9D8E34317490A68E9
:1025F0001A400A60164A11680B401360A20604D5FF
:1026000001220521002000F053FC630704D50122BC
:102610000221002000F04CFC00F05EFC30220D4B4B
:102620001A700D4B187820431870002010BDC8B2E6
:10263000102802D004D80028D1D1064B1870F5E735
:102640002028FAD03028F8D0C9E700BF20940D40E8
:1026500000940D40F50C0020F60C002018B1012864
:1026600004D000207047034B18687047024B18785D
:10267000704700BF20900D40F70C002010B5094AAC
:102680000020137801331370074B197802F07EF89D
:10269000BDE8104005490023054A0968054801F0D6
:1026A000B3BE00BFF70C0020720E002030010020E6
:1026B0007D26200010010020812808B52BD0B0F520
:1026C000807F3AD0802824D101F0F2FF1C4B1D4AB4
:1026D00018701368032123F00803136052F8203C9C
:1026E000002023F0080342F8203C52F81C3C23F061
:1026F000080342F81C3C52F8183C43F0080342F827
:10270000183C042200F0D4FB032200210E4800F004
:1027100073FB012108E00D4B0D481A6831B142F0FE
:1027200008021A6001230360084608BD22F008026F
:102730001A600123C0F88030F6E7064B1960E8E71D
:10274000720E002020940D405927200010940D4057
:1027500000E100E03001002008B50F4804F0D3FB91
:10276000C8B108210C4804F0C7FB0C4B196849B1EB
:1027700000220B4B1A700B4B1B6843B90A4A0B48DB
:1027800001F042FEBDE80840094802F05DB9074883
:1027900001F044FEF6E708BD0801002030010020EA
:1027A000F70C002020900D407D2620001001002015
:1027B000F8772000084A136823F00403136052F8E6
:1027C000203C43F0040342F8203C0022034B1A60F3
:1027D0000122034B1A70704720C40D4010C00D40F9
:1027E000F80C00200D4A0E49136823F0C003136053
:1027F00052F8203C43F0C00342F8203C0022094B31
:102800001A600B6823F010030B6051F8203C43F072
:10281000100341F8203C044B1A60704720A40D407F
:1028200020C40D4000A30D4040C00D4010F0020236
:1028300018BFFF22084B1A6010F0040218BFFF22D5
:10284000064B10F001001A6018BFFF22044B14BFA2
:102850001A601860704700BF00A20D4000A10D4033
:1028600040C00D40044B1868C0F30720030904BFA3
:102870001030C0B2704700BF1C300D40064B1868C6
:10288000C00910F0060F03BF00F00700C0F10200FE
:1028900040034FF40040704714300D402DE9F047DD
:1028A000482588B0FFF7DEFF164B07461C68AB686B
:1028B00098476B68804698470546FFF7DFFF064656
:1028C00000F082FA814600F08BFA824600F038FA76
:1028D000B60A04F00103AD0AC4F34004CDE905A033
:1028E0000393CDF8109002940196009507F00F0322
:1028F000C7F307124146044801F074F908B0BDE877
:10290000F08700BF1C300D40687A20002DE9F843A5
:1029100000F07AF810490246D1E90045AC46A042E1
:1029200038BF05F1010C6346C1E900230B48D0E92B
:102930000089B8EB040169EB05048E1844EB0C0721
:10294000C0E9006701F01EFE18B1BDE8F84301F0D0
:102950009DBDBDE8F88300BF00010020F800002005
:10296000E0210D4B0D4A5A600D4A82F823100022D7
:1029700007219A6019600B490B6843F001030B6053
:10298000094B1A60042243F80C2C012243F8082C4E
:102990000F22DA62704700BF10E000E047E8010054
:1029A00000ED00E008200D400C000340034BD3E98C
:1029B0000023100A40EA0360704700BF00010020B6
:1029C000054B18601C3B1A6842F001021A601A6835
:1029D000D207FCD4704700BF2800034010B5064C56
:1029E000236823F001032360FFF790FF236843F07F
:1029F0000103236010BD00BF10E000E0014B186828
:102A0000704700BF34010020064B18685A6808332D
:102A10001B681B0443EA0223034A0343106843EA8A
:102A20000060704740500D404C500D40014608B5C5
:102A3000104A1368DB07FCD572B6FFF7E5FF0B1AE7
:102A4000062BD8BFC11D0C4B0A0E1A60C1F30742FA
:102A500043F8042CC1F3072243F8082CCAB243F808
:102A60000C2C62B64FF40032044B1960044B1A610F
:102A700008BD00BF50500D404C500D4034010020A7
:102A800000E100E008B500F0C9FF0022064B1A6023
:102A90004FF40032054BC3F89021C3F89020BDE8F5
:102AA000084001F0D1BE00BF3401002000E100E089
:102AB0002C23154A70B503FB00234FF6BF72DC6868
:102AC0000546236C626413F050020DD00F4EA369CB
:102AD000DB0600D570BD56F825301BB12068C0B2AA
:102AE0009847F4E72368F2E713F4D06FF2D04FF47D
:102AF00040732363FF236360E36AE262E362236B54
:102B000043F001032363E5E7087820003801002043
:102B1000064B1B681B075FBF054B186880F0080059
:102B2000C0F3C00048BF0020704700BF18C000407D
:102B300018D0004001282DE9F74F064600F2B48076
:102B40002C2545435A4F7C1994F92080B8F1000F89
:102B5000C0F2AA8094F92290B9F1000FC0F2A480CB
:102B6000544800F0CDFF544A79591368E5680B4387
:102B700013605368616894F921A00B435360936814
:102B8000A1685FFA89FB0B4393600023C5F8C83F37
:102B900023690AEBC8021A6094F92330227D00935E
:102BA0009DF8003058461946019300F08BF9019BBF
:102BB00008221946584600F07BF901233F494FEAA5
:102BC0000939009A59F8010003FA02F2024349F860
:102BD00001204FEA083858F8010003FA0AF20243CC
:102BE00048F801205022AA63AA6B94F9240042F409
:102BF000D062AA6302226A634FF440722A63A26918
:102C000000286A62E269AA624FF07002EA620D4629
:102C100014DB94F925102A4A41EAC0041460020327
:102C200054598B4023435351C9B20022C0B200F023
:102C30003FF9244A136843F4004313602C2303FB39
:102C4000067393F92640002C1BDB93F927A05FFA4B
:102C500084F85FFA8AF901224946404600F032F9C9
:102C600001232403625903FA0AF313436351082230
:102C70004946404600F01CF9124A136843F4804369
:102C800013602C2303FB0676F268136B43F00103F9
:102C90001363012296F82830590903F01F0302FA42
:102CA00003F3094A42F8213003B0BDE8F08F00BFBA
:102CB00008782000112B200028200D4020940D4082
:102CC00004410D4030D0004000E100E001289CBFED
:102CD000014B43F82010704738010020012808D824
:102CE0002C22044B02FB0030C3689A699206FCD484
:102CF00019607047087820000022014B1A60704765
:102D000000500D400822014B1A60704700500D40E2
:102D1000A022024B1A6050221A60704700500D40EA
:102D2000014A024B9A6070470020200000ED00E04D
:102D3000024B1868C0F38150704700BF04200D405B
:102D400008B5FFF7F5FF024B53F8200008BD00BFA0
:102D50006078200038B5164D164C2B68012223F000
:102D600040032B602368062123F0400323600320E7
:102D700000F09EF82B68012223F080032B6023686B
:102D8000072123F080032360032000F091F80A4B11
:102D90000A4A0B491A600B4A134610680842FCD1D4
:102DA0001A685101FCD41A685201FCD538BD00BF25
:102DB00020C40D4000C40D4000200D400101020060
:102DC0000000010104200D40034B04481B6803F080
:102DD00007031841704700BF04200D400048E80178
:102DE000034B04481B68C3F302231841704700BF1C
:102DF00004200D400048E801024B02EBC10243F8F9
:102E00002200704740010020F8B507460E46002416
:102E1000084D05EB411547FA04F3DB07E1B204D591
:102E200055F824300BB1304698470134082CF2D1C4
:102E3000F8BD00BF400100202DE9F8430746DFF848
:102E4000408000F0EBFD0C4B3D03EE5855F8084078
:102E50004FEAC70924FA09F446EA04003946C0B229
:102E6000FFF7D2FFE4B2054BF6B204FA09F4EE50D4
:102E700045F80840BDE8F88318940D401C940D40B7
:102E800018970D4080220021014803F0E1BE00BFE9
:102E900040010020034B044A1A60044B803A1A6038
:102EA000704700BFC001002080400D40C4010020D9
:102EB000034B01EBC0011B6843F82120704700BFA2
:102EC000C0010020034B01EBC0011B6843F8212027
:102ED000704700BFC4010020024A136843F030036A
:102EE0001360704700700D400E28F0B50BD1154DE2
:102EF000154F2C6844F002032B603D6825F03F0617
:102F000046F001063E60114E336823F0FF03134381
:102F10000B4303430E4A336013681B06FCD50D4B6D
:102F20000D4A1B6812680E2803F0FC0343EA0223D3
:102F300008BF054A1BB204BF1560024A184608BF05
:102F40001460F0BD34000144F486084008700D4060
:102F500000700D400C700D4010700D40024B186851
:102F6000B0FA80F04009704700B708404FF40042C3
:102F7000064B10B5064CC3F89021C3F8902020688A
:102F800018B101F043FC0023236010BD00E100E014
:102F9000C8010020064A136843F002031360536817
:102FA00043F002035360936843F002039360704759
:102FB00048200D4007B50C4800F0A2FDFFF7EAFFDE
:102FC0000A4B1A6842F002021A6000220192019A2A
:102FD0000F2A06DD1A6822F002021A6003B05DF8BB
:102FE00004FB019A0132F1E75D2F200054200D40CF
:102FF000064A136823F002031360536823F00203A8
:103000005360936823F002039360704748200D409B
:103010000B4B1A689207FCD41B685B065FBFED225E
:10302000084B1A601A60084B1B6813B1EF22054B5E
:103030001A60064A0120137803F07F03137070476B
:103040004C860840388808402C860840FB0C00203D
:10305000044B186800F02200A0F1200358425841A8
:10306000704700BF4C860840024B186800F04000D3
:10307000704700BF4C860840044B1A6818B142F0F4
:1030800001021A60704722F00102FAE70086084048
:10309000204B1870002832D01F4A13681B03FCD540
:1030A0001E4B1A6842F002021A601A6842F00102CE
:1030B0001A601A685007FCD51A6822F001021A60DB
:1030C0001A685107FCD41A6842F002021A601A68A2
:1030D00042F001021A601A685207FCD5104A1368C0
:1030E00023F004031360D2F8A83123F00403C2F8DC
:1030F000A8314FF400520B4BC3F890207047084A98
:10310000136843F0040313604FF40052054B1A6137
:10311000704700BFFA0C002004200D4004880840CE
:103120008C86084000E100E0084B93F90020002A5B
:1031300009DBED21064A11601160E32111601A7864
:1031400062F07F021A700120704700BFFB0C002064
:1031500038880840A0F10B01CBB20F2B10B5044604
:1031600013D80B4B1B6813F03F0302D0FFF750FF3F
:10317000012301EB8101074A0B3111600BB1FFF70D
:10318000D3FF054B60B21C7010BD4FF0FF30FBE762
:10319000488608403C860840F600002010B50C46E2
:1031A000002900F08680102800F28580DFE800F01A
:1031B00009101B22243B44575C727683837B7D5429
:1031C0007F003E4B1B68003318BF0123236024E0BF
:1031D00005223B4B1B6803F07F030B3B93FBF2F391
:1031E0000B33DBB2F2E7374B1A68043B1B6843EA48
:1031F0000223EBE7344BF7E700230B60334B344AF1
:103200001B6803F001030B601268900644BF43F093
:1032100002030B602F4B1B780BB900200BE00B68EF
:1032200043F00403D2E700202B4B08601B78002BEF
:10323000F3D001230B6010BD284B29491A680023E5
:10324000D2B201EBC3000079904202D851F833307A
:10325000BCE701330E2BF4D16FF01703B6E7214B17
:103260001B685BB2493BB1E71F4B1B6899060FD146
:10327000FFF75AFF01231D490A68D207FCD51C4AF3
:103280001168493949B20BB1FFF7C2FE2160C4E7AA
:103290000023F0E7174B93F9003097E7164B1B78A4
:1032A00003F07F0392E70B2390E71A238EE70723AF
:1032B0008CE70220BFE70120BDE700BF2C86084055
:1032C0003C860840CC850840D485084000860840EC
:1032D00024860840FA0C0020F700002040860840B1
:1032E000A878200058860840488608406486084030
:1032F00060860840FC0C0020F90C002008B50B4B40
:103300001B6899060FD1FFF70FFF012308490A68D0
:10331000D207FCD5074A1168C1F300110BB1FFF7C2
:1033200077FE084608BD0023F0E700BF4886084046
:10333000648608404C86084008B507285BD8DFE85B
:1033400000F0040F1A21253B4155012903D1FFF755
:10335000EBFE002035E000294FD1FFF759FEF8E7DA
:10336000A1F10B030F2B48D8C8B2FFF7F3FE0130D1
:10337000EFD1032025E089B2214BCAB2090A1A60B5
:103380005960E6E789B2CAB21E4BF7E731F007038E
:1033900033D101F00100FFF76FFE1B4B11F0020F5C
:1033A0001A68C1F3800014BF42F0200222F020020C
:1033B0001A60FFF76DFECCE731F001001DD1134B11
:1033C000197008BD01F118031F2B16D80D23104AE0
:1033D00052F83300814205DC02EBC3031A790D4B2E
:1033E0001A60B6E713F1FF33F2D2B2E7C9B20A4B63
:1033F00049311960ADE70120E3E70220E1E700BFB2
:10340000C8850840D085084024860840F700002081
:10341000A8782000408608405886084038B5054600
:103420000C46134A13689B07FCD4124B93F90030E7
:10343000002B01DBFFF778FEEE220F4B691E1A60AE
:103440001A60A21C43F8102C2144022000F074FAE8
:103450000A49013C41EA0411022000F07FFA0220EF
:1034600000F086FA022000F09BFA002038BD00BF71
:103470004C860840FB0C00203888084002C001C080
:10348000F8B5224B93F90030002B18DBFFF7BCFA9C
:103490000446FFF749FEC4F1FF2404F57F04F63427
:1034A000FFF7B2FAC442FBD40126194B1B7843B98B
:1034B000184C2368990609D502210846F8BD002654
:1034C000F3E7FFF71BFF0028F2D1F5E7E923042714
:1034D000114D2B6023689A0703D4013F17F0FF07B3
:1034E0000BD123689B070CD4EE2301212B602B60AA
:1034F000002EE2D0FFF78CFDDFE70620FFF760FA31
:10350000E8E7216811F00201FBD1F1E7FB0C002094
:10351000F70000204C860840388808400B280DD161
:10352000082A0DD161B1074B074A083111F8010D86
:1035300043F8040B9342F9D10020704701207047F3
:1035400002207047A8850840C885084070B5304EF5
:10355000336813F0400358D02E4D2C68230605D550
:10356000ED2200202C4B1A601A6070BDE4B2042CCE
:10357000F6D9023C8C42F3DCE4B2032C1ED12B685A
:1035800003702B6843702B6883702968234B49397B
:1035900049B219702B68224D18062B70E0D589B2FC
:1035A000042001F09FFD2978032001F07F0101F044
:1035B00099FD1C4B1B78CBB12046D6E70119013988
:1035C000032000F0C1F9184B611E43EA01110320EA
:1035D00000F0C4F9032000F0CBF9032000F0E0F97B
:1035E000032000F0E9F90028FAD1CEE733685A0643
:1035F000E2D533681B0603D50C4801F007F9DBE779
:10360000ED22054B1A601A60D6E71846ADE700BFF9
:103610004C8608402888084038880840FC0C002068
:10362000F90C0020FA0C002002C0010C5000002010
:10363000F8B5294F3D7815F001054BD10124F8224A
:10364000264B7F261C605C609C60A3F59323A3F54A
:1036500014731A600922C3F89021152270331A607E
:103660000B2203F59B2303F59E731A604022A3F5FA
:103670009B23A3F5F0731A601A6842F020021A60C7
:10368000D52243F81C5CDE62DA61154B1878FFF72F
:1036900061FD4FF48042134B02201E60124B1A61F1
:1036A00000F072F91149022000F04EF9032000F0F9
:1036B0006BF90E49032000F03FF90D4B1878FFF726
:1036C000E7FC0C48294601F089F820463B78234363
:1036D0003B70F8BD0020FCE7FB0C0020A8200D404B
:1036E000F60000209486084000E100E028880840A9
:1036F000FA0C00205000002038B50388044653B36C
:1037000040F20342934233D11B4B18781A4638BB20
:10371000822923D1137873B901F096FC01F022FCC1
:103720008021FFF713FF002805DD80B201F0DAFBEE
:10373000124B1B699847124B1A7852060BD5002280
:103740001A70104B1D68FFF763FCFFF771FFAB06A3
:1037500001D0FFF7E9FC40F20343238001200AE097
:103760001B78002BFAD0064B1B785806F6D5CFE70E
:1037700000230380032038BDFA0C00208879200044
:10378000FB0C0020488608400B282DE9F0470C462A
:103790000FD1082A79D1002977D03D4B3D4A4C1EE4
:1037A00053F80419934204F8011FF9D10020BDE831
:1037B000F0870C2867D1042A67D1002965D0364BE1
:1037C00036491A68DFF8E48022F007021A600A68B6
:1037D000334F42F008020A60D8F800003A681D68CA
:1037E000DFF8CCE025F07005DFF8C8C01D60DEF81A
:1037F0000050DCF80060C0B2120240EA066092B2EB
:1038000002434FEA0549274809F47F09D0F800A090
:1038100042EA09061A685FFA8AF522F0070242F0C6
:1038200001021A600A6842F008020A60D8F8002013
:103830003F68196821F0700141F010011960DEF84D
:103840000010DCF800C0D3B23A0243EA0C6392B233
:1038500013430A04016802F47F0243EA02085FFA94
:1038600081F9FFF7D1F8B6EB080165EB0905ED0327
:1038700007460D4AC803002345EA514102F0BEFF46
:10388000381A206092E7012091E702208FE700BFFD
:10389000C4850840A4850840108808400488084072
:1038A000188808401C8808400048E801148808402F
:1038B000248808402088084008B5054B1B7813B9B8
:1038C000044800F0A3FF0022034B1A6008BD00BFAC
:1038D000FA0C00205000002034880840064B0748AE
:1038E0001A68042A1FBF06490A7842F040020A708B
:1038F00000221A6000F08ABF2C8808405000002087
:10390000FB0C002008B5094B40220021184603F0AB
:103910009FF90121064A074B116050604FF4804225
:103920005A604FF400425A6008BD00BF00000020FA
:1039300004F00F4000E100E003289EBF014B0001AE
:10394000195070470000002003289EBF024B03EB74
:1039500000135960704700BF0000002003289EBF7D
:10396000024B03EB00139960704700BF000000207A
:10397000032805D80123034A834011680B431360D1
:10398000704700BF28F00F40032805D80123034AE1
:10399000834011680B431360704700BF20F00F4055
:1039A000032805D80123034A834011680B431360A1
:1039B000704700BF14F00F4003289FBF044B03EB78
:1039C0000013986800F0070088BF0020704700BF10
:1039D000000000204FF0FF32014B1A60704700BF1B
:1039E00004F50F400122014B1A6070474CF00F4064
:1039F000084B19461A68D002FCD4074B1A6822F407
:103A000080321A600A68D203FCD41A6842F4003289
:103A10001A60704704200D4000200D4010B5094C7D
:103A2000226890070DD0084B1A4619684901FCD44A
:103A300013685B01FCD5FEF7D1FFFFF7D9FF002328
:103A4000236010BD58200D4004200D4038B5264B92
:103A50001C6814F03F0414D1244D55F8043B23B1E5
:103A6000984770B10134052CF7D1214D2B7843B123
:103A7000FEF7C4FF0446FEF7C7FF201A092800D945
:103A80000CB930BF27E01B4B1A6822F400321A60D1
:103A9000194A11461068C002FCD41A6842F48032F8
:103AA0001A600B68DB03FCD5FEF7AEFF201A09286D
:103AB00003D8BDE83840FFF79BBF63280F4C0BD9F4
:103AC0002B78022B08D1236000F056FE30B1FFF7AF
:103AD0008FFF0023236038BD0123F4E7FEF78EFF3C
:103AE0000028F4D0CDE700BF48860840CC01002074
:103AF000FD0C002000200D4004200D4058200D40FA
:103B0000074A10B50023144652F8041B814202D024
:103B100011B944F8230010BD0133052BF4D1FAE7A5
:103B2000CC0100200022054B05491A600B6943F0C7
:103B300004030B61034B1A70704700BF58200D40FF
:103B400000ED00E0FD0C00204FF48032064B10B574
:103B5000064CC3F89021C3F89020206818B100F0FB
:103B600055FE0023236010BD00E100E0E0010020CD
:103B700070B5184B1A78431E1AB9174A1278122AD0
:103B80000AD001F52011154A2731914216D011F8BB
:103B9000010903F8010FF8E7114A12784B2AF0D116
:103BA0004C0804F520120D4D2732AA4207D10023FC
:103BB00001F5201120442731A34205DB70BD12F826
:103BC000016903F8016FF0E7CA1A1278013300F8AF
:103BD000012BF1E72B0028002A00280027002800ED
:103BE000290028000FB407B504AA52F8041B0448A2
:103BF000019200F021F803B05DF804EB04B07047C7
:103C00006000002070B505460C460A4E102C07D8FF
:103C100074B12B68224668680649BDE870401847B1
:103C20002B68102231466868984710B9103CEDE7C0
:103C3000204670BD537B20002DE9F04F804615468D
:103C400000268FB00791079B1B78002B00F0528352
:103C5000079B1A781C460133002A00F03A83252A74
:103C6000F7D1079B9C4205D036E323783E44002BD6
:103C700000F040836378621C002B00F03B8300243B
:103C8000104610F8011B13462B2916D00AD82029FC
:103C900016D0232917D0A1F13107082F3FD84FF0B4
:103CA000000A18E02D2904D03029F4D144F0100482
:103CB00001E044F001040246E2E744F00604FAE7BA
:103CC00044F00204F7E744F00804F4E70A2303FB96
:103CD0000A1AAAF1300A134612F8011BA1F13000AA
:103CE0000928F3D91A782E2A35D159785A1CA1F10E
:103CF0003000092828D8002711781346A1F1300098
:103D0000092802F101021AD91A786C2A40F0908031
:103D10005A786C2A22D144F08004023321E02A2907
:103D20000AD1D5F800A00346BAF1000F05F1040549
:103D3000B8BF44F00104D5E74FF0000AD2E70A23E8
:103D400003FB0717303FD7E72A2903D12F68023337
:103D50000435D9E713464FF0FF37D5E7013344F078
:103D600060041A78642A00F0908000F28380462A6A
:103D700000F0AD806FD8252A00F0BE8064D8002AFC
:103D800000F0B8820133079304F4E063B3F5806F69
:103D900000F0578200F2B380B3F5807F00F0EC8032
:103DA000B3F5407F7FF44FAF8F4B14F4804F8F4AB1
:103DB00008BF1A460DF1330300211F462868043559
:103DC00050EA010C40F07282FF1A04BF302203F85F
:103DD000012C4FF0780208BF03F1FF3303F8012CE8
:103DE0004FF0300208BF012703F8022C23220337CB
:103DF000BA458CBFAAEB070A4FF0000A14F0010481
:103E0000A3F1030903F8032C06D151464046FFF7FE
:103E1000F9FE002840F06C82D8F800303A46494656
:103E2000D8F804009847002840F062823E4433E20C
:103E3000682A96D15A78682A02D144F020046CE7A7
:103E4000013344F040048CE7412A4CD0452A99D1F3
:103E500044F4424496E7582A33D004D8472A91D1F3
:103E600044F4A1348EE7612A3AD0632A8AD144F41B
:103E7000A06487E76E2A3CD00AD8662A24D029D3CA
:103E8000672A2AD0692A7FF47DAF44F4245479E765
:103E9000732A2BD007D86F2A10D0702A7FF472AF04
:103EA00044F440746EE7752A05D0782A7FF46AAF2F
:103EB00044F4C85466E744F4106463E744F4885457
:103EC00060E744F4B2445DE744F400745AE744F414
:103ED000844457E744F4024454E744F4813451E7FE
:103EE00044F4C1344EE744F4E1344BE744F48064D5
:103EF00048E744F4E06445E744F4C06442E7B3F5BE
:103F0000C06F2DD0B3F5E06F00F0DF81B3F5A06F87
:103F10007FF499AEBAF1010F38BF4FF0010A2B6858
:103F200014F0010405F104058DF820300AF1FF3783
:103F300007D139464046FFF765FE002840F0D8819A
:103F40003E44D8F80030012208A9D8F80400984768
:103F5000002840F0CD81002C00F0A1813946E0E03E
:103F6000D8F8003001222249D8F8040098470028E8
:103F700040F0BE81013666E6002FACBF24F010048D
:103F8000012714F4005204F0E003069232D0402BD3
:103F900023D008D823B3202B0FD000220023CDE953
:103FA0000023002317E0602B1AD0802BF5D10735B2
:103FB00025F00705F5E8022303E095F90020D31763
:103FC0000435002A73F10001E9DA524263EB43033E
:103FD000CDE90023012303931DE0B5F90020EEE7AE
:103FE0002A680435D317ECE7847B2000737B20001C
:103FF000A67B2000402B00F0AF8000F29980002BC0
:1040000000F0AC80202B00F0A080069B00220393E0
:104010000023CDE9002304F4C053B3F5805F00F022
:10402000D480B3F5C05F00F0D580B3F5006F00F029
:10403000B68000230DF1360B0493049B41F2080275
:104040009F4288BFFF1A41F6080304EA030198BFA4
:10405000002791421A4602D1002F08BF0127049B76
:10406000914203EB070040F0CF80DDE900231343CA
:1040700000F0CA80A14914F4804FA14B4FF002090F
:1040800018BF0B46069A72B1039A002A40F0C0800E
:1040900004F00602022A00F0BF80062A994A04BFF3
:1040A0004FF00109134609EB000292458CBFAAEBC1
:1040B000020A4FF0000A14F00102009204D1E10656
:1040C00040F1AE8057449246B9F1000F09D0D8F8BC
:1040D00000404A461946D8F80400A047002840F09E
:1040E00007813C46049B1E44102CD8E9003000F2A6
:1040F000A1802CB1224684499847002840F0F880DE
:10410000D8F80030049A5946D8F804004E4498472D
:10411000002840F0ED80009B3E44002B00F0BF8063
:1041200051464046FFF76EFD002800F0B880DFE002
:10413000602B13D0802B7FF468AF073525F007057F
:10414000F5E80223CDE9002304E02A780023CDE935
:1041500000230435069B3EE72A88F7E72B680022F8
:1041600019460435CDE90012F4E7DDE904010A221D
:10417000002302F043FBDDE9040130320BF8012D8E
:1041800000230A2202F03AFBCDE90401DDE9042311
:104190001343EAD10DF13603A3EB0B034CE7DDE942
:1041A00000230DF1360BCDE90423EFE702F0070100
:1041B00030310BF8011DD10841EA4371D8080A4695
:1041C000034652EA0301F1D1E4E7DDE900230DF1F2
:1041D000360BF6E74D4B14F4804F0DF1360B4C497E
:1041E00008BF1946DDE9002352EA0300D2D002F0ED
:1041F0000F00085C4FEA131C0BF8010D100940EA90
:10420000037002466346EFE74FF000094B4639E77B
:104210004FF001093F4B46E74FF001093E4B42E7A3
:10422000514640460393FFF7EDFC039B00283FF403
:104230004BAF5DE0102234499847002858D1103C1C
:1042400052E7D5F800B00435BBF1000F29D05B462A
:10425000994699F800200133002AF9D1A9EB0B09FE
:10426000002F02DBB94528BFB946CA458CBFAAEB6F
:10427000090A4FF0000A14F0010404D151464046E7
:10428000FFF7C0FCA0BBD8F800304A465946D8F822
:104290000400984760BB4E44002C7FF441AF564465
:1042A000D1E4DFF878B04FF00609D9E700F00F0C41
:1042B00012F80CC04FEA111E03F801CD4FEA101C92
:1042C0004CEA017C604671467AE52B6804351E6035
:1042D000B9E4079B9C420DD0079B0799E71A3A4621
:1042E000D8F80030D8F80400984700283FF4BDAC57
:1042F0004FF0FF3630460FB0BDE8F08F957B2000C1
:10430000987B20009B7B2000637B2000847B200027
:10431000737B20009D7B2000437A20009F7B200040
:10432000F8B5038806461546CBB14A2B2BD1882910
:104330001FD1174802F0F8FD0446C4B1231D9D4269
:104340001FD12146124802F0F9FD124D62692F6813
:104350002A60A2690AB1E06990472F6007E00C4823
:1043600002F0E2FD044634B901220B4B1A704A23D5
:10437000338001200AE0A168201D02F0ACFD246812
:10438000F1E72468D9E7002303800320F8BD00BFCC
:10439000E401002070030020FE0C002010B5002472
:1043A000054B06481C7002F0BCFD2146BDE81040DC
:1043B000034800F013BA00BFFE0C0020E401002007
:1043C0006800002070B50446E3610B4B049D1B7828
:1043D000C4E905526BB1094D094B2E68201D2B60B5
:1043E00002F079FD2E602146BDE87040054802F0DC
:1043F000B8BDA160F7E700BFFE0C002070030020ED
:1044000068000020E401002013B5034C24680094E8
:10441000FFF7D8FF02B010BD7003002010B5084BA5
:1044200004461B7843B1043000F0B4F82146BDE8DF
:104430001040044802F082BDC0E90333F6E700BF34
:10444000FE0C0020E401002010B50E4C236813B9C7
:104450000D4A136010BDFEF7A9FA2168D1E90023C7
:1044600013448A681B1A1AB91844074B1860F1E7FD
:10447000D2E900142144091A8B4228BF0B469268E6
:10448000F1E700BFEC010020E8010020014800F046
:10449000BDB900BF780000202DE9F8430388054628
:1044A00053B1592B47D1872920D1002024490B68CB
:1044B00063B918B10B6001E0214A13605923012050
:1044C0002B80BDE8F88301203346F1E7D3E902648D
:1044D0009442F8D000B10B6099680029EED0C8680A
:1044E00090420ABF89680B469960F5E78229E5D1B9
:1044F000134F4FF00009B84600263C68002CDDD071
:10450000204602F000FD98B122468821E06800F0C4
:104510003DF958B9E060A3682EB1B360C4F80890C3
:10452000FFF792FFE8E7C8F80030F7E7FFF7AEFFC4
:104530002646A468E2E7002303800320C1E700BF0A
:10454000EC01002010B50446FFF7A0FFE3680B4A1A
:104550000BB1136833B90A4B1B68E360136814602E
:10456000A36004E0A34206D1054A1268DA60BDE800
:104570001040FFF769BF9B68ECE700BFEC0100202B
:1045800070030020024B1868003018BF01207047EC
:10459000EC01002010B50B4A04461368834208D191
:1045A00083681360FFF750FF0023C4E9023310BD96
:1045B0001346002BF8D09A68A242F9D1A2689A60FB
:1045C000F0E700BFEC01002038B5836804460D46D3
:1045D0009BB10A4804600220A07304F10C009847C4
:1045E0000238012801D9832D05D121462046BDE896
:1045F000384000F005B80123A37338BD70030020D4
:104600002DE9F8431C4F04463D6889462B46A342DA
:1046100004D00BB9BDE8F8831B68F8E7002CF9D08B
:10462000164EA37BD6F8008063B10023A3738DB927
:10463000A3683BB14C4505D034602A46832104F180
:104640000C0098473B68A3420ED123683B60C6F834
:104650000080DFE7A54204D022468721284602F0E9
:1046600043FC2D68E3E71346002BF0D01A68A24202
:10467000F9D122681A60EAE7740300207003002071
:10468000002238B50125084B1A70084B1C6804B984
:1046900038BDE37B2BB1E581002282212046FFF764
:1046A00093FF2468F3E700BF020D0020740300208D
:1046B000024B1878421C1A70704700BF000D002092
:1046C0008A22064B1A700023054A1370054A13709C
:1046D000054A1360054A1360704700BF000D0020B3
:1046E000FF0C0020010D0020740300207003002047
:1046F0002DE9F0411B4D2B780BB1FFF7C1FF1A4C90
:1047000022789AB10C21194E194F3378013A594346
:104710000133781803F01F0317F801803370D0E9D4
:104720000170227090B9134B1E6826B92B7820783F
:104730001844BDE8F0812B780BB1FFF7A1FF30469C
:104740003A46414602F0D0FB3668EEE7B8F1810FF9
:1047500008BF01233A4608BF8373414602F0C4FBF9
:10476000E4E700BF020D0020010D0020FF0C002037
:10477000F001002074030020024A034B10781B78DC
:1047800018447047010D0020020D0020F0B50B4EBB
:104790003378202B0FD00C25094C0A4F24781C4469
:1047A00004F01F046C433D19C5E9012000200133CA
:1047B00039553370F0BD0120FCE700BF010D00202A
:1047C000FF0C0020F001002038B5034C256802F0F2
:1047D0008BFB256038BD00BF7003002030B40A4C4D
:1047E0000A4625682B4683420CD04BB950B10121B3
:1047F0000560817320608381812130BCFFF7E4BFB5
:104800001B68F0E730BC70477403002038B1837B2D
:10481000013B012B9FBF0123014AC37313707047F3
:10482000020D0020024610B5064853600468029B42
:1048300011609360026014B90846FEF7F7F8002093
:1048400010BD00BF7803002010B5084C206858B197
:1048500000232360D0E901319847236823B1BDE8E4
:1048600010401868FEF7E2B810BD00BF78030020C2
:1048700070B505880446672D09D0792D2FD0002DFD
:1048800033D1FFF715FF1B4B18701B4B1D601B4EE0
:10489000194D08E00A282B680ED07E2B03DC5A1C29
:1048A0002A60174AD054304602F0DCFB431CF1D199
:1048B0006723238001201BE05A1C2A600025104A30
:1048C0002846D5540B4B1978FFF760FF0D4B2A464D
:1048D00085211868FFF75AFF18B97923E9E7852978
:1048E000E8D10022044B1A60D1E7002303800320A3
:1048F00070BD00BF770E00207C03002080030020E5
:10490000030D0020700300200D2810B5014616D0BD
:104910000C4C237853B90C4802F091FB08B90123E1
:1049200023700A48FFF772FF012010BD0A28F8D152
:10493000054802F084FB0028F3D00023F0E70020B4
:10494000F3E700BF830D00208003002088000020D3
:1049500008B505490548802202F06AFBBDE8084019
:1049600000210348FFF73ABF840D00208003002098
:10497000880000202DE9F04104880646772C20D0DD
:104980007E2C3DD0002C4ED1FFF792FE284D294BB6
:10499000294FDFF8B08018702C602B6857F823205F
:1049A0002AB9264A13707723338001203EE008F8A5
:1049B000034093680021802098472B6801332B60C7
:1049C000EBE700231E4A1360194A1360184B1B4A79
:1049D0001B6812789A4204DC194B1B68002BF0D13B
:1049E000E1E7184AD256002A19DA134A002052F891
:1049F0002320104B1978FFF7C9FE28B97E23D3E78F
:104A00000C4B1B788B42D0D1094B0E491A688B5C3A
:104A100003F07F038B540A4A136801331360044A7E
:104A200013680133D1E7002303800320BDE8F08140
:104A30008C030020780E002040000020040E00208F
:104A400088030020730E002010B40A4B0A4A19781C
:104A500000238B4203DA52F8044BA04208D10749E5
:104A60000748CA5C62F07F02CA5410BCFFF7CEBE92
:104A70000133EEE7040E002040000020730E0020FA
:104A800098000020064A136843F004031360054BA6
:104A9000186804331B6840EA032080B2704700BFE7
:104AA00000700D4014700D4010B5174A136823F0C4
:104AB0000C0313600122154B1A601A68012AFCD1FD
:104AC0000822134B13491A60E32203F505731A6099
:104AD0001A460B68DB07FCD50F4C10210023206819
:104AE000013900F0010043EA00034FEA43039BB29F
:104AF000F5D1002BF1D00949180A03F0FE03086034
:104B00000B60EF23136010BD00700D40A8200D4016
:104B100024860840648608409C86084014700D4036
:104B200010B50478437843EA042303FA01F1044BF7
:104B3000985CC2F1080200EA21201041C0B210BD09
:104B4000D97B2000F8B506460A480D46174602F004
:104B5000EBF9044630B93A4629463046BDE8F840FC
:104B600002F0F8BBA3680BB128469847204602F034
:104B700014FAEEE79003002038B500F0EDF8054692
:104B8000094802F0D1F9044628B95DB12846BDE8CC
:104B9000384002F0DABB636803B19847204602F060
:104BA000FCF9F0E738BD00BF9003002010B50446C3
:104BB00000F0E0F838B100F0B1F9034B03482146AA
:104BC0009B689847012010BDB4792000454B200018
:104BD00070B50B4C0023616E0A4A04F13800FFF7F0
:104BE00013FCFFF74FFF616E0023B0FBF1F5064A9F
:104BF00005FB110104F11800BDE87040FFF704BC8B
:104C0000940300200D4C2000254C2000044B5A6ECC
:104C1000196E5200914294BF59665A66FFF7D8BF89
:104C20009403002010B500F00FFA00F09BF9002368
:104C30000380044600F0C0F82288930008B1017B8D
:104C400051B9981C80B200F04DF9238873B1BDE8CA
:104C50001040074800F072B8818823445980C18809
:104C600001329980228002F098F9E5E710BD00BF7B
:104C7000940300209DF80030012B04D1024B9A6D63
:104C80005A66FFF7A5BF704794030020F8B50F469A
:104C900016461D46064C0146064A204600F03CF8E2
:104CA000C4E9167625660448BDE8F84000F07EB8F1
:104CB0009403002050792000754C200070B5054603
:104CC0000C46164600F010F82E612046BDE87040F4
:104CD000014902F044BB00BFE77B2000014802F01D
:104CE00020B900BF0004002081800146014802F085
:104CF00038B900BF0004002010B50446054802F092
:104D000013F900B910BD8388A342FBD002F045F926
:104D1000F7E700BF0004002070B505460C461646B4
:104D2000044AFFF7CBFF6E612046BDE870400249A0
:104D300002F015BB58792000E97B200010B504462D
:104D400004491A2000F0DCF92046BDE8104002F0CA
:104D5000FABA00BF700E0020054B10B51B689847CB
:104D6000044618B18188012000F0BCF9204610BD2E
:104D70003879200038B5064B05465B6898470446ED
:104D8000A988012000F0AEF9201C18BF012038BD11
:104D900038792000014B9B68184700BF3879200004
:104DA000014802F0BEB800BF04040020014B1860A7
:104DB000704700BF08040020014802F0B5B800BFEA
:104DC000040400202DE9F04106460C480C46174625
:104DD00002F0AAF808B9BDE8F0818388A34209D19E
:104DE0008568002DF7D03B4622463146AC46BDE8EB
:104DF000F041604702F0D1F8ECE700BF0404002066
:104E000008B5044802F0CCF8BDE80840024802F0BA
:104E1000C7B800BFB4000020A800002038B50E4875
:104E200002F0CEF8054650B10C4802F0C9F804462D
:104E3000286030B92946084802F0D6F825462846A9
:104E400038BD00F097F804F1B601A4F8800004F131
:104E5000820000F01FF9F2E7A8000020B400002053
:104E600010B501460446074802F0D4F848B121685D
:104E7000054802F0B9F82146BDE81040014802F0AB
:104E8000B3B810BDA8000020B400002010B5014642
:104E90000446094802F0BEF868B12468B4F88010EE
:104EA000204600F0E1F804F1B60104F18200BDE80B
:104EB000104000F003B910BDA800002010B507494C
:104EC0000B88834208DB064C80B222880244181A01
:104ED00008800120228010BD0020FCE7E80C0020A3
:104EE000EA0C0020014B1880704700BFE80C00203E
:104EF000004870472C040020014B1888704700BF01
:104F0000E80C0020034A044B10781B781844C0B208
:104F1000704700BF150E0020EA0C00202DE9F0417B
:104F20000C4F3A8872B100240B4B0C4EB3F8008042
:104F30000B4B1D78354421B2414504F1010403DBDC
:104F400000233B80BDE8F081FFF7DCFF3044435C89
:104F50006B54F0E7EA0C0020E80C00202C04002041
:104F6000150E002008B5FFF7CDFF014B184408BD12
:104F70002C040020F8B50C4B05461E780B4B1F88FF
:104F8000F419802C0DDC3246094901F0EBFDFFF7E6
:104F9000E9FF354401463A46284601F0E3FD204644
:104FA000F8BD0024FBE700BF150E0020E80C002030
:104FB0002C04002008B5FFF7A5FF024B1B881844FE
:104FC00080B208BDE80C002010B50146FFF7F2FFE3
:104FD0004318802B12DC0138094B00B203444A1CF1
:104FE000002805DA074B187808441870012010BD16
:104FF00013F8014901389C5400B2F1E70020F6E7AC
:105000002C040020150E002038B50C4D0C4C342219
:1050100000210C4801F01CFE2946204602F0F8F958
:105020002946A01C02F0F4F92946201D02F0F0F9EF
:105030002946A01DBDE8384002F0EAB9D479200025
:10504000340E00203C0E00200023044A1380044A42
:105050001380044A1370FFF7D7BF00BFEA0C00208B
:10506000E80C0020150E002038B50C460546FFF769
:10507000EBFF802C28BF802429462246034801F0FC
:1050800071FD034B20461C8038BD00BF2C0400205E
:10509000E80C002010B5074B03F1340253F8044B21
:1050A000934240F8044BF9D1034A13680B605368EC
:1050B0004B6010BD3C0E0020340E002010B5074B95
:1050C00000F1340250F8044B904243F8044BF9D1FC
:1050D0000B68034A13604B68536010BD3C0E002000
:1050E000340E0020024B23F810100120704700BF3F
:1050F0003C0E0020014B33F8100070473C0E00209E
:1051000008B5044B1A3803EB400002F081F9012086
:1051100008BD00BF340E0020024B1A3803EB4000DC
:10512000704700BF340E00200149024802F073B9F5
:10513000D4792000360E0020084B10B51B68984724
:10514000074B5B689847074B5B689847064B5B6863
:105150009847BDE81040054B5B6818477078200001
:1051600088792000B47920006C79200044792000EF
:10517000F8B5FDF71BFC114E0546002437461A20F2
:10518000FFF7CAFF314602F046F980B10A20FFF767
:10519000B1FF0C2303FB0474237A83420CD16068B3
:1051A000281AB0F5206F8CBF00200120F8BD013413
:1051B000102C06F10C06E2D10020F7E7AC04002029
:1051C00070B5184D00242E461A20FFF7A5FF29467A
:1051D00002F021F9013418B9102C05F10C05F3D1B6
:1051E0000C23621E03FB0464A4F10C057AB90A20A7
:1051F000FFF780FF3072FDF7D9FB70601A20FFF7D0
:105200008BFFBDE870400146064802F001B92B460D
:1052100054F8180D013A616803C3A0682C46186061
:10522000E2E700BFAC04002030B591B0054600F0C5
:105230004DFA4FF6FF73984204D14FF0FF342046E9
:1052400011B030BD40220021684601F001FD404B05
:105250001A782AB901221A70FFF714FC3D4B187016
:105260001420FFF747FF8DF810001320FFF742FFCF
:105270008DF81200FFF758FF0446002848D000239D
:105280008DF813308DF81530002301248DF814307B
:105290008DF818404DB10A20FFF72CFF00283FD0B1
:1052A0000A20FFF727FF8DF81A0002248DF8194015
:1052B00000F00CFAADF81C00FFF736FF00283CD0D8
:1052C0004FF6FF738DF81740ADF8003000F0FEF98F
:1052D000ADF81E001A20FFF71FFF014602A802F0DA
:1052E00097F8FFF73FFE0E90FFF706FE0F90684617
:1052F00002F098F90446002DA1D0FFF765FE0028C2
:105300009BD0FFF7F5FD0146684602F0D3F996E71A
:105310000B20FFF7EFFE8DF815408DF81300B3E773
:105320000C4B1A7802B91C7019780A204A1C1A70A2
:105330008DF81A10FFF7D6FEB7E71B20FFF7ECFE3B
:105340000146684602F064F88DF81740BEE700BFDA
:10535000160E0020170E0020014BDB68184700BF17
:10536000B4792000014B5B69184700BF88792000A1
:10537000014B9B69184700BF88792000024BD86910
:1053800000B10047704700BF8879200070B590F8E1
:1053900029500F4B042D28BF04250124DB69064644
:1053A0009847AC40651E041E08BF01246C4305D01D
:1053B000FFF768FBB0FBF4F303FB1404334621460C
:1053C00006F10800034ABDE87040FFF71DB800BFB2
:1053D00088792000455520002DE9F04107461B2023
:1053E0008846FFF799FE484B05461A78474C22B984
:1053F00001221A70FFF746FB208023880BB9012396
:10540000238021880A204B1C2380FFF76BFE404835
:1054100001F08AFD0446002845D13E4801F0D0FD48
:105420000446002865D02946201D01F0F1FF002325
:1054300004F12C00C4E90B30238501F072FD2146F4
:10544000334801F08EFD206B01F0A0FD072850DCF1
:10545000314801F0B5FD054600283ED02F4801F047
:10546000AFFDA860A8B3FFF7D9FC686068B3092056
:10547000AE68FFF73FFE00BB08233372C6E9007831
:105480000D20FFF737FE01282946206B1AD101F0C5
:1054900075FD206B01F048FD854232D12046BDE804
:1054A000F041FFF773BF2946201D01F0B4FF00282B
:1054B000C9D1204601F071FDACE70920FFF71AFEC3
:1054C0003072DBE701F04DFDE3E7A968134801F016
:1054D0008BFD2946104801F087FD206B01F056FD39
:1054E00038B921460A4801F029FD2146094801F052
:1054F0007BFD41463846BDE8F0410123042202F01D
:1055000053B9BDE8F08100BF180E0020EC0C00205C
:10551000CC050020CC000020D8000020C0000020D6
:1055200008B5054801F03CFD044801F039FDBDE82F
:105530000840034801F034BDD8000020C00000201E
:10554000CC00002013B5044668B1006B01F0ECFC00
:10555000024640B12146054B0548DB68019302B085
:10556000BDE81040184702B010BD00BF8879200088
:10557000F15520002DE9F0470D4614468B68804612
:10558000D3E90067106B92F8289001F0D7FC6868A7
:10559000FFF766FCA968124801F026FD294611486C
:1055A00001F022FD206B01F0BFFC60B1002320461A
:1055B0002385FFF7EBFE4B46424639463046BDE8B1
:1055C000F04702F0F1B804F10800FEF727FF21468A
:1055D000054801F0B3FC2146044801F005FDEAE767
:1055E000C0000020D8000020CC050020CC00002006
:1055F0002DE9F0410E461746044620B1006B01F03C
:1056000093FC054608B9BDE8F0810A21686801F0FD
:10561000F9FE80460A20FFF76DFD804546D02846FA
:1056200001F0BBFCEDE794F8282000203A4484F810
:1056300028202946224684F82900BDE8F041FFF7DA
:1056400099BF002284F8292094F828203A44D2B245
:1056500084F828201B7A93421CD82246294602202F
:10566000EBE794F829203A44D2B2052A84F829209D
:1056700007D9002194F8282084F82910013284F8F1
:10568000282094F828201B7A9A4203D322462946E0
:105690000120D2E72046FFF779FE6868BDE8F041B7
:1056A00001F09CBE224629463046C6E7AB68002B77
:1056B000A9D0032EF6D801A252F826F027562000D2
:1056C000635620004356200007562000014B1888DF
:1056D000704700BFF40000202DE9F041012986B099
:1056E00006460F46144651DD03A902F02AF803AB23
:1056F00003CB1B88206123839DF811306161002B4F
:1057000048D0B51C02AA01A903A801F0E1FE9DF84A
:105710001380B8F1000F50D0029B2BB16A7815F8B6
:10572000023B03EB02239BB2B8F1020FA38335D1F6
:105730003349204601F06CFE6B78237015F8023B6C
:1057400063709DF81580B8F1000F50D0019B002BBD
:105750003AD06A7815F8023B03EB0223029A9BB217
:10576000E38302B9A383B8F1020F30D1244904F1D5
:10577000080001F04DFE6B78237215F8023B63724E
:10578000A81B3B1A8742C4E90E5300DA002006B07A
:10579000BDE8F081B378F51CA376B3E7B8F1030F49
:1057A000CFD105F108021346611E13F8010D9D4289
:1057B00001F8010FF9D11546C3E71149204601F060
:1057C00027FEA4F81C80BCE7A38BE383CBE7B8F1EA
:1057D000030FD5D105F10802134604F1080113F8AF
:1057E000010D9D4201F8010BF9D11546C8E70449A6
:1057F00004F1080001F00CFEA4F81E80C0E700BF11
:10580000D479200013B50024094B1C70094B1C806F
:10581000FDF7FAF8009400F58051074B0122074884
:10582000FFF700F80122064B1A7002B010BD00BF4E
:10583000300E0020EE0C0020115D2000BC06002080
:105840002B0E0020074B82B01B784BB1064B1A7809
:1058500032B901221A70054B1B6A019302B0184736
:1058600002B070472B0E0020300E00207078200010
:10587000094B82B01B786BB1084B1A7852B1084AB9
:10588000127802F0FF012AB91970064B5B6A019386
:1058900002B0184702B070472B0E0020300E0020D7
:1058A0002C0E00207078200008B5FFF7E1FF0022E1
:1058B000014B1A6008BD00BFCC060020044B1B78CA
:1058C00023B9044B1B680BB9FFF7D2BF704700BF69
:1058D000320E0020CC0600200022094B82B01A7044
:1058E000084BC2B21A70084A084B28B101211B6A42
:1058F0001170019302B0184710705B6AF9E700BF9E
:105900002B0E00202C0E0020300E0020707820007E
:1059100037B50B4B1A7802F0FF056AB901241C70E9
:10592000084B1D70FDF770F8009500F58051064B8F
:1059300022460648FEF776FF012003B030BD00BFC7
:105940002B0E00202C0E0020115D2000BC06002034
:1059500037B50B4B05461B780C4673B1FDF754F871
:10596000231A022B4FF0000348BF841C009301222E
:10597000044B21462846FEF755FF03B030BD00BF5B
:105980002B0E0020115D200013B5224C22680AB9AD
:10599000FFF76EFFFFF7B0FA032823D0FFF70AFBEB
:1059A00000B31D4B9B68984700281BDBFFF7A4FA48
:1059B000C0B1FFF7FFFAA8B11B20FFF7ADFB1749F5
:1059C00001F029FD50B11320FFF794FB206058B976
:1059D000FFF74EFF1248FEF721FD0DE0FFF7A4FB95
:1059E0000028F0D102B010BDFFF72CFF00230D4AB4
:1059F00004210B48FEF708FDFFF7BAFB0028F1D1A0
:105A0000FFF7DEFB084BDB68019302B0BDE81040F6
:105A1000184700BFCC060020A8792000700E002097
:105A200098060020A95820006C7920002DE9F04F3D
:105A3000784E8BB0337805903BB9774B1B7823B900
:105A4000052528460BB0BDE8F08FFFF7B3FA002814
:105A5000F6D072491A20FFF753FBFFF765FB80462B
:105A60000C20FFF747FBA8B1FFF7A4FA4FF001099C
:105A70006B4C01906568FFF73BFA0199A847694FA5
:105A8000A36987F800900293984768B100233B70A0
:105A90000125D6E701210B20FFF724FB624B5B6851
:105AA00098470028E0DACBE7E36903939847054677
:105AB0000028EBD1FFF7DCFE337886F80090DBB2EC
:105AC0000493059B7BBB4FF006096FF0030A6FF050
:105AD0000F0BFCF799FF0690FFF7B4FE0698AAEBB0
:105AE00000030693FCF790FF069BC342F9D4636959
:105AF000984748B90190FFF7BBFE01983870FFF74F
:105B0000B7FE049B3370C3E7FFF7B2FEFCF77CFFE0
:105B1000ABEB00030693FCF777FF069BC342F9D477
:105B2000B9F10109D5D1B8F1000F01D1FFF78AFE13
:105B30000A20FFF7DFFA5FFA80FBFDF7E9F8FCF7D0
:105B400063FF8146394B1B1A0693DFF8E4A0AAEBEA
:105B5000090AFCF759FF1AEB000F4BD5FDF7D8F8EF
:105B6000B8F1000F3ED0A36801989847FCF74CFFAE
:105B70006FF00C031B1A0793FCF746FF079BC34209
:105B8000F9D4B8F1000FE4D1029B9847002835D032
:105B9000FCF73AFF6FF01409A9EB0009FCF734FF9A
:105BA00019EB000FFAD42369032109A898470328A9
:105BB0002DD19DF826305B4529D100244FF00109F5
:105BC000FFF756FE049B337000233B70002C7FF4DC
:105BD0005FAFB8F1000F7FF434AF994514BF1D4695
:105BE00002252EE7059B002BBDD0FCF70DFF069B81
:105BF000C342B8D400244FF00009E1E7039B984763
:105C00000028C5D16369984700289ED1C0E70124C8
:105C1000F1E700BF2B0E00202C0E0020700E00209C
:105C200070782000320E0020A8792000DEFDFFFFF2
:105C3000B0EFFFFF2DE9F14F074688461446002AD2
:105C40005DD0304B1E685EB15068FFF71FF901232D
:105C50001A464146384601B0BDE8F04F01F0A4BDF8
:105C60001546DFF8A4A0DFF8A4B0284601F095F9A6
:105C700081466868FFF70AF90C20FFF73BFAE8B99C
:105C8000B9F1000F03D001211320FFF72BFA514681
:105C90001A20FFF735FA01210B20FFF723FADBF872
:105CA00004309847002802DA01230522D1E70121B8
:105CB0000C20FFF717FA686801F096FB4D46002D9F
:105CC000D3D1204601F069F905466068FFF7DEF898
:105CD0001320FFF70FFA81463046FFF7A7FE03288F
:105CE00004460CD0024601234146384601F05CFDD3
:105CF0002CB925B12C460126B9F1000FE1D101B034
:105D0000BDE8F08FCC060020700E0020A87920009E
:105D100040F2B1122DE9F3476D4C054623889342BA
:105D200015D0B3F5D97F04D2002B00F08680002374
:105D300093E040F2E31293422ED040F202229342CB
:105D4000F5D10023634A1370634A137007E0624A77
:105D500013780133DBB2012B137000F282805F4BAA
:105D60001A78002A70D15E4A1268002A6CD11B781A
:105D70000BB9FFF767FD5B4B5B699847002861D162
:105D80000122544B1A70FCF73FFE574B574A1860DC
:105D900000231370564A1370504B564E1B78002B3D
:105DA0007DD13378002B7AD0FCF72EFE6FF4CC72C5
:105DB0004D4B1B68C01A1044002870DA494FDFF8B9
:105DC0002C917B699847B84618B199F800000130CA
:105DD000C0B2474FD8F818A03B7889F800000133CB
:105DE0003B70D047002854D0002389F800303B781E
:105DF000D8F81C800A2B04D9D04710B9C047002816
:105E00004BD0C04700284AD13B4B1B7893B12E683A
:105E1000FCF7FAFD331A13F1120F4FF0000348BFDD
:105E2000811C009358BF06F11401344B012228460F
:105E3000FEF7F8FC40F2E3130FE0FCF7E5FD304B12
:105E400018607EE7FFF73AFDFCF7DEFD00F1100178
:105E50002846FFF77DFD40F2B113238002B0BDE874
:105E6000F0871C4B1B78002B8DD1254E336803F532
:105E700080533360FCF7C8FD3368C3F1A003C3420D
:105E80007FF55FAF31682846FFF762FD40F20223DD
:105E9000E3E799F80030052BA9D9FFF70FFD337818
:105EA000002BE2D00F4EB369984760B1FCF7ACFD10
:105EB0000D4B1B68C01A6FF4CC7318440028D4DB58
:105EC000FFF7FCFCD1E7F36998470028EED1F7E72C
:105ED000EE0C00202E0E00202D0E0020320E002091
:105EE000CC06002070782000C8060020310E00206B
:105EF0002F0E0020300E00202B0E0020115D200000
:105F0000B806002008B5024B1B689847023008BD50
:105F10006079200038B50C4B9B689847041E02DA64
:105F20004FF0FF3038BDFFF71DF803780546002B12
:105F3000F6D10220FEF7C2FF0028F1D06878FEF704
:105F4000D1FFA01CEEE700BF6079200070B50220F1
:105F5000FFF73AF810B94FF0FF3070BDFEF7C8FFF9
:105F6000002505700446FEF7C7FF6070FFF722F8B2
:105F70000446FFF7C7FF20442A2812DCC0F12B009B
:105F8000C4B2FEF7EFFF0646FEF7B6FF22462946EB
:105F9000304400F05DFEFEF7AFFF204480B2FEF714
:105FA000A1FF044B5B689847041ED4DBFEF7B6FFE5
:105FB000A01CD2E760792000014B9B68184700BF06
:105FC0004479200070B504460D4614200121FFF7E6
:105FD00089F8034B29462046BDE870409B68184766
:105FE0006C79200037B502200C46FCF7C3FAFEF7A7
:105FF000B9FF00F07DFE05460420FFF77BF800B2F4
:106000000090EBB2627821780448FDF7EBFD0220A6
:1060100003B0BDE83040FCF7B5BA00BF057C2000F6
:1060200081F0004102E000BF83F0004330B54FEA49
:1060300041044FEA430594EA050F08BF90EA020FB6
:106040001FBF54EA000C55EA020C7FEA645C7FEA49
:10605000655C00F0E2804FEA5454D4EB5555B8BF6C
:106060006D420CDD2C4480EA020281EA030382EADD
:10607000000083EA010180EA020281EA0303362D6F
:1060800088BF30BD11F0004F4FEA01314FF4801C42
:106090004CEA113102D0404261EB410113F0004F54
:1060A0004FEA03334CEA133302D0524263EB43030B
:1060B00094EA050F00F0A780A4F10104D5F1200EA9
:1060C0000DDB02FA0EFC22FA05F2801841F1000104
:1060D00003FA0EF2801843FA05F359410EE0A5F1D8
:1060E00020050EF1200E012A03FA0EFC28BF4CF009
:1060F000020C43FA05F3C01851EBE37101F00045BF
:1061000007D54FF0000EDCF1000C7EEB00006EEBCB
:106110000101B1F5801F1BD3B1F5001F0CD3490855
:106120005FEA30004FEA3C0C04F101044FEA4452AC
:1061300012F5800F80F09A80BCF1004F08BF5FEA33
:10614000500C50F1000041EB045141EA050130BD13
:106150005FEA4C0C404141EB010111F4801FA4F1B6
:106160000104E9D191F0000F04BF01460020B1FA0B
:1061700081F308BF2033A3F10B03B3F120020CDA43
:106180000C3208DD02F1140CC2F10C0201FA0CF021
:1061900021FA02F10CE002F11402D8BFC2F1200C86
:1061A00001FA02F120FA0CFCDCBF41EA0C0190403C
:1061B000E41AA2BF01EB0451294330BD6FEA040485
:1061C0001F3C1CDA0C340EDC04F11404C4F1200270
:1061D00020FA04F001FA02F340EA030021FA04F382
:1061E00045EA030130BDC4F10C04C4F1200220FAD9
:1061F00002F001FA04F340EA0300294630BD21FA17
:1062000004F0294630BD94F0000F83F4801306BFDC
:1062100081F480110134013D4EE77FEA645C18BFD0
:106220007FEA655C29D094EA050F08BF90EA020F67
:1062300005D054EA000C04BF1946104630BD91EA5F
:10624000030F1EBF0021002030BD5FEA545C05D162
:106250004000494128BF41F0004130BD14F58004A1
:106260003CBF01F5801130BD01F0004545F0FE4115
:1062700041F470014FF0000030BD7FEA645C1ABF4A
:10628000194610467FEA655C1CBF0B46024650EA81
:10629000013406BF52EA033591EA030F41F40021AD
:1062A00030BD00BF90F0000F04BF0021704730B533
:1062B0004FF4806404F132044FF000054FF0000108
:1062C00050E700BF90F0000F04BF0021704730B5C9
:1062D0004FF4806404F1320410F0004548BF40429E
:1062E0004FF000013EE700BF42004FEAE2014FEAF3
:1062F00031014FEA02701FBF12F07F4393F07F4FCE
:1063000081F06051704732F07F4208BF704793F0D0
:106310007F4F04BF41F40021704730B54FF46074E3
:1063200001F0004521F000411CE700BF50EA0102E6
:1063300008BF704730B54FF000050AE050EA01028F
:1063400008BF704730B511F0004502D5404261EBFF
:1063500041014FF4806404F132045FEA915C3FF440
:10636000D8AE4FF003025FEADC0C18BF03325FEADD
:10637000DC0C18BF033202EBDC02C2F1200300FA8E
:1063800003FC20FA02F001FA03FE40EA0E0021FAB3
:1063900002F11444BDE600BF70B54FF0FF0C4CF4A1
:1063A000E06C1CEA11541DBF1CEA135594EA0C0F53
:1063B00095EA0C0F00F0DEF82C4481EA030621EA8E
:1063C0004C5123EA4C5350EA013518BF52EA0335C9
:1063D00041F4801143F4801338D0A0FB02CE4FF07B
:1063E0000005E1FB02E506F00042E0FB03E54FF0AB
:1063F0000006E1FB03569CF0000F18BF4EF0010EA3
:10640000A4F1FF04B6F5007F64F5407404D25FEA9E
:106410004E0E6D4146EB060642EAC62141EA555151
:106420004FEAC52040EA5E504FEACE2EB4F1FD0C93
:1064300088BFBCF5E06F1ED8BEF1004F08BF5FEA11
:10644000500E50F1000041EB045170BD06F00046C3
:1064500046EA010140EA020081EA0301B4EB5C0470
:10646000C2BFD4EB0C0541EA045170BD41F4801168
:106470004FF0000E013C00F3AB8014F1360FDEBF8D
:10648000002001F0004170BDC4F10004203C35DA69
:106490000C341BDC04F11404C4F1200500FA05F3EC
:1064A00020FA04F001FA05F240EA020001F000428D
:1064B00021F0004110EBD37021FA04F642EB060103
:1064C0005EEA430E08BF20EAD37070BDC4F10C042D
:1064D000C4F1200500FA04F320FA05F001FA04F2F1
:1064E00040EA020001F0004110EBD37041F10001DD
:1064F0005EEA430E08BF20EAD37070BDC4F12005E8
:1065000000FA05F24EEA020E20FA04F301FA05F24F
:1065100043EA020321FA04F001F0004121FA04F2F7
:1065200020EA020000EBD3705EEA430E08BF20EAC7
:10653000D37070BD94F0000F0FD101F00046400001
:1065400041EB010111F4801F08BF013CF7D041EA83
:10655000060195F0000F18BF704703F00046520087
:1065600043EB030313F4801F08BF013DF7D043EA58
:106570000603704794EA0C0F0CEA135518BF95EA0E
:106580000C0F0CD050EA410618BF52EA4306D1D195
:1065900081EA030101F000414FF0000070BD50EAB4
:1065A000410606BF1046194652EA430619D094EA3E
:1065B0000C0F02D150EA013613D195EA0C0F05D128
:1065C00052EA03361CBF104619460AD181EA03017C
:1065D00001F0004141F0FE4141F470014FF0000034
:1065E00070BD41F0FE4141F4780170BD70B54FF0CF
:1065F000FF0C4CF4E06C1CEA11541DBF1CEA13554F
:1066000094EA0C0F95EA0C0F00F0A7F8A4EB050430
:1066100081EA030E52EA03354FEA013100F0888027
:106620004FEA03334FF0805545EA131343EA1263F0
:106630004FEA022245EA111545EA10654FEA0026A5
:106640000EF000419D4208BF964244F1FD0404F55E
:10665000407402D25B084FEA3202B61A65EB0305BA
:106660005B084FEA32024FF480104FF4002CB6EB77
:10667000020E75EB030E22BFB61A754640EA0C00F7
:106680005B084FEA3202B6EB020E75EB030E22BF37
:10669000B61A754640EA5C005B084FEA3202B6EB78
:1066A000020E75EB030E22BFB61A754640EA9C0037
:1066B0005B084FEA3202B6EB020E75EB030E22BF07
:1066C000B61A754640EADC0055EA060E18D04FEAC5
:1066D000051545EA16754FEA06164FEAC30343EA65
:1066E00052734FEAC2025FEA1C1CC0D111F4801F32
:1066F0000BD141EA00014FF000004FF0004CB6E72B
:1067000011F4801F04BF01430020B4F1FD0C88BFC9
:10671000BCF5E06F3FF6AFAEB5EB030C04BFB6EBD4
:10672000020C5FEA500C50F1000041EB045170BDC7
:106730000EF0004E4EEA113114EB5C04C2BFD4EBF4
:106740000C0541EA045170BD41F480114FF0000E78
:10675000013C90E645EA060E8DE60CEA135594EAF4
:106760000C0F08BF95EA0C0F3FF43BAF94EA0C0FF7
:106770000AD150EA01347FF434AF95EA0C0F7FF46C
:1067800025AF104619462CE795EA0C0F06D152EAC0
:1067900003353FF4FDAE1046194622E750EA4106A4
:1067A00018BF52EA43067FF4C5AE50EA41047FF4B5
:1067B0000DAF52EA43057FF4EBAE12E74A0011D267
:1067C00012F5001211D20DD56FF47873B3EB62524B
:1067D0000ED44FEAC12343F0004343EA505323FA57
:1067E00002F070474FF00000704750EA013002D1CC
:1067F0004FF0FF3070474FF00000704753B94AB96F
:10680000002908BF00281CBF4FF0FF314FF0FF30B8
:1068100000F074B9ADF1080C6DE904CE00F006F893
:10682000DDF804E0DDE9022304B070472DE9F0470C
:106830008C460446089E002B40F086808A4215460E
:1068400048D9B2FA82F24AB1C2F1200701FA02F342
:1068500020FA07F7954047EA030C94404FEA154E9B
:10686000BCFBFEF71FFA85F80EFB17C307FB08F900
:10687000210C41EA0343994509D9EB1807F1FF318F
:1068800080F0E180994540F2DE80023F2B44A3EB8B
:106890000903B3FBFEF00EFB103300FB08F1A4B2BA
:1068A00044EA0344A14209D92C1900F1FF3380F0D6
:1068B000C880A14240F2C58002382C4440EA07401B
:1068C0000027641A1EB10023D440C6E900433946AC
:1068D000BDE8F087002A54D0B2FA82F2002A40F0D4
:1068E000B4800127491B4FEA15481FFA85F9B1FB0F
:1068F000F8FE08FB1E1109FB0EF04FEA144C4CEA9F
:106900000143984207D9EB180EF1FF3102D29842A9
:1069100000F2EB808E461B1AB3FBF8F008FB103335
:1069200009FB00F9A4B244EA0344A14507D92C1994
:1069300000F1FF3302D2A14500F2DB801846A4EB40
:10694000090440EA0E40BDE78B4208D9002E75D0FD
:106950000027C6E9000138463946BDE8F087B3FA9A
:1069600083F77FB98B4202D3824200F2BC80841A43
:1069700061EB030301209C46002EA8D0C6E9004C21
:10698000A5E7FFDEC7F12005BB4022FA05FC4CEA73
:10699000030C21FA05F44FEA1C4EB4FBFEF91FFA72
:1069A0008CF80EFB194420FA05F3B94009FB08FAEC
:1069B00019430B0C43EA0444A24502FA07F200FA19
:1069C00007F30BD91CEB040409F1FF3080F0898038
:1069D000A24540F28680A9F102096444A4EB0A04AE
:1069E000B4FBFEF00EFB104400FB08FA89B241EA4A
:1069F0000444A24508D91CEB040400F1FF316CD219
:106A0000A2456AD90238644440EA0940A0FB0289E1
:106A1000A4EB0A044C454146CE4655D352D0002E35
:106A20006AD05A1A64EB0E0404FA05F522FA07F349
:106A3000FC401D43C6E90054002748E7374630466E
:106A400045E718463AE70F4621E79540C2F1200393
:106A500021FA03F04FEA1548B0FBF8F71FFA85F961
:106A600008FB170E24FA03FC914007FB09FA4CEAD5
:106A70000101080C40EA0E40824504FA02F407D9ED
:106A8000281807F1FF332AD2824528D9023F28442B
:106A9000A0EB0A00B0FBF8FC08FB1C000CFB09F3A0
:106AA00089B241EA00418B4208D969180CF1FF30E4
:106AB00011D28B420FD9ACF1020C2944C91A4CEA0D
:106AC000074714E74345AAD2B8EB020169EB0C0271
:106AD00001389646A3E78446F0E7084694E71F4648
:106AE000D6E781467AE7384646E7AEF1020E2B44F8
:106AF00011E702382C4422E73746E8E6704700BF2A
:106B0000032A70B414D940EA0105AD0704460B46C8
:106B100022D11D6826681946AE42204603F10403BF
:106B200004F1040418D1043A032A20461946F0D887
:106B3000541E72B103780A78934208BF241806D015
:106B40000CE010F8013F11F8012F934206D1A0424A
:106B5000F7D1002070BC7047541EEBE7981A70BC48
:106B6000704700BF844641EA000313F0030349D194
:106B7000403A23D30B6803604B6843608B688360A3
:106B8000CB68C3600B6903614B6943618B698361A7
:106B9000CB69C3610B6A03624B6A43628B6A83628F
:106BA000CB6AC3620B6B03634B6B43638B6B836377
:106BB000CB6BC36340304031403ADBD230320BD331
:106BC0000B6803604B6843608B688360CB68C3606D
:106BD00010301031103AF3D20C3205D351F8043B87
:106BE00040F8043B043AF9D2043208D0D2071CBF63
:106BF00011F8013B00F8013B01D30B88038060468C
:106C0000704700BF082A13D38B07B1D010F00303DD
:106C1000AED0C3F10403D21ADB071CBF11F8013B4D
:106C200000F8013BA4D331F8023B20F8023B9FE778
:106C3000043AD9D3013A11F8013B00F8013BF9D2EB
:106C40000B7803704B7843708B7883706046704785
:106C5000F0B4860746D0541E002A3CD0CAB2034680
:106C600002E014F1FF3436D303F8012B9D07F8D16D
:106C7000032C29D9CDB245EA05250F2C45EA054557
:106C800033D9A4F11006360903F1200707EB0617E4
:106C900003F1100242E9045542E902551032BA42AA
:106CA000F8D1721C14F00C0F03EB021204F00F0663
:106CB00013D0331F23F003030433134442F8045B5F
:106CC0009342FBD106F003042CB1C9B21C4403F873
:106CD000011B9C42FBD1F0BC704734461346002C8C
:106CE000F3D1F8E714460346C2E71A462646E0E722
:106CF00020F0030110F00300C0F1000051F8043B44
:106D000000F1040C4FEACC0C6FF000021CBF22FA19
:106D10000CF213434FF0010C4CEA0C2C4CEA0C4CD7
:106D2000A3EB0C0222EA030212EACC1204BF51F8D0
:106D3000043B0430F4D0C2F1000102EA0102B2FACD
:106D400082F2C2F11F0200EBD2007047FEE708B5E5
:106D5000FBF722FBF7B500240646254627463046BA
:106D6000FBF708FC0197019BAB4215DB3046FBF7B4
:106D700009FCC5F5C8750197019B9D4211DC0134E2
:106D8000B4F5487F01D103B0F0BDB4F5C87FCCBFE6
:106D9000C4F548752546E2E700BF019B0133019326
:106DA000E1E700BF019B01330193E5E70120704754
:106DB000FBF700BDFBF7AABD70470020FBF778BECC
:106DC0000120FBF775BE0020FCF736B80120FCF768
:106DD00033B80220FCF730B80320FCF72DB810B50B
:106DE0000C46FCF71BFB2046BDE81040FCF748BBF7
:106DF00010B50446C1B20020FBF770FF204610BD5D
:106E000070B50E460024451E6B1C02D015F8010F0C
:106E100008B9204670BDB442FBD0FFF7E9FF01344A
:106E2000F2E738B50546002415F8010B20B1FFF74D
:106E3000DFFF0134002DF7D10A20FFF7D9FF2046EC
:106E400038BD002070470120704710B5044630223D
:106E500000210E20FCF748F86CB1012C0CD142F255
:106E600010730011A0F28E5058432A2390FBF3F0C8
:106E700000F5C340283010BD4FF00040FBE7002074
:106E800070470120704710B50446302200210F20C2
:106E9000FCF72AF85CB1012C03BF40F6F2535843CB
:106EA00047F6F0734FF0004008BF90FBF3F010BDC1
:106EB00008B5084612B11146FFF7A2FF002008BD31
:106EC00010B5041F54F8040F00B910BD0021FDF7E0
:106ED00085FCF7E7704710B5044600F00DF8204632
:106EE000BDE81040FDF72EBB837BDB0701D5FDF726
:106EF0006BBB7047FFF760BF10B541600446FBF7FE
:106F000055FD206010BD10B50446FBF74FFD23680A
:106F1000C3F101030344606898422CBF00200120A4
:106F200010BD00230360704700687047006808B90F
:106F3000704718460368002BFBD17047036810B5F3
:106F40003BB1002499421A6806D11CB902600022A4
:106F50001A6010BD2260FAE71C46002AF9D01346D9
:106F6000F0E738B50546FFF7E9FF00230B60FFF7B0
:106F7000DDFF08B9296038BD0160FCE738B504467B
:106F8000FFF7DCFF03680B60216038BD0368002059
:106F900003B9704701301B68FAE700B10068704719
:106FA00010B50446428800214068FFF751FE23884F
:106FB0006288A0685A43BDE810400021FFF748BE30
:106FC000002310B54188994201DC002009E04268A5
:106FD000D418D25C32B9012222700288806803FB87
:106FE000020010BD0133EEE7002330B5826844880B
:106FF0009C4201DCFF2008E08A4207D14168CA5C5C
:107000000AB1013ACA544268D05C30BD05880133E8
:107010002A44EDE782688A4208D84388008800FB4A
:10702000032081422CBF00200120704700207047C0
:107030000023013A0160027143718371704710B5FA
:10704000427983790479D31A34EA030308D00368B8
:10705000995443790279013313404371012010BDE3
:107060000020FCE7837942790179D21A0A421FBFD6
:107070000268D25C01330B401ABF837110464FF097
:10708000FF307047831C0020023313F8042C02B930
:10709000704713F8032C1044F6E7072B2DE9F8434B
:1070A0000746884615461C4607DC1A4629464046D0
:1070B000FDF736FD3870BDE8F883DE107AB918F8B0
:1070C00005307B550135AE42F9DC14F00702F2D0F1
:1070D000002108EB0600FDF723FDB855EBE74FF064
:1070E000000908EB090008222946FDF719FD07F8F9
:1070F000090009F101094E45F3DC14F00702DAD06A
:107100002946E6E72DE9F743FDF72CFF0446022068
:10711000FDF7D4FE20B90025284603B0BDE8F08372
:107120006378207800EB032080B2FDF7E5FD05468B
:107130000028F0D0FDF716FF8046287B10F00703EB
:1071400018BF012303EBD000FDF7B8FE0028E2D002
:107150000026B146AC68023414F8023C002BDBD0A8
:10716000192B14F8017C08EBE60106F007020BD995
:1071700001A83B46FFF791FF01A914F8020CFDF7A7
:10718000BFFF3E440234E7E73B4601A8ADF8049058
:10719000FFF783FF9DF805109DF8043014F8020CEA
:1071A00043EA0121FDF79EFFEBE7072B2DE9F041B4
:1071B0000FDC1478C1F11001CB1A04FA03F3017843
:1071C000C3F307220A43417802700B434370BDE8C2
:1071D000F081DC10C9B9555C45540131A142FADB9C
:1071E00013F00703F3D0125DC3F108052A41C3F180
:1071F0001003055D02FA03F3C3F307222A430119C2
:1072000002554A7813434B70E1E705460026C1F169
:10721000080E975D95F800C007FA0EF7C7F3072828
:107220004CEA080C05F801CB95F800C001364CEA91
:107230000707A6422F70ECDB13F00703C7D0125DDF
:10724000C3F1080631440A41D2B2C3F11003015D13
:1072500002FA03F3C3F307220A43051902556A78B9
:1072600013436B70B3E72DE9F743047B054614F035
:10727000070318BF012303EBD404A01CFDF7A4FEF1
:10728000A8B1FDF735FEAB880370AB881B0A4370CD
:10729000FDF72EFE871C224600213846FFF7D8FC5A
:1072A000AC680025023414F8020C18B9012003B0B0
:1072B000BDE8F083192814F8016C07EBE50805F028
:1072C00007090AD9FDF728FF3346024649464046DA
:1072D000FFF76BFF35440234E5E7FDF70BFF33465C
:1072E000ADF8040001AAF1E710B5FDF789FDFDF73F
:1072F000ABFEFDF755FD00F054F8BDE810404FF42B
:10730000E1234FF4F0524FF400710220FDF7BEBCB0
:107310007047F8B50F46FDF725FE06880446FDF7D1
:10732000EBFDB3000233834203D800250234AE42A2
:1073300000DCF8BD54F8041B38460A0C89B2FDF78E
:1073400041FD0135F3E7FDF731BC03691B6803B16B
:107350001847704703695B6803B11847704738B531
:107360000D46FDF7C9FC044620B185602846FDF7AF
:1073700011FD207338BD43695B6803B1184770473E
:1073800013B504461A20FDF7C7FE014601A800F018
:107390003FF863691B6813B101A92046984702B002
:1073A00010BDFDF79BBC0EF00F000D2808BF00F0CC
:1073B0000EB800982DE9F04F00F1240181F30988FF
:1073C00090E8F08F0EF00F000D2818BF7047EFF314
:1073D000098020E9F04F0990BDE8F08F006800F1C6
:1073E000B6018230FDF756BE10B5046804F1B6014F
:1073F00004F18200FDF74EFE2046FDF7BBFDA4F828
:10740000800010BD036803EB4101B1F882007047B2
:107410000B880380704708B50222FFF771FBB0FAB2
:1074200080F0400908BD30B591B0FDF79BFD0446E2
:10743000FDF762FD6A4601462046FEF74DF9044617
:1074400020B94FF0FF34204611B030BDFDF736FDB6
:107450000028F6D09DF810101420FDF743FE9DF88B
:107460001730ABB1BDF81C50FEF730F9854205D09E
:107470004FF6FF73BDF81C209A42E2D169469DF891
:10748000170000F0C0F818B969461B20FDF738FE58
:1074900002A91A20FDF734FE9DF812101320FDF703
:1074A00021FE9DF8153053B99DF81A100A20FDF7FA
:1074B00019FE9DF81A100E20FDF714FEC3E74FF6D3
:1074C000FF71F3E70120FDF7AFBE0020FDF7ACBE72
:1074D00030B530B3037A022B2CD1C579437A0479C5
:1074E0002DB9002B4AD1012C48D1204615E053EA92
:1074F00004001DD0032D2FD1032B2FD1B4FA84F01B
:107500004009002309E0181C18BF0120002CF8D105
:10751000023B012B8CBF0023012301B10B6002B1A0
:10752000106030BD023B012B8CBF00230123DCE740
:1075300001201BE00378022B22D0037953B9437A50
:1075400013F0030318BF0123C07910F0030018BF24
:107550000120E2E70023F7E7022DD4D0A3F1020CCB
:10756000DCF1000040EB0C00002CCAD1022DCFD082
:10757000032DC6D19C1E63426341CEE7002CD1D0BF
:1075800000200346C9E7002337B50B608B80437D9D
:107590000D46D9075CBF01232B70037E0446012BE7
:1075A0000BD8C37D9A072CD0437E9B0729D0C28B72
:1075B000838B9A4225D10123237501AA694604F1E0
:1075C0001000FFF785FF009B0BB10223EB70019BBE
:1075D0000BB102236B70E37D03F00303022B03D096
:1075E000032B0CBF08230023AB70637E03F003035F
:1075F000022B03D0032B0CBF082300232B7103B0F5
:1076000030BD0023D8E702280CBF022308230B4417
:107610008B4201D10120704713F8012DFF2AF7D0CA
:107620000020704707B56946FFF7ADFF9DF80030B1
:107630009DF80100023303449DF8020003449DF8C5
:10764000030003449DF8040003449DF8050018441A
:1076500003B05DF804FB43788278DB00120102F08E
:10766000100203F008031343027802F007021343E9
:10767000C278520102F0200213430279920102F013
:10768000400213430B704379427A03F0010343EA4B
:1076900082138279520002F002021343C2799200EF
:1076A00002F00C021343027A120102F0300213437B
:1076B0004B70704737B504460D466946FFF763FFC8
:1076C00004F110002946FFF7C6FF9DF80030012B9A
:1076D00002BFA37E0320AB709DF8013018BF0220CB
:1076E000022B08D1A28B431C2A54A28BDBB202309E
:1076F000120AC0B2EA549DF802301844C0B2C21A4D
:10770000D2B2B3B99DF80330022B08D1E28B431CEF
:107710002A54E28BDBB20230120AC0B2EA549DF85E
:10772000043008341844C0B2C21AD2B22BB903B024
:1077300030BD013BE15CA954E1E7013BE15CA954A8
:10774000F2E71FB50C460278437802F007018DF886
:107750000410C2F3C0018DF80510C2F300118DF8BA
:107760000610C2F34011C2F380128DF8082003F016
:1077700001028DF80920C3F340028DF80A20C3F3FB
:1077800081028DF80B20C3F301129B098DF80D3097
:107790008DF80C208DF8071001AB03CB1B882060FF
:1077A0006160238104B010BD30B40D46044611461B
:1077B00020B11A462846234630BC184730BC7047D3
:1077C0001020704770B5044600200D46FEF72EF9D4
:1077D0000328024606D029462046BDE87040012312
:1077E000FFF7E2BF70BD70474C7A2000992520005A
:1077F000D1252000AD6D2000617A20005D2620009B
:10780000B926200000000000010000000100000077
:107810000100000000C0004000410D4000000000D9
:10782000080000002C00000000000001FFFFFFFF27
:10783000050000000200000002000000020000003D
:1078400000D0004008410D40020000000800000088
:107850002C00000002010200FFFFFFFF06000000F5
:10786000FC7A2000007B20000F7B2000137B20008F
:10787000313620001D34200081342000DF6D2000CF
:107880004D352000FD3220005130200069302000AD
:1078900029312000113020009D3120003933200093
:1078A000893720001D35200007000000FF00000080
:1078B00005000000ED00000003000000D5000000FE
:1078C00001000000C500000000000000B60000003C
:1078D000FFFFFFFFB0000000FDFFFFFFA100000061
:1078E000FBFFFFFF91000000F9FFFFFF8800000091
:1078F000F7FFFFFF72000000F5FFFFFF62000000CE
:10790000F3FFFFFF58000000F1FFFFFF42000000FF
:10791000E8FFFFFF000000003A7B20004B6E2000D4
:10792000436E2000476E20004E7B2000876E2000B3
:107930007F6E2000836E200005712000677220009A
:1079400085702000E27B2000E9722000794B200046
:1079500013732000117320008173200077732000BF
:10796000CB742000C574200027742000ED7B20001C
:1079700021552000D9532000595320006553200081
:10798000715320007D532000F27B20000558200019
:10799000C5772000355C200089592000115920004E
:1079A000D9582000C1772000055F20004D5F2000DE
:1079B000155F2000FD7B2000E7772000C55F2000D9
:1079C000B95F2000E400002000000000E55F200017
:1079D000000000000000436F6E74696B692D38640D
:1079E00038633237333135005A6F6C6572746961B0
:1079F0002052452D4D6F7465207265766973696FED
:107A00006E204220706C6174666F726D0052696DF9
:107A10006520636F6E666967757265642077697447
:107A20006820616464726573732000253032783A8F
:107A300000253032780A00204E65743A2000204D2F
:107A400041433A2000205244433A2000414443201D
:107A500073656E736F7220696E74657266616365BB
:107A600000427574746F6E004343323533383A20E8
:107A700049443A2030782530346C782C2072657671
:107A80002E3A20504725642E25642C20466C6173C5
:107A9000683A20256C75204B69422C205352414D89
:107AA0003A20256C75204B69422C204145532F53B9
:107AB00048413A2025752C204543432F5253413AE3
:107AC0002025750A53797374656D20636C6F636B41
:107AD0003A20256C7520487A0A492F4F20636C6F35
